:100000000C949D000C94BA000C94BA000C94BA00A5
:100010000C94BA000C94BA000C94BA000C94BA0078
:100020000C94BA000C94BA000C94BA000C94BA0068
:100030000C94BA000C94BA000C94BA000C94BA0058
:100040000C94BA000C94BA000C94BA000C94BA0048
:100050000C94BA000C94BA000C94BA000C94BA0038
:100060000C94BA000C94BA000C94BA000C94BA0028
:100070000C94BA000C94BA000C94BA000763423690
:10008000B79BD8A71A39685618AEBAAB558C1D3C29
:10009000B7CC5763BD6DEDFD753EF6177231BF00ED
:1000A0000000803F08000000BE922449123EABAA27
:1000B000AA2ABECDCCCC4C3E00000080BEABAAAA82
:1000C000AA3E00000000BF000000803F00000000CA
:1000D00000084178D3BB4387D1133D190E3CC3BD03
:1000E0004282AD2B3E68EC8276BED98FE1A93E4CB0
:1000F00080EFFFBE01C4FF7F3F00000000004E41C3
:100100004E494E495459494E46CDCCCC3D0AD72391
:100110003C17B7D13877CC2B329595E6241FB14FD9
:100120000A000020410000C84200401C4620BCBE1E
:100130004CCA1B0E5AAEC59D740011241FBECFEFD2
:10014000CDBFDFE3DEBF1CE3A0E0BCE3EFE9FAE1F3
:1001500002C005900D92A030B107D9F72CE3A0E0C2
:10016000BCE301C01D92A034B207E1F70E94BA05BA
:100170000C94100D0C940000E0E2F4E08081877F85
:100180008083808184608083E0E0F8E08DE695E004
:100190008087918786818064868386818068868354
:1001A0000895E0E0F8E0948195FFFDCF8093020888
:1001B0000895EF92FF920F931F93CF93DF938C01DB
:1001C0007C01C0E0D0E006C0F70181917F010E9470
:1001D000D1002196F80101900020E9F73197E01B4A
:1001E000F10BCE17DF0780F3DF91CF911F910F91B5
:1001F000FF90EF900895AC0120E030E0E0E0F8E0FF
:100200000DC02F5F3F4F213A8FE0380724F0415057
:10021000510920E030E04115510529F094819923DE
:1002200084F781E0089580E00895E0E0F8E08481BB
:100230008823ECF780910008089584E69AE90E94EB
:10024000D9000895E0E0FAE010A211A266A377A316
:10025000880F8F5F8083EBE0FAE0808180FFFDCF25
:10026000E0E0FAE081E0838710820895E0E0F8E0C2
:1002700084818823ECF7809100088D3011F08A305A
:1002800059F481E090E00E94FB00882321F08091E6
:1002900000088DE008958DE008952F923F924F92CF
:1002A0005F926F927F928F929F92AF92BF92CF9206
:1002B000DF92EF92FF920F931F93CF93DF931C0176
:1002C0002A013B01411551056105704861F52A304D
:1002D00019F02031B9F065C098E3F101908384E30F
:1002E000818326E3228323E323839483858397E317
:1002F0009683878381E3808782E381878DE282878B
:1003000013864FC080E3F1018083818382838383DE
:1003100084838583868388E387838DE28087118643
:10032000128613863EC0E101C1010C96F1011192C3
:10033000E817F907E1F77301620177203CF4CC2458
:10034000DD247601C418D508E608F70800E010E0BF
:10035000822E912CA12CB12CC701B601A5019401CC
:100360000E949D0A68836A3018F4605D688302C049
:10037000695C68830F5F1F4FC701B601A501940137
:100380000E949D0A69017A0121961216130614062D
:10039000150614F377202CF4F101E00FF11F8DE224
:1003A0008083DF91CF911F910F91FF90EF90DF90AD
:1003B000CF90BF90AF909F908F907F906F905F9005
:1003C0004F903F902F9008950F931F93CF93DF93FB
:1003D000FC012081222399F03196C0E0D0E02196E3
:1003E00021912111FCCF209751F08C010C0F1D1F82
:1003F000F80182918F010E94D1002197C9F7DF9106
:10040000CF911F910F910895CF93DF93CDB7DEB7B2
:100410002C97CDBFDEBF282FCE0101960E944D0143
:10042000CE0101960E94E4012C96CDBFDEBFDF9184
:10043000CF9108959B01215031091216130684F4BF
:10044000FC01E60FF71FDC0180E090E04C91529137
:100450005D93408301962150310982179307B4F3CD
:100460000895EF92FF920F931F93CF93DF93EC01C8
:100470008C010996FE011192E817F907E1F7E0E017
:10048000F8E084818823ECF7808190ED980F9A3012
:1004900010F08D32B1F788837E0188E0E80EF11C00
:1004A0000E9436018D30B9F090ED980F9A3048F1E6
:1004B000883019F08D32A1F726C0F801818181932F
:1004C000EE16FF06D9F7ECCF92919183E017F10772
:1004D000D9F78883E5CFE5E3FCE301900020E9F755
:1004E0003197BF0165537C436093153C7093163C74
:1004F00085E39CE30E941A0285E39CE30E94FC0AC8
:1005000005C08830D1F2FE013896DECFDF91CF9161
:100510001F910F91FF90EF900895EF92FF920F932C
:100520001F93CF93DF93EC018C010C96FE01119287
:10053000E817F907E1F7E0E0F8E084818823ECF7B9
:10054000808190ED980F9A3020F093ED980F9230C3
:10055000A0F788837E0188E0E80EF11C0E94360136
:100560008D30F9F090ED980F9A30A0F18E3281F035
:10057000883039F08D3261F0982F9F7D953471F776
:1005800007C0F80181818193EE16FF06D9F7E6CF07
:10059000FE013B9692919183E017F107D9F788838A
:1005A000DDCFFE0101900020E9F73197BF016C1B00
:1005B0007D0B6093153C7093163CCE010E941A028D
:1005C000CE010E94D90089E00E94D100CE010E9494
:1005D000F80A03C08830E1F6D4CFDF91CF911F91A4
:1005E0000F91FF90EF9008958F929F92AF92BF92DC
:1005F000CF92DF92EF92FF920F931F93CF93DF93EF
:100600006A0179016115710581059105E9F08A0199
:10061000C0E0D0E00F2EFAE08F2E912CA12CB12C4F
:10062000F02D2196A50194010E949D0A605DF801BC
:1006300061938F01622F732F842F952F61157105A0
:100640008105910571F702C0C0E0D0E0CE15DF054D
:100650005CF4CC0DDD1D96012E0D3F1D80E38993CA
:10066000C217D307E1F701C07E01B701C6010E949E
:100670001A02F601EE0DFF1D1082B701FF0C880B68
:10068000990BDF91CF911F910F91FF90EF90DF9029
:10069000CF90BF90AF909F908F9008952F923F92F0
:1006A0006F927F928F929F92AF92BF92CF92DF9282
:1006B000EF92FF920F931F93CF93DF93CDB7DEB7E7
:1006C0002697CDBFDEBF6B017C018A0120E030E0C0
:1006D000A9010E94370788233CF4F7FAF094F7F851
:1006E000F0942DE22E8302C08BE28E831801C801A4
:1006F0000C96F8011192E817F907E1F7C701B60166
:100700000E94AE076A3071058105910534F40F2E01
:10071000F5E06F2E712CF02D02C0612C712C4B0175
:100720005C01EAE08E1A9108A108B108FAE58F167B
:100730009104A104B10420F46894662462F8712C39
:100740004B015C0124E6821A9108A108B108E4E893
:100750008E16E3E09E06A104B10428F40F2EF3E008
:100760006F2E712CF02DDC01CB01885E9340A10926
:10077000B10988329342A105B10520F4689466243A
:1007800061F8712C20E030E44CE156E4C701B60179
:100790000E949608882314F120E030E040E251E402
:1007A000C701B6010E94960888230CF4BFC01D82C1
:1007B00020E030E040E251E4C701B6010E943C076E
:1007C0006B017C012D812F5F2D8320E030E040E222
:1007D00051E40E94960888235CF7A9C02AE037ED0F
:1007E00043E25CE3C701B6010E94370788234CF55A
:1007F00020E030E040E85FE3C701B6010E94370720
:1008000088230CF51D8205C00F2EF5E06F2E712C8C
:10081000F02D20E030E040E251E4C701B6010E9433
:100820009B086B017C018D8181508D8320E030E03D
:1008300040E85FE3C701B6010E94370788234CF305
:1008400003C01D8201C01D82C701B6010E94AE0710
:1008500069837A838B839C8320E030E0A8010E9427
:10086000F4024B015C016114710409F46BC06981ED
:100870007A818B819C810E94E6079B01AC01C701B4
:10088000B6010E94CA066B017C01F801E80DF91D52
:100890008EE28083B301072C000C880B990B0E9419
:1008A000E6079B01AC0160E070E080E291E40E9409
:1008B0000809EFEF8E1A9E0A800E911EA70196017D
:1008C0000E949B080E94AE079301A4010E94F402BB
:1008D000FE81FD3209F05BC0F8013B968291818375
:1008E000E215F305D9F78DE2F801808350C0C70106
:1008F000B6010E94AE074B015C010E94E6079B0116
:10090000AC01C701B6010E94CA066B017C0120E060
:1009100030E0A801C501B4010E94F4024B015C0162
:100920000F2EF5E06F2E712CF02DAFCF1D822AE037
:1009300037ED43E25CE3C701B6010E943707882325
:10094000D4F0D5CFFE81FD3211F5C6CFC701B60177
:100950000E94AE0769837A838B839C8320E030E01A
:10096000A8010E94F4024B015C010F2EF5E06F2EEE
:10097000712CF02D7CCF20E030E040E85FE3C70130
:10098000B6010E94370788230CF43ECFDFCF8D815C
:100990002696CDBFDEBFDF91CF911F910F91FF90C3
:1009A000EF90DF90CF90BF90AF909F908F907F900F
:1009B0006F903F902F9008958F929F92AF92BF9229
:1009C000CF92DF92EF92FF920F931F936B017C0106
:1009D00089019A0116161706180619069CF4DC01FF
:1009E000CB0140E050E0BA01801B910BA20BB30B8E
:1009F0004F5F5F4F6F4F7F4F181619061A061B0681
:100A00009CF305C0DC01CB0140E050E0BA01892B2A
:100A10008A2B8B2B41F04A015B0181E0881A9108F7
:100A2000A108B10802C04A015B01011511052105A9
:100A3000310569F0D901C8010197A109B109E1F7B0
:100A4000A9019801C501B4010E948D0A03C060E0AC
:100A500070E0CB01A7019601261B370B480B590B01
:100A6000CA01B9011F910F91FF90EF90DF90CF90D5
:100A7000BF90AF909F908F9008954F925F926F922A
:100A80007F928F929F92AF92BF92CF92DF92EF921E
:100A9000FF92CF93DF934B015C0169017A0184E2FD
:100AA0009AE90E94D900C5E1D0E080E090E001968B
:100AB0008A309105E1F7880C991CAA1CBB1CD50152
:100AC000C401880F991FAA1FBB1F880F991FAA1F57
:100AD000BB1F880E991EAA1EBB1E181419041A04E7
:100AE0001B0494F4B501A40180E090E0DC014C19F2
:100AF0005D096E097F090196A11DB11D1416150629
:100B000016061706A4F305C0B501A40180E090E025
:100B1000DC01452B462B472B41F02C013D0121E008
:100B2000421A51086108710802C02C013D01A70159
:100B30009601C501B4010E94DC044B015C0180E315
:100B4000840D0E94D10064E370E085E00E942201E0
:100B5000219709F0AACFDF91CF91FF90EF90DF901E
:100B6000CF90BF90AF909F908F907F906F905F904D
:100B70004F9008950E94BC00C0E0D8E087E29AE957
:100B80000E94D90080E590E00E94FB008823B1F329
:100B90008881823509F1823789F718EDC0E0D1E00C
:100BA0000F2EF7E0FF2EF02D8EE29AE90E94D90079
:100BB00080E09CE30E948D026093113C7093123C94
:100BC0008093133C9093143C20E030E0A9010E94F4
:100BD000370781114EC047C087E69AE90E94D900C5
:100BE00085E39CE30E9431026B017C016115710574
:100BF0008105910501F1AB01BC018AE00E9404026C
:100C000082E79AE90E94D90085E39CE30E943102C1
:100C10004B015C01AB01BC018AE00E9404020E940E
:100C20001D018DE79AE90E94D9008C149D04AE0441
:100C3000BF043CF00FC088ED84BF83E080930001C7
:100C4000FFCF05E31CE3A7019601C501B4010E9493
:100C50003D05C2CF05E31CE3A5019401C701B60120
:100C60000E943D05B9CF88ED84BF83E080930001E9
:100C7000FFCF8AE19CE30E948D0260930C3C70934D
:100C80000D3C80930E3C90930F3C20E030E0A90196
:100C900060910C3C70910D3C80910E3C90910F3C0A
:100CA0000E943707882311F014BFF88220910C3C72
:100CB00030910D3C40910E3C50910F3C6091113CA5
:100CC0007091123C8091133C9091143C0E94080951
:100CD00040E05CE30E944E038093103C14BF1882F6
:100CE0008091103C4AE060E37CE3082E000C990BF5
:100CF0000E94230B84E69AE90E94D9008091003C6F
:100D00008E3219F480E30E94D10080E09CE30E94BF
:100D1000D9008091103C882341F084E99AE90E942F
:100D2000D90080E39CE30E94D9000E9415018B3119
:100D300009F43ACF8837B9F420E030E040E85FE3C7
:100D400060910C3C70910D3C80910E3C90910F3C59
:100D50000E94CB0660930C3C70930D3C80930E3C3C
:100D600090930F3C92CF20E030E040E85FE3609149
:100D70000C3C70910D3C80910E3C90910F3C0E9478
:100D8000CA0660930C3C70930D3C80930E3C90938C
:100D90000F3C7BCF5058BB27AA270E94E2060C9439
:100DA0005C080E944E0838F00E94550820F039F483
:100DB0009F3F19F426F40C944B080EF4E095E7FBE2
:100DC0000C944508E92F0E946D0858F3BA17620782
:100DD00073078407950720F079F4A6F50C948F0823
:100DE0000EF4E0950B2EBA2FA02D0B01B901900146
:100DF0000C01CA01A0011124FF27591B99F0593F8A
:100E000050F4503E68F11A16F040A22F232F342FD1
:100E10004427585FF3CF469537952795A795F0401F
:100E20005395C9F77EF41F16BA0B620B730B840B34
:100E3000BAF09150A1F0FF0FBB1F661F771F881FEC
:100E4000C2F70EC0BA0F621F731F841F48F4879544
:100E500077956795B795F7959E3F08F0B0CF939536
:100E6000880F08F09927EE0F9795879508950E94AF
:100E7000210808F481E008950E9450070C945C0852
:100E80000E94550858F00E944E0840F029F45F3F38
:100E900029F00C94450851110C9490080C944B08BF
:100EA0000E946D0868F39923B1F3552391F3951BC4
:100EB000550BBB27AA2762177307840738F09F5F7B
:100EC0005F4F220F331F441FAA1FA9F335D00E2EE8
:100ED0003AF0E0E832D091505040E695001CCAF755
:100EE0002BD0FE2F29D0660F771F881FBB1F261718
:100EF00037074807AB07B0E809F0BB0B802DBF01EF
:100F0000FF2793585F4F3AF09E3F510578F00C94BD
:100F100045080C9490085F3FE4F3983ED4F386951F
:100F200077956795B795F7959F5FC9F7880F911DDE
:100F30009695879597F90895E1E0660F771F881FCA
:100F4000BB1F621773078407BA0720F0621B730B7D
:100F5000840BBA0BEE1F88F7E09508950E94B50741
:100F60006894B1110C94900808950E94750888F057
:100F70009F5798F0B92F9927B751B0F0E1F0660F5D
:100F8000771F881F991F1AF0BA95C9F714C0B1309E
:100F900091F00E948F08B1E008950C948F08672F9C
:100FA000782F8827B85F39F0B93FCCF386957795CD
:100FB0006795B395D9F73EF49095809570956195B6
:100FC0007F4F8F4F9F4F0895E89409C097FB3EF4E1
:100FD00090958095709561957F4F8F4F9F4F992386
:100FE000A9F0F92F96E9BB279395F6958795779504
:100FF0006795B795F111F8CFFAF4BB0F11F460FFC4
:101000001BC06F5F7F4F8F4F9F4F16C0882311F01B
:1010100096E911C0772321F09EE8872F762F05C02F
:10102000662371F096E8862F70E060E02AF09A95CA
:10103000660F771F881FDAF7880F9695879597F9BF
:101040000895990F0008550FAA0BE0E8FEEF161659
:101050001706E807F907C0F012161306E407F507AC
:1010600098F0621B730B840B950B39F40A2661F020
:10107000232B242B252B21F408950A2609F4A140C3
:10108000A6958FEF811D811D089597F99F6780E8D0
:1010900070E060E008959FEF80EC089500240A94CA
:1010A0001616170618060906089500240A94121643
:1010B0001306140605060895092E0394000C11F476
:1010C000882352F0BB0F40F4BF2B11F460FF04C023
:1010D0006F5F7F4F8F4F9F4F089557FD9058440F7C
:1010E000551F59F05F3F71F04795880F97FB991F87
:1010F00061F09F3F79F08795089512161306140644
:10110000551FF2CF4695F1DF08C0161617061806D0
:10111000991FF1CF86957105610508940895E894AB
:10112000BB2766277727CB0197F908950E942108EE
:1011300008F48FEF08950E94AE080C945C080E949A
:101140004E0838F00E94550820F0952311F00C94B9
:1011500045080C944B0811240C9490080E946D08CB
:1011600070F3959FC1F3950F50E0551F629FF001FA
:10117000729FBB27F00DB11D639FAA27F00DB11D13
:10118000AA1F649F6627B00DA11D661F829F22279C
:10119000B00DA11D621F739FB00DA11D621F839F23
:1011A000A00D611D221F749F3327A00D611D231FF9
:1011B000849F600D211D822F762F6A2F11249F5747
:1011C00050409AF0F1F088234AF0EE0FFF1FBB1F4A
:1011D000661F771F881F91505040A9F79E3F510509
:1011E00080F00C9445080C9490085F3FE4F3983E1F
:1011F000D4F3869577956795B795F795E7959F5FB3
:10120000C1F7FE2B880F911D9695879597F9089544
:10121000FA01EE0FFF1F309621053105A1F161158E
:10122000710561F48038BFE39B0749F168949038F9
:10123000810561F08038BFEF9B0741F099234AF5A3
:10124000FF3FE1053105210519F1E8940894E79580
:10125000D901AA2329F4AB2FBE2FF85FD0F310C019
:10126000FF5F70F4A695E0F7F73950F019F0FF3AF8
:1012700038F49F779F930DD00F9007FC90580895F6
:1012800046F00C944B0860E070E080E89FE308951E
:101290004FE79F775F934F933F932F930E94030AEB
:1012A0002F913F914F915F910E949B080C94600990
:1012B00029F416F00C9445080C948F080C944B08F4
:1012C0000E947508A8F39638A0F707F80F92E894E3
:1012D0002BE33AEA48EB5FE70E94B1080F920F92C6
:1012E0000F924DB75EB70F920E944B0AECE7F0E009
:1012F0000E9492094F915F91EF91FF91E595EE1F4A
:10130000FF1F49F0FE57E0684427EE0F441FFA958F
:10131000E1F74195550B0E94C5090F9007FE0C940B
:10132000B9090895DF93CF931F930F93FF92EF9224
:10133000DF927B018C01689406C0DA2EEF010E94D7
:10134000AE08FE01E894A5912591359145915591FE
:10135000A6F3EF010E94E206FE019701A801DA94CC
:1013600069F7DF90EF90FF900F911F91CF91DF9180
:1013700008959B01AC0160E070E080E89FE30C946D
:101380003C070C9445080C947F0A0E947508D8F31A
:101390009923C9F3940F511DA3F39150504094F039
:1013A00059F0882332F0660F771F881F9150504004
:1013B000C1F79E3F51052CF7880F911D9695879593
:1013C00097F908955F3FACF0983E9CF0BB27869557
:1013D00077956795B79508F4B1609395C1F7BB0F02
:1013E00058F711F460FFE8CF6F5F7F4F8F4F9F4F2B
:1013F000E3CF0C94900816F00C947F0A0C944B08E1
:1014000068940C9445080E947508A8F39923C1F3C9
:10141000AEF3DF93CF931F930F93FF92C92FDD2776
:1014200088232AF02197660F771F881FDAF720E0BC
:1014300030E040E85FEB9FE3883920F0803E38F0F1
:1014400021968F770E94CB06E4EAF0E004C00E9468
:10145000CB06E1EDF0E00E9492098B01BE01EC01A8
:10146000FB2E6F5771097595771F880B990B0E949A
:10147000E60728E132E741E35FE30E94AE08AF2DC3
:101480009801AE01FF900F911F91CF91DF910E94C3
:10149000E2060C945C08FA01DC01AA0FBB1F9B0159
:1014A000AC01BF5728F4222733274427507820C0A7
:1014B000B75190F4AB2F0024469537952795011C22
:1014C000A395D2F3002071F0220F331F441FB39570
:1014D000DAF30ED00C94CA0661307105A0E88A07D1
:1014E000B94630F49B01AC016627772788279078AE
:1014F000309621F0208331834283538308959F3FA8
:1015000031F0915020F4879577956795B795880FBE
:10151000911D9695879597F90895DB018F939F9379
:101520000E94BC0ABF91AF91A29F800D911DA39F05
:10153000900DB29F900D11240895052E97FB1EF477
:1015400000940E94B40A57FD07D00E94C70A07FC06
:1015500003D04EF40C94B40A5095409530952195E3
:101560003F4F4F4F5F4F08959095809570956195CF
:101570007F4F8F4F9F4F08950E94E90AA59F900DBE
:10158000B49F900DA49F800D911D11240895A1E298
:101590001A2EAA1BBB1BFD010DC0AA1FBB1FEE1FED
:1015A000FF1FA217B307E407F50720F0A21BB30B38
:1015B000E40BF50B661F771F881F991F1A9469F7B4
:1015C00060957095809590959B01AC01BD01CF0110
:1015D0000895A29FB001B39FC001A39F700D811D0C
:1015E0001124911DB29F700D811D1124911D08952C
:1015F000662777270C945D0B1F93FC01992788279A
:10160000BC01E89411911032E9F3193010F01E304A
:10161000C8F31B3251F01D3249F4689406C00E9491
:101620002E0B610F711D811D911D119110531A30E8
:10163000B0F33EF490958095709561957F4F8F4FF4
:101640009F4F1F910895BB274A3031F4992322F40C
:10165000BDE2909581959F4F0C94440B592F482FD4
:10166000372F262F660F771F881F991F660F771F4A
:10167000881F991F620F731F841F951F660F771FA6
:10168000881F991F0895BB27FB015527AA27880F9C
:10169000991FAA1FA41710F0A41B83955051B9F7E6
:1016A000A05DAA3308F0A95DA193009779F7B11165
:1016B000B1931192CB010C94CC0CA0E0B0E0E3E626
:1016C000FBE00C94E50CEC016B016115710519F060
:1016D000FB01808391837E01FFEFEF1AFF0A0881EF
:1016E000802F90E00E94AB0C892B11F0E701F3CF23
:1016F0000D3239F47E0182E0E80EF11C098111E01F
:1017000008C00B3229F47E0192E0E90EF11C098138
:1017100010E0E701219743E050E066E071E0CE0180
:101720000E94B40C892BC1F4239645E050E061E09F
:1017300071E0CE010E94B40C892B09F42596C114E6
:10174000D10419F0F601C083D1831111F6C060E015
:1017500070E080E89FE7FAC043E050E06EEF70E091
:10176000CE010E94B40C892B59F4C114D10409F4A0
:10177000E9C0F2E0EF0EF11CF601E082F182E2C076
:1017800020E030E0A901C0E0D0E0F70180EDA82E14
:10179000A00E89E08A1530F1912F9260B92E812F29
:1017A000887012FF04C0811124C0219622C08111CB
:1017B0002197A5E0B0E00E94BC0ADC01CB01880FB4
:1017C000991FAA1FBB1F9C01AD012A0D311D411D90
:1017D000511D283989E93807480789E1580748F039
:1017E000166006C09EEFA9120AC013FD40C0186023
:1017F000B12E8FEFE81AF80A00811B2DC6CF802F7B
:101800008F7D8534A1F580818D3211F4106106C081
:101810008B3221F0319661E070E004C08181329614
:1018200062E070E080538A3018F0E61BF70B1FC0AF
:1018300060E070E060389CE079075CF4DB01AA0F9F
:10184000BB1FAA0FBB1F6A0F7B1F660F771F680F96
:10185000711D3196DF0111978C9180538A3050F3BE
:1018600014FF03C0719561957109C60FD71F11FF51
:1018700008C0C114D10429F0CF010197F60180837B
:101880009183CA01B9010E94E407212F23702330FC
:1018900019F04B015C0106C04B015C01B7FAB09432
:1018A000B7F8B09420E030E0A901C501B4010E946E
:1018B0003707882309F43EC0D7FF06C0D195C195EC
:1018C000D1090DE111E002C005E311E06801F8E182
:1018D000CF1AD10890E2E92EF12CCE15DF0574F075
:1018E000F8012591359145915491C501B4010E94AB
:1018F0009B084B015C01CE19DF09EFCF04501109A1
:10190000F594E7940C151D0541F78A2D880F8B2D52
:10191000881F8F3F49F020E030E0A901C501B401E4
:101920000E943707811106C082E290E080933E3C1E
:1019300090933F3CC501B40109C060E070E080E8CD
:101940009FEF04C060E070E080EC9FE7CDB7DEB7AA
:10195000ECE00C94FE0C91110C94DC0C803219F02C
:1019600089508550C8F70895FB01DC014150504073
:1019700088F08D9181341CF08B350CF4805E65917C
:1019800061341CF06B350CF4605E861B611171F3E1
:10199000990B0895881BFCCFDC01FC01672F719126
:1019A0007723E1F7329704C07C916D937083629145
:1019B000AE17BF07C8F308959927882708952F9277
:1019C0003F924F925F926F927F928F929F92AF92CF
:1019D000BF92CF92DF92EF92FF920F931F93CF931C
:1019E000DF93CDB7DEB7CA1BDB0BCDBFDEBF0994DB
:1019F0002A88398848885F846E847D848C849B849F
:101A0000AA84B984C884DF80EE80FD800C811B81AC
:101A1000AA81B981CE0FD11DCDBFDEBFED010895E2
:041A2000F894FFCF68
:101A2400302E00523F20202020000D0A456E7465A0
:101A34007220666C6F6174696E6720706F696E7472
:101A4400206E756D626572207468656E20706F77A4
:101A54006572207468656E2078206F7220414F4B48
:101A64000D0A000D0A4E756D5F313F2020000D0AEE
:101A74004E756D5F323F202000446563696D616C73
:101A8400206672616374696F6E2069732020200080
:0B1A9400207820313020706F77200098
:00000001FF
