:100000007DC097C096C095C094C093C092C091C067
:1000100090C08FC08EC08DC08CC08BC08AC089C07C
:1000200088C087C086C085C084C083C082C081C0AC
:1000300080C07FC07EC07DC07CC07BC07AC00763AB
:100040004236B79BD8A71A39685618AEBAAB558C4A
:100050001D3CB7CC5763BD6DEDFD753EF617723193
:10006000BF000000803F08000000BE922449123EFD
:10007000ABAAAA2ABECDCCCC4C3E00000080BEABC1
:10008000AAAAAA3E00000000BF000000803F0000B6
:10009000000000084178D3BB4387D1133D190E3CC3
:1000A000C3BD4282AD2B3E68EC8276BED98FE1A9FA
:1000B0003E4C80EFFFBE01C4FF7F3F000000000008
:1000C0004E414E494E495459494E46CDCCCC3D0A3D
:1000D000D7233C17B7D13877CC2B329595E6241F20
:1000E000B14F0A000020410000C84200401C4620D9
:1000F000BCBE4CCA1B0E5AAEC59D740011241FBE57
:10010000CFEFCDBFDFE3DEBF1EE3A0E0BEE3E7E954
:10011000F9E102C005900D92A030B107D9F72EE3A6
:10012000A0E0BEE301C01D92A034B207E1F7CED437
:10013000F3CB66CFE0E2F4E08081877F808380812B
:1001400084608083E0E0F8E08DE695E08087918729
:100150008681806486838681806886830895E0E056
:10016000F8E0948195FFFDCF809302080895EF9207
:10017000FF920F931F93CF93DF938C017C01C0E01C
:10018000D0E005C0F70181917F01E9DF2196F801F8
:1001900001900020E9F73197E01BF10BCE17DF0744
:1001A00088F3DF91CF911F910F91FF90EF90089509
:1001B000AC0120E030E0E0E0F8E00DC02F5F3F4F01
:1001C000213A8FE0380724F04150510920E030E017
:1001D0004115510529F09481992384F781E0089510
:1001E00080E00895E0E0F8E084818823ECF78091D6
:1001F000000808958CE599E9BADF0895E0E0FAE097
:1002000010A211A266A377A3880F8F5F8083EBE013
:10021000FAE0808180FFFDCFE0E0FAE081E08387B3
:1002200010820895E0E0F8E084818823ECF7809163
:1002300000088D3011F08A3051F481E090E0B8DF91
:10024000882321F0809100088DE008958DE00895C5
:100250002F923F924F925F926F927F928F929F92D6
:10026000AF92BF92CF92DF92EF92FF920F931F93C4
:10027000CF93DF931C012A013B0141155105610514
:10028000704861F52A3019F02031B9F063C098E365
:10029000F101908384E3818326E3228323E3238394
:1002A0009483858397E39683878381E3808782E3C2
:1002B00081878DE2828713864DC080E3F1018083C0
:1002C00081838283838384838583868388E3878392
:1002D0008DE280871186128613863CC0E101C10140
:1002E0000C96F1011192E817F907E1F77301620129
:1002F00077203CF4CC24DD247601C418D508E60828
:10030000F70800E010E0822E912CA12CB12CC7013F
:10031000B601A50194019FD868836A3018F4605D26
:10032000688302C0695C68830F5F1F4FC701B60115
:10033000A501940190D869017A012196121613063D
:100340001406150624F377202CF4F101E00FF11FB9
:100350008DE28083DF91CF911F910F91FF90EF90FD
:10036000DF90CF90BF90AF909F908F907F906F90D5
:100370005F904F903F902F9008950F931F93CF93CE
:10038000DF93FC012081222391F03196C0E0D0E080
:10039000219621912111FCCF209749F08C010C0F5F
:1003A0001D1FF80182918F01DADE2197D1F7DF91CD
:1003B000CF911F910F910895CF93DF93CDB7DEB703
:1003C0002C97CDBFDEBF282FCE01019641DFCE0195
:1003D0000196D3DF2C96CDBFDEBFDF91CF9108957C
:1003E0009B01215031091216130684F4FC01E60F1B
:1003F000F71FDC0180E090E04C9152915D934083C7
:1004000001962150310982179307B4F30895EF92B2
:10041000FF920F931F93CF93DF93EC018C0109960A
:10042000FE011192E817F907E1F7E0E0F8E08481B6
:100430008823ECF7808190ED980F9A3010F08D3280
:10044000B1F788837E0188E0E80EF11CEBDE8D3089
:10045000B9F090ED980F9A3038F1883019F08D325C
:10046000A9F724C0F80181818193EE16FF06D9F720
:10047000EDCF92919183E017F107D9F78883E6CF0A
:10048000E5E3FEE301900020E9F73197BF016553F2
:100490007E436093153E7093163E85E39EE3A0DF96
:1004A00085E39EE330D805C08830E1F2FE0138963E
:1004B000E0CFDF91CF911F910F91FF90EF900895C2
:1004C000EF92FF920F931F93CF93DF93EC018C0178
:1004D0000C96FE011192E817F907E1F7E0E0F8E069
:1004E00084818823ECF7808190ED980F9A3020F07A
:1004F00093ED980F9230A0F788837E0188E0E80E94
:10050000F11C90DE8D30F9F090ED980F9A3080F16B
:100510008E3281F0883039F08D3261F0982F9F7DD6
:10052000953479F707C0F80181818193EE16FF06B3
:10053000D9F7E7CFFE013B9692919183E017F1073F
:10054000D9F78883DECFFE0101900020E9F73197CB
:10055000BF016C1B7D0B6093153E7093163ECE0160
:100560003FDFCE0104DE89E0FADDCE01C8D703C04B
:10057000883001F7D8CFDF91CF911F910F91FF9075
:10058000EF9008958F929F92AF92BF92CF92DF9299
:10059000EF92FF920F931F93CF93DF936A0179013C
:1005A0006115710581059105E1F08A01C0E0D0E097
:1005B0000F2EFAE08F2E912CA12CB12CF02D21962C
:1005C000A501940148D7605DF80161938F01622F06
:1005D000732F842F952F611571058105910579F78A
:1005E00002C0C0E0D0E0CE15DF055CF4CC0DDD1D0F
:1005F00096012E0D3F1D80E38993C217D307E1F7C3
:1006000001C07E01B701C601EBDEF601EE0DFF1D54
:100610001082B701FF0C880B990BDF91CF911F91CE
:100620000F91FF90EF90DF90CF90BF90AF909F9091
:100630008F9008952F923F926F927F928F929F9208
:10064000AF92BF92CF92DF92EF92FF920F931F93E0
:10065000CF93DF93CDB7DEB72697CDBFDEBF6B015B
:100660007C018A0120E030E0A90190D388233CF48A
:10067000F7FAF094F7F8F0942DE22E8302C08BE2A3
:100680008E831801C8010C96F8011192E817F9073A
:10069000E1F7C701B601F1D36A3071058105910513
:1006A00034F40F2EF5E06F2E712CF02D02C0612C6A
:1006B000712C4B015C01EAE08E1A9108A108B10887
:1006C000FAE58F169104A104B10420F4689466241D
:1006D00062F8712C4B015C0124E6821A9108A10892
:1006E000B108E4E88E16E3E09E06A104B10428F404
:1006F0000F2EF3E06F2E712CF02DDC01CB01885E04
:100700009340A109B10988329342A105B10520F4B3
:100710006894662461F8712C20E030E44CE156E4E2
:10072000C701B60192D48823FCF020E030E040E21B
:1007300051E4C701B60189D488230CF4ACC01D82F2
:1007400020E030E040E251E4C701B60124D36B0160
:100750007C012D812F5F2D8320E030E040E251E4C9
:1007600074D488236CF798C02AE037ED43E25CE349
:10077000C701B6010BD3882334F520E030E040E810
:100780005FE3C701B60102D38823FCF41D8205C0D4
:100790000F2EF5E06F2E712CF02D20E030E040E2BE
:1007A00051E4C701B60156D46B017C018D818150A3
:1007B0008D8320E030E040E85FE3C701B601E6D278
:1007C00088235CF303C01D8201C01D82C701B601EE
:1007D00054D369837A838B839C8320E030E0A80123
:1007E000D1DE4B015C016114710409F45FC06981C1
:1007F0007A818B819C8179D39B01AC01C701B601C1
:1008000058D26B017C01F801E80DF91D8EE280835E
:10081000B301072C000C880B990B67D39B01AC012B
:1008200060E070E080E291E482D4EFEF8E1A9E0ADD
:10083000800E911EA70196010DD41FD39301A40130
:10084000A1DEFE81FD3209F053C0F8013B96829192
:100850008183E215F305D9F78DE2F801808348C062
:10086000C701B6010AD34B015C013FD39B01AC0128
:10087000C701B6011ED26B017C0120E030E0A80167
:10088000C501B4017FDE4B015C010F2EF5E06F2E38
:10089000712CF02DB8CF1D822AE037ED43E25CE3E6
:1008A000C701B60173D28823C4F0DACFFE81FD32CE
:1008B000F9F4CBCFC701B601E0D269837A838B8389
:1008C0009C8320E030E0A8015DDE4B015C010F2E2F
:1008D000F5E06F2E712CF02D8ACF20E030E040E85B
:1008E0005FE3C701B60152D288230CF451CFE2CFA7
:1008F0008D812696CDBFDEBFDF91CF911F910F91E5
:10090000FF90EF90DF90CF90BF90AF909F908F902F
:100910007F906F903F902F9008958F929F92AF920B
:10092000BF92CF92DF92EF92FF920F931F936B01D2
:100930007C0189019A0116161706180619069CF4FF
:10094000DC01CB0140E050E0BA01801B910BA20B0F
:10095000B30B4F5F5F4F6F4F7F4F181619061A0684
:100960001B069CF305C0DC01CB0140E050E0BA015E
:10097000892B8A2B8B2B41F04A015B0181E0881A7D
:100980009108A108B10802C04A015B0101151105D7
:100990002105310561F0D901C8010197A109B1090B
:1009A000E1F7A9019801C501B40146D503C060E093
:1009B00070E0CB01A7019601261B370B480B590BA2
:1009C000CA01B9011F910F91FF90EF90DF90CF9076
:1009D000BF90AF909F908F9008954F925F926F92CB
:1009E0007F928F929F92AF92BF92CF92DF92EF92BF
:1009F000FF92CF93DF934B015C0169017A018CE197
:100A000099E9B5DBC5E1D0E080E090E001968A305D
:100A10009105E1F7880C991CAA1CBB1CD501C401E7
:100A2000880F991FAA1FBB1F880F991FAA1FBB1FE2
:100A3000880E991EAA1EBB1E181419041A041B0442
:100A400094F4B501A40180E090E0DC014C195D094B
:100A50006E097F090196A11DB11D14161506160613
:100A60001706A4F305C0B501A40180E090E0DC0105
:100A7000452B462B472B41F02C013D0121E0421A2A
:100A800051086108710802C02C013D01A7019601BF
:100A9000C501B40142DF4B015C0180E3840D5FDBE3
:100AA00064E370E085E0AADB219709F0ADCFDF9128
:100AB000CF91FF90EF90DF90CF90BF90AF909F903D
:100AC0008F907F906F905F904F90089533DBC0E0E0
:100AD000D8E08FE199E94BDB80E590E069DB882382
:100AE000C1F388818235F1F0823799F718EDC0E0C3
:100AF000D1E00F2EF7E0FF2EF02D86E299E937DBEB
:100B000080E09EE3DDDC6093113E7093123E8093A3
:100B1000133E9093143E20E030E0A90137D18111BB
:100B200044C03DC08FE599E922DB85E39EE36FDC9D
:100B30006B017C016115710581059105D1F0AB0157
:100B4000BC018AE039DC8AE699E911DB85E39EE3A2
:100B50005EDC4B015C01AB01BC018AE02DDC4ADBB1
:100B600085E799E904DB8C149D04AE04BF043CF0D6
:100B70000EC088ED84BF83E080930001FFCF05E3C2
:100B80001EE3A7019601C501B40127DFCBCF05E322
:100B90001EE3A5019401C701B6011FDFC3CF88ED95
:100BA00084BF83E080930001FFCF8AE19EE388DC6D
:100BB00060930C3E70930D3E80930E3E90930F3EDB
:100BC00020E030E0A90160910C3E70910D3E8091D3
:100BD0000E3E90910F3EDAD0882311F014BFF882B8
:100BE00020910C3E30910D3E40910E3E50910F3EB3
:100BF0006091113E7091123E8091133E9091143E8F
:100C000096D240E05EE316DD8093103E14BF18825A
:100C10008091103E4AE060E37EE3082E000C990BC1
:100C200099D48CE599E9A3DA8091003E8E3211F4D3
:100C300080E395DA80E09EE39ADA8091103E882383
:100C400031F08CE899E993DA80E39EE390DACADA2E
:100C50008B3109F452CF8837B1F420E030E040E81E
:100C60005FE360910C3E70910D3E80910E3E90913D
:100C70000F3E20D060930C3E70930D3E80930E3E4D
:100C800090930F3E9DCF20E030E040E85FE360911D
:100C90000C3E70910D3E80910E3E90910F3E09D01A
:100CA00060930C3E70930D3E80930E3E90930F3EEA
:100CB00087CF5058BB27AA270E9471060C94EB07D8
:100CC0000E94DD0738F00E94E40720F039F49F3FCE
:100CD00019F426F40C94DA070EF4E095E7FB0C9473
:100CE000D407E92F0E94FC0758F3BA17620773076D
:100CF0008407950720F079F4A6F50C941E080EF4ED
:100D0000E0950B2EBA2FA02D0B01B90190010C011B
:100D1000CA01A0011124FF27591B99F0593F50F433
:100D2000503E68F11A16F040A22F232F342F44278B
:100D3000585FF3CF469537952795A795F040539583
:100D4000C9F77EF41F16BA0B620B730B840BBAF053
:100D50009150A1F0FF0FBB1F661F771F881FC2F7BE
:100D60000EC0BA0F621F731F841F48F487957795D2
:100D70006795B795F7959E3F08F0B0CF9395880F8C
:100D800008F09927EE0F9795879508950E94B00770
:100D900008F481E008950E94DF060C94EB070E949E
:100DA000E40758F00E94DD0740F029F45F3F29F086
:100DB0000C94D40751110C941F080C94DA070E946C
:100DC000FC0768F39923B1F3552391F3951B550B59
:100DD000BB27AA2762177307840738F09F5F5F4F0E
:100DE000220F331F441FAA1FA9F335D00E2E3AF04D
:100DF000E0E832D091505040E695001CCAF72BD065
:100E0000FE2F29D0660F771F881FBB1F26173707B5
:100E10004807AB07B0E809F0BB0B802DBF01FF27E7
:100E200093585F4F3AF09E3F510578F00C94D407E9
:100E30000C941F085F3FE4F3983ED4F386957795B2
:100E40006795B795F7959F5FC9F7880F911D9695A0
:100E5000879597F90895E1E0660F771F881FBB1FFC
:100E6000621773078407BA0720F0621B730B840BA9
:100E7000BA0BEE1F88F7E09508950E944407689426
:100E8000B1110C941F0808950E94040888F09F5720
:100E900098F0B92F9927B751B0F0E1F0660F771F9E
:100EA000881F991F1AF0BA95C9F714C0B13091F094
:100EB0000E941E08B1E008950C941E08672F782F39
:100EC0008827B85F39F0B93FCCF386957795679559
:100ED000B395D9F73EF490958095709561957F4FC5
:100EE0008F4F9F4F0895E89409C097FB3EF490956B
:100EF0008095709561957F4F8F4F9F4F9923A9F0F3
:100F0000F92F96E9BB279395F69587957795679581
:100F1000B795F111F8CFFAF4BB0F11F460FF1BC0C5
:100F20006F5F7F4F8F4F9F4F16C0882311F096E958
:100F300011C0772321F09EE8872F762F05C0662306
:100F400071F096E8862F70E060E02AF09A95660FBF
:100F5000771F881FDAF7880F9695879597F9089578
:100F6000990F0008550FAA0BE0E8FEEF16161706BA
:100F7000E807F907C0F012161306E407F50798F022
:100F8000621B730B840B950B39F40A2661F0232B3B
:100F9000242B252B21F408950A2609F4A140A695B7
:100FA0008FEF811D811D089597F99F6780E870E09C
:100FB00060E008959FEF80EC089500240A941616CF
:100FC000170618060906089500240A941216130637
:100FD000140605060895092E0394000C11F48823C5
:100FE00052F0BB0F40F4BF2B11F460FF04C06F5FE1
:100FF0007F4F8F4F9F4F089557FD9058440F551FB7
:1010000059F05F3F71F04795880F97FB991F61F08A
:101010009F3F79F087950895121613061406551F01
:10102000F2CF4695F1DF08C0161617061806991F6D
:10103000F1CF86957105610508940895E894BB2762
:1010400066277727CB0197F908950E94B00708F427
:101050008FEF08950E943D080C94EB070E94DD0776
:1010600038F00E94E40720F0952311F00C94D40787
:101070000C94DA0711240C941F080E94FC0770F3EB
:10108000959FC1F3950F50E0551F629FF001729F2D
:10109000BB27F00DB11D639FAA27F00DB11DAA1F3C
:1010A000649F6627B00DA11D661F829F2227B00D89
:1010B000A11D621F739FB00DA11D621F839FA00D14
:1010C000611D221F749F3327A00D611D231F849F64
:1010D000600D211D822F762F6A2F11249F575040BB
:1010E0009AF0F1F088234AF0EE0FFF1FBB1F661F36
:1010F000771F881F91505040A9F79E3F510580F0FF
:101100000C94D4070C941F085F3FE4F3983ED4F38B
:10111000869577956795B795F795E7959F5FC1F7A2
:10112000FE2B880F911D9695879597F90895FA01E2
:10113000EE0FFF1F309621053105A1F161157105F4
:1011400061F48038BFE39B0749F1689490388105CA
:1011500061F08038BFEF9B0741F099234AF5FF3FCC
:10116000E1053105210519F1E8940894E795D901C5
:10117000AA2329F4AB2FBE2FF85FD0F310C0FF5F76
:1011800070F4A695E0F7F73950F019F0FF3A38F40B
:101190009F779F930DD00F9007FC9058089546F0CD
:1011A0000C94DA0760E070E080E89FE308954FE771
:1011B0009F775F934F933F932F930E9492092F91B4
:1011C0003F914F915F910E942A080C94EF0829F4F7
:1011D00016F00C94D4070C941E080C94DA070E94A5
:1011E0000408A8F39638A0F707F80F92E8942BE3C9
:1011F0003AEA48EB5FE70E9440080F920F920F9285
:101200004DB75EB70F920E94DA09EEE3F0E00E945C
:1012100021094F915F91EF91FF91E595EE1FFF1F1F
:1012200049F0FE57E0684427EE0F441FFA95E1F7B6
:101230004195550B0E9454090F9007FE0C944809E4
:101240000895DF93CF931F930F93FF92EF92DF9256
:101250007B018C01689406C0DA2EEF010E943D08E4
:10126000FE01E894A5912591359145915591A6F3FC
:10127000EF010E947106FE019701A801DA9469F757
:10128000DF90EF90FF900F911F91CF91DF91089524
:101290009B01AC0160E070E080E89FE30C94CB061A
:1012A0000C94D4070C940E0A0E940408D8F39923D6
:1012B000C9F3940F511DA3F39150504094F059F08D
:1012C000882332F0660F771F881F91505040C1F776
:1012D0009E3F51052CF7880F911D9695879597F99C
:1012E00008955F3FACF0983E9CF0BB2786957795BC
:1012F0006795B79508F4B1609395C1F7BB0F58F7A0
:1013000011F460FFE8CF6F5F7F4F8F4F9F4FE3CFA8
:101310000C941F0816F00C940E0A0C94DA076894CB
:101320000C94D4070E940408A8F39923C1F3AEF3E8
:10133000DF93CF931F930F93FF92C92FDD2788234D
:101340002AF02197660F771F881FDAF720E030E038
:1013500040E85FEB9FE3883920F0803E38F021962B
:101360008F770E945A06E6E6F0E004C00E945A0613
:10137000E3E9F0E00E9421098B01BE01EC01FB2EA4
:101380006F5771097595771F880B990B0E94750728
:1013900028E132E741E35FE30E943D08AF2D980169
:1013A000AE01FF900F911F91CF91DF910E947106C6
:1013B0000C94EB07FA01DC01AA0FBB1F9B01AC01E7
:1013C000BF5728F4222733274427507820C0B7512D
:1013D00090F4AB2F0024469537952795011CA395D3
:1013E000D2F3002071F0220F331F441FB395DAF3BC
:1013F0000ED00C94590661307105A0E88A07B946F1
:1014000030F49B01AC0166277727882790783096C7
:1014100021F0208331834283538308959F3F31F02D
:10142000915020F4879577956795B795880F911D12
:101430009695879597F90895DB018F939F9327D011
:10144000BF91AF91A29F800D911DA39F900DB29F60
:10145000900D11240895052E97FB16F400940FD0DB
:1014600057FD05D01ED007FC02D046F408C05095A9
:101470004095309521953F4F4F4F5F4F0895909580
:101480008095709561957F4F8F4F9F4F08952BD01A
:10149000A59F900DB49F900DA49F800D911D1124C8
:1014A0000895A1E21A2EAA1BBB1BFD010DC0AA1FA5
:1014B000BB1FEE1FFF1FA217B307E407F50720F0BD
:1014C000A21BB30BE40BF50B661F771F881F991F38
:1014D0001A9469F760957095809590959B01AC0181
:1014E000BD01CF010895A29FB001B39FC001A39F8A
:1014F00001D0B29F700D811D1124911D08956627A2
:1015000077270C94E40A1F93FC0199278827BC01D4
:10151000E89411911032E9F3193010F01E30C8F33D
:101520001B3251F01D3249F4689406C00E94B50A7E
:10153000610F711D811D911D119110531A30B0F36F
:101540003EF490958095709561957F4F8F4F9F4F9A
:101550001F910895BB274A3031F4992322F4BDE24C
:10156000909581959F4F0C94CB0A592F482F372F78
:10157000262F660F771F881F991F660F771F881FFA
:10158000991F620F731F841F951F660F771F881F97
:10159000991F0895BB27FB015527AA27880F991F7C
:1015A000AA1FA41710F0A41B83955051B9F7A05D92
:1015B000AA3308F0A95DA193009779F7B111B1930F
:1015C0001192CB010C94480CA0E0B0E0E9EEFAE0F7
:1015D00078C1EC016B016115710519F0FB01808385
:1015E00091837E01FFEFEF1AFF0A0881802F90E0C0
:1015F0002ED1892B11F0E701F4CF0D3239F47E01A1
:1016000082E0E80EF11C098111E008C00B3229F4D8
:101610007E0192E0E90EF11C098110E0E7012197BB
:1016200043E050E068EC70E0CE011AD1892BB9F4A8
:10163000239645E050E063EC70E0CE0111D1892B98
:1016400009F42596C114D10419F0F601C083D183A1
:101650001111F0C060E070E080E89FE7F4C043E063
:1016600050E060EC70E0CE01FBD0892B59F4C1143E
:10167000D10409F4E4C0F2E0EF0EF11CF601E082BF
:10168000F182DDC020E030E0A901C0E0D0E0F70148
:1016900080EDA82EA00E89E08A1528F1912F926086
:1016A000B92E812F887012FF04C0811123C02196AA
:1016B00021C081112197A5E0B0E0E9DEDC01CB017A
:1016C000880F991FAA1FBB1F9C01AD012A0D311D58
:1016D000411D511D283989E93807480789E1580714
:1016E00048F0166006C09EEFA9120AC013FD40C064
:1016F0001860B12E8FEFE81AF80A00811B2DC7CFB2
:10170000802F8F7D8534A1F580818D3211F4106199
:1017100006C08B3221F0319661E070E004C0818117
:10172000329662E070E080538A3018F0E61BF70BC7
:101730001FC060E070E060389CE079075CF4DB017A
:10174000AA0FBB1FAA0FBB1F6A0F7B1F660F771F55
:10175000680F711D3196DF0111978C9180538A308B
:1017600050F314FF03C0719561957109C60FD71F1F
:1017700011FF08C0C114D10429F0CF010197F6016F
:1017800080839183CA01B901AEDB212F23702330FE
:1017900019F04B015C0106C04B015C01B7FAB09433
:1017A000B7F8B09420E030E0A901C501B401EEDA49
:1017B000882309F43CC0D7FF06C0D195C195D10953
:1017C0000FED10E002C007EF10E06801F8E1CF1A5A
:1017D000D10890E2E92EF12CCE15DF056CF0F8016E
:1017E0002591359145915491C501B40133DC4B01EC
:1017F0005C01CE19DF09F0CF04501109F594E7948C
:101800000C151D0549F78A2D880F8B2D881F8F3FDA
:1018100041F020E030E0A901C501B401B7DA81113F
:1018200006C082E290E080933E3E90933F3EC50129
:10183000B40109C060E070E080E89FEF04C060E0A0
:1018400070E080EC9FE7CDB7DEB7ECE053C09111BC
:101850000C94580C803219F089508550C8F70895BF
:10186000FB01DC014150504088F08D9181341CF027
:101870008B350CF4805E659161341CF06B350CF493
:10188000605E861B611171F3990B0895881BFCCF74
:10189000DC01FC01672F71917723E1F7329704C0D7
:1018A0007C916D9370836291AE17BF07C8F3089562
:1018B0009927882708952F923F924F925F926F92B7
:1018C0007F928F929F92AF92BF92CF92DF92EF92D0
:1018D000FF920F931F93CF93DF93CDB7DEB7CA1B51
:1018E000DB0BCDBFDEBF09942A88398848885F8426
:1018F0006E847D848C849B84AA84B984C884DF80B0
:10190000EE80FD800C811B81AA81B981CE0FD11D93
:0C191000CDBFDEBFED010895F894FFCFBD
:10191C00302E00523F20202020000D0A456E7465A9
:10192C007220666C6F6174696E6720706F696E747B
:10193C00206E756D626572207468656E20706F77AD
:10194C006572207468656E2078206F7220414F4B51
:10195C000D0A000D0A4E756D5F313F2020000D0AF7
:10196C004E756D5F323F202000446563696D616C7C
:10197C00206672616374696F6E2069732020200089
:0B198C00207820313020706F772000A1
:00000001FF
