:100000000C9434000C9451000C9451000C94510049
:100010000C9451000C9451000C9451000C9451001C
:100020000C9451000C9451000C9451000C9451000C
:100030000C9451000C9459010C9451000C945100F3
:100040000C9451000C9451000C946A010C945100D2
:100050000C9451000C9451000C9451000C945100DC
:100060000C9451000C94510011241FBECFEFD8E026
:10007000DEBFCDBF14E0A0E0B1E0E0EAF5E402C0ED
:1000800005900D92A031B107D9F725E0A0E1B4E0C9
:1000900001C01D92AE35B207E1F70E946F160C94B5
:1000A000CE220C940000EFE6F0E020812160208356
:1000B00090938500809384008FEF86BB84E08093CB
:1000C000810008959091C00095FFFCCF8093C600F9
:1000D00008950F931F93CF93DF93EC018C01085386
:1000E0001F4F8991882329F00E946200C017D10711
:1000F000C1F7DF91CF911F910F91089521EA3FE061
:100100004091C00047FD07C021503109C9F7019750
:10011000A9F780E0089581E008958091C00087FFED
:10012000FCCF8091C60008958CE094E00C946900A7
:1001300093B566BD85BDA89BFECFA89A15BC089552
:10014000EF92FF920F931F93CF93DF9386B1182FF7
:10015000117080FDFBCF6CED82E00E949800D0E032
:10016000C0E000E0EE24E394F12C6CED82E00E940C
:100170009800309B08C0C7010C2E01C0880F0A945C
:10018000EAF7182B0F5F2196C830D10571F76CED97
:1001900082E00E949800309B02C000FD09C080915F
:1001A0005C0590915D05019690935D0580935C05DB
:1001B0006CED82E00E9498006CED82E00E94980055
:1001C000812FDF91CF911F910F91FF90EF900895B4
:1001D000CF92DF92EF92FF921F93CF93DF937C0138
:1001E000389A6CED82E00E949800D0E0C0E010E008
:1001F000CC24C394D12CC6010C2E02C0880F991FA9
:100200000A94E2F78E219F21892B09F138981F5F0C
:100210006CED82E00E9498002196C830D10559F714
:1002200010FF17C038986CED82E00E949800389853
:100230006CED82E00E9498006CED82E0DF91CF913E
:100240001F91FF90EF90DF90CF900C949800389A18
:10025000DFCF389AE8CF0F931F93CF93DF938C01B2
:1002600085E590E00E94E80080EE90E00E94E800C2
:10027000E80160962981888190ED980F9A3014F0FA
:1002800099EC980F80ED820F8A3014F089EC820F80
:100290009295907F890F082E000C990B0E94E80020
:1002A00022970C171D0731F7DF91CF911F910F9106
:1002B00008951F920F920FB60F9211248F9381E031
:1002C00080935B05109281008F910F900FBE0F906D
:1002D0001F9018951F920F920FB60F9211242F9313
:1002E0003F934F935F938F939F93EF93FF93E0918F
:1002F000C600E153E63108F0F7C0F0E0EE57FE4FDC
:100300000C94C82298015402560258025A025C0208
:100310005E0260026202700274027402740274026D
:10032000740274026402660268026A026C026E025F
:1003300081E02091590530915A052330310509F4A7
:1003400012C10CF0D3C02130310509F40CC12230A8
:10035000310509F4E0C02091590530915A05293042
:1003600031050CF486C04091590550915A052091F1
:10037000550530915605421753070CF07AC020916D
:10038000590530915A05237033272130310541F446
:1003900090E1899F900111243093580520935705CF
:1003A0002091590530915A052370332722303105A9
:1003B00051F42091570530915805280F311D309385
:1003C0005805209357052091590530915A052370FF
:1003D00033272330310541F490E1899F90011124A6
:1003E00030935304209352042091590530915A05BB
:1003F00023703327232BE9F52091520430915304C5
:10040000820F932F911D90935304809352048091F7
:10041000520490915304982F88279093530480930B
:1004200052048091520490915304209157053091C9
:100430005805820F931F9093580580935705E091BC
:10044000540581E08E0F809354058091570590915B
:100450005805F0E0EE0FFF1FEC5AFB4F91838083AD
:10046000809150049091510401969093510480938F
:1004700050048091590590915A05019690935A0520
:1004800080935905809154058F7780935405FF918F
:10049000EF919F918F915F914F913F912F910F908D
:1004A0000FBE0F901F90189582E043CF83E041CF9D
:1004B00084E03FCF85E03DCF86E03BCF87E039CF7A
:1004C00088E037CF89E035CF8AE033CF8BE031CF7A
:1004D0008CE02FCF8DE02DCF8EE02BCF8FE029CF7A
:1004E00010925A051092590580E023CF253031052E
:1004F00009F453C00CF440C02630310509F02BCF6D
:100500002091570530915805280F311D309358051B
:100510002093570516C02091570530915805280F94
:10052000311D309358052093570520915705309180
:100530005805220F331F275F3F4F309356052093F6
:100540005505E091540591E09E0F9093540520913C
:10055000570530915805F0E0EE0FFF1FEC5AFB4FA6
:1005600031832083F8CE90E1899F9001112430934C
:10057000580520935705EFCE209157053091580527
:10058000280F311D309358052093570520915705AA
:1005900030915805322F2227EACF409157055091CC
:1005A000580590E1899F90011124240F351FDFCF5A
:1005B000CF93DF9315BC16BC23B5216023BD21E08A
:1005C00025BD2CE327BD25E520931E0410921D04B4
:1005D00010921C04A99BFECF389A2FEF25BB27B59C
:1005E000245C27BD50E040E0A1E0B0E0EFEF2091B7
:1005F0001E04BD01042E01C0660F0A94EAF72623EB
:1006000020931C04222329F030911D043F5F309376
:100610001D04A99BFECF222309F4DCC33898E5BB57
:1006200027B5245C27BD4F5F5F4F48305105F9F671
:1006300020911D0420FFD0C321E020931C04A99B1E
:10064000FECF20911C04222309F4C9C338982FEF50
:1006500025BB27B5245C27BD21E020931C04A99B62
:10066000FECF38982FEF25BB27B5245C27BDA99B6B
:10067000FECF20911C04222309F4B3C338982FEF36
:1006800025BB27B5245C27BD24E020931E041092CF
:100690001D0410921C04A99BFECF389A2FEF25BB96
:1006A00027B5245C27BD50E040E0A1E0B0E0EFEFCB
:1006B00020911E04BD01042E01C0660F0A94EAF7C2
:1006C000262320931C04222329F030911D043F5F30
:1006D00030931D04A99BFECF222309F484C33898CC
:1006E000E5BB27B5245C27BD4F5F5F4F4830510500
:1006F000F9F620911D0420FF78C321E020931C040B
:10070000A99BFECF20911C04222309F471C33898C1
:100710002FEF25BB27B5245C27BD21E020931C04C7
:10072000A99BFECF38982FEF25BB27B5245C27BDAA
:10073000A99BFECF20911C04222309F45BC33898A7
:100740002FEF25BB27B5245C27BD80931E04109294
:100750001D0410921C04A99BFECF389A2FEF25BBD5
:1007600027B5245C27BD50E040E0A1E0B0E0EFEF0A
:1007700020911E04BD01042E01C0660F0A94EAF701
:10078000262320931C04222329F030911D043F5F6F
:1007900030931D04A99BFECF222309F42DC3389862
:1007A000E5BB27B5245C27BD4F5F5F4F483051053F
:1007B000F9F620911D0420FF21C321E020931C04A1
:1007C000A99BFECF20911C04222309F41AC3389858
:1007D0002FEF25BB27B5245C27BD21E020931C0407
:1007E000A99BFECF38982FEF25BB27B5245C27BDEA
:1007F000A99BFECF20911C04222309F404C338983E
:100800002FEF25BB27B5245C27BD90931E041092C3
:100810001D0410921C04A99BFECF389A2FEF25BB14
:1008200027B5245C27BD50E040E0A1E0B0E0EFEF49
:1008300020911E04BD01042E01C0660F0A94EAF740
:10084000262320931C04222329F030911D043F5FAE
:1008500030931D04A99BFECF222309F4D6C23898F9
:10086000E5BB27B5245C27BD4F5F5F4F483051057E
:10087000F9F620911D0420FFCAC221E020931C0438
:10088000A99BFECF20911C04222309F4C3C23898EF
:100890002FEF25BB27B5245C27BD21E020931C0446
:1008A000A99BFECF38982FEF25BB27B5245C27BD29
:1008B000A99BFECF20911C04222309F4ADC23898D5
:1008C0002FEF25BB27B5245C27BD1092180410928A
:1008D0001D043099FECF15BC16BC23B5216023BD85
:1008E00021E025BD2EE127BDA99BFECF27B5245CC5
:1008F00027BD2FEF25BB30E020E0E1E05FEFA1E076
:10090000B0E0A99BFECF309B89C2E093170455BB92
:1009100047B5445C47BD40911704442381F04091A2
:100920001804BD01022E01C0660F0A94EAF7462B97
:100930004093180440911D044F5F40931D042F5FA6
:100940003F4F28303105E9F6A99BFECF309B69C2A5
:1009500021E0209317042FEF25BB27B5245C27BD8A
:1009600020911704222321F020911D0420FD0AC0AC
:1009700020915C0530915D052F5F3F4F30935D0501
:1009800020935C05A99BFECF309B4EC221E02093B3
:1009900017042FEF25BB27B5245C27BDA99BFECFED
:1009A000309B45C221E0209317042FEF25BB27B5CC
:1009B000245C27BD15BC2091180430E0322F22277B
:1009C000BC016F5F7F4F15BC16BC83B5816083BDD2
:1009D00081E085BD8CE387BD85E580931E04109280
:1009E0001D0410921C04A99BFECF389A8FEF85BB83
:1009F00087B5845C87BD50E040E0C1E0D0E0AFEF58
:100A000090911E04FE01042E01C0EE0F0A94EAF735
:100A10009E2390931C04992329F080911D048F5FDD
:100A200080931D04A99BFECF992309F403C2389833
:100A3000A5BB87B5845C87BD4F5F5F4F48305105CC
:100A4000F9F680911D0480FFF7C181E080931C04BA
:100A5000A99BFECF80911C04882309F4F0C138982B
:100A60008FEF85BB87B5845C87BD81E080931C04D4
:100A7000A99BFECF38988FEF85BB87B5845C87BD77
:100A8000A99BFECF80911C04882309F4DAC1389811
:100A90008FEF85BB87B5845C87BD84E080931E049F
:100AA00010921D0410921C04A99BFECF389A8FEF60
:100AB00085BB87B5845C87BD50E040E0C1E0D0E0F5
:100AC000AFEF90911E04FE01042E01C0EE0F0A94B8
:100AD000EAF79E2390931C04992329F080911D042A
:100AE0008F5F80931D04A99BFECF992309F4ABC1AE
:100AF0003898A5BB87B5845C87BD4F5F5F4F483092
:100B00005105F9F680911D0480FF9FC181E080931B
:100B10001C04A99BFECF80911C04882309F498C172
:100B200038988FEF85BB87B5845C87BD81E0809363
:100B30001C04A99BFECF38988FEF85BB87B5845CDA
:100B400087BDA99BFECF80911C04882309F482C134
:100B500038988FEF85BB87B5845C87BD60931E0492
:100B600010921D0410921C04A99BFECF389A8FEF9F
:100B700085BB87B5845C87BD50E040E0C1E0D0E034
:100B8000AFEF90911E04FE01042E01C0EE0F0A94F7
:100B9000EAF79E2390931C04992329F080911D0469
:100BA0008F5F80931D04A99BFECF992309F454C144
:100BB0003898A5BB87B5845C87BD4F5F5F4F4830D1
:100BC0005105F9F680911D0480FF48C181E08093B2
:100BD0001C04A99BFECF80911C04882309F441C109
:100BE00038988FEF85BB87B5845C87BD81E08093A3
:100BF0001C04A99BFECF38988FEF85BB97B5945CFA
:100C000097BDA99BFECF80911C04882309F42BC1BA
:100C100038988FEF85BB97B5945C97BD70931E0491
:100C200010921D0410921C04A99BFECF389A8FEFDE
:100C300085BB87B5845C87BD50E040E0A1E0B0E0B3
:100C4000EFEF80911E04BD01042E01C0660F0A94CF
:100C5000EAF7862380931C04882329F090911D04D1
:100C60009F5F90931D04A99BFECF882309F4FDC0CC
:100C70003898E5BB87B5845C87BD4F5F5F4F4830D0
:100C80005105F9F680911D0480FFF1C081E0809349
:100C90001C04A99BFECF80911C04882309F4EAC0A0
:100CA00038988FEF85BB87B5845C87BD81E08093E2
:100CB0001C04A99BFECF38988FEF85BB87B5845C59
:100CC00087BDA99BFECF80911C04882309F4D4C062
:100CD00038988FEF85BB87B5845C87BD1092180468
:100CE00010921D043099FECF15BC16BC83B58160EF
:100CF00083BD81E085BD8EE187BDA99BFECF87B511
:100D0000845C87BD8FEF85BB90E080E0E1E05FEF22
:100D1000A1E0B0E0A99BFECF309BB0C0E0931704E8
:100D200055BB47B5445C47BD40911704442381F04F
:100D300040911804BD01082E01C0660F0A94EAF71D
:100D4000462B4093180440911D044F5F40931D04AF
:100D5000019688309105F1F6A99BFECF309B91C09A
:100D600081E0809317048FEF85BB87B5845C87BDD6
:100D700080911704882321F080911D0480FD09C013
:100D800080915C0590915D05019690935D0580933F
:100D90005C05A99BFECF309B77C081E08093170450
:100DA0008FEF85BB87B5845C87BDA99BFECF309B49
:100DB0006EC081E0809317048FEF85BB87B5845C9C
:100DC00087BD15BC80911804A901482BCA01DF9189
:100DD000CF910895389A23CC10921C0430CC389AC5
:100DE00036CC389A4CCC389A7BCC10921C0488CCE8
:100DF000389A8ECC389AA4CC389AD2CC10921C0453
:100E0000DFCC389AE5CC389AFBCC389A29CD1092B1
:100E10001C0436CD389A3CCD389A52CD1092170426
:100E200076CD1092170497CD10921704B2CD109280
:100E30001704BBCD389AFCCD10921C0409CE389A09
:100E40000FCE389A25CE389A54CE10921C0461CE1B
:100E5000389A67CE389A7DCE389AABCE10921C0461
:100E6000B8CE389ABECE389AD4CE389A02CF1092E5
:100E70001C040FCF389A15CF389A2BCF1092170435
:100E80004FCF109217046FCF1092170489CF109292
:100E9000170492CF90912C04809154059817D1F3A8
:100EA000E0912C04F0E0EE0FFF1FEC5AFB4F808125
:100EB0009181909333048093320480912C048F5F4E
:100EC00080932C0480912C048F7780932C048FB70F
:100ED00080931604F89416BC83B5816083BD81E0CD
:100EE00085BD8CE387BD8091320480931E041092EF
:100EF0001D0410921C04A99BFECF389A8FEF85BB6E
:100F000087B5845C87BD30E020E0E1E0F0E06FEF82
:100F100080911E04AF01022E01C0440F0A94EAF72B
:100F2000842380931C04882329F090911D049F5FE3
:100F300090931D04A99BFECF882309F48CC1389897
:100F400065BB87B5845C87BD2F5F3F4F2830310577
:100F5000F9F680911D0480FF80C181E080931C041C
:100F6000A99BFECF80911C04882309F479C138988D
:100F70008FEF85BB87B5845C87BD81E080931C04BF
:100F8000A99BFECF38988FEF85BB87B5845C87BD62
:100F9000A99BFECF80911C04882309F463C1389873
:100FA0008FEF85BB87B5845C87BD109218041092C3
:100FB0001D043099FECF15BC16BC83B5816083BD7E
:100FC00081E085BD8EE187BDA99BFECF87B5845C9E
:100FD00087BD8FEF85BB90E080E061E03FEFE1E00F
:100FE000F0E0A99BFECF309B3FC16093170435BB57
:100FF00027B5245C27BD20911704222381F020917E
:101000001804AF01082E01C0440F0A94EAF7242BFC
:101010002093180420911D042F5F20931D04019636
:1010200088309105F1F6A99BFECF309B20C181E06D
:10103000809317048FEF85BB87B5845C87BD809153
:101040001704882321F080911D0480FD09C0809140
:101050005C0590915D05019690935D0580935C051C
:10106000A99BFECF309B06C181E0809317048FEFD0
:1010700085BB87B5845C87BDA99BFECF309BFDC037
:1010800081E0809317048FEF85BB87B5845C87BDB3
:1010900015BC16BC83B5816083BD81E085BD8CE342
:1010A00087BD8091330480931E0410921D0410921A
:1010B0001C04A99BFECF389A8FEF85BB87B5845C53
:1010C00087BD30E020E0E1E0F0E06FEF80911E04AA
:1010D000AF01022E01C0440F0A94EAF784238093E3
:1010E0001C04882329F090911D049F5F90931D0498
:1010F000A99BFECF882309F4C3C0389865BB87B588
:10110000845C87BD2F5F3F4F28303105F9F6809111
:101110001D0480FFB7C081E080931C04A99BFECF13
:1011200080911C04882309F4B0C038988FEF85BBE8
:1011300087B5845C87BD81E080931C04A99BFECFAA
:1011400038988FEF85BB87B5845C87BDA99BFECFA0
:1011500080911C04882309F49AC038988FEF85BBCE
:1011600087B5845C87BD1092180410921D043099D5
:10117000FECF15BC16BC83B5816083BD81E085BD03
:101180008EE187BDA99BFECF87B5845C87BD8FEFBD
:1011900085BB90E080E061E03FEFE1E0F0E0A99BFB
:1011A000FECF309B76C06093170435BB27B5245C17
:1011B00027BD20911704222381F020911804AF014C
:1011C000082E01C0440F0A94EAF7242B2093180438
:1011D00020911D042F5F20931D04019688309105F6
:1011E000F1F6A99BFECF309B57C081E08093170496
:1011F0008FEF85BB87B5845C87BD809117048823FA
:1012000021F080911D0480FD09C080915C059091C2
:101210005D05019690935D0580935C05A99BFECFCB
:10122000309B3DC081E0809317048FEF85BB87B56D
:10123000845C87BDA99BFECF309B34C081E0809346
:1012400017048FEF85BB87B5845C87BD15BC809183
:1012500016048FBF0895389A73CE10921C0480CE66
:10126000389A86CE389A9CCE10921704C0CE10922F
:101270001704E0CE10921704FACE1092170403CF91
:10128000389A3CCF10921C0449CF389A4FCF389AE5
:1012900065CF1092170489CF10921704A9CF10922E
:1012A0001704C3CF10921704CCCF880F991F9C014D
:1012B00030588FB780931604F89415BC16BC83B5CC
:1012C000816083BD81E085BD8CE387BD85E580932A
:1012D0001E0410921D0410921C04A99BFECF389A84
:1012E0008FEF85BB87B5845C87BD50E040E0A1E00F
:1012F000B0E0EFEF90911E04BD01042E01C0660F17
:101300000A94EAF7962390931C04992329F080917C
:101310001D048F5F80931D04A99BFECF992309F4C0
:10132000C8C33898E5BB87B5845C87BD4F5F5F4F06
:1013300048305105F9F680911D0480FFBCC381E05F
:1013400080931C04A99BFECF80911C04882309F480
:10135000B5C338988FEF85BB87B5845C87BD81E0C6
:1013600080931C04A99BFECF38988FEF85BB87B56F
:10137000845C87BDA99BFECF80911C04882309F45F
:101380009FC338988FEF85BB87B5845C87BD89E69E
:1013900080931E0410921D0410921C04A99BFECF82
:1013A000389A8FEF85BB87B5845C87BD50E040E0FD
:1013B000A1E0B0E0EFEF90911E04BD01042E01C04A
:1013C000660F0A94EAF7962390931C04992329F058
:1013D00080911D048F5F80931D04A99BFECF9923EC
:1013E00009F470C33898E5BB87B5845C87BD4F5F4F
:1013F0005F4F48305105F9F680911D0480FF64C3AA
:1014000081E080931C04A99BFECF80911C0488235B
:1014100009F45DC338988FEF85BB87B5845C87BDC1
:1014200081E080931C04A99BFECF38988FEF85BB89
:1014300087B5845C87BDA99BFECF80911C0488235F
:1014400009F447C338988FEF85BB87B5845C87BDA7
:1014500020931E0410921D0410921C04A99BFECF21
:10146000389A8FEF85BB87B5845C87BD50E040E03C
:10147000A1E0B0E0EFEF90911E04BD01042E01C089
:10148000660F0A94EAF7962390931C04992329F097
:1014900080911D048F5F80931D04A99BFECF99232B
:1014A00009F419C33898E5BB87B5845C87BD4F5FE5
:1014B0005F4F48305105F9F680911D0480FF0DC340
:1014C00081E080931C04A99BFECF80911C0488239B
:1014D00009F406C338988FEF85BB87B5845C87BD58
:1014E00081E080931C04A99BFECF38988FEF85BBC9
:1014F00087B5845C87BDA99BFECF80911C0488239F
:1015000009F4F0C238988FEF85BB87B5845C87BD3E
:1015100030931E0410921D0410921C04A99BFECF50
:10152000389A8FEF85BB87B5845C87BD30E020E0BB
:10153000E1E0F0E06FEF80911E04AF01022E01C0E8
:10154000440F0A94EAF7842380931C04882329F02B
:1015500090911D049F5F90931D04A99BFECF88234B
:1015600009F4C2C2389865BB87B5845C87BD2F5F1C
:101570003F4F28303105F9F680911D0480FFB6C237
:1015800081E080931C04A99BFECF80911C048823DA
:1015900009F4AFC238988FEF85BB87B5845C87BDEF
:1015A00081E080931C04A99BFECF38988FEF85BB08
:1015B00087B5845C87BDA99BFECF80911C048823DE
:1015C00009F499C238988FEF85BB87B5845C87BDD5
:1015D0001092180410921D043099FECF15BC16BC51
:1015E00083B5816083BD81E085BD8EE187BDA99B08
:1015F000FECF87B5845C87BD8FEF85BB90E080E030
:1016000061E03FEFE1E0F0E0A99BFECF309B75C2C7
:101610006093170435BB27B5245C27BD20911704C0
:10162000222381F020911804AF01082E01C0440F3D
:101630000A94EAF7242B2093180420911D042F5FAD
:1016400020931D04019688309105F1F6A99BFECFE9
:10165000309B56C281E0809317048FEF85BB87B51E
:10166000845C87BD80911704882321F080911D043C
:1016700080FD09C080915C0590915D050196909375
:101680005D0580935C05A99BFECF309B3CC281E049
:10169000809317048FEF85BB87B5845C87BDA99BBA
:1016A000FECF309B33C281E0809317048FEF85BB60
:1016B00087B5845C87BD15BC15BC16BC83B581603D
:1016C00083BD81E085BD8CE387BD85E580931E04E5
:1016D00010921D0410921C04A99BFECF389A8FEF24
:1016E00085BB87B5845C87BD30E020E0E1E0F0E0B9
:1016F0006FEF80911E04AF01022E01C0440F0A94C7
:10170000EAF7842380931C04882329F090911D0418
:101710009F5F90931D04A99BFECF882309F4F9C114
:10172000389865BB87B5845C87BD2F5F3F4F2830F5
:101730003105F9F680911D0480FFEDC181E08093B1
:101740001C04A99BFECF80911C04882309F4E6C1E8
:1017500038988FEF85BB87B5845C87BD81E0809327
:101760001C04A99BFECF38988FEF85BB87B5845C9E
:1017700087BDA99BFECF80911C04882309F4D0C1AA
:1017800038988FEF85BB87B5845C87BD80EA8093EE
:101790001E0410921D0410921C04A99BFECF389ABF
:1017A0008FEF85BB87B5845C87BD30E020E0E1E04A
:1017B000F0E06FEF80911E04AF01022E01C0440FD4
:1017C0000A94EAF7842380931C04882329F09091DB
:1017D0001D049F5F90931D04A99BFECF882309F4ED
:1017E000A1C1389865BB87B5845C87BD2F5F3F4F2B
:1017F00028303105F9F680911D0480FF95C181E004
:1018000080931C04A99BFECF80911C04882309F4BB
:101810008EC138988FEF85BB87B5845C87BD81E02A
:1018200080931C04A99BFECF38988FEF85BB87B5AA
:10183000845C87BDA99BFECF80911C04882309F49A
:1018400078C138988FEF85BB87B5845C87BD8FE3FF
:1018500080931E0410921D0410921C04A99BFECFBD
:10186000389A8FEF85BB87B5845C87BD30E020E078
:10187000E1E0F0E06FEF80911E04AF01022E01C0A5
:10188000440F0A94EAF7842380931C04882329F0E8
:1018900090911D049F5F90931D04A99BFECF882308
:1018A00009F449C1389865BB87B5845C87BD2F5F53
:1018B0003F4F28303105F9F680911D0480FF3DC16E
:1018C00081E080931C04A99BFECF80911C04882397
:1018D00009F436C138988FEF85BB87B5845C87BD26
:1018E00081E080931C04A99BFECF38988FEF85BBC5
:1018F00087B5845C87BDA99BFECF80911C0488239B
:1019000009F420C138988FEF85BB87B5845C87BD0B
:1019100015BC15BC16BC83B5816083BD81E085BD57
:101920008CE387BD85E580931E0410921D04109200
:101930001C04A99BFECF389A8FEF85BB87B5845CCA
:1019400087BD30E020E0E1E0F0E06FEF80911E0421
:10195000AF01022E01C0440F0A94EAF7842380935A
:101960001C04882329F090911D049F5F90931D040F
:10197000A99BFECF882309F4E7C0389865BB87B5DB
:10198000845C87BD2F5F3F4F28303105F9F6809189
:101990001D0480FFDBC081E080931C04A99BFECF67
:1019A00080911C04882309F4D4C038988FEF85BB3C
:1019B00087B5845C87BD81E080931C04A99BFECF22
:1019C00038988FEF85BB87B5845C87BDA99BFECF18
:1019D00080911C04882309F4BEC038988FEF85BB22
:1019E00087B5845C87BD84E680931E0410921D0435
:1019F00010921C04A99BFECF389A8FEF85BB87B548
:101A0000845C87BD30E020E0E1E0F0E06FEF8091A2
:101A10001E04AF01022E01C0440F0A94EAF784238A
:101A200080931C04882329F090911D049F5F90935C
:101A30001D04A99BFECF882309F48FC0389865BB8D
:101A400087B5845C87BD2F5F3F4F28303105F9F69D
:101A500080911D0480FF83C081E080931C04A99BBA
:101A6000FECF80911C04882309F47CC038988FEF46
:101A700085BB87B5845C87BD81E080931C04A99BEE
:101A8000FECF38988FEF85BB87B5845C87BDA99B57
:101A9000FECF80911C04882309F466C038988FEF2C
:101AA00085BB87B5845C87BD15BC809116048FBF4C
:101AB0000895389A37CC10921C0444CC389A4ACCFA
:101AC000389A60CC389A8FCC10921C049CCC389AEF
:101AD000A2CC389AB8CC389AE6CC10921C04F3CC3D
:101AE000389AF9CC389A0FCD389A3DCD10921C0413
:101AF0004ACD389A50CD389A66CD109217048ACDC7
:101B000010921704AACD10921704C4CD1092170496
:101B1000CDCD389A06CE10921C0413CE389A19CE29
:101B2000389A2FCE389A5ECE10921C046BCE389A1B
:101B300071CE389A87CE389AB6CE10921C04C3CE96
:101B4000389AC9CE389ADFCE389A18CF10921C0432
:101B500025CF389A2BCF389A41CF389A70CF109230
:101B60001C047DCF389A83CF389A99CF8091260470
:101B70009091270490932F0480932E049C01207E43
:101B80003F7130932A0420932904AC01421B530B6C
:101B900050931404409313042091130430911404BF
:101BA00087708093240480E2821B8093250408952B
:101BB000EF92FF920F931F93CF93DF9300D000D04B
:101BC00000D0CDB7DEB7972FE0E0E82E880FFF08F2
:101BD0008E010F5F1F4F862FB7010E94A0229B012D
:101BE000D801AE0FB11D8C938A303CF5805D8C938B
:101BF000EF5F622F932F232B71F7E43040F4D8016D
:101C0000AE0FB11D80E3EF5F8D93E430E1F7E00F9D
:101C1000F12FF11D1082F8017F01E01AF10A819184
:101C20008111FACFE00EF11E0E151F0541F0F701EC
:101C300082917F010E946200F7CF895CD8CF85E056
:101C400091E026960FB6F894DEBF0FBECDBFDF91B0
:101C5000CF911F910F91FF90EF900C9469000F931B
:101C60001F93CF93DF9390912C0480915405981784
:101C7000D1F3E0912C04F0E0EE0FFF1FEC5AFB4F84
:101C800080818093280490912C049F5F90932C0472
:101C900090912C049F7790932C04282F87FF02C0EB
:101CA00021E0280F2595209315049091310490315F
:101CB0001CF491E090932B049091310490932304B1
:101CC0008093310490912C04809154059817D1F39E
:101CD000E0912C04F0E0EE0FFF1FEC5AFB4F8081E7
:101CE000918130912C043F5F30932C0430912C046F
:101CF0003F7730932C049695879590932704809393
:101D00002604AC0141505109420F511D27FD5A953F
:101D1000509322044093210420911F042093200417
:101D20009C0127703327232B89F021E020931F0487
:101D300020912E0430912F048217930751F41092B2
:101D40002D04DF91CF911F910F91089510921F04E0
:101D5000EFCF0097B1F3EC01C07EDF710091290451
:101D600010912A04C80180968C179D0730F4B801A1
:101D7000660F771F80E10E94D80DC017D10709F7C1
:101D8000DECF93B5926093BD6093B2008093B100B3
:101D9000B89BFECFB89A1092B1000895880F991F92
:101DA0009C0130588FB780931604F89415BC16BC6C
:101DB00083B5816083BD81E085BD8CE387BD85E50A
:101DC00080931E0410921D0410921C04A99BFECF48
:101DD000389A8FEF85BB87B5845C87BD50E040E0C3
:101DE000A1E0B0E0EFEF90911E04BD01042E01C010
:101DF000660F0A94EAF7962390931C04992329F01E
:101E000080911D048F5F80931D04A99BFECF9923B1
:101E100009F4EFC53898E5BB87B5845C87BD4F5F93
:101E20005F4F48305105F9F680911D0480FFE3C5EE
:101E300081E080931C04A99BFECF80911C04882321
:101E400009F4DCC538988FEF85BB87B5845C87BD06
:101E500081E080931C04A99BFECF38988FEF85BB4F
:101E600087B5845C87BDA99BFECF80911C04882325
:101E700009F4C6C538988FEF85BB87B5845C87BDEC
:101E800085E480931E0410921D0410921C04A99BEB
:101E9000FECF389A8FEF85BB87B5845C87BD50E055
:101EA00040E0A1E0B0E0EFEF90911E04BD01042EF0
:101EB00001C0660F0A94EAF7962390931C049923B5
:101EC00029F080911D048F5F80931D04A99BFECF94
:101ED000992309F497C53898E5BB87B5845C87BD1D
:101EE0004F5F5F4F48305105F9F680911D0480FF28
:101EF0008BC581E080931C04A99BFECF80911C04BC
:101F0000882309F484C538988FEF85BB87B5845C36
:101F100087BD81E080931C04A99BFECF38988FEF8A
:101F200085BB87B5845C87BDA99BFECF80911C04CF
:101F3000882309F46EC538988FEF85BB87B5845C1C
:101F400087BD88E080931E0410921D0410921C042B
:101F5000A99BFECF389A8FEF85BB87B5845C87BD80
:101F600050E040E0A1E0B0E0EFEF90911E04BD0131
:101F7000042E01C0660F0A94EAF7962390931C047E
:101F8000992329F080911D048F5F80931D04A99BE4
:101F9000FECF992309F43FC53898E5BB87B5845C2B
:101FA00087BD4F5F5F4F48305105F9F680911D04A2
:101FB00080FF33C581E080931C04A99BFECF8091F4
:101FC0001C04882309F42CC538988FEF85BB87B58E
:101FD000845C87BD81E080931C04A99BFECF389868
:101FE0008FEF85BB87B5845C87BDA99BFECF8091B1
:101FF0001C04882309F416C538988FEF85BB87B574
:10200000845C87BD80E180931E0410921D041092B1
:102010001C04A99BFECF389A8FEF85BB87B5845CE3
:1020200087BD50E040E0A1E0B0E0EFEF90911E04EA
:10203000BD01042E01C0660F0A94EAF7962390931F
:102040001C04992329F080911D048F5F80931D0447
:10205000A99BFECF992309F4E7C43898E5BB87B55F
:10206000845C87BD4F5F5F4F48305105F9F6809122
:102070001D0480FFDBC481E080931C04A99BFECF7C
:1020800080911C04882309F4D4C438988FEF85BB51
:1020900087B5845C87BD81E080931C04A99BFECF3B
:1020A00038988FEF85BB87B5845C87BDA99BFECF31
:1020B00080911C04882309F4BEC438988FEF85BB37
:1020C00087B5845C87BD1092180410921D04309966
:1020D000FECF15BC16BC83B5816083BD81E085BD94
:1020E0008EE187BDA99BFECF87B5845C87BD8FEF4E
:1020F00085BB90E080E0E1E05FEFA1E0B0E0A99B6C
:10210000FECF309B9AC4E093170455BB47B5445C9F
:1021100047BD40911704442381F040911804BD014C
:10212000082E01C0660F0A94EAF7462B4093180464
:1021300040911D044F5F40931D0401968830910526
:10214000F1F6A99BFECF309B7BC481E080931704FE
:102150008FEF85BB87B5845C87BD8091170488238A
:1021600021F080911D0480FD09C080915C05909153
:102170005D05019690935D0580935C05A99BFECF5C
:10218000309B61C481E0809317048FEF85BB87B5D6
:10219000845C87BDA99BFECF309B58C481E08093AF
:1021A00017048FEF85BB87B5845C87BD15BC16BC53
:1021B00083B5816083BD81E085BD8CE387BD2093BD
:1021C0001E0410921D0410921C04A99BFECF389A85
:1021D0008FEF85BB87B5845C87BD50E040E0A1E010
:1021E000B0E0EFEF90911E04BD01042E01C0660F18
:1021F0000A94EAF7962390931C04992329F080917E
:102200001D048F5F80931D04A99BFECF992309F4C1
:1022100020C43898E5BB87B5845C87BD4F5F5F4FAE
:1022200048305105F9F680911D0480FF14C481E007
:1022300080931C04A99BFECF80911C04882309F481
:102240000DC438988FEF85BB87B5845C87BD81E06E
:1022500080931C04A99BFECF38988FEF85BB87B570
:10226000845C87BDA99BFECF80911C04882309F460
:10227000F7C338988FEF85BB87B5845C87BD3093F3
:102280001E0410921D0410921C04A99BFECF389AC4
:102290008FEF85BB87B5845C87BD30E020E0E1E04F
:1022A000F0E06FEF80911E04AF01022E01C0440FD9
:1022B0000A94EAF7842380931C04882329F09091E0
:1022C0001D049F5F90931D04A99BFECF882309F4F2
:1022D000C9C3389865BB87B5845C87BD2F5F3F4F06
:1022E00028303105F9F680911D0480FFBDC381E0DF
:1022F00080931C04A99BFECF80911C04882309F4C1
:10230000B6C338988FEF85BB87B5845C87BD81E005
:1023100080931C04A99BFECF38988FEF85BB87B5AF
:10232000845C87BDA99BFECF80911C04882309F49F
:10233000A0C338988FEF85BB87B5845C87BD1092AA
:10234000180410921D043099FECF15BC16BC83B53D
:10235000816083BD81E085BD8EE187BDA99BFECFF5
:1023600087B5845C87BD8FEF85BB90E080E061E03E
:102370003FEFE1E0F0E0A99BFECF309B7CC3609390
:10238000170435BB27B5245C27BD209117042223F1
:1023900081F020911804AF01082E01C0440F0A9467
:1023A000EAF7242B2093180420911D042F5F20931B
:1023B0001D04019688309105F1F6A99BFECF309B54
:1023C0005DC381E0809317048FEF85BB87B5845C84
:1023D00087BD80911704882321F080911D0480FD22
:1023E00009C080915C0590915D05019690935D0513
:1023F00080935C05A99BFECF309B43C381E0809313
:1024000017048FEF85BB87B5845C87BDA99BFECF82
:10241000309B3AC381E0809317048FEF85BB87B56B
:10242000845C87BD15BC8AE20E94620015BC16BCA4
:1024300083B5816083BD81E085BD8CE387BD85E583
:1024400080931E0410921D0410921C04A99BFECFC1
:10245000389A8FEF85BB87B5845C87BD30E020E07C
:10246000E1E0F0E06FEF80911E04AF01022E01C0A9
:10247000440F0A94EAF7842380931C04882329F0EC
:1024800090911D049F5F90931D04A99BFECF88230C
:1024900009F4FDC2389865BB87B5845C87BD2F5FA2
:1024A0003F4F28303105F9F680911D0480FFF1C2BD
:1024B00081E080931C04A99BFECF80911C0488239B
:1024C00009F4EAC238988FEF85BB87B5845C87BD75
:1024D00081E080931C04A99BFECF38988FEF85BBC9
:1024E00087B5845C87BDA99BFECF80911C0488239F
:1024F00009F4D4C238988FEF85BB87B5845C87BD5B
:1025000084E480931E0410921D0410921C04A99B65
:10251000FECF389A8FEF85BB87B5845C87BD30E0EE
:1025200020E0E1E0F0E06FEF80911E04AF01022EA9
:1025300001C0440F0A94EAF7842380931C04882383
:1025400029F090911D049F5F90931D04A99BFECFDD
:10255000882309F4A5C2389865BB87B5845C87BD1C
:102560002F5F3F4F28303105F9F680911D0480FF21
:1025700099C281E080931C04A99BFECF80911C042A
:10258000882309F492C238988FEF85BB87B5845CA5
:1025900087BD81E080931C04A99BFECF38988FEF04
:1025A00085BB87B5845C87BDA99BFECF80911C0449
:1025B000882309F47CC238988FEF85BB87B5845C8B
:1025C00087BD10921E0410921D0410921C04A99B3A
:1025D000FECF389A8FEF85BB87B5845C87BD30E02E
:1025E00020E0E1E0F0E06FEF80911E04AF01022EE9
:1025F00001C0440F0A94EAF7842380931C048823C3
:1026000029F090911D049F5F90931D04A99BFECF1C
:10261000882309F44EC2389865BB87B5845C87BDB2
:102620002F5F3F4F28303105F9F680911D0480FF60
:1026300042C281E080931C04A99BFECF80911C04C0
:10264000882309F43BC238988FEF85BB87B5845C3B
:1026500087BD81E080931C04A99BFECF38988FEF43
:1026600085BB87B5845C87BDA99BFECF80911C0488
:10267000882309F425C238988FEF85BB87B5845C21
:1026800087BD80E180931E0410921D0410921C04EB
:10269000A99BFECF389A8FEF85BB87B5845C87BD39
:1026A00030E020E0E1E0F0E06FEF80911E04AF0148
:1026B000022E01C0440F0A94EAF7842380931C047D
:1026C000882329F090911D049F5F90931D04A99B7E
:1026D000FECF882309F4F6C1389865BB87B5845CC2
:1026E00087BD2F5F3F4F28303105F9F680911D04DB
:1026F00080FFEAC181E080931C04A99BFECF8091FA
:102700001C04882309F4E3C138988FEF85BB87B593
:10271000845C87BD81E080931C04A99BFECF389820
:102720008FEF85BB87B5845C87BDA99BFECF809169
:102730001C04882309F4CDC138988FEF85BB87B579
:10274000845C87BD1092180410921D043099FECF4E
:1027500015BC16BC83B5816083BD81E085BD8EE16B
:1027600087BDA99BFECF87B5845C87BD8FEF85BBF6
:1027700090E080E061E03FEFE1E0F0E0A99BFECF78
:10278000309BA9C16093170435BB27B5245C27BDD6
:1027900020911704222381F020911804AF01082E04
:1027A00001C0440F0A94EAF7242B209318042091C7
:1027B0001D042F5F20931D04019688309105F1F6CA
:1027C000A99BFECF309B8AC181E0809317048FEFD5
:1027D00085BB87B5845C87BD80911704882321F071
:1027E00080911D0480FD09C080915C0590915D057C
:1027F000019690935D0580935C05A99BFECF309B6D
:1028000070C181E0809317048FEF85BB87B5845C2E
:1028100087BDA99BFECF309B67C181E080931704E1
:102820008FEF85BB87B5845C87BD15BC16BC83B5AF
:10283000816083BD81E085BD9CE397BD80931E04CC
:1028400010921D0410921C04A99BFECF389A8FEFA2
:1028500085BB87B5845C87BD30E020E0E1E0F0E037
:102860006FEF80911E04AF01022E01C0440F0A9445
:10287000EAF7842380931C04882329F090911D0497
:102880009F5F90931D04A99BFECF882309F42FC15D
:10289000389865BB87B5845C87BD2F5F3F4F283074
:1028A0003105F9F680911D0480FF23C181E08093FA
:1028B0001C04A99BFECF80911C04882309F41CC131
:1028C00038988FEF85BB87B5845C87BD81E08093A6
:1028D0001C04A99BFECF38988FEF85BB87B5845C1D
:1028E00087BDA99BFECF80911C04882309F406C1F3
:1028F00038988FEF85BB87B5845C87BD109218042C
:1029000010921D043099FECF15BC16BC83B58160B2
:1029100083BD81E085BD8EE187BDA99BFECF87B5D4
:10292000845C87BD8FEF85BB90E080E061E03FEF86
:10293000E1E0F0E0A99BFECF309BE2C0609317047A
:1029400035BB27B5245C27BD20911704222381F0D5
:1029500020911804AF01082E01C0440F0A94EAF731
:10296000242B2093180420911D042F5F20931D0415
:10297000019688309105F1F6A99BFECF309BC3C02C
:1029800081E0809317048FEF85BB87B5845C87BD9A
:1029900080911704882321F080911D0480FD09C0D7
:1029A00080915C0590915D05019690935D05809303
:1029B0005C05A99BFECF309BA9C081E080931704E2
:1029C0008FEF85BB87B5845C87BDA99BFECF309B0D
:1029D000A0C081E0809317048FEF85BB87B5845C2E
:1029E00087BD15BC809116048FBF64E486E00C940B
:1029F000C10E389A10CA10921C041DCA389A23CAF4
:102A0000389A39CA389A68CA10921C0475CA389A1A
:102A10007BCA389A91CA389AC0CA10921C04CDCA8F
:102A2000389AD3CA389AE9CA389A18CB10921C043B
:102A300025CB389A2BCB389A41CB1092170465CB13
:102A40001092170485CB109217049FCB1092170495
:102A5000A8CB389ADFCB10921C04ECCB389AF2CB7F
:102A6000389A08CC389A36CC10921C0443CC389A49
:102A700049CC389A5FCC1092170483CC109217047B
:102A8000A3CC10921704BDCC10921704C6CC389A70
:102A900002CD10921C040FCD389A15CD389A2BCD4B
:102AA000389A5ACD10921C0467CD389A6DCD389A59
:102AB00083CD389AB1CD10921C04BECD389AC4CDC6
:102AC000389ADACD389A09CE10921C0416CE389A6C
:102AD0001CCE389A32CE1092170456CE109217049C
:102AE00076CE1092170490CE1092170499CE389A91
:102AF000D0CE10921C04DDCE389AE3CE389AF9CEAF
:102B0000109217041DCF109217043DCF1092170496
:102B100057CF1092170460CF0F931F93CF93DF937B
:102B2000C1E0D0E280911504882309F44CC0809163
:102B30001504815080931504C09330040E944A0705
:102B4000809113049091140401969093140480933F
:102B5000130480912E0490912F04019690932F04DA
:102B600080932E04809125048150809325048091C8
:102B7000360490913704019690933704809336047D
:102B80008091130490911404809761F600912904B8
:102B900010912A04C8010E94CE0E109230041092A7
:102BA000140410921304D09325048091240480917E
:102BB0002404882309F4B6CFC0932D04C80180965D
:102BC0000E945509AFCFDF91CF911F910F910895CA
:102BD0000F931F93CF938C01C62F85E590E00E9441
:102BE000E80084E490E00E94E80088E090E10E9420
:102BF000E80080E190E00E94E8000E94A0006EECF6
:102C000083E00E949800C8010E94E8000E94A00092
:102C10006EEC83E00E94980085E590E00E94E80059
:102C200084E490E00E94E80089E090E10E94E800DE
:102C300080E190E00E94E8000E94A0006EEC83E03A
:102C40000E94980082E190E00E94E8000E94A000AB
:102C50006EEC83E00E94980085E590E00E94E80019
:102C600084E490E00E94E80086E090E10E94E800A1
:102C700080E190E00E94E8000E94A0006EEC83E0FA
:102C80000E9498008C2F90E00E94E8000E94A00013
:102C90006EEC83E00E94980085E590E00E94E800D9
:102CA00084E490E00E94E80080E090E10E94E80067
:102CB00080E190E00E94E8000E94A0006EEC83E0BA
:102CC0000E94980087E090E00E94E8000E94A00027
:102CD00062EB85E0CF911F910F910C949800A8951D
:102CE00084B7877F84BF8091600088618093600093
:102CF0001092600080917C00806480937C0085B796
:102D00008F7E85BF14B817B81AB88FEF85B99EEFBC
:102D100098B98BB962EB85E00E9498001092C100CF
:102D20001092C50083E38093C40082E08093C000CA
:102D300088E18093C10086E08093C20010925D0517
:102D400010925C0580E091E00E9469008AEF90E0BB
:102D50000E947E008823B1F38091C6008F7D82356A
:102D600089F78CE094E00E94690087E091E00E947E
:102D700069000E948D0086E696EE0E9453007894CA
:102D8000309B61C0389A00000000000000003898B5
:102D9000309BFECF6CE983E00E94980085E590E0CF
:102DA0000E94E80089EC90E00E94E8008DEF90E03E
:102DB0000E94E8006EEC83E00E94980085E590E0B8
:102DC0000E94E80082EC90E00E94E80086E490E037
:102DD0000E94E8006EEC83E00E94980085E590E098
:102DE0000E94E80085EE90E00E94E800309B04C05D
:102DF00080915B058823D1F380915B0581111AC016
:102E00000E94A00080933804C9E3D4E008E314E0F2
:102E100038E4E32E34E0F32E0E94A0008993EC16F0
:102E2000FD06D1F7F80181918F010E946200C01761
:102E3000D107C1F780915B05882351F087E691E0C7
:102E40000E946900FFCF81E591E00E946900FFCFF9
:102E5000F8941092810080916F008E7F80936F00B4
:102E60008EE791E00E9469008DE991E00E9469007F
:102E70000E948D00893509F0E6C082EB91E00E9446
:102E8000690082EC91E00E942B0185E590E00E94B0
:102E9000E80087E890E00E94E8000E94A00083FD1F
:102EA00004C085ED91E00E9469006EEC83E00E9411
:102EB000980085E590E00E94E80088EC90E00E9490
:102EC000E80089E590E00E94E8006EEC83E00E9453
:102ED000980085E590E00E94E80088EC90E00E9470
:102EE000E80090E080E00E94E8006EEC83E00E9441
:102EF000980010925B0590E080E00E945300789467
:102F00006EEC83E00E94980085E590E00E94E80066
:102F10008BE890E00E94E8000E94A00080931B04D0
:102F20002091190430911A042F5F3F4F30931A04F7
:102F30002093190490915B05911102C080FDE0CFB0
:102F4000F89480915B05882309F47AC089EE91E0BA
:102F50000E94690060911B0470E080E10E94D80D1E
:102F60006091190470911A048AE00E94D80D0E94A1
:102F7000940081E392E00E942B0185E590E00E949D
:102F8000E80087E890E00E94E8000E94A0006EEC54
:102F900083E00E94980085E590E00E94E80088ECBC
:102FA00090E00E94E80089E590E00E94E8006EEC65
:102FB00083E00E94980085E590E00E94E80088EC9C
:102FC00090E00E94E80090E080E00E94E8006EEC53
:102FD00083E00E94980010925B0590E080E00E94E0
:102FE000530078946EEC83E00E94980085E590E0B1
:102FF0000E94E8008BE890E00E94E8000E94A00098
:1030000080931B042091190430911A042F5F3F4FC5
:1030100030931A042093190490915B05911102C01A
:1030200083FFE0CFF89480915B05882389F084E4E6
:1030300092E00E94690087E592E00E946900FFCF5C
:1030400089E092E085CF8EE192E00E9469008FCF07
:1030500089E692E00E94690084E892E00E9469009B
:10306000C0E0D1E185E590E00E94E80084E090E0D6
:103070000E94E800CE010E94E80081E190E00E94F9
:10308000E8000E94A000682F70E080E10E94D80D47
:103090006EEC83E00E9498002196C330F1E1DF07D7
:1030A00009F70E9494008FE992E00E94690060E0B5
:1030B00080E892E10E94E81560E081E892E10E94D8
:1030C000E8156EE782E892E10E94E81567EF85E86F
:1030D00092E10E94E8156DEF86E892E10E94E81502
:1030E00060E087E892E10E94E81560E088E892E1FC
:1030F0000E94E81583EB92E00E9469000E948D0017
:10310000893509F0AFC78BEC92E00E9469001092FC
:10311000370410923604109251041092500480E14A
:10312000809331041092300410922F0410922E04D8
:1031300010922D041092540510922C0410922B041E
:1031400010925A05109259058091C10080688093B1
:10315000C10078940E942F0E0E94B60D8091290420
:1031600090912A040E9455090E948C1500E210E0FB
:103170000E942F0E80912804882309F43FC0C0913B
:103180002604D091270480912E0490912F04C81713
:10319000D90769F480912B04882381F0813049F1AB
:1031A00080912E0490912F04C817D90721F089ED42
:1031B00092E00E9469000E948C15DACF809124046D
:1031C00020912504A801481B510987FD5395241718
:1031D000150689F7CE01807E9F7190932A04809313
:1031E00029049E012F713327232B29F70E945509AB
:1031F000D7CF0E94B60D10922B04D2CF0E9494001C
:1032000060912304062E000C770B80E10E94D80DFC
:103210008091230480FF2AC081E60E946200E09131
:103220005405F0E0EE0FFF1FEC5AFB4F11821082A5
:10323000809154058F5F809354050E944A078091C6
:1032400036049091370401969093370480933604A6
:1032500021E0209330048091210490912204019672
:103260008F719927892B11F020932D04F894809168
:10327000C1008F778093C1008AE090E00E947E00B9
:10328000813019F48091C600F7CF0E94940080919C
:103290002004805D0E9462000E94940080911F04BF
:1032A000805D0E9462000E949400C0912D0480E322
:1032B0008C0F0E9462000E949400D091300480E341
:1032C0008D0F0E94620080912004882309F415C5A7
:1032D000D111A7C1CC2309F4A4C181E40E946200EA
:1032E00015BC16BC83B5816083BD81E085BD8CE3D0
:1032F00087BD85E580931E0410921D0410921C0466
:10330000A99BFECF389A8FEF85BB87B5845C87BDBC
:1033100030E020E0E1E0F0E06FEF80911E04AF01CB
:10332000022E01C0440F0A94EAF7842380931C0400
:10333000882329F090911D049F5F90931D04A99B01
:10334000FECF882309F4DCC6389865BB87B5845C5A
:1033500087BD2F5F3F4F28303105F9F680911D045E
:1033600080FFD0C610921C04A99BFECF80911C0444
:10337000882309F4CBC638988FEF85BB87B5845C6A
:1033800087BD81E080931C04A99BFECF38988FEF06
:1033900085BB87B5845C87BDA99BFECF80911C044B
:1033A000882309F4B5C638988FEF85BB87B5845C50
:1033B00087BD15BC65E484E00E94C10E389A63E8BD
:1033C00084E00E94C10E389815BC16BC83B581609C
:1033D00083BD81E085BD8CE887BD85E580931E04B3
:1033E00010921D0410921C04A99BFECF389A8FEFF7
:1033F00085BB87B5845787BD30E020E0E1E0F0E091
:103400006FEF80911E04AF01022E01C0440F0A9499
:10341000EAF7842380931C04882329F090911D04EB
:103420009F5F90931D04A99BFECF882309F472C669
:10343000389865BB87B5845787BD2F5F3F4F2830CD
:103440003105F9F680911D0480FF66C681E0809306
:103450001C04A99BFECF80911C04882309F45FC63D
:1034600038988FEF85BB87B5845787BD81E08093FF
:103470001C04A99BFECF38988FEF85BB87B5845776
:1034800087BDA99BFECF80911C04882309F449C6FF
:1034900038988FEF85BB87B5845787BD89EC8093BB
:1034A0001E0410921D0410921C04A99BFECF389A92
:1034B0008FEF85BB87B5845787BD30E020E0E1E022
:1034C000F0E06FEF80911E04AF01022E01C0440FA7
:1034D0000A94EAF7842380931C04882329F09091AE
:1034E0001D049F5F90931D04A99BFECF882309F4C0
:1034F0001AC6389865BB87B5845787BD2F5F3F4F85
:1035000028303105F9F680911D0480FF0EC681E058
:1035100080931C04A99BFECF80911C04882309F48E
:1035200007C638988FEF85BB87B5845787BD81E084
:1035300080931C04A99BFECF38988FEF85BB87B57D
:10354000845787BDA99BFECF80911C04882309F472
:10355000F1C538988FEF85BB87B5845787BD81E06B
:1035600080931E0410921D0410921C04A99BFECF90
:10357000389A8FEF85BB87B5845787BD30E020E050
:10358000E1E0F0E06FEF80911E04AF01022E01C078
:10359000440F0A94EAF7842380931C04882329F0BB
:1035A00090911D049F5F90931D04A99BFECF8823DB
:1035B00009F4C2C5389865BB87B5845787BD2F5FAE
:1035C0003F4F28303105F9F680911D0480FFB6C5C4
:1035D00081E080931C04A99BFECF80911C0488236A
:1035E00009F4AFC538988FEF85BB87B5845787BD81
:1035F00081E080931C04A99BFECF38988FEF85BB98
:1036000087B5845787BDA99BFECF80911C04882372
:1036100009F499C538988FEF85BB87B5845787BD66
:1036200015BC80913004882309F4B2C180912D0427
:10363000882309F4ADC182E40E94620015BC16BC67
:1036400083B5816083BD81E085BD8CE387BD85E561
:1036500080931E0410921D0410921C04A99BFECF9F
:10366000389A8FEF85BB87B5845C87BD30E020E05A
:10367000E1E0F0E06FEF80911E04AF01022E01C087
:10368000440F0A94EAF7842380931C04882329F0CA
:1036900090911D049F5F90931D04A99BFECF8823EA
:1036A00009F453C5389865BB87B5845C87BD2F5F27
:1036B0003F4F28303105F9F680911D0480FF47C542
:1036C00010921C04A99BFECF80911C04882309F44E
:1036D00042C538988FEF85BB87B5845C87BD81E094
:1036E00080931C04A99BFECF38988FEF85BB87B5CC
:1036F000845C87BDA99BFECF80911C04882309F4BC
:103700002CC538988FEF85BB87B5845C87BD15BC09
:1037100065E484E00E94C10E389A63E884E00E9468
:10372000C10E389815BC16BC83B5816083BD81E09D
:1037300085BD8CE887BD85E580931E0410921D042D
:1037400010921C04A99BFECF389A8FEF85BB87B5DA
:10375000845787BD30E020E0E1E0F0E06FEF80913A
:103760001E04AF01022E01C0440F0A94EAF784231D
:1037700080931C04882329F090911D049F5F9093EF
:103780001D04A99BFECF882309F4E9C4389865BBC2
:1037900087B5845787BD2F5F3F4F28303105F9F635
:1037A00080911D0480FFDDC481E080931C04A99BEF
:1037B000FECF80911C04882309F4D6C438988FEF7B
:1037C00085BB87B5845787BD81E080931C04A99B86
:1037D000FECF38988FEF85BB87B5845787BDA99BEF
:1037E000FECF80911C04882309F4C0C438988FEF61
:1037F00085BB87B5845787BD89EC80931E041092E2
:103800001D0410921C04A99BFECF389A8FEF85BB34
:1038100087B5845787BD30E020E0E1E0F0E06FEF4E
:1038200080911E04AF01022E01C0440F0A94EAF7F2
:10383000842380931C04882329F090911D049F5FAA
:1038400090931D04A99BFECF882309F491C4389856
:1038500065BB87B5845787BD2F5F3F4F2830310543
:10386000F9F680911D0480FF85C481E080931C04DB
:10387000A99BFECF80911C04882309F47EC438984C
:103880008FEF85BB87B5845787BD81E080931C048B
:10389000A99BFECF38988FEF85BB87B5845787BD2E
:1038A000A99BFECF80911C04882309F468C4389832
:1038B0008FEF85BB87B5845787BD81E080931E0459
:1038C00010921D0410921C04A99BFECF389A8FEF12
:1038D00085BB87B5845787BD30E020E0E1E0F0E0AC
:1038E0006FEF80911E04AF01022E01C0440F0A94B5
:1038F000EAF7842380931C04882329F090911D0407
:103900009F5F90931D04A99BFECF882309F439C4BF
:10391000389865BB87B5845787BD2F5F3F4F2830E8
:103920003105F9F680911D0480FF2DC481E080935C
:103930001C04A99BFECF80911C04882309F426C493
:1039400038988FEF85BB87B5845787BD81E080931A
:103950001C04A99BFECF38988FEF85BB87B5845791
:1039600087BDA99BFECF80911C04882309F410C455
:1039700038988FEF85BB87B5845787BD15BC80917C
:10398000290490912A0480960E94CE0E1092300451
:1039900080913004882309F4B0C180912D048111F5
:1039A000ACC183E40E94620015BC16BC83B5816083
:1039B00083BD81E085BD8CE387BD85E580931E04D2
:1039C00010921D0410921C04A99BFECF389A8FEF11
:1039D00085BB87B5845C87BD30E020E0E1E0F0E0A6
:1039E0006FEF80911E04AF01022E01C0440F0A94B4
:1039F000EAF7842380931C04882329F090911D0406
:103A00009F5F90931D04A99BFECF882309F4C2C336
:103A1000389865BB87B5845C87BD2F5F3F4F2830E2
:103A20003105F9F680911D0480FFB6C310921C0485
:103A3000A99BFECF80911C04882309F4B1C3389858
:103A40008FEF85BB87B5845C87BD81E080931C04C4
:103A5000A99BFECF38988FEF85BB87B5845C87BD67
:103A6000A99BFECF80911C04882309F49BC338983E
:103A70008FEF85BB87B5845C87BD15BC65E484E0AA
:103A80000E94C10E389A63E884E00E94C10E389803
:103A900015BC16BC83B5816083BD81E085BD8CE813
:103AA00087BD85E580931E0410921D0410921C04AE
:103AB000A99BFECF389A8FEF85BB87B5845787BD0A
:103AC00030E020E0E1E0F0E06FEF80911E04AF0114
:103AD000022E01C0440F0A94EAF7842380931C0449
:103AE000882329F090911D049F5F90931D04A99B4A
:103AF000FECF882309F458C3389865BB87B584572F
:103B000087BD2F5F3F4F28303105F9F680911D04A6
:103B100080FF4CC381E080931C04A99BFECF809161
:103B20001C04882309F445C338988FEF85BB87B5FB
:103B3000845787BD81E080931C04A99BFECF3898F1
:103B40008FEF85BB87B5845787BDA99BFECF80913A
:103B50001C04882309F42FC338988FEF85BB87B5E1
:103B6000845787BD89EC80931E0410921D04109227
:103B70001C04A99BFECF389A8FEF85BB87B584576D
:103B800087BD30E020E0E1E0F0E06FEF80911E04BF
:103B9000AF01022E01C0440F0A94EAF784238093F8
:103BA0001C04882329F090911D049F5F90931D04AD
:103BB000A99BFECF882309F400C3389865BB87B55D
:103BC000845787BD2F5F3F4F28303105F9F680912C
:103BD0001D0480FFF4C281E080931C04A99BFECFEA
:103BE00080911C04882309F4EDC238988FEF85BBBF
:103BF00087B5845787BD81E080931C04A99BFECFC5
:103C000038988FEF85BB87B5845787BDA99BFECFBA
:103C100080911C04882309F4D7C238988FEF85BBA4
:103C200087B5845787BD81E080931E0410921D04E0
:103C300010921C04A99BFECF389A8FEF85BB87B5E5
:103C4000845787BD30E020E0E1E0F0E06FEF809145
:103C50001E04AF01022E01C0440F0A94EAF7842328
:103C600080931C04882329F090911D049F5F9093FA
:103C70001D04A99BFECF882309F4A8C2389865BB10
:103C800087B5845787BD2F5F3F4F28303105F9F640
:103C900080911D0480FF9CC281E080931C04A99B3D
:103CA000FECF80911C04882309F495C238988FEFC9
:103CB00085BB87B5845787BD81E080931C04A99B91
:103CC000FECF38988FEF85BB87B5845787BDA99BFA
:103CD000FECF80911C04882309F47FC238988FEFAF
:103CE00085BB87B5845787BD15BC80912904909109
:103CF0002A040E94CE0E109230048091200481117B
:103D0000B1C180913004882309F48EC284E40E94FA
:103D1000620015BC16BC83B5816083BD81E085BDA2
:103D20008CE387BD85E580931E0410921D041092DC
:103D30001C04A99BFECF389A8FEF85BB87B5845CA6
:103D400087BD30E020E0E1E0F0E06FEF80911E04FD
:103D5000AF01022E01C0440F0A94EAF78423809336
:103D60001C04882329F090911D049F5F90931D04EB
:103D7000A99BFECF882309F432C2389865BB87B56A
:103D8000845C87BD2F5F3F4F28303105F9F6809165
:103D90001D0480FF26C210921C04A99BFECF8091B7
:103DA0001C04882309F421C238988FEF85BB87B59E
:103DB000845C87BD81E080931C04A99BFECF38986A
:103DC0008FEF85BB87B5845C87BDA99BFECF8091B3
:103DD0001C04882309F40BC238988FEF85BB87B584
:103DE000845C87BD15BC65E484E00E94C10E389AEE
:103DF00063E884E00E94C10E389815BC16BC83B5F8
:103E0000816083BD81E085BD8CE887BD85E58093B9
:103E10001E0410921D0410921C04A99BFECF389A18
:103E20008FEF85BB87B5845787BD30E020E0E1E0A8
:103E3000F0E06FEF80911E04AF01022E01C0440F2D
:103E40000A94EAF7842380931C04882329F0909134
:103E50001D049F5F90931D04A99BFECF882309F446
:103E6000C8C1389865BB87B5845787BD2F5F3F4F62
:103E700028303105F9F680911D0480FFBCC181E036
:103E800080931C04A99BFECF80911C04882309F415
:103E9000B5C138988FEF85BB87B5845787BD81E062
:103EA00080931C04A99BFECF38988FEF85BB87B504
:103EB000845787BDA99BFECF80911C04882309F4F9
:103EC0009FC138988FEF85BB87B5845787BD89EC34
:103ED00080931E0410921D0410921C04A99BFECF17
:103EE000389A8FEF85BB87B5845787BD30E020E0D7
:103EF000E1E0F0E06FEF80911E04AF01022E01C0FF
:103F0000440F0A94EAF7842380931C04882329F041
:103F100090911D049F5F90931D04A99BFECF882361
:103F200009F470C1389865BB87B5845787BD2F5F8A
:103F30003F4F28303105F9F680911D0480FF64C1A0
:103F400081E080931C04A99BFECF80911C048823F0
:103F500009F45DC138988FEF85BB87B5845787BD5D
:103F600081E080931C04A99BFECF38988FEF85BB1E
:103F700087B5845787BDA99BFECF80911C048823F9
:103F800009F447C138988FEF85BB87B5845787BD43
:103F900081E080931E0410921D0410921C04A99BC2
:103FA000FECF389A8FEF85BB87B5845787BD30E049
:103FB00020E0E1E0F0E06FEF80911E04AF01022EFF
:103FC00001C0440F0A94EAF7842380931C048823D9
:103FD00029F090911D049F5F90931D04A99BFECF33
:103FE000882309F418C1389865BB87B5845787BD05
:103FF0002F5F3F4F28303105F9F680911D0480FF77
:104000000CC181E080931C04A99BFECF80911C040D
:10401000882309F405C138988FEF85BB87B584578D
:1040200087BD81E080931C04A99BFECF38988FEF59
:1040300085BB87B5845787BDA99BFECF80911C04A3
:10404000882309F4EFC038988FEF85BB87B5845774
:1040500087BD15BC8091290490912A040E94CE0E40
:10406000109230048CEF92E00E9469000E948D0053
:104070008091360490913704892B31F480E090E4EC
:1040800090933704809336048EE193E00E94690098
:104090000E948D00D82F803309F024C1109235047E
:1040A00010923404E0903604F09037048BE393E0F0
:1040B0000E9469000E948D00182F80E8809385007F
:1040C000109284008FEF86BB84E080938100B09BC8
:1040D000FECFB09A1092810081E090E00E947E00B5
:1040E000882321F08091C600D12F182F85E090E021
:1040F0000E947E00813009F09BC08091C600F6CFFF
:10410000389A23C981E080931C042EC9389A34C997
:10411000389A4AC9389A8DC910921C049AC9389A9B
:10412000A0C9389AB6C9389AE5C910921C04F2C9D8
:10413000389AF8C9389A0ECA389A3DCA10921C04A7
:104140004ACA389A50CA389A66CA389AACCA81E0C4
:1041500080931C04B7CA389ABDCA389AD3CA389A11
:1041600016CB10921C0423CB389A29CB389A3FCB1C
:10417000389A6ECB10921C047BCB389A81CB389A3C
:1041800097CB389AC6CB10921C04D3CB389AD9CB94
:10419000389AEFCB389A3DCC81E080931C0448CC10
:1041A000389A4ECC389A64CC389AA7CC10921C041A
:1041B000B4CC389ABACC389AD0CC389AFFCC10927A
:1041C0001C040CCD389A12CD389A28CD389A57CD88
:1041D00010921C0464CD389A6ACD389A80CD389AF2
:1041E000CDCD81E080931C04D8CD389ADECD389AAD
:1041F000F4CD389A37CE10921C0444CE389A4ACE69
:10420000389A60CE389A8FCE10921C049CCE389A81
:10421000A2CE389AB8CE389AE7CE10921C04F4CECB
:10422000389AFACE389A10CF85E40E9462001ACFED
:1042300086EC8D0F873008F4DEC0C0EDCD0FC7319E
:1042400008F0D9C086EC810F873008F4D4C080ED27
:10425000810F873108F0CFC0C13110F0C9ECCD0F0C
:1042600050E1C502E0011124813110F089EC810F89
:10427000C80FD11D87FDDA95BE0180E10E94D80DDF
:1042800083E091E00E94690088248394912C00E0EF
:1042900010E8712C612C95E0492E512C540191E0CD
:1042A000A91AB108E114F10409F0A8C00E94940011
:1042B0008CE493E00E9469006091360470913704A9
:1042C0008AE00E94D80D8FE593E00E94690060911A
:1042D0003404709135048AE00E94D80D86E693E09C
:1042E0000E9469008FE693E00E946900CDEFDFEF46
:1042F000C230D10510F185E590E00E94E80084E02D
:1043000090E00E94E800CE018D579D4E0E94E8008B
:1043100082E190E00E94E8000E94A000682F70E017
:1043200080E10E94D80DC230D10519F489E00E94C5
:1043300062006EEC83E00E9498002196C630D105A1
:10434000B9F684EA93E00E94690065EC8AE892E19C
:104350000E94E81589EB93E00E9469000E948D009D
:10436000893509F0C7C060E08AE892E10E94E8154B
:1043700083ED93E00E9469006EEC83E00E94980058
:1043800085E590E00E94E80088EC90E00E94E8005B
:1043900089E590E00E94E8006EEC83E00E949800BE
:1043A00085E590E00E94E80088EC90E00E94E8003B
:1043B00090E080E00E94E8006EEC83E00E949800AC
:1043C00089EF93E00E94690085E590E00E94E80093
:1043D00083EC90E00E94E80087EE90E00E94E80005
:1043E00088E199E00FB6F894A895809360000FBE1D
:1043F00090936000FFCFD0E0C0E03ECF6801E0E8DE
:10440000CE0ED11CC8010E94D8021C019093330427
:10441000809332040E5F1F4F0115F0E21F0709F46D
:1044200045CF019609F069C00C151D0559F73ECF1F
:10443000B2010E94B422892B19F48AE20E94620020
:1044400080913404909135040196909335048093C3
:104450003404670181E0C81AD10898E0E91AF1082C
:10446000C8010E94D8029C019093330480933204C7
:104470000E5F1F4F019619F1F1E0CF1AD108209776
:1044800051F0C501BE010E94B422892B21F4B9016B
:1044900080E10E94D80D80913404909135040196FA
:1044A0009093350480933404011540E2140709F415
:1044B00044C0CE14DF04A1F6209719F416C020974B
:1044C00079F0C501BE010E94B422892B49F4C301D1
:1044D00087709927892B21F48DE693E00E9469006B
:1044E000011550E2150709F4E1CE8FEF881A980AFA
:1044F0007601D4CE85EE93E03DCFC501209709F437
:1045000097CFBE010E94B422892B09F099CF8DE686
:1045100093E00E946900B8016250704880E10E94F7
:10452000D80D85E091E00E9469005FEF651A750A79
:10453000B10180E10E94D80D83CF209711F6B6CE4D
:10454000AA1BBB1B51E107C0AA1FBB1FA617B707B9
:1045500010F0A61BB70B881F991F5A95A9F78095D5
:104560009095BC01CD01089597FB072E16F4009499
:1045700007D077FD09D00E94A02207FC05D03EF4A9
:10458000909581959F4F0895709561957F4F0895FF
:10459000EE0FFF1F0590F491E02D0994F894FFCFE2
:1045A000523F20202020000D0A55504449206465C8
:1045B00076656C6F706D656E742070726F67726176
:1045C0006D3A2020504F5220726571756972656492
:1045D00020746F20726573657420555044493A20E9
:1045E00020414B20746F2073746172740D0A0D0AA0
:1045F00000446576696365206E6F74206465746538
:10460000637465640D0A00506F77657220437963A7
:104610006C652052657175697265640D0A000D0A3A
:10462000496E697469616C6973696E67204E564D95
:104630002070726F6772616D6D696E67000D0A455B
:104640007261736520636869703F2059206F722022
:104650004E000945726173696E6720636869700D69
:104660000A00307834453536344434353732363103
:1046700037333635000D0A436869702065726173FF
:1046800065206661696C6564000D0A4661696C7538
:1046900072653A20446576696365207374696C6C51
:1046A000206C6F636B656409000D0A44657669636D
:1046B0006520756E6C6F636B6564090909000943B9
:1046C000686970206E6F74206572617365640D0A8D
:1046D0000030783445353634443530373236463656
:1046E000373230004E564D50524F47206661696C4C
:1046F0007572653A2009000D0A504F5220746F20E0
:1047000070726F636565642100526561647920662B
:104710006F72204E564D2070726F6772616D6D69B9
:104720006E6709000D0A5369676E617475726520C2
:104730006279746520726561646F7574090900504F
:10474000726F6772616D6D696E67206675736573F0
:104750000D0A000D0A50726F6772616D20666C6100
:1047600073683F2059206F72204E000D0A53656E0A
:10477000642066696C652020000D0A427265616BD9
:1047800020696E204865785F636F646520656E639D
:104790006F756E74657265642E0D0A000D0A56659C
:1047A00072696679696E6720666C6173683A204148
:1047B0004B20746F20636F6E74696E7565000D0A0F
:1047C00050726573732030206F7220414F4B2074FC
:1047D0006F206573636170650D0A00496E746567CB
:1047E000657228302D4646293F2020000D0A486575
:1047F000785F66696C655F73697A653A202000208E
:10480000696E3A202000206F75740D0A000D000DAE
:104810000A46757365733A095744542C20424F4435
:104820002C204F53432C5359533009535953312C97
:1048300020415050454E442C20424F4F54454E4449
:104840000D0A09000D0A0D0A556E6C6F636B696ED7
:104850006720646576696365000D0A5920746F20CE
:104860004C6F636B20646576696365206F722041CD
:104870004F4B000D0A446576696365206C6F636B6E
:1048800065640D0A000D0A44657669636520756EDE
:104890006C6F636B65640D0A00536573696F6E20FE
:1048A0007465726D696E617465640D0A0D0A0000AD
:00000001FF
