:100000000C9434000C9451000C9451000C94510049
:100010000C9451000C9451000C9451000C9451001C
:100020000C9451000C9451000C9451000C9451000C
:100030000C9451000C9455010C9451000C945100F7
:100040000C9451000C9451000C9466010C945100D6
:100050000C9451000C9451000C9451000C945100DC
:100060000C9451000C94510011241FBECFEFD8E026
:10007000DEBFCDBF14E0A0E0B1E0EEE6F6E402C0E2
:1000800005900D92A031B107D9F725E0A0E1B4E0C9
:1000900001C01D92AE35B207E1F70E944B160C94D9
:1000A00035230C940000EFE6F0E0208121602083EE
:1000B00090938500809384008FEF86BB84E08093CB
:1000C000810008959091C00095FFFCCF8093C600F9
:1000D00008950F931F93CF93DF93EC018C01085386
:1000E0001F4F8991882329F00E946200C017D10711
:1000F000C1F7DF91CF911F910F91089521EA3FE061
:100100004091C00047FD07C021503109C9F7019750
:10011000A9F780E0089581E008958091C00087FFED
:10012000FCCF8091C600089593B566BD85BDA89BA0
:10013000FECFA89A15BC0895EF92FF920F931F93DC
:10014000CF93DF9386B1182F117080FDFBCF6CED3C
:1001500082E00E949400D0E0C0E000E0EE24E3944E
:10016000F12C6CED82E00E949400309B08C0C70126
:100170000C2E01C0880F0A94EAF7182B0F5F219606
:10018000C830D10571F76CED82E00E949400309B7D
:1001900002C000FD09C080915C0590915D0501964B
:1001A00090935D0580935C056CED82E00E94940065
:1001B0006CED82E00E949400812FDF91CF911F911E
:1001C0000F91FF90EF900895CF92DF92EF92FF9200
:1001D0001F93CF93DF937C01389A6CED82E00E94ED
:1001E0009400D0E0C0E010E0CC24C394D12CC60130
:1001F0000C2E02C0880F991F0A94E2F78E219F21CE
:10020000892B09F138981F5F6CED82E00E94940001
:100210002196C830D10559F710FF17C038986CEDFA
:1002200082E00E94940038986CED82E00E94940075
:100230006CED82E0DF91CF911F91FF90EF90DF9006
:10024000CF900C949400389ADFCF389AE8CF0F9370
:100250001F93CF93DF938C0185E590E00E94E4002B
:1002600080EE90E00E94E400E80160962981888198
:1002700090ED980F9A3014F099EC980F80ED820F62
:100280008A3014F089EC820F9295907F890F082EA6
:10029000000C990B0E94E40022970C171D0731F700
:1002A000DF91CF911F910F9108951F920F920FB67A
:1002B0000F9211248F9381E080935B05109281004F
:1002C0008F910F900FBE0F901F9018951F920F9255
:1002D0000FB60F9211242F933F934F935F938F93F9
:1002E0009F93EF93FF93E091C600E153E63108F04E
:1002F000F7C0F0E0E258FE4F0C942F239401500217
:1003000052025402560258025A025C025E026C0209
:10031000700270027002700270027002600262026B
:100320006402660268026A0281E0209159053091F8
:100330005A052330310509F412C10CF0D3C0213025
:10034000310509F40CC12230310509F4E0C02091D7
:10035000590530915A05293031050CF486C0409179
:10036000590550915A05209155053091560542176F
:1003700053070CF07AC02091590530915A0523702B
:1003800033272130310541F490E1899F90011124F8
:1003900030935805209357052091590530915A05FF
:1003A000237033272230310551F4209157053091C5
:1003B0005805280F311D309358052093570520917B
:1003C000590530915A05237033272330310541F404
:1003D00090E1899F9001112430935304209352049B
:1003E0002091590530915A0523703327232BE9F5C5
:1003F0002091520430915304820F932F911D9093BA
:100400005304809352048091520490915304982F86
:1004100088279093530480935204809152049091C2
:1004200053042091570530915805820F931F9093E4
:10043000580580935705E091540581E08E0F809315
:1004400054058091570590915805F0E0EE0FFF1F7D
:10045000EC5AFB4F9183808380915004909151041A
:100460000196909351048093500480915905909186
:100470005A05019690935A05809359058091540529
:100480008F7780935405FF91EF919F918F915F91AA
:100490004F913F912F910F900FBE0F901F90189585
:1004A00082E043CF83E041CF84E03FCF85E03DCF82
:1004B00086E03BCF87E039CF88E037CF89E035CF82
:1004C0008AE033CF8BE031CF8CE02FCF8DE02DCF82
:1004D0008EE02BCF8FE029CF10925A05109259054C
:1004E00080E023CF2530310509F453C00CF440C01F
:1004F0002630310509F02BCF209157053091580552
:10050000280F311D309358052093570516C02091B0
:10051000570530915805280F311D30935805209309
:1005200057052091570530915805220F331F275F3B
:100530003F4F3093560520935505E091540591E0C7
:100540009E0F909354052091570530915805F0E087
:10055000EE0FFF1FEC5AFB4F31832083F8CE90E162
:10056000899F900111243093580520935705EFCEB1
:100570002091570530915805280F311D30935805AB
:10058000209357052091570530915805322F222787
:10059000EACF409157055091580590E1899F90010D
:1005A0001124240F351FDFCFCF93DF9315BC16BC6A
:1005B00023B5216023BD21E025BD22E427BD25E52B
:1005C00020931E0410921D0410921C04A99BFECFC0
:1005D000389A2FEF25BB27B52E5B27BD50E040E0B2
:1005E000A1E0B0E0EFEF20911E04BD01042E01C098
:1005F000660F0A94EAF7262320931C04222329F08D
:1006000030911D043F5F30931D04A99BFECF222330
:1006100009F4DCC33898E5BB27B52E5B27BD4F5FD7
:100620005F4F48305105F9F620911D0420FFD0C3DB
:1006300021E020931C04A99BFECF20911C042223BF
:1006400009F4C9C338982FEF25BB27B52E5B27BD0A
:1006500021E020931C04A99BFECF38982FEF25BBE7
:1006600027B52E5B27BDA99BFECF20911C0422231A
:1006700009F4B3C338982FEF25BB27B52E5B27BDF0
:1006800024E020931E0410921D0410921C04A99BC8
:10069000FECF389A2FEF25BB27B52E5B27BD50E044
:1006A00040E0A1E0B0E0EFEF20911E04BD01042E78
:1006B00001C0660F0A94EAF7262320931C04222324
:1006C00029F030911D043F5F30931D04A99BFECF9C
:1006D000222309F484C33898E5BB27B52E5B27BDD8
:1006E0004F5F5F4F48305105F9F620911D0420FF00
:1006F00078C321E020931C04A99BFECF20911C0409
:10070000222309F471C338982FEF25BB27B52E5B40
:1007100027BD21E020931C04A99BFECF38982FEF22
:1007200025BB27B52E5B27BDA99BFECF20911C04BE
:10073000222309F45BC338982FEF25BB27B52E5B26
:1007400027BD80931E0410921D0410921C04A99BC7
:10075000FECF389A2FEF25BB27B52E5B27BD50E083
:1007600040E0A1E0B0E0EFEF20911E04BD01042EB7
:1007700001C0660F0A94EAF7262320931C04222363
:1007800029F030911D043F5F30931D04A99BFECFDB
:10079000222309F42DC33898E5BB27B52E5B27BD6E
:1007A0004F5F5F4F48305105F9F620911D0420FF3F
:1007B00021C321E020931C04A99BFECF20911C049F
:1007C000222309F41AC338982FEF25BB27B52E5BD7
:1007D00027BD21E020931C04A99BFECF38982FEF62
:1007E00025BB27B52E5B27BDA99BFECF20911C04FE
:1007F000222309F404C338982FEF25BB27B52E5BBD
:1008000027BD90931E0410921D0410921C04A99BF6
:10081000FECF389A2FEF25BB27B52E5B27BD50E0C2
:1008200040E0A1E0B0E0EFEF20911E04BD01042EF6
:1008300001C0660F0A94EAF7262320931C042223A2
:1008400029F030911D043F5F30931D04A99BFECF1A
:10085000222309F4D6C23898E5BB27B52E5B27BD05
:100860004F5F5F4F48305105F9F620911D0420FF7E
:10087000CAC221E020931C04A99BFECF20911C0436
:10088000222309F4C3C238982FEF25BB27B52E5B6E
:1008900027BD21E020931C04A99BFECF38982FEFA1
:1008A00025BB27B52E5B27BDA99BFECF20911C043D
:1008B000222309F4ADC238982FEF25BB27B52E5B54
:1008C00027BD1092180410921D043099FECF15BC5C
:1008D00016BC23B5216023BD21E025BD21E227BD43
:1008E000A99BFECF27B52E5B27BD2FEF25BB30E0A0
:1008F00020E0E1E05FEFA1E0B0E0A99BFECF309BFC
:1009000089C2E093170455BB47B54E5B47BD409184
:100910001704442381F040911804BD01022E01C048
:10092000660F0A94EAF7462B4093180440911D0481
:100930004F5F40931D042F5F3F4F28303105E9F68C
:10094000A99BFECF309B69C221E0209317042FEFB3
:1009500025BB27B52E5B27BD20911704222321F04C
:1009600020911D0420FD0AC020915C0530915D0599
:100970002F5F3F4F30935D0520935C05A99BFECF11
:10098000309B4EC221E0209317042FEF25BB27B5E3
:100990002E5B27BDA99BFECF309B45C221E0209353
:1009A00017042FEF25BB27B52E5B27BD15BC209163
:1009B000180430E0322F2227BC016F5F7F4F15BC37
:1009C00016BC83B5816083BD81E085BD82E487BDAF
:1009D00085E580931E0410921D0410921C04A99BAF
:1009E000FECF389A8FEF85BB87B58E5B87BD50E011
:1009F00040E0C1E0D0E0AFEF90911E04FE01042E74
:100A000001C0EE0F0A94EAF79E2390931C049923E9
:100A100029F080911D048F5F80931D04A99BFECF58
:100A2000992309F403C23898A5BB87B58E5B87BDAF
:100A30004F5F5F4F48305105F9F680911D0480FFEC
:100A4000F7C181E080931C04A99BFECF80911C0418
:100A5000882309F4F0C138988FEF85BB87B58E5B8A
:100A600087BD81E080931C04A99BFECF38988FEF4F
:100A700085BB87B58E5B87BDA99BFECF80911C048B
:100A8000882309F4DAC138988FEF85BB87B58E5B70
:100A900087BD84E080931E0410921D0410921C04F4
:100AA000A99BFECF389A8FEF85BB87B58E5B87BD3C
:100AB00050E040E0C1E0D0E0AFEF90911E04FE01B5
:100AC000042E01C0EE0F0A94EAF79E2390931C04B3
:100AD000992329F080911D048F5F80931D04A99BA9
:100AE000FECF992309F4ABC13898A5BB87B58E5BBF
:100AF00087BD4F5F5F4F48305105F9F680911D0467
:100B000080FF9FC181E080931C04A99BFECF809150
:100B10001C04882309F498C138988FEF85BB87B5EA
:100B20008E5B87BD81E080931C04A99BFECF389823
:100B30008FEF85BB87B58E5B87BDA99BFECF80916C
:100B40001C04882309F482C138988FEF85BB87B5D0
:100B50008E5B87BD60931E0410921D0410921C04CE
:100B6000A99BFECF389A8FEF85BB87B58E5B87BD7B
:100B700050E040E0C1E0D0E0AFEF90911E04FE01F4
:100B8000042E01C0EE0F0A94EAF79E2390931C04F2
:100B9000992329F080911D048F5F80931D04A99BE8
:100BA000FECF992309F454C13898A5BB87B58E5B55
:100BB00087BD4F5F5F4F48305105F9F680911D04A6
:100BC00080FF48C181E080931C04A99BFECF8091E7
:100BD0001C04882309F441C138988FEF85BB87B581
:100BE0008E5B87BD81E080931C04A99BFECF389863
:100BF0008FEF85BB97B59E5B97BDA99BFECF80917C
:100C00001C04882309F42BC138988FEF85BB97B556
:100C10009E5B97BD70931E0410921D0410921C04DD
:100C2000A99BFECF389A8FEF85BB87B58E5B87BDBA
:100C300050E040E0A1E0B0E0EFEF80911E04BD0184
:100C4000042E01C0660F0A94EAF7862380931C04E1
:100C5000882329F090911D049F5F90931D04A99B08
:100C6000FECF882309F4FDC03898E5BB87B58E5BBD
:100C700087BD4F5F5F4F48305105F9F680911D04E5
:100C800080FFF1C081E080931C04A99BFECF80917E
:100C90001C04882309F4EAC038988FEF85BB87B518
:100CA0008E5B87BD81E080931C04A99BFECF3898A2
:100CB0008FEF85BB87B58E5B87BDA99BFECF8091EB
:100CC0001C04882309F4D4C038988FEF85BB87B5FE
:100CD0008E5B87BD1092180410921D043099FECFD0
:100CE00015BC16BC83B5816083BD81E085BD81E202
:100CF00087BDA99BFECF87B58E5B87BD8FEF85BB78
:100D000090E080E0E1E05FEFA1E0B0E0A99BFECFE2
:100D1000309BB0C0E093170455BB47B54E5B47BD51
:100D200040911704442381F040911804BD01082E1E
:100D300001C0660F0A94EAF7462B409318044091CD
:100D40001D044F5F40931D04019688309105F1F614
:100D5000A99BFECF309B91C081E0809317048FEF59
:100D600085BB87B58E5B87BD80911704882321F0F2
:100D700080911D0480FD09C080915C0590915D0506
:100D8000019690935D0580935C05A99BFECF309BF7
:100D900077C081E0809317048FEF85BB87B58E5BAA
:100DA00087BDA99BFECF309B6EC081E08093170466
:100DB0008FEF85BB87B58E5B87BD15BC809118040E
:100DC000A901482BCA01DF91CF910895389A23CC0D
:100DD00010921C0430CC389A36CC389A4CCC389AC5
:100DE0007BCC10921C0488CC389A8ECC389AA4CC38
:100DF000389AD2CC10921C04DFCC389AE5CC389AC1
:100E0000FBCC389A29CD10921C0436CD389A3CCDB3
:100E1000389A52CD1092170476CD1092170497CDC0
:100E200010921704B2CD10921704BBCD389AFCCDA6
:100E300010921C0409CE389A0FCE389A25CE389AD3
:100E400054CE10921C0461CE389A67CE389A7DCE6B
:100E5000389AABCE10921C04B8CE389ABECE389ACF
:100E6000D4CE389A02CF10921C040FCF389A15CFE7
:100E7000389A2BCF109217044FCF109217046FCFD0
:100E80001092170489CF1092170492CF90912C04DE
:100E9000809154059817D1F3E0912C04F0E0EE0F07
:100EA000FF1FEC5AFB4F8081918190933304809314
:100EB000320480912C048F5F80932C0480912C0449
:100EC0008F7780932C048FB780931604F89416BC08
:100ED00083B5816083BD81E085BD82E487BD80915B
:100EE000320480931E0410921D0410921C04A99BCE
:100EF000FECF389A8FEF85BB87B58E5B87BD30E01C
:100F000020E0E1E0F0E06FEF80911E04AF01022EDF
:100F100001C0440F0A94EAF7842380931C048823B9
:100F200029F090911D049F5F90931D04A99BFECF13
:100F3000882309F48CC1389865BB87B58E5B87BD63
:100F40002F5F3F4F28303105F9F680911D0480FF57
:100F500080C181E080931C04A99BFECF80911C047A
:100F6000882309F479C138988FEF85BB87B58E5BEC
:100F700087BD81E080931C04A99BFECF38988FEF3A
:100F800085BB87B58E5B87BDA99BFECF80911C0476
:100F9000882309F463C138988FEF85BB87B58E5BD2
:100FA00087BD1092180410921D043099FECF15BC15
:100FB00016BC83B5816083BD81E085BD81E287BDBC
:100FC000A99BFECF87B58E5B87BD8FEF85BB90E079
:100FD00080E061E03FEFE1E0F0E0A99BFECF309BD5
:100FE0003FC16093170435BB27B52E5B27BD209109
:100FF0001704222381F020911804AF01082E01C0AC
:10100000440F0A94EAF7242B2093180420911D041E
:101010002F5F20931D04019688309105F1F6A99B5E
:10102000FECF309B20C181E0809317048FEF85BBFA
:1010300087B58E5B87BD80911704882321F080914E
:101040001D0480FD09C080915C0590915D050196AD
:1010500090935D0580935C05A99BFECF309B06C1F4
:1010600081E0809317048FEF85BB87B58E5B87BDCA
:10107000A99BFECF309BFDC081E0809317048FEFCA
:1010800085BB87B58E5B87BD15BC16BC83B58160FB
:1010900083BD81E085BD82E487BD80913304809368
:1010A0001E0410921D0410921C04A99BFECF389AB6
:1010B0008FEF85BB87B58E5B87BD30E020E0E1E038
:1010C000F0E06FEF80911E04AF01022E01C0440FCB
:1010D0000A94EAF7842380931C04882329F09091D2
:1010E0001D049F5F90931D04A99BFECF882309F4E4
:1010F000C3C0389865BB87B58E5B87BD2F5F3F4FF8
:1011000028303105F9F680911D0480FFB7C081E0D9
:1011100080931C04A99BFECF80911C04882309F4B2
:10112000B0C038988FEF85BB87B58E5B87BD81E0F7
:1011300080931C04A99BFECF38988FEF85BB87B5A1
:101140008E5B87BDA99BFECF80911C04882309F488
:101150009AC038988FEF85BB87B58E5B87BD10929C
:10116000180410921D043099FECF15BC16BC83B52F
:10117000816083BD81E085BD81E287BDA99BFECFF3
:1011800087B58E5B87BD8FEF85BB90E080E061E027
:101190003FEFE1E0F0E0A99BFECF309B76C060938B
:1011A000170435BB27B52E5B27BD209117042223DA
:1011B00081F020911804AF01082E01C0440F0A9459
:1011C000EAF7242B2093180420911D042F5F20930D
:1011D0001D04019688309105F1F6A99BFECF309B46
:1011E00057C081E0809317048FEF85BB87B58E5B76
:1011F00087BD80911704882321F080911D0480FD14
:1012000009C080915C0590915D05019690935D0504
:1012100080935C05A99BFECF309B3DC081E080930D
:1012200017048FEF85BB87B58E5B87BDA99BFECF6B
:10123000309B34C081E0809317048FEF85BB87B566
:101240008E5B87BD15BC809116048FBF0895389AB8
:1012500073CE10921C0480CE389A86CE389A9CCEDB
:1012600010921704C0CE10921704E0CE109217040B
:10127000FACE1092170403CF389A3CCF10921C0478
:1012800049CF389A4FCF389A65CF1092170489CF3B
:1012900010921704A9CF10921704C3CF109217040D
:1012A000CCCF880F991F9C0130588FB780931604BC
:1012B000F89415BC16BC83B5816083BD81E085BD03
:1012C00082E487BD85E580931E0410921D04109270
:1012D0001C04A99BFECF389A8FEF85BB87B58E5B28
:1012E00087BD50E040E0A1E0B0E0EFEF90911E0438
:1012F000BD01042E01C0660F0A94EAF7962390936D
:101300001C04992329F080911D048F5F80931D0494
:10131000A99BFECF992309F4C8C33898E5BB87B5CC
:101320008E5B87BD4F5F5F4F48305105F9F6809166
:101330001D0480FFBCC381E080931C04A99BFECFE9
:1013400080911C04882309F4B5C338988FEF85BBBE
:1013500087B58E5B87BD81E080931C04A99BFECF7F
:1013600038988FEF85BB87B58E5B87BDA99BFECF75
:1013700080911C04882309F49FC338988FEF85BBA4
:1013800087B58E5B87BD89E680931E0410921D048D
:1013900010921C04A99BFECF389A8FEF85BB87B5AE
:1013A0008E5B87BD50E040E0A1E0B0E0EFEF9091B0
:1013B0001E04BD01042E01C0660F0A94EAF79623AD
:1013C00090931C04992329F080911D048F5F8093D2
:1013D0001D04A99BFECF992309F470C33898E5BB7F
:1013E00087B58E5B87BD4F5F5F4F48305105F9F67B
:1013F00080911D0480FF64C381E080931C04A99B3D
:10140000FECF80911C04882309F45DC338988FEFC8
:1014100085BB87B58E5B87BD81E080931C04A99B4B
:10142000FECF38988FEF85BB87B58E5B87BDA99BB4
:10143000FECF80911C04882309F447C338988FEFAE
:1014400085BB87B58E5B87BD20931E0410921D045B
:1014500010921C04A99BFECF389A8FEF85BB87B5ED
:101460008E5B87BD50E040E0A1E0B0E0EFEF9091EF
:101470001E04BD01042E01C0660F0A94EAF79623EC
:1014800090931C04992329F080911D048F5F809311
:101490001D04A99BFECF992309F419C33898E5BB15
:1014A00087B58E5B87BD4F5F5F4F48305105F9F6BA
:1014B00080911D0480FF0DC381E080931C04A99BD3
:1014C000FECF80911C04882309F406C338988FEF5F
:1014D00085BB87B58E5B87BD81E080931C04A99B8B
:1014E000FECF38988FEF85BB87B58E5B87BDA99BF4
:1014F000FECF80911C04882309F4F0C238988FEF46
:1015000085BB87B58E5B87BD30931E0410921D048A
:1015100010921C04A99BFECF389A8FEF85BB87B52C
:101520008E5B87BD30E020E0E1E0F0E06FEF80917E
:101530001E04AF01022E01C0440F0A94EAF784236F
:1015400080931C04882329F090911D049F5F909341
:101550001D04A99BFECF882309F4C2C2389865BB3D
:1015600087B58E5B87BD2F5F3F4F28303105F9F679
:1015700080911D0480FFB6C281E080931C04A99B6A
:10158000FECF80911C04882309F4AFC238988FEFF6
:1015900085BB87B58E5B87BD81E080931C04A99BCA
:1015A000FECF38988FEF85BB87B58E5B87BDA99B33
:1015B000FECF80911C04882309F499C238988FEFDC
:1015C00085BB87B58E5B87BD1092180410921D04F1
:1015D0003099FECF15BC16BC83B5816083BD81E018
:1015E00085BD81E287BDA99BFECF87B58E5B87BD98
:1015F0008FEF85BB90E080E061E03FEFE1E0F0E05D
:10160000A99BFECF309B75C26093170435BB27B5ED
:101610002E5B27BD20911704222381F0209118040E
:10162000AF01082E01C0440F0A94EAF7242B20933F
:10163000180420911D042F5F20931D04019688300B
:101640009105F1F6A99BFECF309B56C281E08093B5
:1016500017048FEF85BB87B58E5B87BD809117041C
:10166000882321F080911D0480FD09C080915C05D4
:1016700090915D05019690935D0580935C05A99B13
:10168000FECF309B3CC281E0809317048FEF85BB77
:1016900087B58E5B87BDA99BFECF309B33C281E0AF
:1016A000809317048FEF85BB87B58E5B87BD15BC14
:1016B00015BC16BC83B5816083BD81E085BD82E425
:1016C00087BD85E580931E0410921D0410921C04B2
:1016D000A99BFECF389A8FEF85BB87B58E5B87BD00
:1016E00030E020E0E1E0F0E06FEF80911E04AF0118
:1016F000022E01C0440F0A94EAF7842380931C044D
:10170000882329F090911D049F5F90931D04A99B4D
:10171000FECF882309F4F9C1389865BB87B58E5B85
:1017200087BD2F5F3F4F28303105F9F680911D04AA
:1017300080FFEDC181E080931C04A99BFECF8091C6
:101740001C04882309F4E6C138988FEF85BB87B560
:101750008E5B87BD81E080931C04A99BFECF3898E7
:101760008FEF85BB87B58E5B87BDA99BFECF809130
:101770001C04882309F4D0C138988FEF85BB87B546
:101780008E5B87BD80EA80931E0410921D04109228
:101790001C04A99BFECF389A8FEF85BB87B58E5B63
:1017A00087BD30E020E0E1E0F0E06FEF80911E04C3
:1017B000AF01022E01C0440F0A94EAF784238093FC
:1017C0001C04882329F090911D049F5F90931D04B1
:1017D000A99BFECF882309F4A1C1389865BB87B5C2
:1017E0008E5B87BD2F5F3F4F28303105F9F6809122
:1017F0001D0480FF95C181E080931C04A99BFECF4E
:1018000080911C04882309F48EC138988FEF85BB22
:1018100087B58E5B87BD81E080931C04A99BFECFBA
:1018200038988FEF85BB87B58E5B87BDA99BFECFB0
:1018300080911C04882309F478C138988FEF85BB08
:1018400087B58E5B87BD8FE380931E0410921D04C5
:1018500010921C04A99BFECF389A8FEF85BB87B5E9
:101860008E5B87BD30E020E0E1E0F0E06FEF80913B
:101870001E04AF01022E01C0440F0A94EAF784232C
:1018800080931C04882329F090911D049F5F9093FE
:101890001D04A99BFECF882309F449C1389865BB74
:1018A00087B58E5B87BD2F5F3F4F28303105F9F636
:1018B00080911D0480FF3DC181E080931C04A99BA1
:1018C000FECF80911C04882309F436C138988FEF2D
:1018D00085BB87B58E5B87BD81E080931C04A99B87
:1018E000FECF38988FEF85BB87B58E5B87BDA99BF0
:1018F000FECF80911C04882309F420C138988FEF13
:1019000085BB87B58E5B87BD15BC15BC16BC83B582
:10191000816083BD81E085BD82E487BD85E58093DC
:101920001E0410921D0410921C04A99BFECF389A2D
:101930008FEF85BB87B58E5B87BD30E020E0E1E0AF
:10194000F0E06FEF80911E04AF01022E01C0440F42
:101950000A94EAF7842380931C04882329F0909149
:101960001D049F5F90931D04A99BFECF882309F45B
:10197000E7C0389865BB87B58E5B87BD2F5F3F4F4B
:1019800028303105F9F680911D0480FFDBC081E02D
:1019900080931C04A99BFECF80911C04882309F42A
:1019A000D4C038988FEF85BB87B58E5B87BD81E04B
:1019B00080931C04A99BFECF38988FEF85BB87B519
:1019C0008E5B87BDA99BFECF80911C04882309F400
:1019D000BEC038988FEF85BB87B58E5B87BD84E628
:1019E00080931E0410921D0410921C04A99BFECF2C
:1019F000389A8FEF85BB87B58E5B87BD30E020E0DE
:101A0000E1E0F0E06FEF80911E04AF01022E01C013
:101A1000440F0A94EAF7842380931C04882329F056
:101A200090911D049F5F90931D04A99BFECF882376
:101A300009F48FC0389865BB87B58E5B87BD2F5F73
:101A40003F4F28303105F9F680911D0480FF83C097
:101A500081E080931C04A99BFECF80911C04882305
:101A600009F47CC038988FEF85BB87B58E5B87BD46
:101A700081E080931C04A99BFECF38988FEF85BB33
:101A800087B58E5B87BDA99BFECF80911C04882300
:101A900009F466C038988FEF85BB87B58E5B87BD2C
:101AA00015BC809116048FBF0895389A37CC1092D8
:101AB0001C0444CC389A4ACC389A60CC389A8FCCE3
:101AC00010921C049CCC389AA2CC389AB8CC389A84
:101AD000E6CC10921C04F3CC389AF9CC389A0FCD8E
:101AE000389A3DCD10921C044ACD389A50CD389A80
:101AF00066CD109217048ACD10921704AACD1092C9
:101B00001704C4CD10921704CDCD389A06CE10928A
:101B10001C0413CE389A19CE389A2FCE389A5ECE3E
:101B200010921C046BCE389A71CE389A87CE389AB0
:101B3000B6CE10921C04C3CE389AC9CE389ADFCEE6
:101B4000389A18CF10921C0425CF389A2BCF389A88
:101B500041CF389A70CF10921C047DCF389A83CF32
:101B6000389A99CF809124049091250490932F0462
:101B700080932E049C01207E3F7130932A04209391
:101B80002904AC01421B530B5093140440931304DB
:101B9000209113043091140487708093260480E20E
:101BA000821B80932704089590912C048091540502
:101BB0009817D1F3E0912C04F0E0EE0FFF1FEC5AE0
:101BC000FB4F80818093280490912C049F5F909319
:101BD0002C0490912C049F7790932C04282F87FF3E
:101BE00002C021E0280F259520931504909131041F
:101BF00090311CF491E090932B04909131049093D8
:101C000023048093310490912C04809154059817FB
:101C1000D1F3E0912C04F0E0EE0FFF1FEC5AFB4FE4
:101C20008081918130912C043F5F30932C0430915E
:101C30002C043F7730932C04969587959093250438
:101C400080932404AC0141505109420F511D27FDDE
:101C50005A95509322044093210420911F0420930D
:101C600020049C0127703327232B69F021E0209367
:101C70001F0420912E0430912F048217930711F432
:101C800010922D04089510921F04F3CFEF92FF924B
:101C90000F931F93CF93DF9300D000D000D0CDB728
:101CA000DEB7972FE0E0E82E880FFF088E010F5F68
:101CB0001F4F862FB7010E9407239B01D801AE0F4B
:101CC000B11D8C938A303CF5805D8C93EF5F622F61
:101CD000932F232B71F7E43040F4D801AE0FB11DE0
:101CE00080E3EF5F8D93E430E1F7E00FF12FF11D1A
:101CF0001082F8017F01E01AF10A81918111FACF77
:101D0000E00EF11E0E151F0541F0F70182917F01D3
:101D10000E946200F7CF895CD8CF85E091E02696DB
:101D20000FB6F894DEBF0FBECDBFDF91CF911F91EC
:101D30000F91FF90EF900C94690093B5926093BD62
:101D40006093B2008093B100B89BFECFB89A109216
:101D5000B1000895880F991F9C0130588FB7809368
:101D60001604F89415BC16BC83B5816083BD81E070
:101D700085BD82E487BD85E580931E0410921D0415
:101D800010921C04A99BFECF389A8FEF85BB87B5B4
:101D90008E5B87BD50E040E0A1E0B0E0EFEF9091B6
:101DA0001E04BD01042E01C0660F0A94EAF79623B3
:101DB00090931C04992329F080911D048F5F8093D8
:101DC0001D04A99BFECF992309F4EFC53898E5BB04
:101DD00087B58E5B87BD4F5F5F4F48305105F9F681
:101DE00080911D0480FFE3C581E080931C04A99BC2
:101DF000FECF80911C04882309F4DCC538988FEF4E
:101E000085BB87B58E5B87BD81E080931C04A99B51
:101E1000FECF38988FEF85BB87B58E5B87BDA99BBA
:101E2000FECF80911C04882309F4C6C538988FEF33
:101E300085BB87B58E5B87BD85E480931E041092B9
:101E40001D0410921C04A99BFECF389A8FEF85BB0E
:101E500087B58E5B87BD50E040E0A1E0B0E0EFEFDA
:101E600090911E04BD01042E01C0660F0A94EAF78A
:101E7000962390931C04992329F080911D048F5F71
:101E800080931D04A99BFECF992309F497C5389828
:101E9000E5BB87B58E5B87BD4F5F5F4F483051050F
:101EA000F9F680911D0480FF8BC581E080931C04AE
:101EB000A99BFECF80911C04882309F484C538981F
:101EC0008FEF85BB87B58E5B87BD81E080931C0457
:101ED000A99BFECF38988FEF85BB87B58E5B87BDFA
:101EE000A99BFECF80911C04882309F46EC5389805
:101EF0008FEF85BB87B58E5B87BD88E080931E041E
:101F000010921D0410921C04A99BFECF389A8FEFEB
:101F100085BB87B58E5B87BD50E040E0A1E0B0E0B7
:101F2000EFEF90911E04BD01042E01C0660F0A94CC
:101F3000EAF7962390931C04992329F080911D04BD
:101F40008F5F80931D04A99BFECF992309F43FC5A1
:101F50003898E5BB87B58E5B87BD4F5F5F4F4830D4
:101F60005105F9F680911D0480FF33C581E080930F
:101F70001C04A99BFECF80911C04882309F42CC566
:101F800038988FEF85BB87B58E5B87BD81E08093E6
:101F90001C04A99BFECF38988FEF85BB87B58E5B5D
:101FA00087BDA99BFECF80911C04882309F416C528
:101FB00038988FEF85BB87B58E5B87BD80E18093B6
:101FC0001E0410921D0410921C04A99BFECF389A87
:101FD0008FEF85BB87B58E5B87BD50E040E0A1E009
:101FE000B0E0EFEF90911E04BD01042E01C0660F1A
:101FF0000A94EAF7962390931C04992329F0809180
:102000001D048F5F80931D04A99BFECF992309F4C3
:10201000E7C43898E5BB87B58E5B87BD4F5F5F4FE0
:1020200048305105F9F680911D0480FFDBC481E042
:1020300080931C04A99BFECF80911C04882309F483
:10204000D4C438988FEF85BB87B58E5B87BD81E0A0
:1020500080931C04A99BFECF38988FEF85BB87B572
:102060008E5B87BDA99BFECF80911C04882309F459
:10207000BEC438988FEF85BB87B58E5B87BD109245
:10208000180410921D043099FECF15BC16BC83B500
:10209000816083BD81E085BD81E287BDA99BFECFC4
:1020A00087B58E5B87BD8FEF85BB90E080E0E1E078
:1020B0005FEFA1E0B0E0A99BFECF309B9AC4E09314
:1020C000170455BB47B54E5B47BD409117044423E9
:1020D00081F040911804BD01082E01C0660F0A94DA
:1020E000EAF7462B4093180440911D044F5F40933C
:1020F0001D04019688309105F1F6A99BFECF309B17
:102100007BC481E0809317048FEF85BB87B58E5B1E
:1021100087BD80911704882321F080911D0480FDE4
:1021200009C080915C0590915D05019690935D05D5
:1021300080935C05A99BFECF309B61C481E08093B6
:1021400017048FEF85BB87B58E5B87BDA99BFECF3C
:10215000309B58C481E0809317048FEF85BB87B50F
:102160008E5B87BD15BC16BC83B5816083BD81E0E5
:1021700085BD82E487BD20931E0410921D04109239
:102180001C04A99BFECF389A8FEF85BB87B58E5B69
:1021900087BD50E040E0A1E0B0E0EFEF90911E0479
:1021A000BD01042E01C0660F0A94EAF796239093AE
:1021B0001C04992329F080911D048F5F80931D04D6
:1021C000A99BFECF992309F420C43898E5BB87B5B5
:1021D0008E5B87BD4F5F5F4F48305105F9F68091A8
:1021E0001D0480FF14C481E080931C04A99BFECFD2
:1021F00080911C04882309F40DC438988FEF85BBA7
:1022000087B58E5B87BD81E080931C04A99BFECFC0
:1022100038988FEF85BB87B58E5B87BDA99BFECFB6
:1022200080911C04882309F4F7C338988FEF85BB8D
:1022300087B58E5B87BD30931E0410921D041092EB
:102240001C04A99BFECF389A8FEF85BB87B58E5BA8
:1022500087BD30E020E0E1E0F0E06FEF80911E0408
:10226000AF01022E01C0440F0A94EAF78423809341
:102270001C04882329F090911D049F5F90931D04F6
:10228000A99BFECF882309F4C9C3389865BB87B5DD
:102290008E5B87BD2F5F3F4F28303105F9F6809167
:1022A0001D0480FFBDC381E080931C04A99BFECF69
:1022B00080911C04882309F4B6C338988FEF85BB3E
:1022C00087B58E5B87BD81E080931C04A99BFECF00
:1022D00038988FEF85BB87B58E5B87BDA99BFECFF6
:1022E00080911C04882309F4A0C338988FEF85BB24
:1022F00087B58E5B87BD1092180410921D0430992B
:10230000FECF15BC16BC83B5816083BD81E085BD61
:1023100081E287BDA99BFECF87B58E5B87BD8FEF1E
:1023200085BB90E080E061E03FEFE1E0F0E0A99B59
:10233000FECF309B7CC36093170435BB27B52E5B63
:1023400027BD20911704222381F020911804AF01AA
:10235000082E01C0440F0A94EAF7242B2093180496
:1023600020911D042F5F20931D0401968830910554
:10237000F1F6A99BFECF309B5DC381E080931704EB
:102380008FEF85BB87B58E5B87BD8091170488234F
:1023900021F080911D0480FD09C080915C05909121
:1023A0005D05019690935D0580935C05A99BFECF2A
:1023B000309B43C381E0809317048FEF85BB87B5C3
:1023C0008E5B87BDA99BFECF309B3AC381E0809393
:1023D00017048FEF85BB87B58E5B87BD15BC8AE27E
:1023E0000E94620015BC16BC83B5816083BD81E08C
:1023F00085BD82E487BD85E580931E0410921D048F
:1024000010921C04A99BFECF389A8FEF85BB87B52D
:102410008E5B87BD30E020E0E1E0F0E06FEF80917F
:102420001E04AF01022E01C0440F0A94EAF7842370
:1024300080931C04882329F090911D049F5F909342
:102440001D04A99BFECF882309F4FDC2389865BB03
:1024500087B58E5B87BD2F5F3F4F28303105F9F67A
:1024600080911D0480FFF1C281E080931C04A99B30
:10247000FECF80911C04882309F4EAC238988FEFBC
:1024800085BB87B58E5B87BD81E080931C04A99BCB
:10249000FECF38988FEF85BB87B58E5B87BDA99B34
:1024A000FECF80911C04882309F4D4C238988FEFA2
:1024B00085BB87B58E5B87BD84E480931E04109234
:1024C0001D0410921C04A99BFECF389A8FEF85BB88
:1024D00087B58E5B87BD30E020E0E1E0F0E06FEF94
:1024E00080911E04AF01022E01C0440F0A94EAF746
:1024F000842380931C04882329F090911D049F5FFE
:1025000090931D04A99BFECF882309F4A5C2389897
:1025100065BB87B58E5B87BD2F5F3F4F2830310588
:10252000F9F680911D0480FF99C281E080931C041C
:10253000A99BFECF80911C04882309F492C238988D
:102540008FEF85BB87B58E5B87BD81E080931C04D0
:10255000A99BFECF38988FEF85BB87B58E5B87BD73
:10256000A99BFECF80911C04882309F47CC2389873
:102570008FEF85BB87B58E5B87BD10921E041092CE
:102580001D0410921C04A99BFECF389A8FEF85BBC7
:1025900087B58E5B87BD30E020E0E1E0F0E06FEFD3
:1025A00080911E04AF01022E01C0440F0A94EAF785
:1025B000842380931C04882329F090911D049F5F3D
:1025C00090931D04A99BFECF882309F44EC238982E
:1025D00065BB87B58E5B87BD2F5F3F4F28303105C8
:1025E000F9F680911D0480FF42C281E080931C04B3
:1025F000A99BFECF80911C04882309F43BC2389824
:102600008FEF85BB87B58E5B87BD81E080931C040F
:10261000A99BFECF38988FEF85BB87B58E5B87BDB2
:10262000A99BFECF80911C04882309F425C2389809
:102630008FEF85BB87B58E5B87BD80E180931E04DD
:1026400010921D0410921C04A99BFECF389A8FEFA4
:1026500085BB87B58E5B87BD30E020E0E1E0F0E030
:102660006FEF80911E04AF01022E01C0440F0A9447
:10267000EAF7842380931C04882329F090911D0499
:102680009F5F90931D04A99BFECF882309F4F6C198
:10269000389865BB87B58E5B87BD2F5F3F4F28306D
:1026A0003105F9F680911D0480FFEAC181E0809335
:1026B0001C04A99BFECF80911C04882309F4E3C16C
:1026C00038988FEF85BB87B58E5B87BD81E080939F
:1026D0001C04A99BFECF38988FEF85BB87B58E5B16
:1026E00087BDA99BFECF80911C04882309F4CDC12E
:1026F00038988FEF85BB87B58E5B87BD1092180425
:1027000010921D043099FECF15BC16BC83B58160B4
:1027100083BD81E085BD81E287BDA99BFECF87B5E2
:102720008E5B87BD8FEF85BB90E080E061E03FEF7F
:10273000E1E0F0E0A99BFECF309BA9C160931704B4
:1027400035BB27B52E5B27BD20911704222381F0CE
:1027500020911804AF01082E01C0440F0A94EAF733
:10276000242B2093180420911D042F5F20931D0417
:10277000019688309105F1F6A99BFECF309B8AC166
:1027800081E0809317048FEF85BB87B58E5B87BD93
:1027900080911704882321F080911D0480FD09C0D9
:1027A00080915C0590915D05019690935D05809305
:1027B0005C05A99BFECF309B70C181E0809317041C
:1027C0008FEF85BB87B58E5B87BDA99BFECF309B06
:1027D00067C181E0809317048FEF85BB87B58E5B5F
:1027E00087BD15BC16BC83B5816083BD81E085BD06
:1027F00092E497BD80931E0410921D0410921C0455
:10280000A99BFECF389A8FEF85BB87B58E5B87BDBE
:1028100030E020E0E1E0F0E06FEF80911E04AF01D6
:10282000022E01C0440F0A94EAF7842380931C040B
:10283000882329F090911D049F5F90931D04A99B0C
:10284000FECF882309F42FC1389865BB87B58E5B0E
:1028500087BD2F5F3F4F28303105F9F680911D0469
:1028600080FF23C181E080931C04A99BFECF80914F
:102870001C04882309F41CC138988FEF85BB87B5E9
:102880008E5B87BD81E080931C04A99BFECF3898A6
:102890008FEF85BB87B58E5B87BDA99BFECF8091EF
:1028A0001C04882309F406C138988FEF85BB87B5CF
:1028B0008E5B87BD1092180410921D043099FECFD4
:1028C00015BC16BC83B5816083BD81E085BD81E206
:1028D00087BDA99BFECF87B58E5B87BD8FEF85BB7C
:1028E00090E080E061E03FEFE1E0F0E0A99BFECF07
:1028F000309BE2C06093170435BB27B52E5B27BD24
:1029000020911704222381F020911804AF01082E92
:1029100001C0440F0A94EAF7242B20931804209155
:102920001D042F5F20931D04019688309105F1F658
:10293000A99BFECF309BC3C081E0809317048FEF2B
:1029400085BB87B58E5B87BD80911704882321F0F6
:1029500080911D0480FD09C080915C0590915D050A
:10296000019690935D0580935C05A99BFECF309BFB
:10297000A9C081E0809317048FEF85BB87B58E5B7C
:1029800087BDA99BFECF309BA0C081E08093170438
:102990008FEF85BB87B58E5B87BD15BC8091160414
:1029A0008FBF64E486E00C949D0E389A10CA109292
:1029B0001C041DCA389A23CA389A39CA389A68CA78
:1029C00010921C0475CA389A7BCA389A91CA389AF0
:1029D000C0CA10921C04CDCA389AD3CA389AE9CA20
:1029E000389A18CB10921C0425CB389A2BCB389AE6
:1029F00041CB1092170465CB1092170485CB10922F
:102A000017049FCB10921704A8CB389ADFCB1092F3
:102A10001C04ECCB389AF2CB389A08CC389A36CCD6
:102A200010921C0443CC389A49CC389A5FCC10924F
:102A3000170483CC10921704A3CC10921704BDCCBA
:102A400010921704C6CC389A02CD10921C040FCDF8
:102A5000389A15CD389A2BCD389A5ACD10921C043D
:102A600067CD389A6DCD389A83CD389AB1CD109212
:102A70001C04BECD389AC4CD389ADACD389A09CE26
:102A800010921C0416CE389A1CCE389A32CE109270
:102A9000170456CE1092170476CE1092170490CEDB
:102AA0001092170499CE389AD0CE10921C04DDCE25
:102AB000389AE3CE389AF9CE109217041DCF1092AF
:102AC00017043DCF1092170457CF1092170460CF10
:102AD0000F931F93CF93DF93C1E0D0E28091150451
:102AE000882309F44CC0809115048150809315040B
:102AF000C09330040E9446078091130490911404FF
:102B00000196909314048093130480912E04909165
:102B10002F04019690932F0480932E048091270414
:102B20008150809327048091360490913704019658
:102B30009093370480933604809113049091140489
:102B4000809761F60091290410912A04C8010E941F
:102B5000AA0E109230041092140410921304D09311
:102B600027048091260480912604882309F4B6CF97
:102B7000C0932D04C80180960E945109AFCFDF9108
:102B8000CF911F910F9108950F931F93CF938C01B5
:102B9000C62F85E590E00E94E40084E490E00E9466
:102BA000E40088E090E10E94E40080E190E00E946F
:102BB000E4000E949C006EEC83E00E949400C80137
:102BC0000E94E4000E949C006EEC83E00E9494004E
:102BD00085E590E00E94E40084E490E00E94E40037
:102BE00089E090E10E94E40080E190E00E94E4002E
:102BF0000E949C006EEC83E00E94940082E190E0D1
:102C00000E94E4000E949C006EEC83E00E9494000D
:102C100085E590E00E94E40084E490E00E94E400F6
:102C200086E090E10E94E40080E190E00E94E400F0
:102C30000E949C006EEC83E00E9494008C2F90E038
:102C40000E94E4000E949C006EEC83E00E949400CD
:102C500085E590E00E94E40084E490E00E94E400B6
:102C600080E090E10E94E40080E190E00E94E400B6
:102C70000E949C006EEC83E00E94940087E090E04C
:102C80000E94E4000E949C0062EB85E0CF911F91BE
:102C90000F910C949400A89584B7877F84BF80918E
:102CA00060008861809360001092600080917C00D9
:102CB000806480937C0085B78F7E85BF14B817B879
:102CC0001AB88FEF85B99EEF98B98BB962EB85E0A2
:102CD0000E9494001092C1001092C50084E4809379
:102CE000C40082E08093C00088E18093C10086E048
:102CF0008093C20010925D0510925C0580E091E027
:102D00000E9469008AEF90E00E947E008823B1F360
:102D10008091C6008F7D823589F787E591E00E941A
:102D2000690087E091E00E9469008AE591E00E94D5
:102D300069000E948D0086E696EE0E94530078940A
:102D4000309B61C0389A00000000000000003898F5
:102D5000309BFECF6CE983E00E94940085E590E013
:102D60000E94E40089EC90E00E94E4008DEF90E086
:102D70000E94E4006EEC83E00E94940085E590E000
:102D80000E94E40082EC90E00E94E40086E490E07F
:102D90000E94E4006EEC83E00E94940085E590E0E0
:102DA0000E94E40085EE90E00E94E400309B04C0A5
:102DB00080915B058823D1F380915B0581111AC056
:102DC0000E949C0080933804C9E3D4E008E314E037
:102DD00038E4E32E34E0F32E0E949C008993EC1635
:102DE000FD06D1F7F80181918F010E946200C017A2
:102DF000D107C1F780915B05882351F08BE891E002
:102E00000E946900FFCF85E791E00E946900FFCF33
:102E1000F8941092810080916F008E7F80936F00F4
:102E200082EA91E00E94690081EC91E00E946900D1
:102E30000E948D00893509F0E8C086ED91E00E947E
:102E4000690086EE91E00E94270185E590E00E94EE
:102E5000E40087E890E00E94E4000E949C0083FD6B
:102E600004C089EF91E00E9469006EEC83E00E944B
:102E7000940085E590E00E94E40088EC90E00E94D8
:102E8000E40089E590E00E94E4006EEC83E00E949B
:102E9000940085E590E00E94E40088EC90E00E94B8
:102EA000E40090E080E00E94E4006EEC83E00E9489
:102EB000940010925B0590E080E00E9453007894AB
:102EC0006EEC83E00E94940085E590E00E94E400AF
:102ED0008BE890E00E94E4000E949C0080931B0419
:102EE0002091190430911A042F5F3F4F30931A0438
:102EF0002093190490915B05911102C080FDE0CFF1
:102F0000F89480915B05882309F47CC08DE092E001
:102F10000E94690060911B0470E080E10E94460EEF
:102F20006091190470911A048AE00E94460E87E5A8
:102F300091E00E94690085E592E00E94270185E505
:102F400090E00E94E40087E890E00E94E4000E9484
:102F50009C006EEC83E00E94940085E590E00E9466
:102F6000E40088EC90E00E94E40089E590E00E9493
:102F7000E4006EEC83E00E94940085E590E00E94FE
:102F8000E40088EC90E00E94E40090E080E00E9481
:102F9000E4006EEC83E00E94940010925B0590E0E8
:102FA00080E00E94530078946EEC83E00E949400CD
:102FB00085E590E00E94E4008BE890E00E94E40048
:102FC0000E949C0080931B042091190430911A04E4
:102FD0002F5F3F4F30931A042093190490915B05A3
:102FE000911102C083FFE0CFF89480915B058823A4
:102FF00089F088E692E00E9469008BE792E00E94E7
:103000006900FFCF8DE292E083CF82E492E00E94DC
:1030100069008DCF8DE892E00E94690088EA92E015
:103020000E946900C0E0D1E185E590E00E94E400E3
:1030300084E090E00E94E400CE010E94E40081E17F
:1030400090E00E94E4000E949C00682F70E080E104
:103050000E94460E6EEC83E00E9494002196C330DD
:10306000F1E1DF0709F787E591E00E94690083EC51
:1030700092E00E94690060E080E892E10E94C4153D
:1030800060E081E892E10E94C4156EE782E892E177
:103090000E94C41567EF85E892E10E94C4156DEFA8
:1030A00086E892E10E94C41560E087E892E10E9400
:1030B000C41560E088E892E10E94C41587ED92E0B3
:1030C0000E9469000E948D00893511F00C948320C4
:1030D0008FEE92E00E94690010923704109236043D
:1030E000109251041092500480E1809331041092A8
:1030F000300410922F0410922E0410922D0410927E
:10310000540510922C0410922B0410925A05109220
:1031100059058091C10080688093C10078940E9415
:10312000D40D0E94B20D8091290490912A040E942E
:1031300051090E946815C0E2D0E00E94D40D809130
:103140002804882361F180912B04882329F08130A1
:1031500009F10E946815F1CF80912604209127047F
:10316000AE01481B510987FD53952417150689F7B1
:103170002091240430912504C901807E9F71909391
:103180002A04809329042F713327232B11F70E94DF
:103190005109DFCF0E94B20D10922B04DACFF894C0
:1031A0008091C1008F778093C1008AE090E00E94F7
:1031B0007E00813029F48091C6000E946200F5CF24
:1031C00087E591E00E94690060912304062E000CBF
:1031D000770B80E10E94460E8091230480FF2AC075
:1031E00081E60E946200E0915405F0E0EE0FFF1FBF
:1031F000EC5AFB4F11821082809154058F5F8093AF
:1032000054050E9446078091360490913704019638
:10321000909337048093360421E02093300480910A
:1032200021049091220401968F719927892B11F026
:1032300020932D0487E591E00E946900809120048D
:10324000805D0E94620080911F04805D0E94620088
:10325000C0912D0480E38C0F0E946200D091300455
:1032600080E38D0F0E94620080912004882309F47E
:1032700075C5D111C7C1CC2309F4C4C181E40E9432
:10328000620015BC16BC83B5816083BD81E085BD3D
:1032900082E487BD85E580931E0410921D04109280
:1032A0001C04A99BFECF389A8FEF85BB87B58E5B38
:1032B00087BD30E020E0E1E0F0E06FEF80911E0498
:1032C000AF01022E01C0440F0A94EAF784238093D1
:1032D0001C04882329F090911D049F5F90931D0486
:1032E000A99BFECF882309F45CC7389865BB87B5D6
:1032F0008E5B87BD2F5F3F4F28303105F9F68091F7
:103300001D0480FF50C710921C04A99BFECF809122
:103310001C04882309F44BC738988FEF85BB87B509
:103320008E5B87BD81E080931C04A99BFECF3898FB
:103330008FEF85BB87B58E5B87BDA99BFECF809144
:103340001C04882309F435C738988FEF85BB87B5EF
:103350008E5B87BD10921C048CE090E03FEFA99B30
:10336000FECF20911C04222309F425C7389835BBD1
:1033700027B52E5B27BD019791F781E080931C0450
:10338000A99BFECF38988FEF85BB87B58E5B87BD35
:10339000A99BFECF80911C04882309F40EC738989E
:1033A0008FEF85BB87B58E5B87BD15BC16BC83B51B
:1033B000816083BD81E085BD82E487BD85E5809322
:1033C0001E0410921D0410921C04A99BFECF389A73
:1033D0008FEF85BB87B58E5B87BD30E020E0E1E0F5
:1033E000F0E06FEF80911E04AF01022E01C0440F88
:1033F0000A94EAF7842380931C04882329F090918F
:103400001D049F5F90931D04A99BFECF882309F4A0
:10341000D6C6389865BB87B58E5B87BD2F5F3F4F9B
:1034200028303105F9F680911D0480FFCAC681E07D
:1034300080931C04A99BFECF80911C04882309F46F
:10344000C3C638988FEF85BB87B58E5B87BD81E09B
:1034500080931C04A99BFECF38988FEF85BB87B55E
:103460008E5B87BDA99BFECF80911C04882309F445
:10347000ADC638988FEF85BB87B58E5B87BD89EC6D
:1034800080931E0410921D0410921C04A99BFECF71
:10349000389A8FEF85BB87B58E5B87BD30E020E023
:1034A000E1E0F0E06FEF80911E04AF01022E01C059
:1034B000440F0A94EAF7842380931C04882329F09C
:1034C00090911D049F5F90931D04A99BFECF8823BC
:1034D00009F47EC6389865BB87B58E5B87BD2F5FC4
:1034E0003F4F28303105F9F680911D0480FF72C6E8
:1034F00081E080931C04A99BFECF80911C0488234B
:1035000009F46BC638988FEF85BB87B58E5B87BD96
:1035100081E080931C04A99BFECF38988FEF85BB78
:1035200087B58E5B87BDA99BFECF80911C04882345
:1035300009F455C638988FEF85BB87B58E5B87BD7C
:1035400081E080931E0410921D0410921C04A99B1C
:10355000FECF389A8FEF85BB87B58E5B87BD30E095
:1035600020E0E1E0F0E06FEF80911E04AF01022E59
:1035700001C0440F0A94EAF7842380931C04882333
:1035800029F090911D049F5F90931D04A99BFECF8D
:10359000882309F426C6389865BB87B58E5B87BD3E
:1035A0002F5F3F4F28303105F9F680911D0480FFD1
:1035B0001AC681E080931C04A99BFECF80911C0455
:1035C000882309F413C638988FEF85BB87B58E5BC7
:1035D00087BD81E080931C04A99BFECF38988FEFB4
:1035E00085BB87B58E5B87BDA99BFECF80911C04F0
:1035F000882309F4FDC538988FEF85BB87B58E5BAE
:1036000087BD15BC80913004882309F4D2C1809114
:103610002D04882309F4CDC182E40E94620015BC08
:1036200016BC83B5816083BD81E085BD82E487BD22
:1036300085E580931E0410921D0410921C04A99B22
:10364000FECF389A8FEF85BB87B58E5B87BD30E0A4
:1036500020E0E1E0F0E06FEF80911E04AF01022E68
:1036600001C0440F0A94EAF7842380931C04882342
:1036700029F090911D049F5F90931D04A99BFECF9C
:10368000882309F4B7C5389865BB87B58E5B87BDBD
:103690002F5F3F4F28303105F9F680911D0480FFE0
:1036A000ABC510921C04A99BFECF80911C048823FB
:1036B00009F4A6C538988FEF85BB87B58E5B87BDAB
:1036C00081E080931C04A99BFECF38988FEF85BBC7
:1036D00087B58E5B87BDA99BFECF80911C04882394
:1036E00009F490C538988FEF85BB87B58E5B87BD91
:1036F00010921C048CE090E03FEFA99BFECF20913C
:103700001C04222309F480C5389835BB27B52E5BED
:1037100027BD019791F781E080931C04A99BFECF00
:1037200038988FEF85BB87B58E5B87BDA99BFECF91
:1037300080911C04882309F469C538988FEF85BBF4
:1037400087B58E5B87BD15BC16BC83B5816083BD14
:1037500081E085BD82E487BD85E580931E041092DB
:103760001D0410921C04A99BFECF389A8FEF85BBD5
:1037700087B58E5B87BD30E020E0E1E0F0E06FEFE1
:1037800080911E04AF01022E01C0440F0A94EAF793
:10379000842380931C04882329F090911D049F5F4B
:1037A00090931D04A99BFECF882309F431C5389856
:1037B00065BB87B58E5B87BD2F5F3F4F28303105D6
:1037C000F9F680911D0480FF25C581E080931C04DB
:1037D000A99BFECF80911C04882309F41EC538984C
:1037E0008FEF85BB87B58E5B87BD81E080931C041E
:1037F000A99BFECF38988FEF85BB87B58E5B87BDC1
:10380000A99BFECF80911C04882309F408C5389831
:103810008FEF85BB87B58E5B87BD89EC80931E04D7
:1038200010921D0410921C04A99BFECF389A8FEFB2
:1038300085BB87B58E5B87BD30E020E0E1E0F0E03E
:103840006FEF80911E04AF01022E01C0440F0A9455
:10385000EAF7842380931C04882329F090911D04A7
:103860009F5F90931D04A99BFECF882309F4D9C4C0
:10387000389865BB87B58E5B87BD2F5F3F4F28307B
:103880003105F9F680911D0480FFCDC481E080935D
:103890001C04A99BFECF80911C04882309F4C6C494
:1038A00038988FEF85BB87B58E5B87BD81E08093AD
:1038B0001C04A99BFECF38988FEF85BB87B58E5B24
:1038C00087BDA99BFECF80911C04882309F4B0C456
:1038D00038988FEF85BB87B58E5B87BD81E080937D
:1038E0001E0410921D0410921C04A99BFECF389A4E
:1038F0008FEF85BB87B58E5B87BD30E020E0E1E0D0
:10390000F0E06FEF80911E04AF01022E01C0440F62
:103910000A94EAF7842380931C04882329F0909169
:103920001D049F5F90931D04A99BFECF882309F47B
:1039300081C4389865BB87B58E5B87BD2F5F3F4FCD
:1039400028303105F9F680911D0480FF75C481E0AF
:1039500080931C04A99BFECF80911C04882309F44A
:103960006EC438988FEF85BB87B58E5B87BD81E0CD
:1039700080931C04A99BFECF38988FEF85BB87B539
:103980008E5B87BDA99BFECF80911C04882309F420
:1039900058C438988FEF85BB87B58E5B87BD15BC43
:1039A0008091290490912A0480960E94AA0E109278
:1039B000300480913004882309F4D0C180912D0413
:1039C0008111CCC183E40E94620015BC16BC83B592
:1039D000816083BD81E085BD82E487BD85E58093FC
:1039E0001E0410921D0410921C04A99BFECF389A4D
:1039F0008FEF85BB87B58E5B87BD30E020E0E1E0CF
:103A0000F0E06FEF80911E04AF01022E01C0440F61
:103A10000A94EAF7842380931C04882329F0909168
:103A20001D049F5F90931D04A99BFECF882309F47A
:103A30000AC4389865BB87B58E5B87BD2F5F3F4F43
:103A400028303105F9F680911D0480FFFEC31092E5
:103A50001C04A99BFECF80911C04882309F4F9C3A0
:103A600038988FEF85BB87B58E5B87BD81E08093EB
:103A70001C04A99BFECF38988FEF85BB87B58E5B62
:103A800087BDA99BFECF80911C04882309F4E3C362
:103A900038988FEF85BB87B58E5B87BD10921C046D
:103AA0008CE090E03FEFA99BFECF20911C042223E5
:103AB00009F4D3C3389835BB27B52E5B27BD0197D2
:103AC00091F781E080931C04A99BFECF38988FEF7B
:103AD00085BB87B58E5B87BDA99BFECF80911C04FB
:103AE000882309F4BCC338988FEF85BB87B58E5BFC
:103AF00087BD15BC16BC83B5816083BD81E085BDE3
:103B000082E487BD85E580931E0410921D04109207
:103B10001C04A99BFECF389A8FEF85BB87B58E5BBF
:103B200087BD30E020E0E1E0F0E06FEF80911E041F
:103B3000AF01022E01C0440F0A94EAF78423809358
:103B40001C04882329F090911D049F5F90931D040D
:103B5000A99BFECF882309F484C3389865BB87B539
:103B60008E5B87BD2F5F3F4F28303105F9F680917E
:103B70001D0480FF78C381E080931C04A99BFECFC5
:103B800080911C04882309F471C338988FEF85BB9A
:103B900087B58E5B87BD81E080931C04A99BFECF17
:103BA00038988FEF85BB87B58E5B87BDA99BFECF0D
:103BB00080911C04882309F45BC338988FEF85BB80
:103BC00087B58E5B87BD89EC80931E0410921D041F
:103BD00010921C04A99BFECF389A8FEF85BB87B546
:103BE0008E5B87BD30E020E0E1E0F0E06FEF809198
:103BF0001E04AF01022E01C0440F0A94EAF7842389
:103C000080931C04882329F090911D049F5F90935A
:103C10001D04A99BFECF882309F42CC3389865BBEB
:103C200087B58E5B87BD2F5F3F4F28303105F9F692
:103C300080911D0480FF20C381E080931C04A99B18
:103C4000FECF80911C04882309F419C338988FEFA4
:103C500085BB87B58E5B87BD81E080931C04A99BE3
:103C6000FECF38988FEF85BB87B58E5B87BDA99B4C
:103C7000FECF80911C04882309F403C338988FEF8A
:103C800085BB87B58E5B87BD81E080931E04109253
:103C90001D0410921C04A99BFECF389A8FEF85BBA0
:103CA00087B58E5B87BD30E020E0E1E0F0E06FEFAC
:103CB00080911E04AF01022E01C0440F0A94EAF75E
:103CC000842380931C04882329F090911D049F5F16
:103CD00090931D04A99BFECF882309F4D4C2389881
:103CE00065BB87B58E5B87BD2F5F3F4F28303105A1
:103CF000F9F680911D0480FFC8C281E080931C0406
:103D0000A99BFECF80911C04882309F4C1C2389876
:103D10008FEF85BB87B58E5B87BD81E080931C04E8
:103D2000A99BFECF38988FEF85BB87B58E5B87BD8B
:103D3000A99BFECF80911C04882309F4ABC238985C
:103D40008FEF85BB87B58E5B87BD15BC809129043D
:103D500090912A040E94AA0E1092300480912004AF
:103D60008111D1C180913004882309F4BEC284E45A
:103D70000E94620015BC16BC83B5816083BD81E0E2
:103D800085BD82E487BD85E580931E0410921D04E5
:103D900010921C04A99BFECF389A8FEF85BB87B584
:103DA0008E5B87BD30E020E0E1E0F0E06FEF8091D6
:103DB0001E04AF01022E01C0440F0A94EAF78423C7
:103DC00080931C04882329F090911D049F5F909399
:103DD0001D04A99BFECF882309F45EC2389865BBF9
:103DE00087B58E5B87BD2F5F3F4F28303105F9F6D1
:103DF00080911D0480FF52C210921C04A99BFECF2B
:103E000080911C04882309F44DC238988FEF85BB3C
:103E100087B58E5B87BD81E080931C04A99BFECF94
:103E200038988FEF85BB87B58E5B87BDA99BFECF8A
:103E300080911C04882309F437C238988FEF85BB22
:103E400087B58E5B87BD10921C048CE090E03FEF3D
:103E5000A99BFECF20911C04222309F427C2389885
:103E600035BB27B52E5B27BD019791F781E0809385
:103E70001C04A99BFECF38988FEF85BB87B58E5B5E
:103E800087BDA99BFECF80911C04882309F410C232
:103E900038988FEF85BB87B58E5B87BD15BC16BC88
:103EA00083B5816083BD81E085BD82E487BD85E502
:103EB00080931E0410921D0410921C04A99BFECF37
:103EC000389A8FEF85BB87B58E5B87BD30E020E0E9
:103ED000E1E0F0E06FEF80911E04AF01022E01C01F
:103EE000440F0A94EAF7842380931C04882329F062
:103EF00090911D049F5F90931D04A99BFECF882382
:103F000009F4D8C1389865BB87B58E5B87BD2F5F34
:103F10003F4F28303105F9F680911D0480FFCCC158
:103F200081E080931C04A99BFECF80911C04882310
:103F300009F4C5C138988FEF85BB87B58E5B87BD07
:103F400081E080931C04A99BFECF38988FEF85BB3E
:103F500087B58E5B87BDA99BFECF80911C0488230B
:103F600009F4AFC138988FEF85BB87B58E5B87BDED
:103F700089EC80931E0410921D0410921C04A99BCE
:103F8000FECF389A8FEF85BB87B58E5B87BD30E05B
:103F900020E0E1E0F0E06FEF80911E04AF01022E1F
:103FA00001C0440F0A94EAF7842380931C048823F9
:103FB00029F090911D049F5F90931D04A99BFECF53
:103FC000882309F480C1389865BB87B58E5B87BDAF
:103FD0002F5F3F4F28303105F9F680911D0480FF97
:103FE00074C181E080931C04A99BFECF80911C04C6
:103FF000882309F46DC138988FEF85BB87B58E5B38
:1040000087BD81E080931C04A99BFECF38988FEF79
:1040100085BB87B58E5B87BDA99BFECF80911C04B5
:10402000882309F457C138988FEF85BB87B58E5B1D
:1040300087BD81E080931E0410921D0410921C0421
:10404000A99BFECF389A8FEF85BB87B58E5B87BD66
:1040500030E020E0E1E0F0E06FEF80911E04AF017E
:10406000022E01C0440F0A94EAF7842380931C04B3
:10407000882329F090911D049F5F90931D04A99BB4
:10408000FECF882309F428C1389865BB87B58E5BBD
:1040900087BD2F5F3F4F28303105F9F680911D0411
:1040A00080FF1CC181E080931C04A99BFECF8091FE
:1040B0001C04882309F415C138988FEF85BB87B598
:1040C0008E5B87BD81E080931C04A99BFECF38984E
:1040D0008FEF85BB87B58E5B87BDA99BFECF809197
:1040E0001C04882309F4FFC038988FEF85BB87B57F
:1040F0008E5B87BD15BC8091290490912A040E9493
:10410000AA0E109230048DEF92E00E9469000E9486
:104110008D008091360490913704892B31F480E032
:1041200090E490933704809336048FE193E00E94EB
:1041300069000E948D00D82F803309F036C110929B
:10414000350410923404E0903604F09037048CE388
:1041500093E00E9469000E948D00182F80E88093F0
:104160008500109284008FEF86BB84E080938100ED
:10417000B09BFECFB09A1092810081E090E00E9447
:104180007E00882321F08091C600D12F182F85E072
:1041900090E00E947E00813009F0ABC08091C600A3
:1041A000F6CF389AA3C881E080931C04AEC8389A31
:1041B000B4C8389ACAC8389ADAC8389AF1C8389A4E
:1041C00029C910921C0436C9389A3CC9389A52C978
:1041D000389A81C910921C048EC9389A94C9389AA9
:1041E000AAC9389AD9C910921C04E6C9389AECC9F0
:1041F000389A02CA389A48CA81E080931C0453CA8C
:10420000389A59CA389A6FCA389A7FCA389A96CA61
:10421000389ACECA10921C04DBCA389AE1CA389A7E
:10422000F7CA389A26CB10921C0433CB389A39CB74
:10423000389A4FCB389A7ECB10921C048BCB389A8D
:1042400091CB389AA7CB389AF5CB81E080931C04A8
:1042500000CC389A06CC389A1CCC389A2CCC389A98
:1042600043CC389A7BCC10921C0488CC389A8ECCE4
:10427000389AA4CC389AD3CC10921C04E0CC389A4B
:10428000E6CC389AFCCC389A2BCD10921C0438CD51
:10429000389A3ECD389A54CD389AA1CD81E080939A
:1042A0001C04ACCD389AB2CD389AC8CD389AD8CD46
:1042B000389AEFCD389A27CE10921C0434CE389A13
:1042C0003ACE389A50CE389A7FCE10921C048CCEBB
:1042D000389A92CE389AA8CE389AD7CE10921C042B
:1042E000E4CE389AEACE389A00CF85E40E94620084
:1042F0000ACF86EC8D0F873008F4E0C0C0EDCD0FFB
:10430000C73108F0DBC086EC810F873008F4D6C0D7
:1043100080ED810F873108F0D1C0C13110F0C9ECB8
:10432000CD0F50E1C502E0011124813110F089EC7C
:10433000810FC80FD11D87FDDA95BE0180E10E9473
:10434000460E83E091E00E94690088248394912CBA
:1043500000E010E8712C612C95E0492E512C54019D
:1043600091E0A91AB108E114F10409F0AAC087E5A7
:1043700091E00E9469008DE493E00E9469006091E1
:104380003604709137048AE00E94460E80E693E07E
:104390000E94690060913404709135048AE00E94A3
:1043A000460E87E693E00E94690080E793E00E9452
:1043B0006900CDEFDFEFC230D10510F185E590E067
:1043C0000E94E40084E090E00E94E400CE018D575A
:1043D0009D4E0E94E40082E190E00E94E4000E9471
:1043E0009C00682F70E080E10E94460EC230D1052B
:1043F00019F489E00E9462006EEC83E00E94940050
:104400002196C630D105B9F685EA93E00E9469008D
:1044100065EC8AE892E10E94C4158AEB93E00E9461
:1044200069000E948D00893509F0CBC060E08AE800
:1044300092E10E94C41584ED93E00E9469006EEC45
:1044400083E00E94940085E590E00E94E40088ECFF
:1044500090E00E94E40089E590E00E94E4006EECA8
:1044600083E00E94940085E590E00E94E40088ECDF
:1044700090E00E94E40090E080E00E94E4006EEC96
:1044800083E00E9494008AEF93E00E94690085E532
:1044900090E00E94E40083EC90E00E94E40087EE4C
:1044A00090E00E94E40088E199E00FB6F894A895A6
:1044B000809360000FBE90936000FFCFD0E0C0E01B
:1044C0003CCF6801E0E8CE0ED11CC8010E94D402A6
:1044D0001C0190933304809332040E5F1F4F01152B
:1044E000F0E21F0709F443CF019609F06DC00C15E7
:1044F0001D0559F73CCFB2010E941B23892B19F4EB
:104500008AE20E9462008091340490913504019601
:104510009093350480933404670181E0C81AD10870
:1045200098E0E91AF10862EB87E00E949D0EC8014D
:104530000E94D4029C0190933304809332040E5F56
:104540001F4F019619F1F1E0CF1AD108209751F0D1
:10455000C501BE010E941B23892B21F4B90180E112
:104560000E94460E809134049091350401969093F8
:10457000350480933404011540E2140709F444C063
:10458000CE14DF0481F6209719F416C0209779F035
:10459000C501BE010E941B23892B49F4C30187700A
:1045A0009927892B21F487E591E00E946900011584
:1045B00050E2150709F4DBCE8FEF881A980A7601CE
:1045C000CECE86EE93E039CFC501209709F493CF84
:1045D000BE010E941B23892B09F095CF8EE693E044
:1045E0000E946900B8016250704880E10E94460E46
:1045F00085E091E00E9469005FEF651A750AB101DC
:1046000080E10E94460E7FCF209711F6B0CEAA1B04
:10461000BB1B51E107C0AA1FBB1FA617B70710F0AD
:10462000A61BB70B881F991F5A95A9F780959095DF
:10463000BC01CD01089597FB072E16F4009407D016
:1046400077FD09D00E94072307FC05D03EF4909522
:1046500081959F4F0895709561957F4F0895EE0F56
:0E466000FF1F0590F491E02D0994F894FFCF10
:10466E00523F20202020000D0A55504449207072E0
:10467E006F6772616D65723A20554E4F5F555044AB
:10468E00495F49505F56382028616C736F20776FF1
:10469E00726B73206F6E20616E2041746D65676161
:1046AE002033323820636C6F636B65642061742035
:1046BE00384D487A290D0A0D0A0050726573732021
:1046CE00616E79206B657920746F207374617274DA
:1046DE000D0A0D0A00446576696365206E6F7420BD
:1046EE0064657465637465640D0A00506F77657256
:1046FE00204379636C652052657175697265640D2E
:10470E000A000D0A496E697469616C6973696E6796
:10471E00204E564D2070726F6772616D6D696E67B7
:10472E00000D0A457261736520636869703F2059F8
:10473E00206F72204E000945726173696E672063A7
:10474E006869700D0A003078344535363444343596
:10475E003732363137333635000D0A4368697020EB
:10476E006572617365206661696C6564000D0A4649
:10477E0061696C7572653A2044657669636520736C
:10478E0074696C6C206C6F636B656409000D0A4470
:10479E00657669636520756E6C6F636B6564090978
:1047AE0009000943686970206E6F74206572617329
:1047BE0065640D0A0030783445353634443530376B
:1047CE0032364636373230004E564D50524F472015
:1047DE006661696C7572653A2009000D0A504F5278
:1047EE0020746F2070726F6365656421005265617D
:1047FE00647920666F72204E564D2070726F67720C
:10480E00616D6D696E6709000D0A5369676E61749B
:10481E00757265206279746520726561646F757456
:10482E0009090050726F6772616D6D696E6720665F
:10483E00757365730D0A000D0A50726F6772616DA4
:10484E0020666C6173683F2059206F72204E000DF8
:10485E000A53656E642066696C652020000D0A5649
:10486E006572696679696E6720666C6173683A2055
:10487E00414B20746F20636F6E74696E7565000D09
:10488E000A50726573732030206F7220414F4B2097
:10489E00746F206573636170650D0A00496E7465EF
:1048AE0067657228302D4646293F2020000D0A48A4
:1048BE0065785F66696C655F73697A653A2020007A
:1048CE0020696E3A202000206F75740D0A000D00CD
:1048DE000D0A46757365733A095744542C20424F9E
:1048EE00442C204F53432C535953300953595331B1
:1048FE002C20415050454E442C20424F4F54454E93
:10490E00440D0A09000D0A0D0A556E6C6F636B6932
:10491E006E6720646576696365000D0A5920746FB1
:10492E00204C6F636B20646576696365206F72201F
:10493E00414F4B000D0A446576696365206C6F63C9
:10494E006B65640D0A000D0A446576696365207512
:10495E006E6C6F636B65640D0A00536573696F6EE1
:10496E00207465726D696E617465640D0A0D0A00BE
:00000001FF
