:100000000C9434000C9451000C9451000C94510049
:100010000C9451000C9451000C9451000C9451001C
:100020000C9451000C9451000C9451000C9451000C
:100030000C9451000C9455010C9451000C945100F7
:100040000C9451000C9451000C9466010C945100D6
:100050000C9451000C9451000C9451000C945100DC
:100060000C9451000C94510011241FBECFEFD8E026
:10007000DEBFCDBF14E0A0E0B1E0E0E8F6E402C0EE
:1000800005900D92AE33B107D9F725E0AEE3B4E0A9
:1000900001C01D92AD38B207E1F70E9450160C94D2
:1000A0003E230C940000EFE6F0E0208121602083E5
:1000B00090938500809384008FEF86BB84E08093CB
:1000C000810008959091C00095FFFCCF8093C600F9
:1000D00008950F931F93CF93DF93EC018C01085386
:1000E0001F4F8991882329F00E946200C017D10711
:1000F000C1F7DF91CF911F910F91089521EA3FE061
:100100004091C00047FD07C021503109C9F7019750
:10011000A9F780E0089581E008958091C00087FFED
:10012000FCCF8091C600089593B566BD85BDA89BA0
:10013000FECFA89A15BC0895EF92FF920F931F93DC
:10014000CF93DF9386B1182F117080FDFBCF6CED3C
:1001500082E00E949400D0E0C0E000E0EE24E3944E
:10016000F12C6CED82E00E949400309B08C0C70126
:100170000C2E01C0880F0A94EAF7182B0F5F219606
:10018000C830D10571F76CED82E00E949400309B7D
:1001900002C000FD09C080918B0590918C050196ED
:1001A00090938C0580938B056CED82E00E94940007
:1001B0006CED82E00E949400812FDF91CF911F911E
:1001C0000F91FF90EF900895CF92DF92EF92FF9200
:1001D0001F93CF93DF937C01389A6CED82E00E94ED
:1001E0009400D0E0C0E010E0CC24C394D12CC60130
:1001F0000C2E02C0880F991F0A94E2F78E219F21CE
:10020000892B09F138981F5F6CED82E00E94940001
:100210002196C830D10559F710FF17C038986CEDFA
:1002200082E00E94940038986CED82E00E94940075
:100230006CED82E0DF91CF911F91FF90EF90DF9006
:10024000CF900C949400389ADFCF389AE8CF0F9370
:100250001F93CF93DF938C0185E590E00E94E4002B
:1002600080EE90E00E94E400E80160962981888198
:1002700090ED980F9A3014F099EC980F80ED820F62
:100280008A3014F089EC820F9295907F890F082EA6
:10029000000C990B0E94E40022970C171D0731F700
:1002A000DF91CF911F910F9108951F920F920FB67A
:1002B0000F9211248F9381E080938A051092810020
:1002C0008F910F900FBE0F901F9018951F920F9255
:1002D0000FB60F9211242F933F934F935F938F93F9
:1002E0009F93EF93FF9380918905883409F0D0C0E4
:1002F000E091C600E153E63108F0F7C0F0E0ED57B9
:10030000FE4F0C94382399015502570259025B02A3
:100310005D025F026102630271027502750275027D
:100320007502750275026502670269026B026D0251
:100330006F0281E0209187053091880523303105D7
:1003400009F412C10CF0D3C02130310509F40CC1FD
:100350002230310509F4E0C02091870530918805ED
:10036000293031050CF486C04091870550918805ED
:100370002091830530918405421753070CF07AC011
:10038000209187053091880523703327213031056E
:1003900041F490E1899F90011124309386052093C8
:1003A00085052091870530918805237033272230F9
:1003B000310551F42091850530918605280F311DB6
:1003C0003093860520938505209187053091880517
:1003D000237033272330310541F490E1899F900148
:1003E000112430938104209380042091870530915B
:1003F000880523703327232BE9F520918004309161
:100400008104820F932F911D909381048093800427
:100410008091800490918104982F88279093810483
:1004200080938004809180049091810420918505BF
:1004300030918605820F931F9093860580938505E2
:10044000E091820581E08E0F809382058091850581
:1004500090918605F0E0EE0FFF1FEE57FB4F918362
:10046000808380917E0490917F04019690937F0415
:1004700080937E04809187059091880501969093E2
:10048000880580938705809182058F778093820508
:10049000FF91EF919F918F915F914F913F912F919C
:1004A0000F900FBE0F901F90189582E043CF83E00E
:1004B00041CF84E03FCF85E03DCF86E03BCF87E072
:1004C00039CF88E037CF89E035CF8AE033CF8BE072
:1004D00031CF8CE02FCF8DE02DCF8EE02BCF8FE072
:1004E00029CF109288051092870580E023CF253010
:1004F000310509F453C00CF440C02630310509F031
:100500002BCF2091850530918605280F311D309322
:1005100086052093850516C02091850530918605B6
:10052000280F311D30938605209385052091850580
:1005300030918605220F331F275F3F4F309384058C
:1005400020938305E091820591E09E0F90938205B0
:100550002091850530918605F0E0EE0FFF1FEE57E4
:10056000FB4F31832083F8CE90E1899F90011124C5
:100570003093860520938505EFCE20918505309137
:100580008605280F311D309386052093850520911F
:10059000850530918605322F2227EACF40918505C7
:1005A0005091860590E1899F90011124240F351FF9
:1005B000DFCFCF93DF9315BC16BC23B5216023BDDD
:1005C00021E025BD22E427BD25E520934C041092AF
:1005D0004B0410924A04A99BFECF389A2FEF25BBFB
:1005E00027B52E5B27BD50E040E0A1E0B0E0EFEF83
:1005F00020914C04BD01042E01C0660F0A94EAF755
:10060000262320934A04222329F030914B043F5F94
:1006100030934B04A99BFECF222309F4DCC3389806
:10062000E5BB27B52E5B27BD4F5F5F4F48305105B7
:10063000F9F620914B0420FFD0C321E020934A0417
:10064000A99BFECF20914A04222309F4C9C33898FC
:100650002FEF25BB27B52E5B27BD21E020934A0451
:10066000A99BFECF38982FEF25BB27B52E5B27BD62
:10067000A99BFECF20914A04222309F4B3C33898E2
:100680002FEF25BB27B52E5B27BD24E020934C041C
:1006900010924B0410924A04A99BFECF389A2FEF78
:1006A00025BB27B52E5B27BD50E040E0A1E0B0E0C0
:1006B000EFEF20914C04BD01042E01C0660F0A9497
:1006C000EAF7262320934A04222329F030914B0491
:1006D0003F5F30934B04A99BFECF222309F484C3D0
:1006E0003898E5BB27B52E5B27BD4F5F5F4F48307D
:1006F0005105F9F620914B0420FF78C321E02093A7
:100700004A04A99BFECF20914A04222309F471C315
:1007100038982FEF25BB27B52E5B27BD21E020930E
:100720004A04A99BFECF38982FEF25BB27B52E5B37
:1007300027BDA99BFECF20914A04222309F45BC365
:1007400038982FEF25BB27B52E5B27BD80934C042F
:1007500010924B0410924A04A99BFECF389A2FEFB7
:1007600025BB27B52E5B27BD50E040E0A1E0B0E0FF
:10077000EFEF20914C04BD01042E01C0660F0A94D6
:10078000EAF7262320934A04222329F030914B04D0
:100790003F5F30934B04A99BFECF222309F42DC366
:1007A0003898E5BB27B52E5B27BD4F5F5F4F4830BC
:1007B0005105F9F620914B0420FF21C321E020933D
:1007C0004A04A99BFECF20914A04222309F41AC3AC
:1007D00038982FEF25BB27B52E5B27BD21E020934E
:1007E0004A04A99BFECF38982FEF25BB27B52E5B77
:1007F00027BDA99BFECF20914A04222309F404C3FC
:1008000038982FEF25BB27B52E5B27BD90934C045E
:1008100010924B0410924A04A99BFECF389A2FEFF6
:1008200025BB27B52E5B27BD50E040E0A1E0B0E03E
:10083000EFEF20914C04BD01042E01C0660F0A9415
:10084000EAF7262320934A04222329F030914B040F
:100850003F5F30934B04A99BFECF222309F4D6C2FD
:100860003898E5BB27B52E5B27BD4F5F5F4F4830FB
:100870005105F9F620914B0420FFCAC221E02093D4
:100880004A04A99BFECF20914A04222309F4C3C243
:1008900038982FEF25BB27B52E5B27BD21E020938D
:1008A0004A04A99BFECF38982FEF25BB27B52E5BB6
:1008B00027BDA99BFECF20914A04222309F4ADC293
:1008C00038982FEF25BB27B52E5B27BD1092460425
:1008D00010924B043099FECF15BC16BC23B5216095
:1008E00023BD21E025BD21E227BDA99BFECF27B571
:1008F0002E5B27BD2FEF25BB30E020E0E1E05FEF6E
:10090000A1E0B0E0A99BFECF309B89C2E0934504F3
:1009100055BB47B54E5B47BD40914504442381F02C
:1009200040914604BD01022E01C0660F0A94EAF709
:10093000462B4093460440914B044F5F40934B0439
:100940002F5F3F4F28303105E9F6A99BFECF309B42
:1009500069C221E0209345042FEF25BB27B52E5B0C
:1009600027BD20914504222321F020914B0420FD36
:100970000AC020918B0530918C052F5F3F4F30933B
:100980008C0520938B05A99BFECF309B4EC221E0A6
:10099000209345042FEF25BB27B52E5B27BDA99BD0
:1009A000FECF309B45C221E0209345042FEF25BBAD
:1009B00027B52E5B27BD15BC2091460430E0322FB1
:1009C0002227BC016F5F7F4F15BC16BC83B58160C9
:1009D00083BD81E085BD82E487BD85E580934C04BD
:1009E00010924B0410924A04A99BFECF389A8FEFC5
:1009F00085BB87B58E5B87BD50E040E0C1E0D0E0AD
:100A0000AFEF90914C04FE01042E01C0EE0F0A944A
:100A1000EAF79E2390934A04992329F080914B048E
:100A20008F5F80934B04A99BFECF992309F403C2E7
:100A30003898A5BB87B58E5B87BD4F5F5F4F483049
:100A40005105F9F680914B0480FFF7C181E0809356
:100A50004A04A99BFECF80914A04882309F4F0C17F
:100A600038988FEF85BB87B58E5B87BD81E080931B
:100A70004A04A99BFECF38988FEF85BB87B58E5B64
:100A800087BDA99BFECF80914A04882309F4DAC16F
:100A900038988FEF85BB87B58E5B87BD84E08093E8
:100AA0004C0410924B0410924A04A99BFECF389A32
:100AB0008FEF85BB87B58E5B87BD50E040E0C1E01E
:100AC000D0E0AFEF90914C04FE01042E01C0EE0F78
:100AD0000A94EAF79E2390934A04992329F080917F
:100AE0004B048F5F80934B04A99BFECF992309F49D
:100AF000ABC13898A5BB87B58E5B87BD4F5F5F4F95
:100B000048305105F9F680914B0480FF9FC181E088
:100B100080934A04A99BFECF80914A04882309F45C
:100B200098C138988FEF85BB87B58E5B87BD81E014
:100B300080934A04A99BFECF38988FEF85BB87B579
:100B40008E5B87BDA99BFECF80914A04882309F460
:100B500082C138988FEF85BB87B58E5B87BD609368
:100B60004C0410924B0410924A04A99BFECF389A71
:100B70008FEF85BB87B58E5B87BD50E040E0C1E05D
:100B8000D0E0AFEF90914C04FE01042E01C0EE0FB7
:100B90000A94EAF79E2390934A04992329F08091BE
:100BA0004B048F5F80934B04A99BFECF992309F4DC
:100BB00054C13898A5BB87B58E5B87BD4F5F5F4F2B
:100BC00048305105F9F680914B0480FF48C181E01F
:100BD00080934A04A99BFECF80914A04882309F49C
:100BE00041C138988FEF85BB87B58E5B87BD81E0AB
:100BF00080934A04A99BFECF38988FEF85BB97B5A9
:100C00009E5B97BDA99BFECF80914A04882309F47F
:100C10002BC138988FEF85BB97B59E5B97BD7093BE
:100C20004C0410924B0410924A04A99BFECF389AB0
:100C30008FEF85BB87B58E5B87BD50E040E0A1E0BC
:100C4000B0E0EFEF80914C04BD01042E01C0660FAF
:100C50000A94EAF7862380934A04882329F0909126
:100C60004B049F5F90934B04A99BFECF882309F40C
:100C7000FDC03898E5BB87B58E5B87BD4F5F5F4F82
:100C800048305105F9F680914B0480FFF1C081E0B6
:100C900080934A04A99BFECF80914A04882309F4DB
:100CA000EAC038988FEF85BB87B58E5B87BD81E042
:100CB00080934A04A99BFECF38988FEF85BB87B5F8
:100CC0008E5B87BDA99BFECF80914A04882309F4DF
:100CD000D4C038988FEF85BB87B58E5B87BD1092E7
:100CE000460410924B043099FECF15BC16BC83B558
:100CF000816083BD81E085BD81E287BDA99BFECF78
:100D000087B58E5B87BD8FEF85BB90E080E0E1E02B
:100D10005FEFA1E0B0E0A99BFECF309BB0C0E093B5
:100D2000450455BB47B54E5B47BD40914504442340
:100D300081F040914604BD01082E01C0660F0A945F
:100D4000EAF7462B4093460440914B044F5F409393
:100D50004B04019688309105F1F6A99BFECF309B9C
:100D600091C081E0809345048FEF85BB87B58E5B92
:100D700087BD80914504882321F080914B0480FD3C
:100D800009C080918B0590918C05019690938C05FC
:100D900080938B05A99BFECF309B77C081E0809329
:100DA00045048FEF85BB87B58E5B87BDA99BFECFC2
:100DB000309B6EC081E0809345048FEF85BB87B583
:100DC0008E5B87BD15BC80914604A901482BCA01E2
:100DD000DF91CF910895389A23CC10924A0430CCF9
:100DE000389A36CC389A4CCC389A7BCC10924A043C
:100DF00088CC389A8ECC389AA4CC389AD2CC10921F
:100E00004A04DFCC389AE5CC389AFBCC389A29CD05
:100E100010924A0436CD389A3CCD389A52CD109271
:100E2000450476CD1092450497CD10924504B2CD7D
:100E300010924504BBCD389AFCCD10924A0409CEDD
:100E4000389A0FCE389A25CE389A54CE10924A044A
:100E500061CE389A67CE389A7DCE389AABCE109252
:100E60004A04B8CE389ABECE389AD4CE389A02CF39
:100E700010924A040FCF389A15CF389A2BCF109280
:100E800045044FCF109245046FCF1092450489CF8F
:100E90001092450492CF90915A0480918205981740
:100EA000D1F3E0915A04F0E0EE0FFF1FEE57FB4F35
:100EB00080819181909361048093600480915A04B1
:100EC0008F5F80935A0480915A048F7780935A04DD
:100ED0008FB780934404F89416BC83B5816083BDBA
:100EE00081E085BD82E487BD8091600480934C04DD
:100EF00010924B0410924A04A99BFECF389A8FEFB0
:100F000085BB87B58E5B87BD30E020E0E1E0F0E097
:100F10006FEF80914C04AF01022E01C0440F0A9480
:100F2000EAF7842380934A04882329F090914B04A4
:100F30009F5F90934B04A99BFECF882309F48CC13B
:100F4000389865BB87B58E5B87BD2F5F3F4F2830D4
:100F50003105F9F680914B0480FF80C181E08093D8
:100F60004A04A99BFECF80914A04882309F479C1E1
:100F700038988FEF85BB87B58E5B87BD81E0809306
:100F80004A04A99BFECF38988FEF85BB87B58E5B4F
:100F900087BDA99BFECF80914A04882309F463C1D1
:100FA00038988FEF85BB87B58E5B87BD109246045E
:100FB00010924B043099FECF15BC16BC83B58160EE
:100FC00083BD81E085BD81E287BDA99BFECF87B54A
:100FD0008E5B87BD8FEF85BB90E080E061E03FEFE7
:100FE000E1E0F0E0A99BFECF309B3FC16093450458
:100FF00035BB27B52E5B27BD20914504222381F008
:1010000020914604AF01082E01C0440F0A94EAF76C
:10101000242B2093460420914B042F5F20934B04F4
:10102000019688309105F1F6A99BFECF309B20C137
:1010300081E0809345048FEF85BB87B58E5B87BDCC
:1010400080914504882321F080914B0480FD09C0E4
:1010500080918B0590918C05019690938C058093DF
:101060008B05A99BFECF309B06C181E08093450490
:101070008FEF85BB87B58E5B87BDA99BFECF309B6D
:10108000FDC081E0809345048FEF85BB87B58E5B03
:1010900087BD15BC16BC83B5816083BD81E085BD6D
:1010A00082E487BD8091610480934C0410924B04CC
:1010B00010924A04A99BFECF389A8FEF85BB87B563
:1010C0008E5B87BD30E020E0E1E0F0E06FEF8091E3
:1010D0004C04AF01022E01C0440F0A94EAF78423A6
:1010E00080934A04882329F090914B049F5F90934A
:1010F0004B04A99BFECF882309F4C3C0389865BB75
:1011000087B58E5B87BD2F5F3F4F28303105F9F6DD
:1011100080914B0480FFB7C081E080934A04A99B73
:10112000FECF80914A04882309F4B0C038988FEF2D
:1011300085BB87B58E5B87BD81E080934A04A99B00
:10114000FECF38988FEF85BB87B58E5B87BDA99B97
:10115000FECF80914A04882309F49AC038988FEF13
:1011600085BB87B58E5B87BD1092460410924B04F9
:101170003099FECF15BC16BC83B5816083BD81E07C
:1011800085BD81E287BDA99BFECF87B58E5B87BDFC
:101190008FEF85BB90E080E061E03FEFE1E0F0E0C1
:1011A000A99BFECF309B76C06093450435BB27B525
:1011B0002E5B27BD20914504222381F02091460417
:1011C000AF01082E01C0440F0A94EAF7242B2093A4
:1011D000460420914B042F5F20934B0401968830E6
:1011E0009105F1F6A99BFECF309B57C081E080931B
:1011F00045048FEF85BB87B58E5B87BD8091450425
:10120000882321F080914B0480FD09C080918B05DB
:1012100090918C05019690938C0580938B05A99BEA
:10122000FECF309B3DC081E0809345048FEF85BBAE
:1012300087B58E5B87BDA99BFECF309B34C081E014
:10124000809345048FEF85BB87B58E5B87BD15BC4A
:10125000809144048FBF0895389A73CE10924A0447
:1012600080CE389A86CE389A9CCE10924504C0CE55
:1012700010924504E0CE10924504FACE1092450437
:1012800003CF389A3CCF10924A0449CF389A4FCFB7
:10129000389A65CF1092450489CF10924504A9CFA2
:1012A00010924504C3CF10924504CCCF880F991FEC
:1012B0009C0130588FB780934404F89415BC16BC39
:1012C00083B5816083BD81E085BD82E487BD85E50E
:1012D00080934C0410924B0410924A04A99BFECFB9
:1012E000389A8FEF85BB87B58E5B87BD50E040E0B5
:1012F000A1E0B0E0EFEF90914C04BD01042E01C0DD
:10130000660F0A94EAF7962390934A04992329F0EA
:1013100080914B048F5F80934B04A99BFECF992350
:1013200009F4C8C33898E5BB87B58E5B87BD4F5FAE
:101330005F4F48305105F9F680914B0480FFBCC3E4
:1013400081E080934A04A99BFECF80914A048823C0
:1013500009F4B5C338988FEF85BB87B58E5B87BD21
:1013600081E080934A04A99BFECF38988FEF85BB1C
:1013700087B58E5B87BDA99BFECF80914A048823E9
:1013800009F49FC338988FEF85BB87B58E5B87BD07
:1013900089E680934C0410924B0410924A04A99B56
:1013A000FECF389A8FEF85BB87B58E5B87BD50E047
:1013B00040E0A1E0B0E0EFEF90914C04BD01042EBD
:1013C00001C0660F0A94EAF7962390934A04992382
:1013D00029F080914B048F5F80934B04A99BFECF33
:1013E000992309F470C33898E5BB87B58E5B87BD38
:1013F0004F5F5F4F48305105F9F680914B0480FFF5
:1014000064C381E080934A04A99BFECF80914A0483
:10141000882309F45DC338988FEF85BB87B58E5B51
:1014200087BD81E080934A04A99BFECF38988FEF57
:1014300085BB87B58E5B87BDA99BFECF80914A0493
:10144000882309F447C338988FEF85BB87B58E5B37
:1014500087BD20934C0410924B0410924A04A99B20
:10146000FECF389A8FEF85BB87B58E5B87BD50E086
:1014700040E0A1E0B0E0EFEF90914C04BD01042EFC
:1014800001C0660F0A94EAF7962390934A049923C1
:1014900029F080914B048F5F80934B04A99BFECF72
:1014A000992309F419C33898E5BB87B58E5B87BDCE
:1014B0004F5F5F4F48305105F9F680914B0480FF34
:1014C0000DC381E080934A04A99BFECF80914A041A
:1014D000882309F406C338988FEF85BB87B58E5BE8
:1014E00087BD81E080934A04A99BFECF38988FEF97
:1014F00085BB87B58E5B87BDA99BFECF80914A04D3
:10150000882309F4F0C238988FEF85BB87B58E5BCE
:1015100087BD30934C0410924B0410924A04A99B4F
:10152000FECF389A8FEF85BB87B58E5B87BD30E0E5
:1015300020E0E1E0F0E06FEF80914C04AF01022E7B
:1015400001C0440F0A94EAF7842380934A04882355
:1015500029F090914B049F5F90934B04A99BFECF81
:10156000882309F4C2C2389865BB87B58E5B87BDF6
:101570002F5F3F4F28303105F9F680914B0480FFF3
:10158000B6C281E080934A04A99BFECF80914A04B1
:10159000882309F4AFC238988FEF85BB87B58E5B7F
:1015A00087BD81E080934A04A99BFECF38988FEFD6
:1015B00085BB87B58E5B87BDA99BFECF80914A0412
:1015C000882309F499C238988FEF85BB87B58E5B65
:1015D00087BD1092460410924B043099FECF15BC83
:1015E00016BC83B5816083BD81E085BD81E287BD86
:1015F000A99BFECF87B58E5B87BD8FEF85BB90E043
:1016000080E061E03FEFE1E0F0E0A99BFECF309B9E
:1016100075C26093450435BB27B52E5B27BD20916D
:101620004504222381F020914604AF01082E01C019
:10163000440F0A94EAF7242B2093460420914B048C
:101640002F5F20934B04019688309105F1F6A99BFA
:10165000FECF309B56C281E0809345048FEF85BB5F
:1016600087B58E5B87BD80914504882321F08091EA
:101670004B0480FD09C080918B0590918C050196EB
:1016800090938C0580938B05A99BFECF309B3CC229
:1016900081E0809345048FEF85BB87B58E5B87BD66
:1016A000A99BFECF309B33C281E0809345048FEF2E
:1016B00085BB87B58E5B87BD15BC15BC16BC83B5D5
:1016C000816083BD81E085BD82E487BD85E580932F
:1016D0004C0410924B0410924A04A99BFECF389AF6
:1016E0008FEF85BB87B58E5B87BD30E020E0E1E002
:1016F000F0E06FEF80914C04AF01022E01C0440F67
:101700000A94EAF7842380934A04882329F090916D
:101710004B049F5F90934B04A99BFECF882309F451
:10172000F9C1389865BB87B58E5B87BD2F5F3F4F8A
:1017300028303105F9F680914B0480FFEDC181E03E
:1017400080934A04A99BFECF80914A04882309F420
:10175000E6C138988FEF85BB87B58E5B87BD81E08A
:1017600080934A04A99BFECF38988FEF85BB87B53D
:101770008E5B87BDA99BFECF80914A04882309F424
:10178000D0C138988FEF85BB87B58E5B87BD80EA67
:1017900080934C0410924B0410924A04A99BFECFF4
:1017A000389A8FEF85BB87B58E5B87BD30E020E030
:1017B000E1E0F0E06FEF80914C04AF01022E01C038
:1017C000440F0A94EAF7842380934A04882329F07B
:1017D00090914B049F5F90934B04A99BFECF88236D
:1017E00009F4A1C1389865BB87B58E5B87BD2F5FB3
:1017F0003F4F28303105F9F680914B0480FF95C1A9
:1018000081E080934A04A99BFECF80914A048823FB
:1018100009F48EC138988FEF85BB87B58E5B87BD85
:1018200081E080934A04A99BFECF38988FEF85BB57
:1018300087B58E5B87BDA99BFECF80914A04882324
:1018400009F478C138988FEF85BB87B58E5B87BD6B
:101850008FE380934C0410924B0410924A04A99B8E
:10186000FECF389A8FEF85BB87B58E5B87BD30E0A2
:1018700020E0E1E0F0E06FEF80914C04AF01022E38
:1018800001C0440F0A94EAF7842380934A04882312
:1018900029F090914B049F5F90934B04A99BFECF3E
:1018A000882309F449C1389865BB87B58E5B87BD2D
:1018B0002F5F3F4F28303105F9F680914B0480FFB0
:1018C0003DC181E080934A04A99BFECF80914A04E8
:1018D000882309F436C138988FEF85BB87B58E5BB6
:1018E00087BD81E080934A04A99BFECF38988FEF93
:1018F00085BB87B58E5B87BDA99BFECF80914A04CF
:10190000882309F420C138988FEF85BB87B58E5B9B
:1019100087BD15BC15BC16BC83B5816083BD81E055
:1019200085BD82E487BD85E580934C0410924B040D
:1019300010924A04A99BFECF389A8FEF85BB87B5DA
:101940008E5B87BD30E020E0E1E0F0E06FEF80915A
:101950004C04AF01022E01C0440F0A94EAF784231D
:1019600080934A04882329F090914B049F5F9093C1
:101970004B04A99BFECF882309F4E7C0389865BBC8
:1019800087B58E5B87BD2F5F3F4F28303105F9F655
:1019900080914B0480FFDBC081E080934A04A99BC7
:1019A000FECF80914A04882309F4D4C038988FEF81
:1019B00085BB87B58E5B87BD81E080934A04A99B78
:1019C000FECF38988FEF85BB87B58E5B87BDA99B0F
:1019D000FECF80914A04882309F4BEC038988FEF67
:1019E00085BB87B58E5B87BD84E680934C041092DF
:1019F0004B0410924A04A99BFECF389A8FEF85BB07
:101A000087B58E5B87BD30E020E0E1E0F0E06FEF6E
:101A100080914C04AF01022E01C0440F0A94EAF7F2
:101A2000842380934A04882329F090914B049F5F7C
:101A300090934B04A99BFECF882309F48FC038985C
:101A400065BB87B58E5B87BD2F5F3F4F2830310563
:101A5000F9F680914B0480FF83C081E080934A04B3
:101A6000A99BFECF80914A04882309F47CC0389852
:101A70008FEF85BB87B58E5B87BD81E080934A047D
:101A8000A99BFECF38988FEF85BB87B58E5B87BD4E
:101A9000A99BFECF80914A04882309F466C0389838
:101AA0008FEF85BB87B58E5B87BD15BC80914404E5
:101AB0008FBF0895389A37CC10924A0444CC389A94
:101AC0004ACC389A60CC389A8FCC10924A049CCC7D
:101AD000389AA2CC389AB8CC389AE6CC10924A04FC
:101AE000F3CC389AF9CC389A0FCD389A3DCD109274
:101AF0004A044ACD389A50CD389A66CD10924504A2
:101B00008ACD10924504AACD10924504C4CD1092FE
:101B10004504CDCD389A06CE10924A0413CE389A99
:101B200019CE389A2FCE389A5ECE10924A046BCED8
:101B3000389A71CE389A87CE389AB6CE10924A0427
:101B4000C3CE389AC9CE389ADFCE389A18CF1092C1
:101B50004A0425CF389A2BCF389A41CF389A70CF84
:101B600010924A047DCF389A83CF389A99CF8091CA
:101B700052049091530490935D0480935C049C0103
:101B8000207E3F713093580420935704AC01421BD0
:101B9000530B5093420440934104209141043091EF
:101BA000420487708093540480E2821B8093550422
:101BB000089590915A04809182059817D1F3E0918D
:101BC0005A04F0E0EE0FFF1FEE57FB4F8081809329
:101BD000560490915A049F5F90935A0490915A042E
:101BE0009F7790935A04282F87FF02C021E0280F87
:101BF00025952093430490915F0490311CF491E06B
:101C00009093590490915F049093510480935F04E2
:101C100090915A04809182059817D1F3E0915A046B
:101C2000F0E0EE0FFF1FEE57FB4F80819181309166
:101C30005A043F5F30935A0430915A043F773093EF
:101C40005A04969587959093530480935204AC015F
:101C500041505109420F511D27FD5A955093500490
:101C600040934F0420914D0420934E049C01277013
:101C70003327232B69F021E020934D0420915C044D
:101C800030915D048217930711F410925B0408955C
:101C900010924D04F3CFEF92FF920F931F93CF93C7
:101CA000DF9300D000D000D0CDB7DEB7972FE0E0B3
:101CB000E82E880FFF088E010F5F1F4F862FB70198
:101CC0000E9410239B01D801AE0FB11D8C938A3066
:101CD0003CF5805D8C93EF5F622F932F232B71F780
:101CE000E43040F4D801AE0FB11D80E3EF5F8D9377
:101CF000E430E1F7E00FF12FF11D1082F8017F01D0
:101D0000E01AF10A81918111FACFE00EF11E0E1551
:101D10001F0541F0F70182917F010E946200F7CF19
:101D2000895CD8CF85E091E026960FB6F894DEBFA7
:101D30000FBECDBFDF91CF911F910F91FF90EF901C
:101D40000C94690093B5926093BD6093B200809348
:101D5000B100B89BFECFB89A1092B1000895880FD9
:101D6000991F9C0130588FB780934404F89415BC98
:101D700016BC83B5816083BD81E085BD82E487BDEB
:101D800085E580934C0410924B0410924A04A99B61
:101D9000FECF389A8FEF85BB87B58E5B87BD50E04D
:101DA00040E0A1E0B0E0EFEF90914C04BD01042EC3
:101DB00001C0660F0A94EAF7962390934A04992388
:101DC00029F080914B048F5F80934B04A99BFECF39
:101DD000992309F4EFC53898E5BB87B58E5B87BDBD
:101DE0004F5F5F4F48305105F9F680914B0480FFFB
:101DF000E3C581E080934A04A99BFECF80914A0409
:101E0000882309F4DCC538988FEF85BB87B58E5BD6
:101E100087BD81E080934A04A99BFECF38988FEF5D
:101E200085BB87B58E5B87BDA99BFECF80914A0499
:101E3000882309F4C6C538988FEF85BB87B58E5BBC
:101E400087BD85E480934C0410924B0410924A04A1
:101E5000A99BFECF389A8FEF85BB87B58E5B87BD78
:101E600050E040E0A1E0B0E0EFEF90914C04BD0104
:101E7000042E01C0660F0A94EAF7962390934A0451
:101E8000992329F080914B048F5F80934B04A99B89
:101E9000FECF992309F497C53898E5BB87B58E5BCB
:101EA00087BD4F5F5F4F48305105F9F680914B0475
:101EB00080FF8BC581E080934A04A99BFECF80916F
:101EC0004A04882309F484C538988FEF85BB87B509
:101ED0008E5B87BD81E080934A04A99BFECF389832
:101EE0008FEF85BB87B58E5B87BDA99BFECF8091A9
:101EF0004A04882309F46EC538988FEF85BB87B5EF
:101F00008E5B87BD88E080934C0410924B04109246
:101F10004A04A99BFECF389A8FEF85BB87B58E5BAD
:101F200087BD50E040E0A1E0B0E0EFEF90914C04BD
:101F3000BD01042E01C0660F0A94EAF79623909320
:101F40004A04992329F080914B048F5F80934B04BE
:101F5000A99BFECF992309F43FC53898E5BB87B507
:101F60008E5B87BD4F5F5F4F48305105F9F680911A
:101F70004B0480FF33C581E080934A04A99BFECFC8
:101F800080914A04882309F42CC538988FEF85BBCB
:101F900087B58E5B87BD81E080934A04A99BFECF05
:101FA00038988FEF85BB87B58E5B87BDA99BFECF29
:101FB00080914A04882309F416C538988FEF85BBB1
:101FC00087B58E5B87BD80E180934C0410924B04F3
:101FD00010924A04A99BFECF389A8FEF85BB87B534
:101FE0008E5B87BD50E040E0A1E0B0E0EFEF909164
:101FF0004C04BD01042E01C0660F0A94EAF7962333
:1020000090934A04992329F080914B048F5F809329
:102010004B04A99BFECF992309F4E7C43898E5BB8C
:1020200087B58E5B87BD4F5F5F4F48305105F9F62E
:1020300080914B0480FFDBC481E080934A04A99B1C
:10204000FECF80914A04882309F4D4C438988FEFD6
:1020500085BB87B58E5B87BD81E080934A04A99BD1
:10206000FECF38988FEF85BB87B58E5B87BDA99B68
:10207000FECF80914A04882309F4BEC438988FEFBC
:1020800085BB87B58E5B87BD1092460410924B04CA
:102090003099FECF15BC16BC83B5816083BD81E04D
:1020A00085BD81E287BDA99BFECF87B58E5B87BDCD
:1020B0008FEF85BB90E080E0E1E05FEFA1E0B0E072
:1020C000A99BFECF309B9AC4E093450455BB47B50E
:1020D0004E5B47BD40914504442381F04091460446
:1020E000BD01082E01C0660F0A94EAF7462B409303
:1020F000460440914B044F5F40934B040196883057
:102100009105F1F6A99BFECF309B7BC481E08093C3
:1021100045048FEF85BB87B58E5B87BD80914504F5
:10212000882321F080914B0480FD09C080918B05AC
:1021300090918C05019690938C0580938B05A99BBB
:10214000FECF309B61C481E0809345048FEF85BB57
:1021500087B58E5B87BDA99BFECF309B58C481E0BD
:10216000809345048FEF85BB87B58E5B87BD15BC1B
:1021700016BC83B5816083BD81E085BD82E487BDE7
:1021800020934C0410924B0410924A04A99BFECF5A
:10219000389A8FEF85BB87B58E5B87BD50E040E0F6
:1021A000A1E0B0E0EFEF90914C04BD01042E01C01E
:1021B000660F0A94EAF7962390934A04992329F02C
:1021C00080914B048F5F80934B04A99BFECF992392
:1021D00009F420C43898E5BB87B58E5B87BD4F5F97
:1021E0005F4F48305105F9F680914B0480FF14C4CD
:1021F00081E080934A04A99BFECF80914A04882302
:1022000009F40DC438988FEF85BB87B58E5B87BD09
:1022100081E080934A04A99BFECF38988FEF85BB5D
:1022200087B58E5B87BDA99BFECF80914A0488232A
:1022300009F4F7C338988FEF85BB87B58E5B87BDF0
:1022400030934C0410924B0410924A04A99BFECF89
:10225000389A8FEF85BB87B58E5B87BD30E020E075
:10226000E1E0F0E06FEF80914C04AF01022E01C07D
:10227000440F0A94EAF7842380934A04882329F0C0
:1022800090914B049F5F90934B04A99BFECF8823B2
:1022900009F4C9C3389865BB87B58E5B87BD2F5FCE
:1022A0003F4F28303105F9F680914B0480FFBDC3C4
:1022B00081E080934A04A99BFECF80914A04882341
:1022C00009F4B6C338988FEF85BB87B58E5B87BDA1
:1022D00081E080934A04A99BFECF38988FEF85BB9D
:1022E00087B58E5B87BDA99BFECF80914A0488236A
:1022F00009F4A0C338988FEF85BB87B58E5B87BD87
:102300001092460410924B043099FECF15BC16BCB7
:1023100083B5816083BD81E085BD81E287BDA99BD6
:10232000FECF87B58E5B87BD8FEF85BB90E080E0E9
:1023300061E03FEFE1E0F0E0A99BFECF309B7CC382
:102340006093450435BB27B52E5B27BD209145041E
:10235000222381F020914604AF01082E01C0440FD2
:102360000A94EAF7242B2093460420914B042F5F14
:1023700020934B04019688309105F1F6A99BFECF7E
:10238000309B5DC381E0809345048FEF85BB87B5AB
:102390008E5B87BD80914504882321F080914B049A
:1023A00080FD09C080918B0590918C0501969093DA
:1023B0008C0580938B05A99BFECF309B43C381E0A6
:1023C000809345048FEF85BB87B58E5B87BDA99B46
:1023D000FECF309B3AC381E0809345048FEF85BBED
:1023E00087B58E5B87BD15BC8AE20E94620015BC72
:1023F00016BC83B5816083BD81E085BD82E487BD65
:1024000085E580934C0410924B0410924A04A99BDA
:10241000FECF389A8FEF85BB87B58E5B87BD30E0E6
:1024200020E0E1E0F0E06FEF80914C04AF01022E7C
:1024300001C0440F0A94EAF7842380934A04882356
:1024400029F090914B049F5F90934B04A99BFECF82
:10245000882309F4FDC2389865BB87B58E5B87BDBC
:102460002F5F3F4F28303105F9F680914B0480FFF4
:10247000F1C281E080934A04A99BFECF80914A0477
:10248000882309F4EAC238988FEF85BB87B58E5B45
:1024900087BD81E080934A04A99BFECF38988FEFD7
:1024A00085BB87B58E5B87BDA99BFECF80914A0413
:1024B000882309F4D4C238988FEF85BB87B58E5B2B
:1024C00087BD84E480934C0410924B0410924A041C
:1024D000A99BFECF389A8FEF85BB87B58E5B87BDF2
:1024E00030E020E0E1E0F0E06FEF80914C04AF01DC
:1024F000022E01C0440F0A94EAF7842380934A0411
:10250000882329F090914B049F5F90934B04A99BE3
:10251000FECF882309F4A5C2389865BB87B58E5BCA
:1025200087BD2F5F3F4F28303105F9F680914B046E
:1025300080FF99C281E080934A04A99BFECF8091DD
:102540004A04882309F492C238988FEF85BB87B577
:102550008E5B87BD81E080934A04A99BFECF3898AB
:102560008FEF85BB87B58E5B87BDA99BFECF809122
:102570004A04882309F47CC238988FEF85BB87B55D
:102580008E5B87BD10924C0410924B0410924A044B
:10259000A99BFECF389A8FEF85BB87B58E5B87BD31
:1025A00030E020E0E1E0F0E06FEF80914C04AF011B
:1025B000022E01C0440F0A94EAF7842380934A0450
:1025C000882329F090914B049F5F90934B04A99B23
:1025D000FECF882309F44EC2389865BB87B58E5B61
:1025E00087BD2F5F3F4F28303105F9F680914B04AE
:1025F00080FF42C281E080934A04A99BFECF809174
:102600004A04882309F43BC238988FEF85BB87B50D
:102610008E5B87BD81E080934A04A99BFECF3898EA
:102620008FEF85BB87B58E5B87BDA99BFECF809161
:102630004A04882309F425C238988FEF85BB87B5F3
:102640008E5B87BD80E180934C0410924B04109206
:102650004A04A99BFECF389A8FEF85BB87B58E5B66
:1026600087BD30E020E0E1E0F0E06FEF80914C04C6
:10267000AF01022E01C0440F0A94EAF7842380932D
:102680004A04882329F090914B049F5F90934B0458
:10269000A99BFECF882309F4F6C1389865BB87B59E
:1026A0008E5B87BD2F5F3F4F28303105F9F6809153
:1026B0004B0480FFEAC181E080934A04A99BFECFCE
:1026C00080914A04882309F4E3C138988FEF85BBD1
:1026D00087B58E5B87BD81E080934A04A99BFECFBE
:1026E00038988FEF85BB87B58E5B87BDA99BFECFE2
:1026F00080914A04882309F4CDC138988FEF85BBB7
:1027000087B58E5B87BD1092460410924B043099BA
:10271000FECF15BC16BC83B5816083BD81E085BD4D
:1027200081E287BDA99BFECF87B58E5B87BD8FEF0A
:1027300085BB90E080E061E03FEFE1E0F0E0A99B45
:10274000FECF309BA9C16093450435BB27B52E5BF6
:1027500027BD20914504222381F020914604AF013A
:10276000082E01C0440F0A94EAF7242B2093460454
:1027700020914B042F5F20934B04019688309105E4
:10278000F1F6A99BFECF309B8AC181E0809345047E
:102790008FEF85BB87B58E5B87BD8091450488230D
:1027A00021F080914B0480FD09C080918B059091B0
:1027B0008C05019690938C0580938B05A99BFECF89
:1027C000309B70C181E0809345048FEF85BB87B556
:1027D0008E5B87BDA99BFECF309B67C181E0809354
:1027E00045048FEF85BB87B58E5B87BD15BC16BCD6
:1027F00083B5816083BD81E085BD92E497BD809300
:102800004C0410924B0410924A04A99BFECF389AB4
:102810008FEF85BB87B58E5B87BD30E020E0E1E0C0
:10282000F0E06FEF80914C04AF01022E01C0440F25
:102830000A94EAF7842380934A04882329F090912C
:102840004B049F5F90934B04A99BFECF882309F410
:102850002FC1389865BB87B58E5B87BD2F5F3F4F13
:1028600028303105F9F680914B0480FF23C181E0C7
:1028700080934A04A99BFECF80914A04882309F4DF
:102880001CC138988FEF85BB87B58E5B87BD81E013
:1028900080934A04A99BFECF38988FEF85BB87B5FC
:1028A0008E5B87BDA99BFECF80914A04882309F4E3
:1028B00006C138988FEF85BB87B58E5B87BD1092B8
:1028C000460410924B043099FECF15BC16BC83B55C
:1028D000816083BD81E085BD81E287BDA99BFECF7C
:1028E00087B58E5B87BD8FEF85BB90E080E061E0B0
:1028F0003FEFE1E0F0E0A99BFECF309BE2C06093A8
:10290000450435BB27B52E5B27BD20914504222306
:1029100081F020914604AF01082E01C0440F0A94B3
:10292000EAF7242B2093460420914B042F5F209339
:102930004B04019688309105F1F6A99BFECF309BA0
:10294000C3C081E0809345048FEF85BB87B58E5B64
:1029500087BD80914504882321F080914B0480FD40
:1029600009C080918B0590918C05019690938C0500
:1029700080938B05A99BFECF309BA9C081E08093FB
:1029800045048FEF85BB87B58E5B87BDA99BFECFC6
:10299000309BA0C081E0809345048FEF85BB87B555
:1029A0008E5B87BD15BC809144048FBF64E486E0D4
:1029B0000C94A20E389A10CA10924A041DCA389A72
:1029C00023CA389A39CA389A68CA10924A0475CA12
:1029D000389A7BCA389A91CA389AC0CA10924A0467
:1029E000CDCA389AD3CA389AE9CA389A18CB109205
:1029F0004A0425CB389A2BCB389A41CB1092450408
:102A000065CB1092450485CB109245049FCB109264
:102A10004504A8CB389ADFCB10924A04ECCB389A05
:102A2000F2CB389A08CC389A36CC10924A0443CC70
:102A3000389A49CC389A5FCC1092450483CC1092D6
:102A40004504A3CC10924504BDCC10924504C6CCDD
:102A5000389A02CD10924A040FCD389A15CD389A83
:102A60002BCD389A5ACD10924A0467CD389A6DCD45
:102A7000389A83CD389AB1CD10924A04BECD389A97
:102A8000C4CD389ADACD389A09CE10924A0416CEBF
:102A9000389A1CCE389A32CE1092450456CE1092F7
:102AA000450476CE1092450490CE1092450499CEFE
:102AB000389AD0CE10924A04DDCE389AE3CE389AB6
:102AC000F9CE109245041DCF109245043DCF1092CF
:102AD000450457CF1092450460CF0F931F93CF93B7
:102AE000DF93C1E0D0E280914304882309F44CC015
:102AF00080914304815080934304C0935E040E94FC
:102B00004B078091410490914204019690934204B6
:102B10008093410480915C0490915D0401969093B0
:102B20005D0480935C04809155048150809355042A
:102B3000809164049091650401969093650480935C
:102B400064048091410490914204809761F6009161
:102B5000570410915804C8010E94AF0E10925E04F1
:102B60001092420410924104D09355048091540471
:102B700080915404882309F4B6CFC0935B04C80144
:102B800080960E945609AFCFDF91CF911F910F9190
:102B900008950F931F93CF938C01C62F85E590E086
:102BA0000E94E40084E490E00E94E40088E090E168
:102BB0000E94E40080E190E00E94E4000E949C00FA
:102BC0006EEC83E00E949400C8010E94E4000E9421
:102BD0009C006EEC83E00E94940085E590E00E94EA
:102BE000E40084E490E00E94E40089E090E10E9427
:102BF000E40080E190E00E94E4000E949C006EEC02
:102C000083E00E94940082E190E00E94E4000E9430
:102C10009C006EEC83E00E94940085E590E00E94A9
:102C2000E40084E490E00E94E40086E090E10E94E9
:102C3000E40080E190E00E94E4000E949C006EECC1
:102C400083E00E9494008C2F90E00E94E4000E9498
:102C50009C006EEC83E00E94940085E590E00E9469
:102C6000E40084E490E00E94E40080E090E10E94AF
:102C7000E40080E190E00E94E4000E949C006EEC81
:102C800083E00E94940087E090E00E94E4000E94AC
:102C90009C0062EB85E0CF911F910F910C94940002
:102CA000A89584B7877F84BF8091600088618093F6
:102CB00060001092600080917C00806480937C00B2
:102CC00085B78F7E85BF14B817B81AB88FEF85B94E
:102CD0009EEF98B98BB962EB85E00E949400109248
:102CE000C1001092C50084E48093C40082E0809308
:102CF000C00088E18093C10086E08093C2001092FA
:102D00008C0510928B0580E091E00E9469008AEFAB
:102D100090E00E947E008823B1F38091C6008F7DF1
:102D2000823589F787E591E00E94690087E091E0AC
:102D30000E9469008AE591E00E9469000E948D006E
:102D400086E696EE0E9453007894309B61C0389AD4
:102D500000000000000000003898309BFECF6CE9B6
:102D600083E00E94940085E590E00E94E40089ECF5
:102D700090E00E94E4008DEF90E00E94E4006EEC91
:102D800083E00E94940085E590E00E94E40082ECDC
:102D900090E00E94E40086E490E00E94E4006EEC83
:102DA00083E00E94940085E590E00E94E40085EEB7
:102DB00090E00E94E400309B04C080918A05882343
:102DC000D1F380918A0581111AC00E949C008093E2
:102DD0006604C7E6D4E006E614E036E7E32E34E006
:102DE000F32E0E949C008993EC16FD06D1F7F801A2
:102DF00081918F010E946200C017D107C1F78091B5
:102E00008A05882351F08BE891E00E946900FFCF8A
:102E100085E791E00E946900FFCFF894109281004D
:102E200080916F008E7F80936F0082EA91E00E9414
:102E3000690081EC91E00E9469000E948D00893553
:102E400009F0E8C086ED91E00E94690086EE91E00D
:102E50000E94270185E590E00E94E40087E890E069
:102E60000E94E4000E949C0083FD04C089EF91E071
:102E70000E9469006EEC83E00E94940085E590E07A
:102E80000E94E40088EC90E00E94E40089E590E074
:102E90000E94E4006EEC83E00E94940085E590E0DF
:102EA0000E94E40088EC90E00E94E40090E080E062
:102EB0000E94E4006EEC83E00E94940010928A0568
:102EC00090E080E00E94530078946EEC83E00E94D2
:102ED000940085E590E00E94E4008BE890E00E9479
:102EE000E4000E949C0080934904209147043091A3
:102EF00048042F5F3F4F309348042093470490913C
:102F00008A05911102C080FDE0CFF89480918A0576
:102F1000882309F47CC08DE092E00E9469006091F2
:102F2000490470E080E10E944B0E6091470470916B
:102F300048048AE00E944B0E87E591E00E946900F8
:102F400085E592E00E94270185E590E00E94E4007B
:102F500087E890E00E94E4000E949C006EEC83E011
:102F60000E94940085E590E00E94E40088EC90E0E7
:102F70000E94E40089E590E00E94E4006EEC83E0AA
:102F80000E94940085E590E00E94E40088EC90E0C7
:102F90000E94E40090E080E00E94E4006EEC83E098
:102FA0000E94940010928A0590E080E00E945300F5
:102FB00078946EEC83E00E94940085E590E00E9496
:102FC000E4008BE890E00E94E4000E949C00809363
:102FD000490420914704309148042F5F3F4F3093BC
:102FE00048042093470490918A05911102C083FF01
:102FF000E0CFF89480918A05882389F088E692E0F2
:103000000E9469008BE792E00E946900FFCF8DE289
:1030100092E083CF82E492E00E9469008DCF8DE838
:1030200092E00E94690088EA92E00E946900C0E094
:10303000D1E185E590E00E94E40084E090E00E9408
:10304000E400CE010E94E40081E190E00E94E400EF
:103050000E949C00682F70E080E10E944B0E6EEC95
:1030600083E00E9494002196C330F1E1DF0709F765
:1030700087E591E00E94690083EC92E00E9469007C
:1030800060E080E892E10E94C91560E081E892E189
:103090000E94C9156EE782E892E10E94C91567EFA8
:1030A00085E892E10E94C9156DEF86E892E10E94E1
:1030B000C91560E087E892E10E94C91560E088E8E0
:1030C00092E10E94C91587ED92E00E9469000E947A
:1030D0008D00893511F00C947D2088E4809389055A
:1030E00088EF92E00E9469001092650410926404D7
:1030F00010927F0410927E0480E180935F0410920E
:103100005E0410925D0410925C0410925B041092B5
:10311000820510925A041092590410928805109258
:1031200087058091C10080688093C10078940E94D7
:10313000D90D0E94B70D80915704909158040E94B8
:1031400056090E946D15C0E2D0E00E94D90D809111
:103150005604882361F180915904882329F0813035
:1031600009F10E946D15F1CF80915404209155040E
:10317000AE01481B510987FD53952417150689F7A1
:103180002091520430915304C901807E9F71909325
:103190005804809357042F713327232B11F70E9473
:1031A0005609DFCF0E94B70D10925904DACFF89478
:1031B0008091C1008F778093C1008AE090E00E94E7
:1031C0007E00813019F48091C600F7CF87E591E049
:1031D0000E9469008091510480FF2AC081E60E940C
:1031E0006200E0918205F0E0EE0FFF1FEE57FB4F0B
:1031F00011821082809182058F5F809382050E94E8
:103200004B07809164049091650401969093650446
:103210008093640421E020935E0480914F04909198
:10322000500401968F719927892B11F020935B042C
:1032300080914E04805D0E94620080914D04805D0B
:103240000E946200C0915B0480E38C0F0E946200C8
:10325000D0915E0480E38D0F0E94620080914E0445
:10326000882309F475C5D111C7C1CC2309F4C4C1A1
:1032700081E40E94620015BC16BC83B5816083BDE9
:1032800081E085BD82E487BD85E580934C04109282
:103290004B0410924A04A99BFECF389A8FEF85BB4E
:1032A00087B58E5B87BD30E020E0E1E0F0E06FEFB6
:1032B00080914C04AF01022E01C0440F0A94EAF73A
:1032C000842380934A04882329F090914B049F5FC4
:1032D00090934B04A99BFECF882309F45CC73898D0
:1032E00065BB87B58E5B87BD2F5F3F4F28303105AB
:1032F000F9F680914B0480FF50C710924A04A99BB5
:10330000FECF80914A04882309F44BC738988FEF89
:1033100085BB87B58E5B87BD81E080934A04A99BFE
:10332000FECF38988FEF85BB87B58E5B87BDA99B95
:10333000FECF80914A04882309F435C738988FEF6F
:1033400085BB87B58E5B87BD10924A048CE090E008
:103350003FEFA99BFECF20914A04222309F425C701
:10336000389835BB27B52E5B27BD019791F781E0D3
:1033700080934A04A99BFECF38988FEF85BB87B511
:103380008E5B87BDA99BFECF80914A04882309F4F8
:103390000EC738988FEF85BB87B58E5B87BD15BC90
:1033A00016BC83B5816083BD81E085BD82E487BDA5
:1033B00085E580934C0410924B0410924A04A99B1B
:1033C000FECF389A8FEF85BB87B58E5B87BD30E027
:1033D00020E0E1E0F0E06FEF80914C04AF01022EBD
:1033E00001C0440F0A94EAF7842380934A04882397
:1033F00029F090914B049F5F90934B04A99BFECFC3
:10340000882309F4D6C6389865BB87B58E5B87BD1F
:103410002F5F3F4F28303105F9F680914B0480FF34
:10342000CAC681E080934A04A99BFECF80914A04DA
:10343000882309F4C3C638988FEF85BB87B58E5BA8
:1034400087BD81E080934A04A99BFECF38988FEF17
:1034500085BB87B58E5B87BDA99BFECF80914A0453
:10346000882309F4ADC638988FEF85BB87B58E5B8E
:1034700087BD89EC80934C0410924B0410924A044F
:10348000A99BFECF389A8FEF85BB87B58E5B87BD32
:1034900030E020E0E1E0F0E06FEF80914C04AF011C
:1034A000022E01C0440F0A94EAF7842380934A0451
:1034B000882329F090914B049F5F90934B04A99B24
:1034C000FECF882309F47EC6389865BB87B58E5B2E
:1034D00087BD2F5F3F4F28303105F9F680914B04AF
:1034E00080FF72C681E080934A04A99BFECF809141
:1034F0004A04882309F46BC638988FEF85BB87B5DB
:103500008E5B87BD81E080934A04A99BFECF3898EB
:103510008FEF85BB87B58E5B87BDA99BFECF809162
:103520004A04882309F455C638988FEF85BB87B5C0
:103530008E5B87BD81E080934C0410924B04109207
:103540004A04A99BFECF389A8FEF85BB87B58E5B67
:1035500087BD30E020E0E1E0F0E06FEF80914C04C7
:10356000AF01022E01C0440F0A94EAF7842380932E
:103570004A04882329F090914B049F5F90934B0459
:10358000A99BFECF882309F426C6389865BB87B56A
:103590008E5B87BD2F5F3F4F28303105F9F6809154
:1035A0004B0480FF1AC681E080934A04A99BFECF9A
:1035B00080914A04882309F413C638988FEF85BB9D
:1035C00087B58E5B87BD81E080934A04A99BFECFBF
:1035D00038988FEF85BB87B58E5B87BDA99BFECFE3
:1035E00080914A04882309F4FDC538988FEF85BB84
:1035F00087B58E5B87BD15BC80915E04882309F476
:10360000D2C180915B04882309F4CDC182E40E9479
:10361000620015BC16BC83B5816083BD81E085BDA9
:1036200082E487BD85E580934C0410924B04109290
:103630004A04A99BFECF389A8FEF85BB87B58E5B76
:1036400087BD30E020E0E1E0F0E06FEF80914C04D6
:10365000AF01022E01C0440F0A94EAF7842380933D
:103660004A04882329F090914B049F5F90934B0468
:10367000A99BFECF882309F4B7C5389865BB87B5E9
:103680008E5B87BD2F5F3F4F28303105F9F6809163
:103690004B0480FFABC510924A04A99BFECF8091DA
:1036A0004A04882309F4A6C538988FEF85BB87B5EF
:1036B0008E5B87BD81E080934A04A99BFECF38983A
:1036C0008FEF85BB87B58E5B87BDA99BFECF8091B1
:1036D0004A04882309F490C538988FEF85BB87B5D5
:1036E0008E5B87BD10924A048CE090E03FEFA99B6F
:1036F000FECF20914A04222309F480C5389835BBB7
:1037000027B52E5B27BD019791F781E080934A048E
:10371000A99BFECF38988FEF85BB87B58E5B87BDA1
:10372000A99BFECF80914A04882309F469C5389883
:103730008FEF85BB87B58E5B87BD15BC16BC83B587
:10374000816083BD81E085BD82E487BD85E580938E
:103750004C0410924B0410924A04A99BFECF389A55
:103760008FEF85BB87B58E5B87BD30E020E0E1E061
:10377000F0E06FEF80914C04AF01022E01C0440FC6
:103780000A94EAF7842380934A04882329F09091CD
:103790004B049F5F90934B04A99BFECF882309F4B1
:1037A00031C5389865BB87B58E5B87BD2F5F3F4FAE
:1037B00028303105F9F680914B0480FF25C581E062
:1037C00080934A04A99BFECF80914A04882309F480
:1037D0001EC538988FEF85BB87B58E5B87BD81E0AE
:1037E00080934A04A99BFECF38988FEF85BB87B59D
:1037F0008E5B87BDA99BFECF80914A04882309F484
:1038000008C538988FEF85BB87B58E5B87BD89EC7F
:1038100080934C0410924B0410924A04A99BFECF53
:10382000389A8FEF85BB87B58E5B87BD30E020E08F
:10383000E1E0F0E06FEF80914C04AF01022E01C097
:10384000440F0A94EAF7842380934A04882329F0DA
:1038500090914B049F5F90934B04A99BFECF8823CC
:1038600009F4D9C4389865BB87B58E5B87BD2F5FD7
:103870003F4F28303105F9F680914B0480FFCDC4CD
:1038800081E080934A04A99BFECF80914A0488235B
:1038900009F4C6C438988FEF85BB87B58E5B87BDAA
:1038A00081E080934A04A99BFECF38988FEF85BBB7
:1038B00087B58E5B87BDA99BFECF80914A04882384
:1038C00009F4B0C438988FEF85BB87B58E5B87BD90
:1038D00081E080934C0410924B0410924A04A99BFF
:1038E000FECF389A8FEF85BB87B58E5B87BD30E002
:1038F00020E0E1E0F0E06FEF80914C04AF01022E98
:1039000001C0440F0A94EAF7842380934A04882371
:1039100029F090914B049F5F90934B04A99BFECF9D
:10392000882309F481C4389865BB87B58E5B87BD51
:103930002F5F3F4F28303105F9F680914B0480FF0F
:1039400075C481E080934A04A99BFECF80914A040C
:10395000882309F46EC438988FEF85BB87B58E5BDA
:1039600087BD81E080934A04A99BFECF38988FEFF2
:1039700085BB87B58E5B87BDA99BFECF80914A042E
:10398000882309F458C438988FEF85BB87B58E5BC0
:1039900087BD15BC809157049091580480960E9471
:1039A000AF0E10925E0480915E04882309F4D0C1AA
:1039B00080915B048111CCC183E40E94620015BC3C
:1039C00016BC83B5816083BD81E085BD82E487BD7F
:1039D00085E580934C0410924B0410924A04A99BF5
:1039E000FECF389A8FEF85BB87B58E5B87BD30E001
:1039F00020E0E1E0F0E06FEF80914C04AF01022E97
:103A000001C0440F0A94EAF7842380934A04882370
:103A100029F090914B049F5F90934B04A99BFECF9C
:103A2000882309F40AC4389865BB87B58E5B87BDC7
:103A30002F5F3F4F28303105F9F680914B0480FF0E
:103A4000FEC310924A04A99BFECF80914A048823AA
:103A500009F4F9C338988FEF85BB87B58E5B87BDB6
:103A600081E080934A04A99BFECF38988FEF85BBF5
:103A700087B58E5B87BDA99BFECF80914A048823C2
:103A800009F4E3C338988FEF85BB87B58E5B87BD9C
:103A900010924A048CE090E03FEFA99BFECF20916A
:103AA0004A04222309F4D3C3389835BB27B52E5BCB
:103AB00027BD019791F781E080934A04A99BFECF2F
:103AC00038988FEF85BB87B58E5B87BDA99BFECFEE
:103AD00080914A04882309F4BCC338988FEF85BBD2
:103AE00087B58E5B87BD15BC16BC83B5816083BD71
:103AF00081E085BD82E487BD85E580934C0410920A
:103B00004B0410924A04A99BFECF389A8FEF85BBD5
:103B100087B58E5B87BD30E020E0E1E0F0E06FEF3D
:103B200080914C04AF01022E01C0440F0A94EAF7C1
:103B3000842380934A04882329F090914B049F5F4B
:103B400090934B04A99BFECF882309F484C3389833
:103B500065BB87B58E5B87BD2F5F3F4F2830310532
:103B6000F9F680914B0480FF78C381E080934A048A
:103B7000A99BFECF80914A04882309F471C3389829
:103B80008FEF85BB87B58E5B87BD81E080934A044C
:103B9000A99BFECF38988FEF85BB87B58E5B87BD1D
:103BA000A99BFECF80914A04882309F45BC338980F
:103BB0008FEF85BB87B58E5B87BD89EC80934C0406
:103BC00010924B0410924A04A99BFECF389A8FEFB3
:103BD00085BB87B58E5B87BD30E020E0E1E0F0E09B
:103BE0006FEF80914C04AF01022E01C0440F0A9484
:103BF000EAF7842380934A04882329F090914B04A8
:103C00009F5F90934B04A99BFECF882309F42CC39C
:103C1000389865BB87B58E5B87BD2F5F3F4F2830D7
:103C20003105F9F680914B0480FF20C381E0809339
:103C30004A04A99BFECF80914A04882309F419C342
:103C400038988FEF85BB87B58E5B87BD81E0809309
:103C50004A04A99BFECF38988FEF85BB87B58E5B52
:103C600087BDA99BFECF80914A04882309F403C332
:103C700038988FEF85BB87B58E5B87BD81E08093D9
:103C80004C0410924B0410924A04A99BFECF389A20
:103C90008FEF85BB87B58E5B87BD30E020E0E1E02C
:103CA000F0E06FEF80914C04AF01022E01C0440F91
:103CB0000A94EAF7842380934A04882329F0909198
:103CC0004B049F5F90934B04A99BFECF882309F47C
:103CD000D4C2389865BB87B58E5B87BD2F5F3F4FD9
:103CE00028303105F9F680914B0480FFC8C281E08D
:103CF00080934A04A99BFECF80914A04882309F44B
:103D0000C1C238988FEF85BB87B58E5B87BD81E0D8
:103D100080934A04A99BFECF38988FEF85BB87B567
:103D20008E5B87BDA99BFECF80914A04882309F44E
:103D3000ABC238988FEF85BB87B58E5B87BD15BC4E
:103D400080915704909158040E94AF0E10925E0427
:103D500080914E048111D1C180915E04882309F4C1
:103D6000BEC284E40E94620015BC16BC83B58160AB
:103D700083BD81E085BD82E487BD85E580934C04E9
:103D800010924B0410924A04A99BFECF389A8FEFF1
:103D900085BB87B58E5B87BD30E020E0E1E0F0E0D9
:103DA0006FEF80914C04AF01022E01C0440F0A94C2
:103DB000EAF7842380934A04882329F090914B04E6
:103DC0009F5F90934B04A99BFECF882309F45EC2AA
:103DD000389865BB87B58E5B87BD2F5F3F4F283016
:103DE0003105F9F680914B0480FF52C210924A04CB
:103DF000A99BFECF80914A04882309F44DC23898CC
:103E00008FEF85BB87B58E5B87BD81E080934A04C9
:103E1000A99BFECF38988FEF85BB87B58E5B87BD9A
:103E2000A99BFECF80914A04882309F437C23898B1
:103E30008FEF85BB87B58E5B87BD10924A048CE0FF
:103E400090E03FEFA99BFECF20914A04222309F482
:103E500027C2389835BB27B52E5B27BD019791F750
:103E600081E080934A04A99BFECF38988FEF85BBF1
:103E700087B58E5B87BDA99BFECF80914A048823BE
:103E800009F410C238988FEF85BB87B58E5B87BD6C
:103E900015BC16BC83B5816083BD81E085BD82E41D
:103EA00087BD85E580934C0410924B0410924A0420
:103EB000A99BFECF389A8FEF85BB87B58E5B87BDF8
:103EC00030E020E0E1E0F0E06FEF80914C04AF01E2
:103ED000022E01C0440F0A94EAF7842380934A0417
:103EE000882329F090914B049F5F90934B04A99BEA
:103EF000FECF882309F4D8C1389865BB87B58E5B9F
:103F000087BD2F5F3F4F28303105F9F680914B0474
:103F100080FFCCC181E080934A04A99BFECF8091B1
:103F20004A04882309F4C5C138988FEF85BB87B54B
:103F30008E5B87BD81E080934A04A99BFECF3898B1
:103F40008FEF85BB87B58E5B87BDA99BFECF809128
:103F50004A04882309F4AFC138988FEF85BB87B531
:103F60008E5B87BD89EC80934C0410924B041092B9
:103F70004A04A99BFECF389A8FEF85BB87B58E5B2D
:103F800087BD30E020E0E1E0F0E06FEF80914C048D
:103F9000AF01022E01C0440F0A94EAF784238093F4
:103FA0004A04882329F090914B049F5F90934B041F
:103FB000A99BFECF882309F480C1389865BB87B5DB
:103FC0008E5B87BD2F5F3F4F28303105F9F680911A
:103FD0004B0480FF74C181E080934A04A99BFECF0B
:103FE00080914A04882309F46DC138988FEF85BB0E
:103FF00087B58E5B87BD81E080934A04A99BFECF85
:1040000038988FEF85BB87B58E5B87BDA99BFECFA8
:1040100080914A04882309F457C138988FEF85BBF3
:1040200087B58E5B87BD81E080934C0410924B0472
:1040300010924A04A99BFECF389A8FEF85BB87B5B3
:104040008E5B87BD30E020E0E1E0F0E06FEF809133
:104050004C04AF01022E01C0440F0A94EAF78423F6
:1040600080934A04882329F090914B049F5F90939A
:104070004B04A99BFECF882309F428C1389865BB5F
:1040800087B58E5B87BD2F5F3F4F28303105F9F62E
:1040900080914B0480FF1CC181E080934A04A99B5E
:1040A000FECF80914A04882309F415C138988FEF18
:1040B00085BB87B58E5B87BD81E080934A04A99B51
:1040C000FECF38988FEF85BB87B58E5B87BDA99BE8
:1040D000FECF80914A04882309F4FFC038988FEFFF
:1040E00085BB87B58E5B87BD15BC809157049091C9
:1040F00058040E94AF0E10925E0486E093E00E9486
:1041000069000E948D008091640490916504892B60
:1041100031F480E090E4909365048093640488E235
:1041200093E00E9469000E948D00D82F803309F02F
:1041300036C11092630410926204E0906404F0901F
:10414000650485E493E00E9469000E948D00182FA9
:1041500080E880938500109284008FEF86BB84E016
:1041600080938100B09BFECFB09A1092810081E0D5
:1041700090E00E947E00882321F08091C600D12F1C
:10418000182F85E090E00E947E00813009F0ABC0DE
:104190008091C600F6CF389AA3C881E080934A0484
:1041A000AEC8389AB4C8389ACAC8389ADAC8389AA1
:1041B000F1C8389A29C910924A0436C9389A3CC9BC
:1041C000389A52C9389A81C910924A048EC9389ACD
:1041D00094C9389AAAC9389AD9C910924A04E6C92A
:1041E000389AECC9389A02CA389A48CA81E0809352
:1041F0004A0453CA389A59CA389A6FCA389A7FCA39
:10420000389A96CA389ACECA10924A04DBCA389AAB
:10421000E1CA389AF7CA389A26CB10924A0433CBAF
:10422000389A39CB389A4FCB389A7ECB10924A04C1
:104230008BCB389A91CB389AA7CB389AF5CB81E0C3
:1042400080934A0400CC389A06CC389A1CCC389A11
:104250002CCC389A43CC389A7BCC10924A0488CC28
:10426000389A8ECC389AA4CC389AD3CC10924A047F
:10427000E0CC389AE6CC389AFCCC389A2BCD109208
:104280004A0438CD389A3ECD389A54CD389AA1CDCB
:1042900081E080934A04ACCD389AB2CD389AC8CD2B
:1042A000389AD8CD389AEFCD389A27CE10924A0452
:1042B00034CE389A3ACE389A50CE389A7FCE109271
:1042C0004A048CCE389A92CE389AA8CE389AD7CE55
:1042D00010924A04E4CE389AEACE389A00CF85E4A8
:1042E0000E9462000ACF86EC8D0F873008F4EFC081
:1042F000C0EDCD0FC73108F0EAC086EC810F8730E2
:1043000008F4E5C080ED810F873108F0E0C0C131CD
:1043100010F0C9ECCD0F50E1C502E001112481314C
:1043200010F089EC810FC80FD11D87FDDA95BE0111
:1043300080E10E944B0E83E091E00E946900882496
:104340008394912C00E010E8712C612C95E0492EAB
:10435000512C540191E0A91AB108E114F10409F0BB
:10436000B9C087E591E00E94690086E593E00E946C
:10437000690060916404709165048AE00E944B0EAC
:1043800089E693E00E946900609162047091630481
:104390008AE00E944B0E80E793E00E94690089E763
:1043A00093E00E946900CDEFDFEFC230D10510F13C
:1043B00085E590E00E94E40084E090E00E94E40043
:1043C000CE018D579D4E0E94E40082E190E00E9454
:1043D000E4000E949C00682F70E080E10E944B0E78
:1043E000C230D10519F489E00E9462006EEC83E0CE
:1043F0000E9494002196C630D105B9F68EEA93E06A
:104400000E9469000E948D00893539F484E580930B
:10441000890588EF92E00E94690082ED93E00E9496
:10442000690065EC8AE892E10E94C91587EE93E085
:104430000E9469000E948D00893509F0CBC060E0C0
:104440008AE892E10E94C91581E094E00E94690027
:104450006EEC83E00E94940085E590E00E94E40009
:1044600088EC90E00E94E40089E590E00E94E4007E
:104470006EEC83E00E94940085E590E00E94E400E9
:1044800088EC90E00E94E40090E080E00E94E4006C
:104490006EEC83E00E94940087E294E00E94690041
:1044A00085E590E00E94E40083EC90E00E94E40047
:1044B00087EE90E00E94E40088E199E00FB6F8945E
:1044C000A895809360000FBE90936000FFCFD0E06E
:1044D000C0E02DCF6801E0E8CE0ED11CC8010E94DB
:1044E000D9021C0190936104809360040E5F1F4FFA
:1044F0000115F0E21F0709F434CF019609F06DC0F1
:104500000C151D0559F72DCFB2010E942423892BCC
:1045100019F48AE20E94620080916204909163041F
:1045200001969093630480936204670181E0C81A46
:10453000D10898E0E91AF10862EB87E00E94A20E28
:10454000C8010E94D9029C01909361048093600489
:104550000E5F1F4F019619F1F1E0CF1AD108209795
:1045600051F0C501BE010E942423892B21F4B90119
:1045700080E10E944B0E8091620490916304019649
:104580009093630480936204011540E2140709F4D8
:1045900044C0CE14DF0481F6209719F416C020978A
:1045A00079F0C501BE010E942423892B49F4C3017F
:1045B00087709927892B21F487E591E00E94690093
:1045C000011550E2150709F4CCCE8FEF881A980A2E
:1045D0007601BFCE83E194E039CFC501209709F47D
:1045E00093CFBE010E942423892B09F095CF87E742
:1045F00093E00E946900B8016250704880E10E9417
:104600004B0E85E091E00E9469005FEF651A750A24
:10461000B10180E10E944B0E7FCF209711F6A1CE11
:10462000AA1BBB1B51E107C0AA1FBB1FA617B707D8
:1046300010F0A61BB70B881F991F5A95A9F78095F4
:104640009095BC01CD01089597FB072E16F40094B8
:1046500007D077FD09D00E94102307FC05D03EF457
:10466000909581959F4F0895709561957F4F08951E
:10467000EE0FFF1F0590F491E02D0994F894FFCF01
:10468000523F20202020000D0A55504449207072CE
:104690006F6772616D65723A20554E4F5F55504499
:1046A000495F49505F56382028616C736F20776FDF
:1046B000726B73206F6E20616E2041746D6567614F
:1046C0002033323820636C6F636B65642061742023
:1046D000384D487A290D0A0D0A005072657373200F
:1046E000616E79206B657920746F207374617274C8
:1046F0000D0A0D0A00446576696365206E6F7420AB
:1047000064657465637465640D0A00506F77657243
:10471000204379636C652052657175697265640D1B
:104720000A000D0A496E697469616C6973696E6784
:10473000204E564D2070726F6772616D6D696E67A5
:10474000000D0A457261736520636869703F2059E6
:10475000206F72204E000945726173696E67206395
:104760006869700D0A003078344535363444343584
:104770003732363137333635000D0A4368697020D9
:104780006572617365206661696C6564000D0A4637
:1047900061696C7572653A2044657669636520735A
:1047A00074696C6C206C6F636B656409000D0A445E
:1047B000657669636520756E6C6F636B6564090966
:1047C00009000943686970206E6F74206572617317
:1047D00065640D0A00307834453536344435303759
:1047E00032364636373230004E564D50524F472003
:1047F0006661696C7572653A2009000D0A504F5266
:1048000020746F2070726F6365656421005265616A
:10481000647920666F72204E564D2070726F6772F9
:10482000616D6D696E6709000D0A5369676E617489
:10483000757265206279746520726561646F757444
:1048400009090050726F6772616D6D696E6720664D
:10485000757365730D0A000D0A50726F6772616D92
:1048600020666C6173682077697468206865783F9A
:104870002059206F72204E000D0A53656E64206629
:10488000696C652020000D0A566572696679696E4B
:104890006720666C6173683A20414B20746F206317
:1048A0006F6E74696E7565000D0A507265737320C2
:1048B00030206F7220414F4B20746F20657363610D
:1048C00070650D0A00496E746567657228302D4663
:1048D00046293F2020000D0A4865785F66696C65AF
:1048E0005F73697A653A20200020696E3A202000C3
:1048F000206F75740D0A000D000D0A4675736573FF
:104900003A095744542C20424F442C204F53432CF7
:104910005359533009535953312C20415050454E6F
:10492000442C20424F4F54454E440D0A09000D0AB5
:104930000D0A50726F6772616D20666C617368203A
:104940007769746820746578743F2059206F7220ED
:104950004E000D0A0D0A556E6C6F636B696E672011
:10496000646576696365000D0A5920746F204C6F89
:10497000636B20646576696365206F7220414F4BDD
:10498000000D0A446576696365206C6F636B65642E
:104990000D0A000D0A44657669636520756E6C6FBB
:1049A000636B65640D0A00536573696F6E207465EF
:0E49B000726D696E617465640D0A0D0A000077
:00000001FF
