:100000001EC038C037C036C035C034C033C032C05F
:1000100031C030C02FC02EC02DC02CC02BC02AC074
:1000200029C028C027C026C025C024C023C022C0A4
:1000300021C020C01FC01EC01DC01CC01BC0112479
:100040001FBECFEFCDBFDFE3DEBF1EE3A0E0BEE308
:10005000EEEDF7E002C005900D92A630B107D9F79A
:100060002EE3A6E0BEE301C01D92A534B207E1F77E
:100070005AD25FC3C5CFE0E2F4E08081877F8083FE
:10008000808184608083E0E0F8E08DE695E0808701
:1000900091878681806486838681806886830895BF
:1000A000E0E0F8E0948195FFFDCF80930208089589
:1000B000EF92FF920F931F93CF93DF938C017C01FC
:1000C000C0E0D0E005C0F70181917F01E9DF219612
:1000D000F80101900020E9F73197E01BF10BCE17F2
:1000E000DF0788F3DF91CF911F910F91FF90EF9081
:1000F0000895AC0120E030E0E0E0F8E00DC02F5FB3
:100100003F4F213A8FE0380724F04150510920E059
:1001100030E04115510529F09481992384F781E05D
:10012000089580E00895E0E0F8E084818823ECF70A
:10013000809100088D3011F08A3051F481E090E018
:10014000D8DF882321F0809100088DE008958DE0AC
:1001500008952F923F924F925F926F927F928F926B
:100160009F92AF92BF92CF92DF92EF92FF920F9346
:100170001F93CF93DF931C012A013B0141155105C9
:100180006105704861F52A3019F02031B9F063C07B
:1001900098E3F101908384E3818326E3228323E3C0
:1001A00023839483858397E39683878381E3808782
:1001B00082E381878DE2828713864DC080E3F1015F
:1001C000808381838283838384838583868388E39A
:1001D00087838DE280871186128613863CC0E101F9
:1001E000C1010C96F1011192E817F907E1F77301CB
:1001F000620177203CF4CC24DD247601C418D508B4
:10020000E608F70800E010E0822E912CA12CB12C1A
:10021000C701B601A501940112D268836A3018F4AF
:10022000605D688302C0695C68830F5F1F4FC70110
:10023000B601A501940103D269017A012196121633
:1002400013061406150624F377202CF4F101E00FB1
:10025000F11F8DE28083DF91CF911F910F91FF906D
:10026000EF90DF90CF90BF90AF909F908F907F9056
:100270006F905F904F903F902F9008950F931F9332
:10028000CF93DF93FC012081222391F03196C0E0CF
:10029000D0E0219621912111FCCF209749F08C01CB
:1002A0000C0F1D1FF80182918F01FADE2197D1F703
:1002B000DF91CF911F910F910895CF93DF93CDB729
:1002C000DEB72C97CDBFDEBF282FCE01019641DFD0
:1002D000CE010196D3DF2C96CDBFDEBFDF91CF914B
:1002E00008959B01215031091216130684F4FC0174
:1002F000E60FF71FDC0180E090E04C9152915D9396
:10030000408301962150310982179307B4F3089571
:10031000EF92FF920F931F93CF93DF93EC018C0129
:100320000996FE011192E817F907E1F7E0E0F8E01D
:1003300084818823ECF7808190ED980F9A3010F03B
:100340008D32B1F788837E0188E0E80EF11CEBDE88
:100350008D30B9F090ED980F9A3038F1883019F05F
:100360008D32A9F724C0F80181818193EE16FF0632
:10037000D9F7EDCF92919183E017F107D9F78883F0
:10038000E6CFECE3FEE301900020E9F73197BF01EF
:100390006C537E4360931C3E70931D3E8CE39EE342
:1003A000A0DF8CE39EE389D105C08830E1F2FE0135
:1003B0003896E0CFDF91CF911F910F91FF90EF9092
:1003C000089580913B3E882319F08130B9F024C014
:1003D000A0911E3EB0911F3EFD0181918093443E4D
:1003E000E0931E3EF0931F3E11968C918093203E29
:1003F00081E080933B3E8091203E089510923B3EE9
:1004000080911E3E90911F3E019680931E3E9093D8
:100410001F3E8091443E089580E00895CF93DF937E
:1004200080912E3E90912F3E80931E3E90931F3ED2
:1004300010923B3ED0E0C0E002C0D92FC82FC1DFF0
:1004400081110FC091E09D0F2091313E3091323EDD
:100450002F5F3F4F2093313E3093323EC111EDCF9D
:100460000BC02091313E3091323E2F5F3F4F2093A1
:10047000313E3093323EE2CF8D2FDF91CF91089500
:100480000F931F93CF93DF938C0180912E3E909119
:100490002F3E80931E3E90931F3E10923B3E109243
:1004A000063E0130110569F0C1E0D0E003C00C1731
:1004B0001D0739F086DF80932D3E8111F8CF2196FC
:1004C000F6CF7FDF80932D3E882341F1E9DD8091D7
:1004D000063E8F5F8093063E90912D3E903239F418
:1004E0008B3528F08BED97E8E3DD1092063E69DF4F
:1004F00080932D3E882391F0D3DD8091063E8F5F5F
:100500008093063E90912D3E9032D9F68B35C8F2FD
:100510008BED97E8CDDD1092063ED3CFDF91CF91E2
:100520001F910F910895A7DDC0E0D8E086E397E81A
:10053000BFDD80E590E0DDDD8823C1F38881809315
:10054000303E8F7D823591F7E091043EF091053E7B
:100550008091003E9091013EE81BF90BEE0FFF1FCA
:100560008091023E9091033EE80FF91FE0932E3EEA
:10057000F0932F3EE0931E3EF0931F3E1092313ECB
:100580001092323E81818F3F81F48DE397E890DDB8
:1005900088EDA89584BF809100018260809300015E
:1005A0008091010181FDFCCFFFCF8DE597E880DDD3
:1005B00035DFC82F8BE797E87BDD4C2F50E060E0FC
:1005C00070E08AE07ADE89E06BDD4091313E509147
:1005D000323E052E000C660B770B8AE06EDE89EA50
:1005E00097E866DDD0E08CE39EE392DE6B017C0150
:1005F000CB01892BB9F0C617D70724F48FEC97E805
:1006000057DDF1CF8BED97E853DDA6010D2C000CE3
:10061000660B770B8AE051DE8BED97E849DDC6016A
:100620002FDFE1CF88EDA89584BF80910001826023
:10063000809300018091010181FDFCCFFFCF052E49
:1006400097FB16F400940FD057FD05D014D007FC8B
:1006500002D046F408C050954095309521953F4F03
:100660004F4F5F4F089590958095709561957F4F9E
:100670008F4F9F4F0895A1E21A2EAA1BBB1BFD01AD
:100680000DC0AA1FBB1FEE1FFF1FA217B307E40771
:10069000F50720F0A21BB30BE40BF50B661F771FC9
:1006A000881F991F1A9469F76095709580959095A9
:1006B0009B01AC01BD01CF0108951F93FC01992757
:1006C0008827BC01E89411911032E9F3193010F039
:1006D0001E30C8F31B3251F01D3249F4689406C035
:1006E0000E948403610F711D811D911D1191105392
:1006F0001A30B0F33EF490958095709561957F4FD8
:100700008F4F9F4F1F910895592F482F372F262F16
:10071000660F771F881F991F660F771F881F991F05
:10072000620F731F841F951F660F771F881F991F05
:060730000895F894FFCFCC
:10073600523F20202020000D0A4E6F2074657874E9
:1007460020617661696C61626C6520696E20666CF9
:10075600617368210D0A000D0A52656164696E674E
:1007660020737472696E67732066726F6D20666C93
:100776006173682E000D0A546F74616C206E756D7E
:1007860062657273206F6620737472696E67732078
:100796002620636861726163746572732061726595
:1007A6002020000D0A456E74657220737472696E9E
:1007B60067206E756D626572206F72207A65726F42
:1007C60020746F2065786974000D0A4E6F2073746B
:0807D60072696E67210D0A0033
:0607DE0000040080002071
:00000001FF
