:100000000C943E000C945B000C945B000C945B0021
:100010000C945B000C945B000C945B000C945B00F4
:100020000C945B000C945B000C945B000C945B00E4
:100030000C945B000C945B000C945B000C945B00D4
:100040000C945B000C945B000C945B000C945B00C4
:100050000C945B000C945B000C945B000C945B00B4
:100060000C945B000C945B000C945B000C945B00A4
:100070000C945B000C945B000C945B0011241FBE7D
:10008000CFEFCDBFDFE3DEBF1CE3A0E0BCE3EEE6D5
:10009000F8E002C005900D92A630B107D9F72CE325
:1000A000A6E0BCE301C01D92A534B207E1F70E94AF
:1000B000C7020C94E1030C940000E0E2F4E08081BC
:1000C000877F8083808184608083E0E0F8E08DE634
:1000D00095E08087918786818064868386818068A9
:1000E00086830895E0E0F8E0948195FFFDCF80934A
:1000F00002080895EF92FF920F931F93CF93DF931F
:100100008C017C01C0E0D0E006C0F70181917F0145
:100110000E9472002196F80101900020E9F73197C2
:10012000E01BF10BCE17DF0780F3DF91CF911F911A
:100130000F91FF90EF900895AC0120E030E0E0E0F7
:10014000F8E00DC02F5F3F4F213A8FE0380724F0D1
:100150004150510920E030E04115510529F09481CA
:10016000992384F781E0089580E00895E0E0F8E0C5
:1001700084818823ECF7809100088D3011F08A305B
:1001800059F481E090E00E949C00882321F0809146
:1001900000088DE008958DE008952F923F924F92D0
:1001A0005F926F927F928F929F92AF92BF92CF9207
:1001B000DF92EF92FF920F931F93CF93DF931C0177
:1001C0002A013B01411551056105704861F52A304E
:1001D00019F02031B9F065C098E3F101908384E310
:1001E000818326E3228323E323839483858397E318
:1001F0009683878381E3808782E381878DE282878C
:1002000013864FC080E3F1018083818382838383DF
:1002100084838583868388E387838DE28087118644
:10022000128613863EC0E101C1010C96F1011192C4
:10023000E817F907E1F77301620177203CF4CC2459
:10024000DD247601C418D508E608F70800E010E0C0
:10025000822E912CA12CB12CC701B601A5019401CD
:100260000E94640368836A3018F4605D688302C08A
:10027000695C68830F5F1F4FC701B601A501940138
:100280000E94640369017A0121961216130614066E
:10029000150614F377202CF4F101E00FF11F8DE225
:1002A0008083DF91CF911F910F91FF90EF90DF90AE
:1002B000CF90BF90AF909F908F907F906F905F9006
:1002C0004F903F902F9008950F931F93CF93DF93FC
:1002D000FC012081222399F03196C0E0D0E02196E4
:1002E00021912111FCCF209751F08C010C0F1D1F83
:1002F000F80182918F010E9472002197C9F7DF9166
:10030000CF911F910F910895CF93DF93CDB7DEB7B3
:100310002C97CDBFDEBF282FCE0101960E94CD00C5
:10032000CE0101960E9464012C96CDBFDEBFDF9105
:10033000CF9108959B01215031091216130684F4C0
:10034000FC01E60FF71FDC0180E090E04C91529138
:100350005D93408301962150310982179307B4F3CE
:100360000895EF92FF920F931F93CF93DF93EC01C9
:100370008C010996FE011192E817F907E1F7E0E018
:10038000F8E084818823ECF7808190ED980F9A3013
:1003900010F08D32B1F788837E0188E0E80EF11C01
:1003A0000E94B6008D30B9F090ED980F9A3048F168
:1003B000883019F08D32A1F726C0F8018181819330
:1003C000EE16FF06D9F7ECCF92919183E017F10773
:1003D000D9F78883E5CFECE3FCE301900020E9F74F
:1003E0003197BF016C537C4360931C3C70931D3C60
:1003F0008CE39CE30E949A018CE39CE30E94A5039A
:1004000005C08830D1F2FE013896DECFDF91CF9162
:100410001F910F91FF90EF90089580913B3C8823AE
:1004200019F08130B9F024C0A0911E3CB0911F3C5E
:10043000FD0181918093443CE0931E3CF0931F3C6E
:1004400011968C918093203C81E080933B3C80917D
:10045000203C089510923B3C80911E3C90911F3CA3
:10046000019680931E3C90931F3C8091443C0895DC
:1004700080E00895CF93DF9380912E3C90912F3CA4
:1004800080931E3C90931F3C10923B3CD0E0C0E018
:1004900002C0D92FC82F0E940D0281110FC091E018
:1004A0009D0F2091313C3091323C2F5F3F4F209384
:1004B000313C3093323CC111ECCF0BC02091313C28
:1004C0003091323C2F5F3F4F2093313C3093323C90
:1004D000E1CF8D2FDF91CF9108950F931F93CF938D
:1004E000DF938C0180912E3C90912F3C80931E3C99
:1004F00090931F3C10923B3C1092063C013011053A
:1005000071F0C1E0D0E003C00C171D0741F00E945C
:100510000D0280932D3C8111F7CF2196F5CF0E94DB
:100520000D0280932D3C882369F10E947200809116
:10053000063C8F5F8093063C90912D3C903241F4B5
:100540008B3530F08BE698E80E947A001092063CDA
:100550000E940D0280932D3C8823A1F00E9472001E
:100560008091063C8F5F8093063C90912D3C9032A9
:10057000B1F68B35A0F28BE698E80E947A001092D3
:10058000063CCDCFDF91CF911F910F9108950E942E
:100590005D00C0E0D8E086EC97E80E947A0080E534
:1005A00090E00E949C008823B1F388818093303CC6
:1005B0008F7D823581F7E091043CF091053C80917C
:1005C000003C9091013CE81BF90BEE0FFF1F80915E
:1005D000023C9091033CE80FF91FE0932E3CF0930E
:1005E0002F3CE0931E3CF0931F3C1092313C109244
:1005F000323C81818F3F89F48DEC97E80E947A002C
:1006000088EDA89584BF80910001826080930001ED
:100610008091010181FDFCCFFFCF8DEE97E80E9414
:100620007A000E943A02C82F8BE098E80E947A0074
:100630004C2F50E060E070E08AE00E94840189E085
:100640000E9472004091313C5091323C052E000CCA
:10065000660B770B8AE00E94840189E398E80E9488
:100660007A00D0E08CE39CE30E94B1016B017C0135
:10067000CB01892BE1F0C617D7072CF48FE598E85A
:100680000E947A00EFCF8BE698E80E947A00A601DC
:100690000D2C000C660B770B8AE00E9484018BE620
:1006A00098E80E947A00C6010E946D02DBCF88EDB7
:1006B000A89584BF809100018260809300018091A1
:1006C000010181FDFCCFFFCF052E97FB1EF40094A6
:1006D0000E947B0357FD07D00E94830307FC03D0D1
:1006E0004EF40C947B0350954095309521953F4FE7
:1006F0004F4F5F4F089590958095709561957F4F0E
:100700008F4F9F4F0895A1E21A2EAA1BBB1BFD011C
:100710000DC0AA1FBB1FEE1FFF1FA217B307E407E0
:10072000F50720F0A21BB30BE40BF50B661F771F38
:10073000881F991F1A9469F7609570958095909518
:100740009B01AC01BD01CF0108951F93FC019927C6
:100750008827BC01E89411911032E9F3193010F0A8
:100760001E30C8F31B3251F01D3249F4689406C0A4
:100770000E94CC03610F711D811D911D11911053B9
:100780001A30B0F33EF490958095709561957F4F47
:100790008F4F9F4F1F910895592F482F372F262F86
:1007A000660F771F881F991F660F771F881F991F75
:1007B000620F731F841F951F660F771F881F991F75
:0607C0000895F894FFCF3C
:1007C600523F20202020000D0A4E6F207465787459
:1007D60020617661696C61626C6520696E20666C69
:1007E600617368210D0A000D0A52656164696E67BE
:1007F60020737472696E67732066726F6D20666C03
:100806006173682E000D0A546F74616C206E756DED
:1008160062657273206F6620737472696E677320E7
:100826002620636861726163746572732061726504
:100836002020000D0A456E74657220737472696E0D
:1008460067206E756D626572206F72207A65726FB1
:1008560020746F2065786974000D0A4E6F207374DA
:0808660072696E67210D0A00A2
:06086E00000400800020E0
:00000001FF
