:020000040000FA
:100000000C9434000C9451000C9451000C94510049
:100010000C9451000C9451000C9451000C9451001C
:100020000C9451000C9451000C9451000C9451000C
:100030000C9451000C9458010C9451000C945100F4
:100040000C9451000C9451000C94AD010C9451008F
:100050000C9451000C9451000C9451000C945100DC
:100060000C9451000C94510011241FBECFEFD8E026
:10007000DEBFCDBF14E0A0E0B1E0ECE9FDE402C0DA
:1000800005900D92A63DB107D9F725E0A6EDB4E0A5
:1000900001C01D92A73AB207E1F70E9419170C940C
:1000A000CC260C9400009091C00095FFFCCF80936B
:1000B000C60008950F931F93CF93DF93EC018C013B
:1000C00008531F4F8991882329F00E945300C017BD
:1000D000D107C1F7DF91CF911F910F91089521EAC8
:1000E0003FE04091C00047FD07C021503109C9F7EA
:1000F0000197A9F780E0089581E008958091C000FC
:1001000087FFFCCF8091C600089587E591E00C94AD
:100110005A00EFE6F0E09081916090837093850043
:10012000609384009FEF96BB80938100089593B500
:1001300066BD85BDA89BFECFA89A15BC0895EF9219
:10014000FF920F931F93CF93DF9386B1182F1170F7
:1001500080FDFBCF6CED82E00E949700D0E0C0E014
:1001600000E0EE24E394F12C6CED82E00E94970015
:10017000309B08C0C7010C2E01C0880F0A94EAF713
:10018000182B0F5F2196C830D10571F76CED82E016
:100190000E949700309B02C000FD09C08091A50518
:1001A0009091A60501969093A6058093A5056CED08
:1001B00082E00E9497006CED82E00E949700812F00
:1001C000DF91CF911F910F91FF90EF900895CF9203
:1001D000DF92EF92FF921F93CF93DF937C01389AC7
:1001E0006CED82E00E949700D0E0C0E010E0CC24EB
:1001F000C394D12CC6010C2E02C0880F991F0A94FB
:10020000E2F78E219F21892B09F138981F5F6CED51
:1002100082E00E9497002196C830D10559F710FF5F
:1002200017C038986CED82E00E94970038986CED0A
:1002300082E00E9497006CED82E0DF91CF911F91E8
:10024000FF90EF90DF90CF900C949700389ADFCF1B
:10025000389AE8CF0F931F93CF93DF938C0185E5F6
:1002600090E00E94E70080EE90E00E94E700E80145
:1002700060962981888190ED980F9A3014F099EC5E
:10028000980F80ED820F8A3014F089EC820F9295DE
:10029000907F890F082E000C990B0E94E70022978F
:1002A0000C171D0731F7DF91CF911F910F91089522
:1002B0001F920F920FB60F9211248F93EF93FF931B
:1002C0008091A405811105C081E08093A30510925F
:1002D00081008091A4058130C1F58091A205833011
:1002E000A1F51092A4058091A10581508093A105EC
:1002F0001092810080916F008E7F80936F008091BB
:10030000A0058F5F8093A0058091A0058F738093D7
:10031000A005E091A005F0E0EE0FFF1FE05EFA4FB0
:10032000118210828091A0058F5F8093A00580913B
:10033000A0058F738093A005E091A005F0E0EE0F7B
:10034000FF1FE05EFA4F11821082FF91EF918F91B3
:100350000F900FBE0F901F9018951F920F920FB61F
:100360000F9211242F933F934F935F938F939F93FB
:10037000AF93BF93EF93FF9380911F05883409F0EB
:1003800063C1E091C600E153E63108F0F7C0F0E048
:10039000E453FE4F0C94C626C002E201A002A20262
:1003A000A402A602A802AA02AC02BA02BE02BE02BF
:1003B000BE02BE02BE02BE02AE02B002B202B40271
:1003C000B602B80282E020911C0530911D05233051
:1003D000310509F414C10CF0D5C02130310509F400
:1003E0000EC12230310509F4E2C020911C05309184
:1003F0001D05293031050CF486C040911C05509133
:100400001D052091180530911905421753070CF06E
:100410007AC020911C0530911D05237033272130AF
:10042000310541F490E1899F9001112430931B051F
:1004300020931A0520911C0530911D052370332748
:100440002230310551F420911A0530911B05280FF7
:10045000311D30931B0520931A0520911C05309106
:100460001D05237033272330310541F490E1899F26
:1004700090011124309317052093160520911C0537
:1004800030911D0523703327232BE9F520911605A4
:1004900030911705820F932F911D9093170580932C
:1004A00016058091160590911705982F882790932F
:1004B00017058093160580911605909117052091D8
:1004C0001A0530911B05820F931F90931B05809393
:1004D0001A05E091A00581E08E0F8093A005809120
:1004E0001A0590911B05F0E0EE0FFF1FE05EFA4F3A
:1004F00091838083809114059091150501969093C6
:1005000015058093140580911C0590911D05019699
:1005100090931D0580931C058091A0058F73809397
:10052000A005FF91EF91BF91AF919F918F915F9146
:100530004F913F912F910F900FBE0F901F901895E4
:1005400083E041CF84E03FCF85E03DCF86E03BCFE5
:1005500087E039CF88E037CF89E035CF8AE033CFE5
:100560008BE031CF8CE02FCF8DE02DCF8EE02BCFE5
:100570008FE029CF10921D0510921C0580E023CF3B
:1005800081E021CF2530310509F453C00CF440C07F
:100590002630310509F029CF20911A0530911B052D
:1005A000280F311D30931B0520931A0516C020918A
:1005B0001A0530911B05280F311D30931B05209320
:1005C0001A0520911A0530911B05220F331F275F52
:1005D0003F4F3093190520931805E091A00591E055
:1005E0009E0F9093A00520911A0530911B05F0E015
:1005F000EE0FFF1FE05EFA4F31832083F6CE90E1CD
:10060000899F9001112430931B0520931A05EDCE8C
:1006100020911A0530911B05280F311D30931B05C1
:1006200020931A0520911A0530911B05322F22279D
:10063000EACF40911A0550911B0590E1899F9001E6
:100640001124240F351FDFCF843509F06ACF809144
:10065000C600882309F465CF9091A2058A3209F477
:1006600054C0992309F45DCF9091A205913019F4FB
:1006700092E09093A2059091A205923031F48D30D2
:1006800009F44FCF8A3009F44CCF93E09093A20540
:100690008D3011F08A3031F480911E05882309F4E1
:1006A00040CF80E0109285001092840020911C05BC
:1006B00030911D05482F50E0E091A005F0E0EE0FCD
:1006C000FF1FE05EFA4F20FD2CC051834083A091B4
:1006D000A005E091A005F0E0EE0FFF1FE05EFA4FED
:1006E000B0E0AA0FBB1FA05EBA4F9C91108291830D
:1006F00020911C0530911D052F5F3F4F30931D0544
:1007000020931C0580931E050CCF911104C081E03D
:100710008093A20506CF9091A205913009F0A4CF55
:1007200000CF20813181240F351F318320839091A8
:10073000A0059F5F9093A0059091A0059F73909353
:10074000A005D6CFCF93DF9315BC16BC23B521608F
:1007500023BD21E025BD22E427BD25E52093FA0431
:100760001092F9041092F804A99BFECF389A2FEF4B
:1007700025BB27B52E5B27BD50E040E0A1E0B0E0EF
:10078000EFEF2091FA04BD01042E01C0660F0A9418
:10079000EAF726232093F804222329F03091F90464
:1007A0003F5F3093F904A99BFECF222309F4DCC3F9
:1007B0003898E5BB27B52E5B27BD4F5F5F4F4830AC
:1007C0005105F9F62091F90420FFD0C321E02093D0
:1007D000F804A99BFECF2091F804222309F4C9C391
:1007E00038982FEF25BB27B52E5B27BD21E020933E
:1007F000F804A99BFECF38982FEF25BB27B52E5BB9
:1008000027BDA99BFECF2091F804222309F4B3C38E
:1008100038982FEF25BB27B52E5B27BD24E020930A
:10082000FA041092F9041092F804A99BFECF389AAA
:100830002FEF25BB27B52E5B27BD50E040E0A1E0A0
:10084000B0E0EFEF2091FA04BD01042E01C0660F65
:100850000A94EAF726232093F804222329F0309102
:10086000F9043F5F3093F904A99BFECF222309F4DA
:1008700084C33898E5BB27B52E5B27BD4F5F5F4F1C
:1008800048305105F9F62091F90420FF78C321E0A2
:100890002093F804A99BFECF2091F804222309F4A9
:1008A00071C338982FEF25BB27B52E5B27BD21E0FC
:1008B0002093F804A99BFECF38982FEF25BB27B5CE
:1008C0002E5B27BDA99BFECF2091F804222309F4BB
:1008D0005BC338982FEF25BB27B52E5B27BD8093D0
:1008E000FA041092F9041092F804A99BFECF389AEA
:1008F0002FEF25BB27B52E5B27BD50E040E0A1E0E0
:10090000B0E0EFEF2091FA04BD01042E01C0660FA4
:100910000A94EAF726232093F804222329F0309141
:10092000F9043F5F3093F904A99BFECF222309F419
:100930002DC33898E5BB27B52E5B27BD4F5F5F4FB2
:1009400048305105F9F62091F90420FF21C321E038
:100950002093F804A99BFECF2091F804222309F4E8
:100960001AC338982FEF25BB27B52E5B27BD21E092
:100970002093F804A99BFECF38982FEF25BB27B50D
:100980002E5B27BDA99BFECF2091F804222309F4FA
:1009900004C338982FEF25BB27B52E5B27BD909356
:1009A000FA041092F9041092F804A99BFECF389A29
:1009B0002FEF25BB27B52E5B27BD50E040E0A1E01F
:1009C000B0E0EFEF2091FA04BD01042E01C0660FE4
:1009D0000A94EAF726232093F804222329F0309181
:1009E000F9043F5F3093F904A99BFECF222309F459
:1009F000D6C23898E5BB27B52E5B27BD4F5F5F4F4A
:100A000048305105F9F62091F90420FFCAC221E0CF
:100A10002093F804A99BFECF2091F804222309F427
:100A2000C3C238982FEF25BB27B52E5B27BD21E029
:100A30002093F804A99BFECF38982FEF25BB27B54C
:100A40002E5B27BDA99BFECF2091F804222309F439
:100A5000ADC238982FEF25BB27B52E5B27BD10926E
:100A6000DC041092F9043099FECF15BC16BC23B5F6
:100A7000216023BD21E025BD21E227BDA99BFECF3A
:100A800027B52E5B27BD2FEF25BB30E020E0E1E04E
:100A90005FEFA1E0B0E0A99BFECF309B89C2E0935D
:100AA000DB0455BB47B54E5B47BD4091DB04442397
:100AB00081F04091DC04BD01022E01C0660F0A9452
:100AC000EAF7462B4093DC044091F9044F5F4093D2
:100AD000F9042F5F3F4F28303105E9F6A99BFECF7F
:100AE000309B69C221E02093DB042FEF25BB27B5A3
:100AF0002E5B27BD2091DB04222321F02091F904F5
:100B000020FD0AC02091A5053091A6052F5F3F4F1B
:100B10003093A6052093A505A99BFECF309B4EC21E
:100B200021E02093DB042FEF25BB27B52E5B27BDEB
:100B3000A99BFECF309B45C221E02093DB042FEF21
:100B400025BB27B52E5B27BD15BC2091DC0430E00A
:100B5000322F2227BC016F5F7F4F15BC16BC83B5B7
:100B6000816083BD81E085BD82E487BD85E580939A
:100B7000FA041092F9041092F804A99BFECF389A57
:100B80008FEF85BB87B58E5B87BD50E040E0C1E04D
:100B9000D0E0AFEF9091FA04FE01042E01C0EE0FF9
:100BA0000A94EAF79E239093F804992329F0809100
:100BB000F9048F5F8093F904A99BFECF992309F470
:100BC00003C23898A5BB87B58E5B87BD4F5F5F4F6B
:100BD00048305105F9F68091F90480FFF7C181E0B2
:100BE0008093F804A99BFECF8091F804882309F430
:100BF000F0C138988FEF85BB87B58E5B87BD81E0EC
:100C00008093F804A99BFECF38988FEF85BB87B5FA
:100C10008E5B87BDA99BFECF8091F804882309F4E1
:100C2000DAC138988FEF85BB87B58E5B87BD84E0CE
:100C30008093FA041092F9041092F804A99BFECF55
:100C4000389A8FEF85BB87B58E5B87BD50E040E05B
:100C5000C1E0D0E0AFEF9091FA04FE01042E01C094
:100C6000EE0F0A94EAF79E239093F804992329F053
:100C70008091F9048F5F8093F904A99BFECF99239B
:100C800009F4ABC13898A5BB87B58E5B87BD4F5FB4
:100C90005F4F48305105F9F68091F90480FF9FC1FC
:100CA00081E08093F804A99BFECF8091F80488230B
:100CB00009F498C138988FEF85BB87B58E5B87BDE7
:100CC00081E08093F804A99BFECF38988FEF85BB15
:100CD00087B58E5B87BDA99BFECF8091F8048823E2
:100CE00009F482C138988FEF85BB87B58E5B87BDCD
:100CF0006093FA041092F9041092F804A99BFECFB5
:100D0000389A8FEF85BB87B58E5B87BD50E040E09A
:100D1000C1E0D0E0AFEF9091FA04FE01042E01C0D3
:100D2000EE0F0A94EAF79E239093F804992329F092
:100D30008091F9048F5F8093F904A99BFECF9923DA
:100D400009F454C13898A5BB87B58E5B87BD4F5F4A
:100D50005F4F48305105F9F68091F90480FF48C192
:100D600081E08093F804A99BFECF8091F80488234A
:100D700009F441C138988FEF85BB87B58E5B87BD7D
:100D800081E08093F804A99BFECF38988FEF85BB54
:100D900097B59E5B97BDA99BFECF8091F8048823F1
:100DA00009F42BC138988FEF85BB97B59E5B97BD33
:100DB0007093FA041092F9041092F804A99BFECFE4
:100DC000389A8FEF85BB87B58E5B87BD50E040E0DA
:100DD000A1E0B0E0EFEF8091FA04BD01042E01C064
:100DE000660F0A94EAF786238093F804882329F093
:100DF0009091F9049F5F9093F904A99BFECF8823FB
:100E000009F4FDC03898E5BB87B58E5B87BD4F5FA1
:100E10005F4F48305105F9F68091F90480FFF1C029
:100E200081E08093F804A99BFECF8091F804882389
:100E300009F4EAC038988FEF85BB87B58E5B87BD14
:100E400081E08093F804A99BFECF38988FEF85BB93
:100E500087B58E5B87BDA99BFECF8091F804882360
:100E600009F4D4C038988FEF85BB87B58E5B87BDFA
:100E70001092DC041092F9043099FECF15BC16BC18
:100E800083B5816083BD81E085BD81E287BDA99B7B
:100E9000FECF87B58E5B87BD8FEF85BB90E080E08E
:100EA000E1E05FEFA1E0B0E0A99BFECF309BB0C0D6
:100EB000E093DB0455BB47B54E5B47BD4091DB0477
:100EC000442381F04091DC04BD01082E01C0660F6F
:100ED0000A94EAF7462B4093DC044091F9044F5FF3
:100EE0004093F904019688309105F1F6A99BFECF55
:100EF000309B91C081E08093DB048FEF85BB87B589
:100F00008E5B87BD8091DB04882321F08091F904FA
:100F100080FD09C08091A5059091A605019690934A
:100F2000A6058093A505A99BFECF309B77C081E0E5
:100F30008093DB048FEF85BB87B58E5B87BDA99B54
:100F4000FECF309B6EC081E08093DB048FEF85BBCA
:100F500087B58E5B87BD15BC8091DC04A901482B49
:100F6000CA01DF91CF910895389A23CC1092F804EA
:100F700030CC389A36CC389A4CCC389A7BCC1092FC
:100F8000F80488CC389A8ECC389AA4CC389AD2CC33
:100F90001092F804DFCC389AE5CC389AFBCC389A1A
:100FA00029CD1092F80436CD389A3CCD389A52CDDE
:100FB0001092DB0476CD1092DB0497CD1092DB0407
:100FC000B2CD1092DB04BBCD389AFCCD1092F80460
:100FD00009CE389A0FCE389A25CE389A54CE109230
:100FE000F80461CE389A67CE389A7DCE389AABCE67
:100FF0001092F804B8CE389ABECE389AD4CE389A29
:1010000002CF1092F8040FCF389A15CF389A2BCF11
:101010001092DB044FCF1092DB046FCF1092DB04F1
:1010200089CF1092DB0492CF9091FB048091A005B0
:101030009817D1F3E091FB04F0E0EE0FFF1FE05EA4
:10104000FA4F808191819093F1048093F004809114
:10105000FB048F5F8093FB048091FB048F7380936C
:10106000FB048FB78093DA04F89416BC83B58160D3
:1010700083BD81E085BD82E487BD8091F0048093CB
:10108000FA041092F9041092F804A99BFECF389A42
:101090008FEF85BB87B58E5B87BD30E020E0E1E058
:1010A000F0E06FEF8091FA04AF01022E01C0440F0F
:1010B0000A94EAF784238093F804882329F0909116
:1010C000F9049F5F9093F904A99BFECF882309F44C
:1010D0008CC1389865BB87B58E5B87BD2F5F3F4F4E
:1010E00028303105F9F68091F90480FF80C181E054
:1010F0008093F804A99BFECF8091F804882309F41B
:1011000079C138988FEF85BB87B58E5B87BD81E04D
:101110008093F804A99BFECF38988FEF85BB87B5E5
:101120008E5B87BDA99BFECF8091F804882309F4CC
:1011300063C138988FEF85BB87B58E5B87BD1092F2
:10114000DC041092F9043099FECF15BC16BC83B5AF
:10115000816083BD81E085BD81E287BDA99BFECF13
:1011600087B58E5B87BD8FEF85BB90E080E061E047
:101170003FEFE1E0F0E0A99BFECF309B3FC16093E1
:10118000DB0435BB27B52E5B27BD2091DB04222372
:1011900081F02091DC04AF01082E01C0440F0A94B5
:1011A000EAF7242B2093DC042091F9042F5F20938D
:1011B000F904019688309105F1F6A99BFECF309B8A
:1011C00020C181E08093DB048FEF85BB87B58E5B08
:1011D00087BD8091DB04882321F08091F90480FD94
:1011E00009C08091A5059091A60501969093A6054A
:1011F0008093A505A99BFECF309B06C181E080931B
:10120000DB048FEF85BB87B58E5B87BDA99BFECFC7
:10121000309BFDC081E08093DB048FEF85BB87B5F9
:101220008E5B87BD15BC16BC83B5816083BD81E034
:1012300085BD82E487BD8091F1048093FA04109209
:10124000F9041092F804A99BFECF389A8FEF85BB62
:1012500087B58E5B87BD30E020E0E1E0F0E06FEF26
:101260008091FA04AF01022E01C0440F0A94EAF7FC
:1012700084238093F804882329F09091F9049F5FD8
:101280009093F904A99BFECF882309F4C3C0389832
:1012900065BB87B58E5B87BD2F5F3F4F283031051B
:1012A000F9F68091F90480FFB7C081E08093F804DB
:1012B000A99BFECF8091F804882309F4B0C0389828
:1012C0008FEF85BB87B58E5B87BD81E08093F80487
:1012D000A99BFECF38988FEF85BB87B58E5B87BD06
:1012E000A99BFECF8091F804882309F49AC038980E
:1012F0008FEF85BB87B58E5B87BD1092DC041092A3
:10130000F9043099FECF15BC16BC83B5816083BD4E
:1013100081E085BD81E287BDA99BFECF87B58E5B4D
:1013200087BD8FEF85BB90E080E061E03FEFE1E0BB
:10133000F0E0A99BFECF309B76C06093DB0435BB09
:1013400027B52E5B27BD2091DB04222381F020915D
:10135000DC04AF01082E01C0440F0A94EAF7242BE5
:101360002093DC042091F9042F5F2093F904019667
:1013700088309105F1F6A99BFECF309B57C081E0E4
:101380008093DB048FEF85BB87B58E5B87BD809133
:10139000DB04882321F08091F90480FD09C080914D
:1013A000A5059091A60501969093A6058093A505A5
:1013B000A99BFECF309B3DC081E08093DB048FEF83
:1013C00085BB87B58E5B87BDA99BFECF309B34C0A4
:1013D00081E08093DB048FEF85BB87B58E5B87BD93
:1013E00015BC8091DA048FBF0895389A73CE10929D
:1013F000F80480CE389A86CE389A9CCE1092DB04C0
:10140000C0CE1092DB04E0CE1092DB04FACE109234
:10141000DB0403CF389A3CCF1092F80449CF389AB6
:101420004FCF389A65CF1092DB0489CF1092DB043E
:10143000A9CF1092DB04C3CF1092DB04CCCF880F6E
:10144000991F9C0130588FB78093DA04F89415BC2B
:1014500016BC83B5816083BD81E085BD82E487BD14
:1014600085E58093FA041092F9041092F804A99B80
:10147000FECF389A8FEF85BB87B58E5B87BD50E076
:1014800040E0A1E0B0E0EFEF9091FA04BD01042E3E
:1014900001C0660F0A94EAF796239093F804992303
:1014A00029F08091F9048F5F8093F904A99BFECF06
:1014B000992309F4C8C33898E5BB87B58E5B87BD0F
:1014C0004F5F5F4F48305105F9F68091F90480FF76
:1014D000BCC381E08093F804A99BFECF8091F804FF
:1014E000882309F4B5C338988FEF85BB87B58E5B29
:1014F00087BD81E08093F804A99BFECF38988FEFD9
:1015000085BB87B58E5B87BDA99BFECF8091F80414
:10151000882309F49FC338988FEF85BB87B58E5B0E
:1015200087BD89E68093FA041092F9041092F804BA
:10153000A99BFECF389A8FEF85BB87B58E5B87BDA1
:1015400050E040E0A1E0B0E0EFEF9091FA04BD017F
:10155000042E01C0660F0A94EAF796239093F804CC
:10156000992329F08091F9048F5F8093F904A99B56
:10157000FECF992309F470C33898E5BB87B58E5B1D
:1015800087BD4F5F5F4F48305105F9F68091F904F0
:1015900080FF64C381E08093F804A99BFECF809113
:1015A000F804882309F45DC338988FEF85BB87B5AD
:1015B0008E5B87BD81E08093F804A99BFECF3898AD
:1015C0008FEF85BB87B58E5B87BDA99BFECF8091D2
:1015D000F804882309F447C338988FEF85BB87B593
:1015E0008E5B87BD2093FA041092F9041092F804E0
:1015F000A99BFECF389A8FEF85BB87B58E5B87BDE1
:1016000050E040E0A1E0B0E0EFEF9091FA04BD01BE
:10161000042E01C0660F0A94EAF796239093F8040B
:10162000992329F08091F9048F5F8093F904A99B95
:10163000FECF992309F419C33898E5BB87B58E5BB3
:1016400087BD4F5F5F4F48305105F9F68091F9042F
:1016500080FF0DC381E08093F804A99BFECF8091A9
:10166000F804882309F406C338988FEF85BB87B543
:101670008E5B87BD81E08093F804A99BFECF3898EC
:101680008FEF85BB87B58E5B87BDA99BFECF809111
:10169000F804882309F4F0C238988FEF85BB87B52A
:1016A0008E5B87BD3093FA041092F9041092F8040F
:1016B000A99BFECF389A8FEF85BB87B58E5B87BD20
:1016C00030E020E0E1E0F0E06FEF8091FA04AF015C
:1016D000022E01C0440F0A94EAF784238093F80491
:1016E000882329F09091F9049F5F9093F904A99BB6
:1016F000FECF882309F4C2C2389865BB87B58E5BDC
:1017000087BD2F5F3F4F28303105F9F68091F904EE
:1017100080FFB6C281E08093F804A99BFECF809140
:10172000F804882309F4AFC238988FEF85BB87B5DA
:101730008E5B87BD81E08093F804A99BFECF38982B
:101740008FEF85BB87B58E5B87BDA99BFECF809150
:10175000F804882309F499C238988FEF85BB87B5C0
:101760008E5B87BD1092DC041092F9043099FECF95
:1017700015BC16BC83B5816083BD81E085BD81E267
:1017800087BDA99BFECF87B58E5B87BD8FEF85BBDD
:1017900090E080E061E03FEFE1E0F0E0A99BFECF68
:1017A000309B75C26093DB0435BB27B52E5B27BD2C
:1017B0002091DB04222381F02091DC04AF01082E6C
:1017C00001C0440F0A94EAF7242B2093DC042091F3
:1017D000F9042F5F2093F904019688309105F1F602
:1017E000A99BFECF309B56C281E08093DB048FEF34
:1017F00085BB87B58E5B87BD8091DB04882321F094
:101800008091F90480FD09C08091A5059091A605FD
:1018100001969093A6058093A505A99BFECF309BCA
:101820003CC281E08093DB048FEF85BB87B58E5B84
:1018300087BDA99BFECF309B33C281E08093DB0440
:101840008FEF85BB87B58E5B87BD15BC15BC16BCFD
:1018500083B5816083BD81E085BD82E487BD85E578
:101860008093FA041092F9041092F804A99BFECF19
:10187000389A8FEF85BB87B58E5B87BD30E020E05F
:10188000E1E0F0E06FEF8091FA04AF01022E01C0B9
:10189000440F0A94EAF784238093F804882329F0FC
:1018A0009091F9049F5F9093F904A99BFECF882340
:1018B00009F4F9C1389865BB87B58E5B87BD2F5F8A
:1018C0003F4F28303105F9F68091F90480FFEDC1D2
:1018D00081E08093F804A99BFECF8091F8048823CF
:1018E00009F4E6C138988FEF85BB87B58E5B87BD5D
:1018F00081E08093F804A99BFECF38988FEF85BBD9
:1019000087B58E5B87BDA99BFECF8091F8048823A5
:1019100009F4D0C138988FEF85BB87B58E5B87BD42
:1019200080EA8093FA041092F9041092F804A99BBB
:10193000FECF389A8FEF85BB87B58E5B87BD30E0D1
:1019400020E0E1E0F0E06FEF8091FA04AF01022EB9
:1019500001C0440F0A94EAF784238093F804882393
:1019600029F09091F9049F5F9093F904A99BFECF11
:10197000882309F4A1C1389865BB87B58E5B87BD04
:101980002F5F3F4F28303105F9F68091F90480FF31
:1019900095C181E08093F804A99BFECF8091F80463
:1019A000882309F48EC138988FEF85BB87B58E5B8D
:1019B00087BD81E08093F804A99BFECF38988FEF14
:1019C00085BB87B58E5B87BDA99BFECF8091F80450
:1019D000882309F478C138988FEF85BB87B58E5B73
:1019E00087BD8FE38093FA041092F9041092F804F3
:1019F000A99BFECF389A8FEF85BB87B58E5B87BDDD
:101A000030E020E0E1E0F0E06FEF8091FA04AF0118
:101A1000022E01C0440F0A94EAF784238093F8044D
:101A2000882329F09091F9049F5F9093F904A99B72
:101A3000FECF882309F449C1389865BB87B58E5B12
:101A400087BD2F5F3F4F28303105F9F68091F904AB
:101A500080FF3DC181E08093F804A99BFECF809177
:101A6000F804882309F436C138988FEF85BB87B511
:101A70008E5B87BD81E08093F804A99BFECF3898E8
:101A80008FEF85BB87B58E5B87BDA99BFECF80910D
:101A9000F804882309F420C138988FEF85BB87B5F7
:101AA0008E5B87BD15BC15BC16BC83B5816083BD3C
:101AB00081E085BD82E487BD85E58093FA041092BC
:101AC000F9041092F804A99BFECF389A8FEF85BBDA
:101AD00087B58E5B87BD30E020E0E1E0F0E06FEF9E
:101AE0008091FA04AF01022E01C0440F0A94EAF774
:101AF00084238093F804882329F09091F9049F5F50
:101B00009093F904A99BFECF882309F4E7C0389885
:101B100065BB87B58E5B87BD2F5F3F4F2830310592
:101B2000F9F68091F90480FFDBC081E08093F8042E
:101B3000A99BFECF8091F804882309F4D4C038987B
:101B40008FEF85BB87B58E5B87BD81E08093F804FE
:101B5000A99BFECF38988FEF85BB87B58E5B87BD7D
:101B6000A99BFECF8091F804882309F4BEC0389861
:101B70008FEF85BB87B58E5B87BD84E68093FA04C3
:101B80001092F9041092F804A99BFECF389A8FEFB7
:101B900085BB87B58E5B87BD30E020E0E1E0F0E0FB
:101BA0006FEF8091FA04AF01022E01C0440F0A9436
:101BB000EAF784238093F804882329F09091F904AC
:101BC0009F5F9093F904A99BFECF882309F48FC0EF
:101BD000389865BB87B58E5B87BD2F5F3F4F283038
:101BE0003105F9F68091F90480FF83C081E080938C
:101BF000F804A99BFECF8091F804882309F47CC0E7
:101C000038988FEF85BB87B58E5B87BD81E0809369
:101C1000F804A99BFECF38988FEF85BB87B58E5B04
:101C200087BDA99BFECF8091F804882309F466C084
:101C300038988FEF85BB87B58E5B87BD15BC8091CB
:101C4000DA048FBF0895389A37CC1092F80444CC48
:101C5000389A4ACC389A60CC389A8FCC1092F804D3
:101C60009CCC389AA2CC389AB8CC389AE6CC109250
:101C7000F804F3CC389AF9CC389A0FCD389A3DCD88
:101C80001092F8044ACD389A50CD389A66CD109209
:101C9000DB048ACD1092DB04AACD1092DB04C4CD04
:101CA0001092DB04CDCD389A06CE1092F80413CEF4
:101CB000389A19CE389A2FCE389A5ECE1092F80400
:101CC0006BCE389A71CE389A87CE389AB6CE1092AB
:101CD000F804C3CE389AC9CE389ADFCE389A18CFD6
:101CE0001092F80425CF389A2BCF389A41CF389AE2
:101CF00070CF1092F8047DCF389A83CF389A99CF5D
:101D00008091E3049091E4049093ED048093EC04BB
:101D10009C01207E3F713093E9042093E804AC01DC
:101D2000421B530B5093D8044093D7042091D704FF
:101D30003091D80487708093E50480E2821B809301
:101D4000E60408959091FB048091A0059817D1F3C3
:101D5000E091FB04F0E0EE0FFF1FE05EFA4F8081A0
:101D60008093E7049091FB049F5F9093FB04909114
:101D7000FB049F739093FB04282F87FF02C021E090
:101D8000280F25952093D9049091EF0490311CF4ED
:101D900091E09093EA049091EF049093E204809391
:101DA000EF049091FB048091A0059817D1F3E09186
:101DB000FB04F0E0EE0FFF1FE05EFA4F808191819F
:101DC0003091FB043F5F3093FB043091FB043F7381
:101DD0003093FB04969587959093E4048093E304F5
:101DE000AC0141505109420F511D27FD5A955093A6
:101DF000E1044093E0042091D6042093DF049C0189
:101E000027703327232B69F021E02093D6042091FB
:101E1000EC043091ED048217930711F41092EB0457
:101E200008951092D604F3CFEF92FF920F931F9371
:101E3000CF93DF9300D000D000D0CDB7DEB7972F7F
:101E4000E0E0E82E880FFF088E010F5F1F4F862FFE
:101E5000B7010E949E269B01D801AE0FB11D8C9345
:101E60008A303CF5805D8C93EF5F622F932F232B9C
:101E700071F7E43040F4D801AE0FB11D80E3EF5F9D
:101E80008D93E430E1F7E00FF12FF11D1082F8019E
:101E90007F01E01AF10A81918111FACFE00EF11E63
:101EA0000E151F0541F0F70182917F010E9453003A
:101EB000F7CF895CD8CF85E091E026960FB6F894ED
:101EC000DEBF0FBECDBFDF91CF911F910F91FF906D
:101ED000EF900C945A0093B5926093BD6093B2005A
:101EE0008093B100B89BFECFB89A1092B1000895CC
:101EF000880F991F9C0130588FB78093DA04F894AB
:101F000015BC16BC83B5816083BD81E085BD82E4CC
:101F100087BD85E58093FA041092F9041092F804C5
:101F2000A99BFECF389A8FEF85BB87B58E5B87BDA7
:101F300050E040E0A1E0B0E0EFEF9091FA04BD0185
:101F4000042E01C0660F0A94EAF796239093F804D2
:101F5000992329F08091F9048F5F8093F904A99B5C
:101F6000FECF992309F4EFC53898E5BB87B58E5BA2
:101F700087BD4F5F5F4F48305105F9F68091F904F6
:101F800080FFE3C581E08093F804A99BFECF809198
:101F9000F804882309F4DCC538988FEF85BB87B532
:101FA0008E5B87BD81E08093F804A99BFECF3898B3
:101FB0008FEF85BB87B58E5B87BDA99BFECF8091D8
:101FC000F804882309F4C6C538988FEF85BB87B518
:101FD0008E5B87BD85E48093FA041092F904109219
:101FE000F804A99BFECF389A8FEF85BB87B58E5B2F
:101FF00087BD50E040E0A1E0B0E0EFEF9091FA043F
:10200000BD01042E01C0660F0A94EAF7962390934F
:10201000F804992329F08091F9048F5F8093F904E3
:10202000A99BFECF992309F497C53898E5BB87B5DE
:102030008E5B87BD4F5F5F4F48305105F9F6809149
:10204000F90480FF8BC581E08093F804A99BFECF43
:102050008091F804882309F484C538988FEF85BBF4
:1020600087B58E5B87BD81E08093F804A99BFECF86
:1020700038988FEF85BB87B58E5B87BDA99BFECF58
:102080008091F804882309F46EC538988FEF85BBDA
:1020900087B58E5B87BD88E08093FA041092F904BF
:1020A0001092F804A99BFECF389A8FEF85BB87B5B5
:1020B0008E5B87BD50E040E0A1E0B0E0EFEF909193
:1020C000FA04BD01042E01C0660F0A94EAF79623B4
:1020D0009093F804992329F08091F9048F5F8093FD
:1020E000F904A99BFECF992309F43FC53898E5BBB5
:1020F00087B58E5B87BD4F5F5F4F48305105F9F65E
:102100008091F90480FF33C581E08093F804A99B96
:10211000FECF8091F804882309F42CC538988FEFFE
:1021200085BB87B58E5B87BD81E08093F804A99B52
:10213000FECF38988FEF85BB87B58E5B87BDA99B97
:10214000FECF8091F804882309F416C538988FEFE4
:1021500085BB87B58E5B87BD80E18093FA041092C2
:10216000F9041092F804A99BFECF389A8FEF85BB33
:1021700087B58E5B87BD50E040E0A1E0B0E0EFEFB7
:102180009091FA04BD01042E01C0660F0A94EAF78B
:1021900096239093F804992329F08091F9048F5F96
:1021A0008093F904A99BFECF992309F4E7C43898DA
:1021B000E5BB87B58E5B87BD4F5F5F4F48305105EC
:1021C000F9F68091F90480FFDBC481E08093F80484
:1021D000A99BFECF8091F804882309F4D4C43898D1
:1021E0008FEF85BB87B58E5B87BD81E08093F80458
:1021F000A99BFECF38988FEF85BB87B58E5B87BDD7
:10220000A99BFECF8091F804882309F4BEC43898B6
:102210008FEF85BB87B58E5B87BD1092DC04109273
:10222000F9043099FECF15BC16BC83B5816083BD1F
:1022300081E085BD81E287BDA99BFECF87B58E5B1E
:1022400087BD8FEF85BB90E080E0E1E05FEFA1E02C
:10225000B0E0A99BFECF309B9AC4E093DB0455BB52
:1022600047B54E5B47BD4091DB04442381F040916C
:10227000DC04BD01082E01C0660F0A94EAF7462B64
:102280004093DC044091F9044F5F4093F9040196B8
:1022900088309105F1F6A99BFECF309B7BC481E08D
:1022A0008093DB048FEF85BB87B58E5B87BD809104
:1022B000DB04882321F08091F90480FD09C080911E
:1022C000A5059091A60501969093A6058093A50576
:1022D000A99BFECF309B61C481E08093DB048FEF2C
:1022E00085BB87B58E5B87BDA99BFECF309B58C44D
:1022F00081E08093DB048FEF85BB87B58E5B87BD64
:1023000015BC16BC83B5816083BD81E085BD82E4C8
:1023100087BD2093FA041092F9041092F804A99B47
:10232000FECF389A8FEF85BB87B58E5B87BD50E0B7
:1023300040E0A1E0B0E0EFEF9091FA04BD01042E7F
:1023400001C0660F0A94EAF796239093F804992344
:1023500029F08091F9048F5F8093F904A99BFECF47
:10236000992309F420C43898E5BB87B58E5B87BDF7
:102370004F5F5F4F48305105F9F68091F90480FFB7
:1023800014C481E08093F804A99BFECF8091F804E7
:10239000882309F40DC438988FEF85BB87B58E5B11
:1023A00087BD81E08093F804A99BFECF38988FEF1A
:1023B00085BB87B58E5B87BDA99BFECF8091F80456
:1023C000882309F4F7C338988FEF85BB87B58E5BF8
:1023D00087BD3093FA041092F9041092F804A99B77
:1023E000FECF389A8FEF85BB87B58E5B87BD30E017
:1023F00020E0E1E0F0E06FEF8091FA04AF01022EFF
:1024000001C0440F0A94EAF784238093F8048823D8
:1024100029F09091F9049F5F9093F904A99BFECF56
:10242000882309F4C9C3389865BB87B58E5B87BD1F
:102430002F5F3F4F28303105F9F68091F90480FF76
:10244000BDC381E08093F804A99BFECF8091F8047E
:10245000882309F4B6C338988FEF85BB87B58E5BA8
:1024600087BD81E08093F804A99BFECF38988FEF59
:1024700085BB87B58E5B87BDA99BFECF8091F80495
:10248000882309F4A0C338988FEF85BB87B58E5B8E
:1024900087BD1092DC041092F9043099FECF15BC70
:1024A00016BC83B5816083BD81E085BD81E287BDB7
:1024B000A99BFECF87B58E5B87BD8FEF85BB90E074
:1024C00080E061E03FEFE1E0F0E0A99BFECF309BD0
:1024D0007CC36093DB0435BB27B52E5B27BD209101
:1024E000DB04222381F02091DC04AF01082E01C01F
:1024F000440F0A94EAF7242B2093DC042091F9047A
:102500002F5F2093F904019688309105F1F6A99B7D
:10251000FECF309B5DC381E08093DB048FEF85BBF2
:1025200087B58E5B87BD8091DB04882321F0809185
:10253000F90480FD09C08091A5059091A60501963A
:102540009093A6058093A505A99BFECF309B43C31E
:1025500081E08093DB048FEF85BB87B58E5B87BD01
:10256000A99BFECF309B3AC381E08093DB048FEFC1
:1025700085BB87B58E5B87BD15BC8AE20E94530080
:1025800015BC16BC83B5816083BD81E085BD82E446
:1025900087BD85E58093FA041092F9041092F8043F
:1025A000A99BFECF389A8FEF85BB87B58E5B87BD21
:1025B00030E020E0E1E0F0E06FEF8091FA04AF015D
:1025C000022E01C0440F0A94EAF784238093F80492
:1025D000882329F09091F9049F5F9093F904A99BB7
:1025E000FECF882309F4FDC2389865BB87B58E5BA2
:1025F00087BD2F5F3F4F28303105F9F68091F904F0
:1026000080FFF1C281E08093F804A99BFECF809106
:10261000F804882309F4EAC238988FEF85BB87B5A0
:102620008E5B87BD81E08093F804A99BFECF38982C
:102630008FEF85BB87B58E5B87BDA99BFECF809151
:10264000F804882309F4D4C238988FEF85BB87B586
:102650008E5B87BD84E48093FA041092F904109293
:10266000F804A99BFECF389A8FEF85BB87B58E5BA8
:1026700087BD30E020E0E1E0F0E06FEF8091FA0408
:10268000AF01022E01C0440F0A94EAF7842380931D
:10269000F804882329F09091F9049F5F9093F9043E
:1026A000A99BFECF882309F4A5C2389865BB87B5DE
:1026B0008E5B87BD2F5F3F4F28303105F9F6809143
:1026C000F90480FF99C281E08093F804A99BFECFB2
:1026D0008091F804882309F492C238988FEF85BB63
:1026E00087B58E5B87BD81E08093F804A99BFECF00
:1026F00038988FEF85BB87B58E5B87BDA99BFECFD2
:102700008091F804882309F47CC238988FEF85BB48
:1027100087B58E5B87BD1092FA041092F90410926F
:10272000F804A99BFECF389A8FEF85BB87B58E5BE7
:1027300087BD30E020E0E1E0F0E06FEF8091FA0447
:10274000AF01022E01C0440F0A94EAF7842380935C
:10275000F804882329F09091F9049F5F9093F9047D
:10276000A99BFECF882309F44EC2389865BB87B574
:102770008E5B87BD2F5F3F4F28303105F9F6809182
:10278000F90480FF42C281E08093F804A99BFECF48
:102790008091F804882309F43BC238988FEF85BBF9
:1027A00087B58E5B87BD81E08093F804A99BFECF3F
:1027B00038988FEF85BB87B58E5B87BDA99BFECF11
:1027C0008091F804882309F425C238988FEF85BBDF
:1027D00087B58E5B87BD80E18093FA041092F9047F
:1027E0001092F804A99BFECF389A8FEF85BB87B56E
:1027F0008E5B87BD30E020E0E1E0F0E06FEF80919C
:10280000FA04AF01022E01C0440F0A94EAF78423B0
:102810008093F804882329F09091F9049F5F9093A6
:10282000F904A99BFECF882309F4F6C1389865BB4B
:1028300087B58E5B87BD2F5F3F4F28303105F9F696
:102840008091F90480FFEAC181E08093F804A99B9C
:10285000FECF8091F804882309F4E3C138988FEF04
:1028600085BB87B58E5B87BD81E08093F804A99B0B
:10287000FECF38988FEF85BB87B58E5B87BDA99B50
:10288000FECF8091F804882309F4CDC138988FEFEA
:1028900085BB87B58E5B87BD1092DC041092F9046E
:1028A0003099FECF15BC16BC83B5816083BD81E035
:1028B00085BD81E287BDA99BFECF87B58E5B87BDB5
:1028C0008FEF85BB90E080E061E03FEFE1E0F0E07A
:1028D000A99BFECF309BA9C16093DB0435BB27B514
:1028E0002E5B27BD2091DB04222381F02091DC04A4
:1028F000AF01082E01C0440F0A94EAF7242B20935D
:10290000DC042091F9042F5F2093F90401968830AC
:102910009105F1F6A99BFECF309B8AC181E080939F
:10292000DB048FEF85BB87B58E5B87BD8091DB04B1
:10293000882321F08091F90480FD09C08091A505CC
:102940009091A60501969093A6058093A505A99B55
:10295000FECF309B70C181E08093DB048FEF85BB9D
:1029600087B58E5B87BDA99BFECF309B67C181E099
:102970008093DB048FEF85BB87B58E5B87BD15BC6D
:1029800016BC83B5816083BD81E085BD92E497BDAF
:102990008093FA041092F9041092F804A99BFECFD8
:1029A000389A8FEF85BB87B58E5B87BD30E020E01E
:1029B000E1E0F0E06FEF8091FA04AF01022E01C078
:1029C000440F0A94EAF784238093F804882329F0BB
:1029D0009091F9049F5F9093F904A99BFECF8823FF
:1029E00009F42FC1389865BB87B58E5B87BD2F5F13
:1029F0003F4F28303105F9F68091F90480FF23C15B
:102A000081E08093F804A99BFECF8091F80488238D
:102A100009F41CC138988FEF85BB87B58E5B87BDE5
:102A200081E08093F804A99BFECF38988FEF85BB97
:102A300087B58E5B87BDA99BFECF8091F804882364
:102A400009F406C138988FEF85BB87B58E5B87BDCB
:102A50001092DC041092F9043099FECF15BC16BC1C
:102A600083B5816083BD81E085BD81E287BDA99B7F
:102A7000FECF87B58E5B87BD8FEF85BB90E080E092
:102A800061E03FEFE1E0F0E0A99BFECF309BE2C0C8
:102A90006093DB0435BB27B52E5B27BD2091DB049B
:102AA000222381F02091DC04AF01082E01C0440FE5
:102AB0000A94EAF7242B2093DC042091F9042F5F79
:102AC0002093F904019688309105F1F6A99BFECF79
:102AD000309BC3C081E08093DB048FEF85BB87B55B
:102AE0008E5B87BD8091DB04882321F08091F904FF
:102AF00080FD09C08091A5059091A605019690934F
:102B0000A6058093A505A99BFECF309BA9C081E0B7
:102B10008093DB048FEF85BB87B58E5B87BDA99B58
:102B2000FECF309BA0C081E08093DB048FEF85BB9C
:102B300087B58E5B87BD15BC8091DA048FBF64E4D6
:102B400086E00C946B0F389A10CA1092F8041DCAD4
:102B5000389A23CA389A39CA389A68CA1092F8043F
:102B600075CA389A7BCA389A91CA389AC0CA1092E4
:102B7000F804CDCA389AD3CA389AE9CA389A18CB19
:102B80001092F80425CB389A2BCB389A41CB10926F
:102B9000DB0465CB1092DB0485CB1092DB049FCB6A
:102BA0001092DB04A8CB389ADFCB1092F804ECCB60
:102BB000389AF2CB389A08CC389A36CC1092F8046E
:102BC00043CC389A49CC389A5FCC1092DB0483CC42
:102BD0001092DB04A3CC1092DB04BDCC1092DB047A
:102BE000C6CC389A02CD1092F8040FCD389A15CD84
:102BF000389A2BCD389A5ACD1092F80467CD389A6E
:102C00006DCD389A83CD389AB1CD1092F804BECDEF
:102C1000389AC4CD389ADACD389A09CE1092F80491
:102C200016CE389A1CCE389A32CE1092DB0456CE8D
:102C30001092DB0476CE1092DB0490CE1092DB046F
:102C400099CE389AD0CE1092F804DDCE389AE3CEE1
:102C5000389AF9CE1092DB041DCF1092DB043DCFE1
:102C60001092DB0457CF1092DB0460CF0F931F93B9
:102C7000CF93DF93C1E0D0E28091D904882309F497
:102C80004CC08091D90481508093D904C093EE0444
:102C90000E9414088091D7049091D80401969093D3
:102CA000D8048093D7048091EC049091ED040196B0
:102CB0009093ED048093EC048091E604815080931E
:102CC000E6048091F4049091F50401969093F50444
:102CD0008093F4048091D7049091D804809761F692
:102CE0000091E8041091E904C8010E94780F109245
:102CF000EE041092D8041092D704D093E604809189
:102D0000E5048091E504882309F4B6CFC093EB0471
:102D1000C80180960E941F0AAFCFDF91CF911F910B
:102D20000F9108950F931F93CF938C01C62F85E5C4
:102D300090E00E94E70084E490E00E94E70088E0D1
:102D400090E10E94E70080E190E00E94E7000E948D
:102D50009F006EEC83E00E949700C8010E94E7008C
:102D60000E949F006EEC83E00E94970085E590E052
:102D70000E94E70084E490E00E94E70089E090E18F
:102D80000E94E70080E190E00E94E7000E949F001F
:102D90006EEC83E00E94970082E190E00E94E700E1
:102DA0000E949F006EEC83E00E94970085E590E012
:102DB0000E94E70084E490E00E94E70086E090E152
:102DC0000E94E70080E190E00E94E7000E949F00DF
:102DD0006EEC83E00E9497008C2F90E00E94E70049
:102DE0000E949F006EEC83E00E94970085E590E0D2
:102DF0000E94E70084E490E00E94E70080E090E118
:102E00000E94E70080E190E00E94E7000E949F009E
:102E10006EEC83E00E94970087E090E00E94E7005C
:102E20000E949F0062EB85E0CF911F910F910C945F
:102E30009700A89584B7877F84BF809160008861E0
:102E4000809360001092600080917C008064809389
:102E50007C0085B78F7E85BF14B817B81AB88FEF7E
:102E600085B99EEF98B98BB962EB85E00E94970017
:102E70001092C1001092C50084E48093C40082E0E7
:102E80008093C00088E18093C10086E08093C200F7
:102E90001092A6051092A50580E091E00E945A00CC
:102EA0008AEF90E00E946F008823B1F38091C60002
:102EB0008F7D823589F787E591E00E945A0087E08F
:102EC00091E00E945A008AE591E00E945A000E9417
:102ED0007E0066E676EE84E00E9489007894309B5E
:102EE00061C0389A00000000000000003898309B54
:102EF000FECF6CE983E00E94970085E590E00E9498
:102F0000E70089EC90E00E94E7008DEF90E00E94DE
:102F1000E7006EEC83E00E94970085E590E00E9458
:102F2000E70082EC90E00E94E70086E490E00E94D7
:102F3000E7006EEC83E00E94970085E590E00E9438
:102F4000E70085EE90E00E94E700309B04C080918E
:102F5000A3058823D1F38091A30581111AC00E9493
:102F60009F008093FC04CDEFD4E00CEF14E06CE004
:102F7000E62E65E0F62E0E949F008993EC16FD0672
:102F8000D1F7F80181918F010E945300C017D1073A
:102F9000C1F78091A305882351F08BE891E00E944E
:102FA0005A00FFCF85E791E00E945A00FFCFF894C6
:102FB0001092810080916F008E7F80936F0082EA73
:102FC00091E00E945A0081EC91E00E945A000E9418
:102FD0007E00893509F0D7C086ED91E00E945A0045
:102FE00086EE91E00E942A0185E590E00E94E700CC
:102FF00087E890E00E94E7000E949F0083FD04C0E4
:1030000089EF91E00E945A006EEC83E00E949700E5
:1030100085E590E00E94E70088EC90E00E94E700E0
:1030200089E590E00E94E7006EEC83E00E94970043
:1030300085E590E00E94E70088EC90E00E94E700C0
:1030400090E080E00E94E7006EEC83E00E94970031
:103050001092A30570E060E084E00E9489007894FB
:103060006EEC83E00E94970085E590E00E94E70007
:103070008BE890E00E94E7000E949F002091DD0411
:103080003091DE042F5F3F4F3093DE042093DD0448
:103090009091A305911102C080FDE2CFF894809138
:1030A000A305882309F46CC08DE092E00E945A00C9
:1030B0000E94850085E592E00E942A0185E590E066
:1030C0000E94E70087E890E00E94E7000E949F00CE
:1030D0006EEC83E00E94970085E590E00E94E70097
:1030E00088EC90E00E94E70089E590E00E94E7000C
:1030F0006EEC83E00E94970085E590E00E94E70077
:1031000088EC90E00E94E70090E080E00E94E700F9
:103110006EEC83E00E9497001092A30570E060E0DF
:1031200084E00E94890078946EEC83E00E9497000E
:1031300085E590E00E94E7008BE890E00E94E700C0
:103140000E949F002091DD043091DE042F5F3F4FED
:103150003093DE042093DD049091A305911102C009
:1031600083FFE2CFF8948091A305882379F088E665
:1031700092E00E945A008BE792E00E945A00FFCF33
:103180008DE292E093CF82E492E090CF8DE892E0DE
:103190000E945A0088EA92E00E945A00C0E0D1E101
:1031A00085E590E00E94E70084E090E00E94E7005F
:1031B000CE010E94E70081E190E00E94E7000E94BA
:1031C0009F00682F70E080E10E94140F6EEC83E096
:1031D0000E9497002196C330F1E1DF0709F70E94B2
:1031E000850083EC92E00E945A0060E080E892E162
:1031F0000E94921660E081E892E10E9492166EE7CA
:1032000082E892E10E94921667EF85E892E10E94BF
:1032100092166DEF86E892E10E94921668E387E8C5
:1032200092E10E94921660E088E892E10E94921674
:1032300087ED92E00E945A000E947E00893509F0D5
:10324000EBC788E480931F0588EF92E00E945A0044
:103250001092F5041092F4041092150510921405C2
:1032600080E18093EF041092EE041092ED0410922E
:10327000EC041092EB041092A0051092FB04109243
:10328000EA0410921D0510921C058091C10080680F
:103290008093C10078940E94A20E0E94800E8091BB
:1032A000E8049091E9040E941F0A0E943616C0E2C9
:1032B000D0E00E94A20E8091E704882361F1809102
:1032C000EA04882329F0813009F10E943616F1CFF3
:1032D0008091E5042091E604AE01481B510987FD69
:1032E00053952417150689F72091E3043091E404DF
:1032F000C901807E9F719093E9048093E8042F7147
:103300003327232B11F70E941F0ADFCF0E94800E64
:103310001092EA04DACFF8948091C1008F778093FD
:10332000C1008AE090E00E946F00813019F4809122
:10333000C600F7CF8091E20480FF27C0E091A0058E
:10334000F0E0EE0FFF1FE05EFA4F118210828091D5
:10335000A0058F5F8093A0050E9414088091F4045B
:103360009091F50401969093F5048093F40421E084
:103370002093EE048091E0049091E10401968F7116
:103380009927892B11F02093EB048091DF04882387
:1033900009F470C58091EE048111C6C18091EB04DF
:1033A000882309F4C1C115BC16BC83B5816083BDF7
:1033B00081E085BD82E487BD85E58093FA041092A3
:1033C000F9041092F804A99BFECF389A8FEF85BBC1
:1033D00087B58E5B87BD30E020E0E1E0F0E06FEF85
:1033E0008091FA04AF01022E01C0440F0A94EAF75B
:1033F00084238093F804882329F09091F9049F5F37
:103400009093F904A99BFECF882309F453C73898F9
:1034100065BB87B58E5B87BD2F5F3F4F2830310579
:10342000F9F68091F90480FF47C71092F804A99B30
:10343000FECF8091F804882309F442C738988FEFB3
:1034400085BB87B58E5B87BD81E08093F804A99B1F
:10345000FECF38988FEF85BB87B58E5B87BDA99B64
:10346000FECF8091F804882309F42CC738988FEF99
:1034700085BB87B58E5B87BD1092F8048CE090E029
:103480003FEFA99BFECF2091F804222309F41CC72B
:10349000389835BB27B52E5B27BD019791F781E0A2
:1034A0008093F804A99BFECF38988FEF85BB87B532
:1034B0008E5B87BDA99BFECF8091F804882309F419
:1034C00005C738988FEF85BB87B58E5B87BD15BC68
:1034D00016BC83B5816083BD81E085BD82E487BD74
:1034E00085E58093FA041092F9041092F804A99BE0
:1034F000FECF389A8FEF85BB87B58E5B87BD30E0F6
:1035000020E0E1E0F0E06FEF8091FA04AF01022EDD
:1035100001C0440F0A94EAF784238093F8048823B7
:1035200029F09091F9049F5F9093F904A99BFECF35
:10353000882309F4CDC6389865BB87B58E5B87BDF7
:103540002F5F3F4F28303105F9F68091F90480FF55
:10355000C1C681E08093F804A99BFECF8091F80456
:10356000882309F4BAC638988FEF85BB87B58E5B80
:1035700087BD81E08093F804A99BFECF38988FEF38
:1035800085BB87B58E5B87BDA99BFECF8091F80474
:10359000882309F4A4C638988FEF85BB87B58E5B66
:1035A00087BD89EC8093FA041092F9041092F80414
:1035B000A99BFECF389A8FEF85BB87B58E5B87BD01
:1035C00030E020E0E1E0F0E06FEF8091FA04AF013D
:1035D000022E01C0440F0A94EAF784238093F80472
:1035E000882329F09091F9049F5F9093F904A99B97
:1035F000FECF882309F475C6389865BB87B58E5B06
:1036000087BD2F5F3F4F28303105F9F68091F904CF
:1036100080FF69C681E08093F804A99BFECF80916A
:10362000F804882309F462C638988FEF85BB87B504
:103630008E5B87BD81E08093F804A99BFECF38980C
:103640008FEF85BB87B58E5B87BDA99BFECF809131
:10365000F804882309F44CC638988FEF85BB87B5EA
:103660008E5B87BD81E08093FA041092F90410927A
:10367000F804A99BFECF389A8FEF85BB87B58E5B88
:1036800087BD30E020E0E1E0F0E06FEF8091FA04E8
:10369000AF01022E01C0440F0A94EAF784238093FD
:1036A000F804882329F09091F9049F5F9093F9041E
:1036B000A99BFECF882309F41DC6389865BB87B542
:1036C0008E5B87BD2F5F3F4F28303105F9F6809123
:1036D000F90480FF11C681E08093F804A99BFECF16
:1036E0008091F804882309F40AC638988FEF85BBC7
:1036F00087B58E5B87BD81E08093F804A99BFECFE0
:1037000038988FEF85BB87B58E5B87BDA99BFECFB1
:103710008091F804882309F4F4C538988FEF85BBAD
:1037200087B58E5B87BD15BC8091EE04882309F4B4
:10373000CFC18091EB04882309F4CAC115BC16BC23
:1037400083B5816083BD81E085BD82E487BD85E569
:103750008093FA041092F9041092F804A99BFECF0A
:10376000389A8FEF85BB87B58E5B87BD30E020E050
:10377000E1E0F0E06FEF8091FA04AF01022E01C0AA
:10378000440F0A94EAF784238093F804882329F0ED
:103790009091F9049F5F9093F904A99BFECF882331
:1037A00009F4B1C5389865BB87B58E5B87BD2F5FBF
:1037B0003F4F28303105F9F68091F90480FFA5C507
:1037C0001092F804A99BFECF8091F804882309F495
:1037D000A0C538988FEF85BB87B58E5B87BD81E02C
:1037E0008093F804A99BFECF38988FEF85BB87B5EF
:1037F0008E5B87BDA99BFECF8091F804882309F4D6
:103800008AC538988FEF85BB87B58E5B87BD1092D0
:10381000F8048CE090E03FEFA99BFECF2091F804E4
:10382000222309F47AC5389835BB27B52E5B27BD0E
:10383000019791F781E08093F804A99BFECF389817
:103840008FEF85BB87B58E5B87BDA99BFECF80912F
:10385000F804882309F463C538988FEF85BB87B5D2
:103860008E5B87BD15BC16BC83B5816083BD81E0CE
:1038700085BD82E487BD85E58093FA041092F90442
:103880001092F804A99BFECF389A8FEF85BB87B5BD
:103890008E5B87BD30E020E0E1E0F0E06FEF8091EB
:1038A000FA04AF01022E01C0440F0A94EAF7842300
:1038B0008093F804882329F09091F9049F5F9093F6
:1038C000F904A99BFECF882309F42BC5389865BB62
:1038D00087B58E5B87BD2F5F3F4F28303105F9F6E6
:1038E0008091F90480FF1FC581E08093F804A99BB3
:1038F000FECF8091F804882309F418C538988FEF1B
:1039000085BB87B58E5B87BD81E08093F804A99B5A
:10391000FECF38988FEF85BB87B58E5B87BDA99B9F
:10392000FECF8091F804882309F402C538988FEF00
:1039300085BB87B58E5B87BD89EC8093FA041092B6
:10394000F9041092F804A99BFECF389A8FEF85BB3B
:1039500087B58E5B87BD30E020E0E1E0F0E06FEFFF
:103960008091FA04AF01022E01C0440F0A94EAF7D5
:1039700084238093F804882329F09091F9049F5FB1
:103980009093F904A99BFECF882309F4D3C43898F7
:1039900065BB87B58E5B87BD2F5F3F4F28303105F4
:1039A000F9F68091F90480FFC7C481E08093F804A0
:1039B000A99BFECF8091F804882309F4C0C43898ED
:1039C0008FEF85BB87B58E5B87BD81E08093F80460
:1039D000A99BFECF38988FEF85BB87B58E5B87BDDF
:1039E000A99BFECF8091F804882309F4AAC43898D3
:1039F0008FEF85BB87B58E5B87BD81E08093FA042E
:103A00001092F9041092F804A99BFECF389A8FEF18
:103A100085BB87B58E5B87BD30E020E0E1E0F0E05C
:103A20006FEF8091FA04AF01022E01C0440F0A9497
:103A3000EAF784238093F804882329F09091F9040D
:103A40009F5F9093F904A99BFECF882309F47BC460
:103A5000389865BB87B58E5B87BD2F5F3F4F283099
:103A60003105F9F68091F90480FF6FC481E08093FD
:103A7000F804A99BFECF8091F804882309F468C458
:103A800038988FEF85BB87B58E5B87BD81E08093CB
:103A9000F804A99BFECF38988FEF85BB87B58E5B66
:103AA00087BDA99BFECF8091F804882309F452C4F6
:103AB00038988FEF85BB87B58E5B87BD15BC80912D
:103AC000E8049091E90480960E94780F1092EE0429
:103AD0008091EE04882309F4CDC18091EB0481111B
:103AE000C9C115BC16BC83B5816083BD81E085BDAD
:103AF00082E487BD85E58093FA041092F904109260
:103B0000F804A99BFECF389A8FEF85BB87B58E5BF3
:103B100087BD30E020E0E1E0F0E06FEF8091FA0453
:103B2000AF01022E01C0440F0A94EAF78423809368
:103B3000F804882329F09091F9049F5F9093F90489
:103B4000A99BFECF882309F407C4389865BB87B5C5
:103B50008E5B87BD2F5F3F4F28303105F9F680918E
:103B6000F90480FFFBC31092F804A99BFECF80915B
:103B7000F804882309F4F6C338988FEF85BB87B51E
:103B80008E5B87BD81E08093F804A99BFECF3898B7
:103B90008FEF85BB87B58E5B87BDA99BFECF8091DC
:103BA000F804882309F4E0C338988FEF85BB87B504
:103BB0008E5B87BD1092F8048CE090E03FEFA99BEC
:103BC000FECF2091F804222309F4D0C3389835BBE6
:103BD00027B52E5B27BD019791F781E08093F8040C
:103BE000A99BFECF38988FEF85BB87B58E5B87BDCD
:103BF000A99BFECF8091F804882309F4B9C33898B3
:103C00008FEF85BB87B58E5B87BD15BC16BC83B5B2
:103C1000816083BD81E085BD82E487BD85E58093B9
:103C2000FA041092F9041092F804A99BFECF389A76
:103C30008FEF85BB87B58E5B87BD30E020E0E1E08C
:103C4000F0E06FEF8091FA04AF01022E01C0440F43
:103C50000A94EAF784238093F804882329F090914A
:103C6000F9049F5F9093F904A99BFECF882309F480
:103C700081C3389865BB87B58E5B87BD2F5F3F4F8B
:103C800028303105F9F68091F90480FF75C381E091
:103C90008093F804A99BFECF8091F804882309F44F
:103CA0006EC338988FEF85BB87B58E5B87BD81E08B
:103CB0008093F804A99BFECF38988FEF85BB87B51A
:103CC0008E5B87BDA99BFECF8091F804882309F401
:103CD00058C338988FEF85BB87B58E5B87BD89EC5D
:103CE0008093FA041092F9041092F804A99BFECF75
:103CF000389A8FEF85BB87B58E5B87BD30E020E0BB
:103D0000E1E0F0E06FEF8091FA04AF01022E01C014
:103D1000440F0A94EAF784238093F804882329F057
:103D20009091F9049F5F9093F904A99BFECF88239B
:103D300009F429C3389865BB87B58E5B87BD2F5FB3
:103D40003F4F28303105F9F68091F90480FF1DC3FB
:103D500081E08093F804A99BFECF8091F80488232A
:103D600009F416C338988FEF85BB87B58E5B87BD86
:103D700081E08093F804A99BFECF38988FEF85BB34
:103D800087B58E5B87BDA99BFECF8091F804882301
:103D900009F400C338988FEF85BB87B58E5B87BD6C
:103DA00081E08093FA041092F9041092F804A99B20
:103DB000FECF389A8FEF85BB87B58E5B87BD30E02D
:103DC00020E0E1E0F0E06FEF8091FA04AF01022E15
:103DD00001C0440F0A94EAF784238093F8048823EF
:103DE00029F09091F9049F5F9093F904A99BFECF6D
:103DF000882309F4D1C2389865BB87B58E5B87BD2F
:103E00002F5F3F4F28303105F9F68091F90480FF8C
:103E1000C5C281E08093F804A99BFECF8091F8048D
:103E2000882309F4BEC238988FEF85BB87B58E5BB7
:103E300087BD81E08093F804A99BFECF38988FEF6F
:103E400085BB87B58E5B87BDA99BFECF8091F804AB
:103E5000882309F4A8C238988FEF85BB87B58E5B9D
:103E600087BD15BC8091E8049091E9040E94780F09
:103E70001092EE048091DF048111CEC18091EE0496
:103E8000882309F4C9C115BC16BC83B5816083BD04
:103E900081E085BD82E487BD85E58093FA041092B8
:103EA000F9041092F804A99BFECF389A8FEF85BBD6
:103EB00087B58E5B87BD30E020E0E1E0F0E06FEF9A
:103EC0008091FA04AF01022E01C0440F0A94EAF770
:103ED00084238093F804882329F09091F9049F5F4C
:103EE0009093F904A99BFECF882309F45EC2389809
:103EF00065BB87B58E5B87BD2F5F3F4F283031058F
:103F0000F9F68091F90480FF52C21092F804A99B3F
:103F1000FECF8091F804882309F44DC238988FEFC2
:103F200085BB87B58E5B87BD81E08093F804A99B34
:103F3000FECF38988FEF85BB87B58E5B87BDA99B79
:103F4000FECF8091F804882309F437C238988FEFA8
:103F500085BB87B58E5B87BD1092F8048CE090E03E
:103F60003FEFA99BFECF2091F804222309F427C23A
:103F7000389835BB27B52E5B27BD019791F781E0B7
:103F80008093F804A99BFECF38988FEF85BB87B547
:103F90008E5B87BDA99BFECF8091F804882309F42E
:103FA00010C238988FEF85BB87B58E5B87BD15BC77
:103FB00016BC83B5816083BD81E085BD82E487BD89
:103FC00085E58093FA041092F9041092F804A99BF5
:103FD000FECF389A8FEF85BB87B58E5B87BD30E00B
:103FE00020E0E1E0F0E06FEF8091FA04AF01022EF3
:103FF00001C0440F0A94EAF784238093F8048823CD
:1040000029F09091F9049F5F9093F904A99BFECF4A
:10401000882309F4D8C1389865BB87B58E5B87BD06
:104020002F5F3F4F28303105F9F68091F90480FF6A
:10403000CCC181E08093F804A99BFECF8091F80465
:10404000882309F4C5C138988FEF85BB87B58E5B8F
:1040500087BD81E08093F804A99BFECF38988FEF4D
:1040600085BB87B58E5B87BDA99BFECF8091F80489
:10407000882309F4AFC138988FEF85BB87B58E5B75
:1040800087BD89EC8093FA041092F9041092F80429
:10409000A99BFECF389A8FEF85BB87B58E5B87BD16
:1040A00030E020E0E1E0F0E06FEF8091FA04AF0152
:1040B000022E01C0440F0A94EAF784238093F80487
:1040C000882329F09091F9049F5F9093F904A99BAC
:1040D000FECF882309F480C1389865BB87B58E5B15
:1040E00087BD2F5F3F4F28303105F9F68091F904E5
:1040F00080FF74C181E08093F804A99BFECF80917A
:10410000F804882309F46DC138988FEF85BB87B513
:104110008E5B87BD81E08093F804A99BFECF389821
:104120008FEF85BB87B58E5B87BDA99BFECF809146
:10413000F804882309F457C138988FEF85BB87B5F9
:104140008E5B87BD81E08093FA041092F90410928F
:10415000F804A99BFECF389A8FEF85BB87B58E5B9D
:1041600087BD30E020E0E1E0F0E06FEF8091FA04FD
:10417000AF01022E01C0440F0A94EAF78423809312
:10418000F804882329F09091F9049F5F9093F90433
:10419000A99BFECF882309F428C1389865BB87B551
:1041A0008E5B87BD2F5F3F4F28303105F9F6809138
:1041B000F90480FF1CC181E08093F804A99BFECF25
:1041C0008091F804882309F415C138988FEF85BBD6
:1041D00087B58E5B87BD81E08093F804A99BFECFF5
:1041E00038988FEF85BB87B58E5B87BDA99BFECFC7
:1041F0008091F804882309F4FFC038988FEF85BBBD
:1042000087B58E5B87BD15BC8091E8049091E90469
:104210000E94780F1092EE0486E093E00E945A000C
:104220000E947E008091F4049091F504892B31F472
:1042300080E090E49093F5048093F40488E293E0A6
:104240000E945A000E947E00D82F803309F030C1AE
:104250001092F3041092F204E090F404F090F5044C
:1042600085E493E00E945A000E947E00182F80E8A7
:1042700080938500109284008FEF86BB84E080934A
:104280008100B09BFECFB09A1092810081E090E057
:104290000E946F00882321F08091C600D12F182F33
:1042A00085E090E00E946F00813009F0A7C0809106
:1042B000C600F6CF389AACC881E08093F804B7C83E
:1042C000389ABDC8389AD3C8389AE3C8389AFAC819
:1042D000389A32C91092F8043FC9389A45C9389AB9
:1042E0005BC9389A8AC91092F80497C9389A9DC94F
:1042F000389AB3C9389AE2C91092F804EFC9389ACB
:10430000F5C9389A0BCA389A4ECA81E08093F804EE
:1043100059CA389A5FCA389A75CA389A85CA389A7B
:104320009CCA389AD4CA1092F804E1CA389AE7CAEB
:10433000389AFDCA389A2CCB1092F80439CB389AA7
:104340003FCB389A55CB389A84CB1092F80491CB56
:10435000389A97CB389AADCB389AF8CB81E08093D6
:10436000F80403CC389A09CC389A1FCC389A2FCC51
:10437000389A46CC389A7ECC1092F8048BCC389A76
:1043800091CC389AA7CC389AD6CC1092F804E3CCCA
:10439000389AE9CC389AFFCC389A2ECD1092F8048E
:1043A0003BCD389A41CD389A57CD389AA1CD81E08E
:1043B0008093F804ACCD389AB2CD389AC8CD389AEB
:1043C000D8CD389AEFCD389A27CE1092F80434CE53
:1043D000389A3ACE389A50CE389A7FCE1092F80456
:1043E0008CCE389A92CE389AA8CE389AD7CE1092E0
:1043F000F804E4CE389AEACE389A00CF86EC8D0FD6
:10440000873008F405C1C0EDCD0FC73108F000C1F9
:1044100086EC810F873008F4FBC080ED810F873177
:1044200008F0F6C0C13110F0C9ECCD0F50E1C50263
:10443000E0011124813110F089EC810FC80FD11DEA
:1044400087FDDA95BE0180E10E94140F83E091E0C0
:104450000E945A0088248394912C00E010E8712C6B
:10446000612C45E0442E512C540191E0A91AB10869
:10447000E114F10409F0CFC00E94850086E593E0C5
:104480000E945A006091F4047091F5048AE00E9441
:10449000140F89E693E00E945A006091F204709133
:1044A000F3048AE00E94140F80E793E00E945A0010
:1044B00089E793E00E945A00CDEFDFEFC230D105CB
:1044C00010F185E590E00E94E70084E090E00E9412
:1044D000E700CE018D579D4E0E94E70082E190E0FB
:1044E0000E94E7000E949F00682F70E080E10E9418
:1044F000140FC230D10519F489E00E9453006EEC0C
:1045000083E00E9497002196C630D105B9F68EEA65
:1045100093E00E945A000E947E00893509F08DC305
:1045200084E580931F051092A20583E08093A10586
:1045300010921D0510921C0580E380931E051092B9
:10454000FB041092A00582ED93E00E945A008FE3D5
:104550009CE90197F1F700C0000081E08093C5005D
:1045600080EA8093C4000E947E008237E1F78FEFDB
:1045700093E00E945A008091C10080688093C1003E
:10458000789481E08093A40560EB7CE382E00E9454
:10459000890080E09CE10E941F0AC0E0E12C2CE130
:1045A000F22E0E941408E091FB04F0E0EE0FFF1FD2
:1045B000E05EFA4F1182108287010F5F1F4FCF5FBD
:1045C0008091A105833029F08091A10581508093CD
:1045D000A105C03241F4C7014F970E94780FC8016E
:1045E0000E941F0AC0E08091A10578018111D9CFF6
:1045F000F8948091C1008F778093C1008AE090E0A9
:104600000E946F00813009F086C08091C600F6CF0D
:10461000D0E0C0E017CF6801E0E8CE0ED11CC801A1
:104620000E94A2031C019093F1048093F0040E5F9A
:104630001F4F0115F0E21F0709F41ECF019609F084
:1046400059C30C151D0559F717CFB2010E94B226A8
:10465000892B19F48AE20E9453008091F204909110
:10466000F30401969093F3048093F204670181E0D0
:10467000C81AD10898E0E91AF10862EB87E00E94B5
:104680006B0FC8010E94A2039C019093F1048093D8
:10469000F0040E5F1F4F019619F1F1E0CF1AD10817
:1046A000209751F0C501BE010E94B226892B21F44A
:1046B000B90180E10E94140F8091F2049091F304FB
:1046C00001969093F3048093F204011540E21407DD
:1046D00009F430C3CE14DF0481F6209719F416C014
:1046E000209779F0C501BE010E94B226892B49F4BA
:1046F000C30187709927892B21F487E591E00E94F7
:104700005A00011550E2150709F4B6CE8FEF881A4A
:10471000980A7601A9CE15BC16BC83B5816083BD0D
:1047200081E085BD82E487BD85E58093FA0410921F
:10473000F9041092F804A99BFECF389A8FEF85BB3D
:1047400087B58E5B87BD30E020E0E1E0F0E06FEF01
:104750008091FA04AF01022E01C0440F0A94EAF7D7
:1047600084238093F804882329F09091F9049F5FB3
:104770009093F904A99BFECF882309F409C23898C5
:1047800065BB87B58E5B87BD2F5F3F4F28303105F6
:10479000F9F68091F90480FFFDC11092F804A99BFD
:1047A000FECF8091F804882309F4F8C138988FEF80
:1047B00085BB87B58E5B87BD81E08093F804A99B9C
:1047C000FECF38988FEF85BB87B58E5B87BDA99BE1
:1047D000FECF8091F804882309F4E2C138988FEF66
:1047E00085BB87B58E5B87BD1092F8048CE090E0A6
:1047F0003FEFA99BFECF2091F804222309F4D2C1F8
:10480000389835BB27B52E5B27BD019791F781E01E
:104810008093F804A99BFECF38988FEF85BB87B5AE
:104820008E5B87BDA99BFECF8091F804882309F495
:10483000BBC138988FEF85BB87B58E5B87BD15BC34
:1048400016BC83B5816083BD81E085BD82E487BDF0
:1048500085E58093FA041092F9041092F804A99B5C
:10486000FECF389A8FEF85BB87B58E5B87BD30E072
:1048700020E0E1E0F0E06FEF8091FA04AF01022E5A
:1048800001C0440F0A94EAF784238093F804882334
:1048900029F09091F9049F5F9093F904A99BFECFB2
:1048A000882309F483C1389865BB87B58E5B87BDC3
:1048B0002F5F3F4F28303105F9F68091F90480FFD2
:1048C00077C181E08093F804A99BFECF8091F80422
:1048D000882309F470C138988FEF85BB87B58E5B4C
:1048E00087BD81E08093F804A99BFECF38988FEFB5
:1048F00085BB87B58E5B87BDA99BFECF8091F804F1
:10490000882309F45AC138988FEF85BB87B58E5B31
:1049100087BD89EC8093FA041092F9041092F80490
:10492000A99BFECF389A8FEF85BB87B58E5B87BD7D
:1049300030E020E0E1E0F0E06FEF8091FA04AF01B9
:10494000022E01C0440F0A94EAF784238093F804EE
:10495000882329F09091F9049F5F9093F904A99B13
:10496000FECF882309F42BC1389865BB87B58E5BD1
:1049700087BD2F5F3F4F28303105F9F68091F9044C
:1049800080FF1FC181E08093F804A99BFECF809136
:10499000F804882309F418C138988FEF85BB87B5D0
:1049A0008E5B87BD81E08093F804A99BFECF389889
:1049B0008FEF85BB87B58E5B87BDA99BFECF8091AE
:1049C000F804882309F402C138988FEF85BB87B5B6
:1049D0008E5B87BD81E08093FA041092F9041092F7
:1049E000F804A99BFECF389A8FEF85BB87B58E5B05
:1049F00087BD30E020E0E1E0F0E06FEF8091FA0465
:104A0000AF01022E01C0440F0A94EAF78423809379
:104A1000F804882329F09091F9049F5F9093F9049A
:104A2000A99BFECF882309F4D3C0389865BB87B50E
:104A30008E5B87BD2F5F3F4F28303105F9F680919F
:104A4000F90480FFC7C081E08093F804A99BFECFE2
:104A50008091F804882309F4C0C038988FEF85BB93
:104A600087B58E5B87BD81E08093F804A99BFECF5C
:104A700038988FEF85BB87B58E5B87BDA99BFECF2E
:104A80008091F804882309F4AAC038988FEF85BB79
:104A900087B58E5B87BD15BCCC2329F0C8018C1B64
:104AA00091090E94780F8091F6049091F704019784
:104AB0009093F7048093F6048AE094E00E945A00F1
:104AC00060E070E2601B710B660F771F8AE00E9446
:104AD000140F80E294E00E945A0089E294E00E9460
:104AE0005A00EFE3FCE93197F1F700C0000084E4DD
:104AF0008093C4001092C5000E947E008237E1F7C7
:104B000088E594E00E945A0060E078EB80E10E9422
:104B1000140F0E94850061E070E080E10E94140F94
:104B200089E00E945300C0E0D2E000E018EBC80129
:104B30000E94A203F82EFFEF8F1709F47EC064E6EF
:104B400087E00E946B0FC8010E94A203E92EFF209C
:104B500009F44BC0CF5F40E2F41243C0CB3508F4F8
:104B600040C08AEA93E00E945A00C0E0EE2009F4B7
:104B700052C0CF5F50E2E5124AC0CB3508F447C0BF
:104B80008AEA93E00E945A00C0E00E5F1F4FCFCF29
:104B9000389AF6CD81E08093F80401CE389A07CE9A
:104BA000389A1DCE389A2DCE389A44CE389A7CCE7B
:104BB0001092F80489CE389A8FCE389AA5CE389ABA
:104BC000D4CE1092F804E1CE389AE7CE389AFDCED2
:104BD000389A2CCF1092F80439CF389A3FCF389AB0
:104BE00055CF8F2D0E945300C1CF0E9485000E9497
:104BF0008500FF24F394FD0E6D2F70E08AE00E9483
:104C0000140F89E00E945300C0E0DF2DAFCF8E2D3E
:104C10000E945300BACF0E9485000E948500FF24A5
:104C2000F394FD0E6D2F70E08AE00E94140F89E06E
:104C30000E945300C0E0DF2DA8CF8AE694E00E94D6
:104C40005A0065EC8AE892E10E9492168FE794E0A0
:104C50000E945A000E947E00893509F048C060E039
:104C60008AE892E10E94921689E994E00E945A0033
:104C70006EEC83E00E94970085E590E00E94E700DB
:104C800088EC90E00E94E70089E590E00E94E70050
:104C90006EEC83E00E94970085E590E00E94E700BB
:104CA00088EC90E00E94E70090E080E00E94E7003E
:104CB0006EEC83E00E9497008FEB94E00E945A0014
:104CC00085E590E00E94E70083EC90E00E94E70019
:104CD00087EE90E00E94E70088E199E00FB6F89433
:104CE000A895809360000FBE90936000FFCF8BEA81
:104CF00094E0BCCFC501209709F4A7CCBE010E9467
:104D0000B226892B09F0A9CC87E793E00E945A00CC
:104D1000B8016250704880E10E94140F85E091E074
:104D20000E945A005FEF651A750AB10180E10E9486
:104D3000140F93CC209709F0D5CC9ECBAA1BBB1B9C
:104D400051E107C0AA1FBB1FA617B70710F0A61B8B
:104D5000B70B881F991F5A95A9F780959095BC01AC
:104D6000CD01089597FB072E16F4009407D077FD28
:104D700009D00E949E2607FC05D03EF490958195AF
:104D80009F4F0895709561957F4F0895EE0FFF1F17
:104D90000590F491E02D0994F894FFCF523F202024
:104DA0002020000D0A555044492070726F677261CF
:104DB0006D65723A20554E4F5F555044495F4950DA
:104DC0005F56382028616C736F20776F726B732089
:104DD0006F6E20616E2041746D65676120333238DB
:104DE00020636C6F636B656420617420384D487A72
:104DF000290D0A0D0A00507265737320616E7920C7
:104E00006B657920746F2073746172740D0A0D0ADA
:104E100000446576696365206E6F7420646574650F
:104E2000637465640D0A00506F776572204379637F
:104E30006C652052657175697265640D0A000D0A12
:104E4000496E697469616C6973696E67204E564D6D
:104E50002070726F6772616D6D696E67000D0A4533
:104E60007261736520636869703F2059206F7220FA
:104E70004E000945726173696E6720636869700D41
:104E80000A003078344535363444343537323631DB
:104E900037333635000D0A436869702065726173D7
:104EA00065206661696C6564000D0A4661696C7510
:104EB00072653A20446576696365207374696C6C29
:104EC000206C6F636B656409000D0A446576696345
:104ED0006520756E6C6F636B656409090900094391
:104EE000686970206E6F74206572617365640D0A65
:104EF000003078344535363444353037323646362E
:104F0000373230004E564D50524F47206661696C23
:104F10007572653A2009000D0A504F5220746F20B7
:104F200070726F6365656421005265616479206603
:104F30006F72204E564D2070726F6772616D6D6991
:104F40006E6709000D0A5369676E6174757265209A
:104F50006279746520726561646F75740909005027
:104F6000726F6772616D6D696E67206675736573C8
:104F70000D0A000D0A50726F6772616D20666C61D8
:104F800073682077697468206865783F2059206FBE
:104F900072204E000D0A53656E642066696C6520B0
:104FA00020000D0A566572696679696E6720666C25
:104FB0006173683A20414B20746F20636F6E74698F
:104FC0006E7565000D0A50726573732030206F7224
:104FD00020414F4B20746F206573636170650D0A2B
:104FE00000496E746567657228302D4646293F205A
:104FF00020000D0A4865785F66696C655F73697AA1
:10500000653A20200020696E3A202000206F7574D8
:105010000D0A000D000D0A46757365733A09574471
:10502000542C20424F442C204F53432C535953307F
:1050300009535953312C20415050454E442C2042A5
:105040004F4F54454E440D0A09000D0A0D0A507287
:105050006F6772616D20666C617368207769746830
:1050600020746578743F2059206F72204E000D0A1D
:105070005265647563652062617564207261746550
:1050800020746F20342E386B4220616E6420707261
:10509000657373202772272E0D0A0053656E6420F6
:1050A00066696C652E000D0A556E75736564206423
:1050B00061746120617265613A2020002062797418
:1050C00065730D0A000D0A526573746F7265206274
:1050D000617564207261746520746F2032382E38D7
:1050E0006B4220616E642070726573732027722793
:1050F0002E0D0A000D0A5374617274206F662066CB
:105100006C61736820000D0A0D0A556E6C6F636B3D
:10511000696E6720646576696365000D0A592074BD
:105120006F204C6F636B20646576696365206F72D6
:1051300020414F4B000D0A446576696365206C6F12
:10514000636B65640D0A000D0A446576696365202A
:10515000756E6C6F636B65640D0A00536573696FE0
:105160006E207465726D696E617465640D0A0D0A56
:0251700000003D
:107E0000112484B714BE81FFF0D085E080938100F7
:107E100082E08093C00088E18093C10086E0809377
:107E2000C20080E18093C4008EE0C9D0259A86E02C
:107E300020E33CEF91E0309385002093840096BBD3
:107E4000B09BFECF1D9AA8958150A9F7CC24DD24C4
:107E500088248394B5E0AB2EA1E19A2EF3E0BF2EE7
:107E6000A2D0813461F49FD0082FAFD0023811F036
:107E7000013811F484E001C083E08DD089C08234E0
:107E800011F484E103C0853419F485E0A6D080C0E4
:107E9000853579F488D0E82EFF2485D0082F10E0AE
:107EA000102F00270E291F29000F111F8ED06801E7
:107EB0006FC0863521F484E090D080E0DECF843638
:107EC00009F040C070D06FD0082F6DD080E0C81688
:107ED00080E7D80618F4F601B7BEE895C0E0D1E017
:107EE00062D089930C17E1F7F0E0CF16F0E7DF06D8
:107EF00018F0F601B7BEE89568D007B600FCFDCFD4
:107F0000A601A0E0B1E02C9130E011968C91119780
:107F100090E0982F8827822B932B1296FA010C0160
:107F200087BEE89511244E5F5F4FF1E0A038BF0790
:107F300051F7F601A7BEE89507B600FCFDCF97BE46
:107F4000E89526C08437B1F42ED02DD0F82E2BD052
:107F50003CD0F601EF2C8F010F5F1F4F84911BD097
:107F6000EA94F801C1F70894C11CD11CFA94CF0C13
:107F7000D11C0EC0853739F428D08EE10CD085E9AC
:107F80000AD08FE07ACF813511F488E018D01DD067
:107F900080E101D065CF982F8091C00085FFFCCF94
:107FA0009093C60008958091C00087FFFCCF809118
:107FB000C00084FD01C0A8958091C6000895E0E648
:107FC000F0E098E1908380830895EDDF803219F02E
:107FD00088E0F5DFFFCF84E1DECF1F93182FE3DFCA
:107FE0001150E9F7F2DF1F91089580E0E8DFEE27F6
:047FF000FF270994CA
:027FFE00040479
:00000001FF
