:100000001EC038C037C036C035C034C033C032C05F
:1000100031C030C02FC02EC02DC02CC02BC02AC074
:1000200029C028C027C026C025C024C023C022C0A4
:1000300021C020C01FC01EC01DC01CC01BC0112479
:100040001FBECFEFCDBFDFE3DEBF1EE3A0E0BEE308
:10005000E9EFF2E002C005900D92A030B107D9F7A8
:100060002EE3A0E0BEE301C01D92A030B207E1F78D
:1000700076D0E0C0C5CFE0E2F4E08081877F808366
:10008000808184608083E0E0F8E08DE695E0808701
:1000900091878681806486838681806886830895BF
:1000A000E0E0F8E0948195FFFDCF80930208089589
:1000B000EF92FF920F931F93CF93DF938C017C01FC
:1000C000C0E0D0E005C0F70181917F01E9DF219612
:1000D000F80101900020E9F73197E01BF10BCE17F2
:1000E000DF0788F3DF91CF911F910F91FF90EF9081
:1000F0000895AC0120E030E0E0E0F8E00DC02F5FB3
:100100003F4F213A8FE0380724F04150510920E059
:1001100030E04115510529F09481992384F781E05D
:10012000089580E00895E0E0F8E084818823ECF70A
:10013000809100080895E0E0FAE010A211A266A301
:1001400077A3880F8F5F8083EBE0FAE0808180FFE8
:10015000FDCFE0E0FAE081E08387108208958BDF35
:10016000C0E0D8E088E392E8A3DF80E590E0C1DF5B
:100170008823C1F388818F7D8235A1F78FE392E8D0
:1001800097DFE0E0F8E084818823ECF78081833713
:10019000D1F76AEB75E685E0CEDF87E592E888DF88
:1001A000C2DF8233A1F028F48E3289F1813339F035
:1001B00037C08433E1F098F0853309F131C08BE723
:1001C00092E876DF68E574E185E0B5DF2FC088E866
:1001D00092E86EDF6AEB75E685E0ADDF27C085E962
:1001E00092E866DF63E77BEC85E0A5DF1FC080EA6D
:1001F00092E85EDF60E57EEF86E09DDF17C08BEA68
:1002000092E856DF68E27FE787E095DF0FC086EB74
:1002100092E84EDF88ED84BF83E080930001FFCF3A
:1002200088ED84BF83E080930001FFCF8AEB92E8E2
:080230003FDFB6CFF894FFCFC9
:10023800523F20202020000D0A50726573732073EE
:1002480020746F20636F6E74696E75650D0A0050B7
:100258007265737320312C322C332C34206F72204A
:1002680035206F7220414F4B20746F206578697478
:100278000D0A003130306D532070617573650900C7
:100288003530306D53207061757365090031532026
:100298007061757365090900355320706175736560
:1002A80009090031305320706175736509003F0DED
:1002B8000A00414243444561626364656667686950
:1002C8006A6B6C464748494A4B4C4D4E4F50515209
:1002D80053545541424344456162636465666768A7
:1002E800696A6B6C464748494A4B4C4D4E4F0D0A5C
:0102F8000005
:00000001FF
