:100000000C943E000C945B000C945B000C945B0021
:100010000C945B000C945B000C945B000C945B00F4
:100020000C945B000C945B000C945B000C945B00E4
:100030000C945B000C945B000C945B000C945B00D4
:100040000C945B000C945B000C945B000C945B00C4
:100050000C945B000C945B000C945B000C945B00B4
:100060000C945B000C945B000C945B000C945B00A4
:100070000C945B000C945B000C945B0011241FBE7D
:10008000CFEFCDBFDFE3DEBF1CE3A0E0BCE3E5E6DE
:10009000F3E002C005900D92A030B107D9F72CE330
:1000A000A0E0BCE301C01D92A030B207E1F70E94BE
:1000B000D2000C9450010C940000E0E2F4E0808146
:1000C000877F8083808184608083E0E0F8E08DE634
:1000D00095E08087918786818064868386818068A9
:1000E00086830895E0E0F8E0948195FFFDCF80934A
:1000F00002080895EF92FF920F931F93CF93DF931F
:100100008C017C01C0E0D0E006C0F70181917F0145
:100110000E9472002196F80101900020E9F73197C2
:10012000E01BF10BCE17DF0780F3DF91CF911F911A
:100130000F91FF90EF900895AC0120E030E0E0E0F7
:10014000F8E00DC02F5F3F4F213A8FE0380724F0D1
:100150004150510920E030E04115510529F09481CA
:10016000992384F781E0089580E00895E0E0F8E0C5
:1001700084818823ECF7809100080895E0E0FAE09C
:1001800010A211A266A377A3880F8F5F8083EBE094
:10019000FAE0808180FFFDCFE0E0FAE081E0838734
:1001A000108208950E945D00C0E0D8E084EA92E8E1
:1001B0000E947A0080E590E00E949C008823B1F3C1
:1001C00088818F7D823591F78BEA92E80E947A00D0
:1001D000E0E0F8E084818823ECF780818337D1F771
:1001E0006AEB75E685E00E94BE0083EC92E80E940F
:1001F0007A000E94B6008233B1F028F48E32D9F131
:10020000813339F042C0843311F1B8F0853349F1BC
:100210003CC087EE92E80E947A0068E574E185E0D0
:100220000E94BE0038C084EF92E80E947A006AEB18
:1002300075E685E00E94BE002EC081E093E80E9432
:100240007A0063E77BEC85E00E94BE0024C08CE06E
:1002500093E80E947A0060E57EEF86E00E94BE008F
:100260001AC087E193E80E947A0068E27FE787E09E
:100270000E94BE0010C082E293E80E947A0088EDDE
:1002800084BF83E080930001FFCF88ED84BF83E0CB
:1002900080930001FFCF86E293E80E947A00A9CF05
:0402A000F894FFCF00
:1002A400523F20202020000D0A5072657373207382
:1002B40020746F20636F6E74696E75650D0A00504B
:1002C4007265737320312C322C332C34206F7220DE
:1002D40035206F7220414F4B20746F20657869740C
:1002E4000D0A003130306D5320706175736509005B
:1002F4003530306D532070617573650900315320BA
:1003040070617573650909003553207061757365F3
:1003140009090031305320706175736509003F0D80
:100324000A004142434445616263646566676869E3
:100334006A6B6C464748494A4B4C4D4E4F5051529C
:10034400535455414243444561626364656667683A
:10035400696A6B6C464748494A4B4C4D4E4F0D0AEF
:010364000098
:00000001FF
