:100000000C9434000C9451000C9451000C94510049
:100010000C9451000C9451000C9451000C9451001C
:100020000C9451000C9451000C9451000C9451000C
:100030000C9451000C94E3000C9451000C9451006A
:100040000C9451000C9451000C9438010C94510004
:100050000C9451000C9451000C9451000C945100DC
:100060000C9451000C94510011241FBECFEFD8E026
:10007000DEBFCDBF15E0A0E0B1E0EEEAFEE402C0D5
:1000800005900D92AA33B107D9F726E0AAE3B5E0AF
:1000900001C01D92AB30B207E1F70E9419170C9412
:1000A00055270C9400009091C00095FFFCCF8093E1
:1000B000C60008950F931F93CF93DF93EC018C013B
:1000C00008531F4F8991882329F00E945300C017BD
:1000D000D107C1F7DF91CF911F910F91089521EAC8
:1000E0003FE04091C00047FD07C021503109C9F7EA
:1000F0000197A9F780E0089581E008958091C000FC
:1001000087FFFCCF8091C6000895EFE6F0E0908174
:100110009160908370938500609384009FEF96BBFD
:1001200080938100089593B566BD85BDA89BFECFE1
:10013000A89A15BC0895EF92FF920F931F93CF9347
:10014000DF9386B1182F117080FDFBCF6CED82E03C
:100150000E949300D0E0C0E000E0EE24E394F12C94
:100160006CED82E00E949300309B08C0C7010C2E0A
:1001700001C0880F0A94EAF7182B0F5F2196C83048
:10018000D10571F76CED82E00E949300309B02C0B4
:1001900000FD09C08091090690910A06019690938E
:1001A0000A06809309066CED82E00E9493006CEDD4
:1001B00082E00E949300812FDF91CF911F910F91D8
:1001C000FF90EF9008951F920F920FB60F92112497
:1001D0008F93EF93FF9380910806811105C081E012
:1001E0008093070610928100809108068130C1F546
:1001F000809106068330A1F51092080680910506CD
:100200008150809305061092810080916F008E7F4F
:1002100080936F00809104068F5F80930406809125
:1002200004068F7380930406E0910406F0E0EE0F5D
:10023000FF1FEC57FA4F11821082809104068F5FE6
:1002400080930406809104068F7380930406E091E6
:100250000406F0E0EE0FFF1FEC57FA4F11821082F8
:10026000FF91EF918F910F900FBE0F901F901895F7
:100270001F920F920FB60F9211242F933F934F931B
:100280005F938F939F93AF93BF93EF93FF9380916F
:100290008305883409F063C1E091C600E153E6317B
:1002A00008F0F7C0F0E0E95AFE4F0C944F274B02DC
:1002B0006D012B022D022F0231023302350237026B
:1002C00045024902490249024902490249023902EA
:1002D0003B023D023F024102430282E02091800541
:1002E000309181052330310509F414C10CF0D5C0DB
:1002F0002130310509F40EC12230310509F4E2C084
:100300002091800530918105293031050CF486C09B
:10031000409180055091810520917C0530917D05AB
:10032000421753070CF07AC0209180053091810567
:10033000237033272130310541F490E1899F9001EA
:10034000112430937F0520937E0520918005309104
:100350008105237033272230310551F420917E0529
:1003600030917F05280F311D30937F0520937E0546
:10037000209180053091810523703327233031058A
:1003800041F490E1899F9001112430937B052093E3
:100390007A05209180053091810523703327232B26
:1003A000E9F520917A0530917B05820F932F911DFD
:1003B00090937B0580937A0580917A0590917B05D7
:1003C000982F882790937B0580937A0580917A05F2
:1003D00090917B0520917E0530917F05820F931FC0
:1003E00090937F0580937E05E091040681E08E0F57
:1003F0008093040680917E0590917F05F0E0EE0FDA
:10040000FF1FEC57FA4F918380838091780590917C
:100410007905019690937905809378058091800500
:10042000909181050196909381058093800580913C
:1004300004068F7380930406FF91EF91BF91AF91F3
:100440009F918F915F914F913F912F910F900FBE90
:100450000F901F90189583E041CF84E03FCF85E057
:100460003DCF86E03BCF87E039CF88E037CF89E0CA
:1004700035CF8AE033CF8BE031CF8CE02FCF8DE0CA
:100480002DCF8EE02BCF8FE029CF109281051092D7
:10049000800580E023CF81E021CF2530310509F4AC
:1004A00053C00CF440C02630310509F029CF20910B
:1004B0007E0530917F05280F311D30937F052093F5
:1004C0007E0516C020917E0530917F05280F311DD5
:1004D00030937F0520937E0520917E0530917F0526
:1004E000220F331F275F3F4F30937D0520937C05FC
:1004F000E091040691E09E0F9093040620917E0502
:1005000030917F05F0E0EE0FFF1FEC57FA4F31837B
:100510002083F6CE90E1899F9001112430937F05CE
:1005200020937E05EDCE20917E0530917F05280F2A
:10053000311D30937F0520937E0520917E053091FB
:100540007F05322F2227EACF40917E0550917F050B
:1005500090E1899F90011124240F351FDFCF84354E
:1005600009F06ACF8091C600882309F465CF909185
:1005700006068A3209F454C0992309F45DCF90919C
:100580000606913019F492E09093060690910606C3
:10059000923031F48D3009F44FCF8A3009F44CCFCA
:1005A00093E0909306068D3011F08A3031F48091FB
:1005B0008205882309F440CF80E0109285001092D4
:1005C00084002091800530918105482F50E0E09112
:1005D0000406F0E0EE0FFF1FEC57FA4F20FD2CC091
:1005E00051834083A0910406E0910406F0E0EE0FF1
:1005F000FF1FEC57FA4FB0E0AA0FBB1FAC57BA4F22
:100600009C911082918320918005309181052F5F0C
:100610003F4F3093810520938005809382050CCF56
:10062000911104C081E08093060606CF90910606E2
:10063000913009F0A4CF00CF20813181240F351FE4
:1006400031832083909104069F5F909304069091DC
:1006500004069F7390930406D6CFCF93DF9315BC07
:1006600016BC23B5216023BD21E025BD22E427BDB2
:1006700025E520935D0510925A0510925C05A99B13
:10068000FECF389A2FEF25BB27B52E5B27BD50E054
:1006900040E0A1E0B0E0EFEF20915D05BD01042E48
:1006A00001C0660F0A94EAF7262320935C052223F3
:1006B00029F030915A053F5F30935A05A99BFECF30
:1006C000222309F4DCC33898E5BB27B52E5B27BD90
:1006D0004F5F5F4F48305105F9F620915A0520FFD2
:1006E000D0C321E020935C05A99BFECF20915C053F
:1006F000222309F4C9C338982FEF25BB27B52E5BF9
:1007000027BD21E020935C05A99BFECF38982FEFF1
:1007100025BB27B52E5B27BDA99BFECF20915C058D
:10072000222309F4B3C338982FEF25BB27B52E5BDE
:1007300027BD24E020935D0510925A0510925C05B8
:10074000A99BFECF389A2FEF25BB27B52E5B27BD7F
:1007500050E040E0A1E0B0E0EFEF20915D05BD0189
:10076000042E01C0660F0A94EAF7262320935C0545
:10077000222329F030915A053F5F30935A05A99BF7
:10078000FECF222309F484C33898E5BB27B52E5B3E
:1007900027BD4F5F5F4F48305105F9F620915A054C
:1007A00020FF78C321E020935C05A99BFECF209118
:1007B0005C05222309F471C338982FEF25BB27B5B8
:1007C0002E5B27BD21E020935C05A99BFECF3898C6
:1007D0002FEF25BB27B52E5B27BDA99BFECF209110
:1007E0005C05222309F45BC338982FEF25BB27B59E
:1007F0002E5B27BD80935D0510925A0510925C0513
:10080000A99BFECF389A2FEF25BB27B52E5B27BDBE
:1008100050E040E0A1E0B0E0EFEF20915D05BD01C8
:10082000042E01C0660F0A94EAF7262320935C0584
:10083000222329F030915A053F5F30935A05A99B36
:10084000FECF222309F42DC33898E5BB27B52E5BD4
:1008500027BD4F5F5F4F48305105F9F620915A058B
:1008600020FF21C321E020935C05A99BFECF2091AE
:100870005C05222309F41AC338982FEF25BB27B54E
:100880002E5B27BD21E020935C05A99BFECF389805
:100890002FEF25BB27B52E5B27BDA99BFECF20914F
:1008A0005C05222309F404C338982FEF25BB27B534
:1008B0002E5B27BD90935D0510925A0510925C0542
:1008C000A99BFECF389A2FEF25BB27B52E5B27BDFE
:1008D00050E040E0A1E0B0E0EFEF20915D05BD0108
:1008E000042E01C0660F0A94EAF7262320935C05C4
:1008F000222329F030915A053F5F30935A05A99B76
:10090000FECF222309F4D6C23898E5BB27B52E5B6B
:1009100027BD4F5F5F4F48305105F9F620915A05CA
:1009200020FFCAC221E020935C05A99BFECF209145
:100930005C05222309F4C3C238982FEF25BB27B5E5
:100940002E5B27BD21E020935C05A99BFECF389844
:100950002FEF25BB27B52E5B27BDA99BFECF20918E
:100960005C05222309F4ADC238982FEF25BB27B5CB
:100970002E5B27BD10925F0510925A053099FECF6D
:1009800015BC16BC23B5216023BD21E025BD21E2A5
:1009900027BDA99BFECF27B52E5B27BD2FEF25BB1B
:1009A00030E020E0E1E05FEFA1E0B0E0A99BFECF06
:1009B000309B89C2E0935E0555BB47B54E5B47BD92
:1009C00040915E05442381F040915F05BD01022EF8
:1009D00001C0660F0A94EAF7462B40935F054091E9
:1009E0005A054F5F40935A052F5F3F4F283031051E
:1009F000E9F6A99BFECF309B69C221E020935E05FA
:100A00002FEF25BB27B52E5B27BD20915E05222346
:100A100021F020915A0520FD0AC02091090630914D
:100A20000A062F5F3F4F30930A0620930906A99BC1
:100A3000FECF309B4EC221E020935E052FEF25BBF9
:100A400027B52E5B27BDA99BFECF309B45C221E079
:100A500020935E052FEF25BB27B52E5B27BD15BC68
:100A600020915F0530E0322F2227BC016F5F7F4F5E
:100A700015BC16BC83B5816083BD81E085BD82E471
:100A800087BD85E580935D0510925A0510925C053F
:100A9000A99BFECF389A8FEF85BB87B58E5B87BD4C
:100AA00050E040E0C1E0D0E0AFEF90915D05FE0185
:100AB000042E01C0EE0F0A94EAF79E2390935C0582
:100AC000992329F080915A058F5F80935A05A99B3D
:100AD000FECF992309F403C23898A5BB87B58E5B76
:100AE00087BD4F5F5F4F48305105F9F680915A0539
:100AF00080FFF7C181E080935C05A99BFECF8091C8
:100B00005C05882309F4F0C138988FEF85BB87B561
:100B10008E5B87BD81E080935C05A99BFECF3898F2
:100B20008FEF85BB87B58E5B87BDA99BFECF80917C
:100B30005C05882309F4DAC138988FEF85BB87B547
:100B40008E5B87BD84E080935D0510925A051092FC
:100B50005C05A99BFECF389A8FEF85BB87B58E5B6E
:100B600087BD50E040E0C1E0D0E0AFEF90915D057F
:100B7000FE01042E01C0EE0F0A94EAF79E23909323
:100B80005C05992329F080915A058F5F80935A055F
:100B9000A99BFECF992309F4ABC13898A5BB87B5B3
:100BA0008E5B87BD4F5F5F4F48305105F9F68091EE
:100BB0005A0580FF9FC181E080935C05A99BFECF11
:100BC00080915C05882309F498C138988FEF85BB24
:100BD00087B58E5B87BD81E080935C05A99BFECFC6
:100BE00038988FEF85BB87B58E5B87BDA99BFECFFD
:100BF00080915C05882309F482C138988FEF85BB0A
:100C000087B58E5B87BD60935D0510925A05109283
:100C10005C05A99BFECF389A8FEF85BB87B58E5BAD
:100C200087BD50E040E0C1E0D0E0AFEF90915D05BE
:100C3000FE01042E01C0EE0F0A94EAF79E23909362
:100C40005C05992329F080915A058F5F80935A059E
:100C5000A99BFECF992309F454C13898A5BB87B549
:100C60008E5B87BD4F5F5F4F48305105F9F680912D
:100C70005A0580FF48C181E080935C05A99BFECFA7
:100C800080915C05882309F441C138988FEF85BBBA
:100C900087B58E5B87BD81E080935C05A99BFECF05
:100CA00038988FEF85BB97B59E5B97BDA99BFECF0C
:100CB00080915C05882309F42BC138988FEF85BBA0
:100CC00097B59E5B97BD70935D0510925A05109283
:100CD0005C05A99BFECF389A8FEF85BB87B58E5BED
:100CE00087BD50E040E0A1E0B0E0EFEF80915D050E
:100CF000BD01042E01C0660F0A94EAF78623809393
:100D00005C05882329F090915A059F5F90935A05BE
:100D1000A99BFECF882309F4FDC03898E5BB87B5B1
:100D20008E5B87BD4F5F5F4F48305105F9F680916C
:100D30005A0580FFF1C081E080935C05A99BFECF3E
:100D400080915C05882309F4EAC038988FEF85BB51
:100D500087B58E5B87BD81E080935C05A99BFECF44
:100D600038988FEF85BB87B58E5B87BDA99BFECF7B
:100D700080915C05882309F4D4C038988FEF85BB37
:100D800087B58E5B87BD10925F0510925A0530992A
:100D9000FECF15BC16BC83B5816083BD81E085BDE7
:100DA00081E287BDA99BFECF87B58E5B87BD8FEFA4
:100DB00085BB90E080E0E1E05FEFA1E0B0E0A99BBF
:100DC000FECF309BB0C0E0935E0555BB47B54E5B90
:100DD00047BD40915E05442381F040915F05BD0110
:100DE000082E01C0660F0A94EAF7462B40935F0570
:100DF00040915A054F5F40935A05019688309105FE
:100E0000F1F6A99BFECF309B91C081E080935E05F7
:100E10008FEF85BB87B58E5B87BD80915E0588238C
:100E200021F080915A0580FD09C0809109069091BA
:100E30000A06019690930A0680930906A99BFECFA5
:100E4000309B77C081E080935E058FEF85BB87B5CF
:100E50008E5B87BDA99BFECF309B6EC081E08093E7
:100E60005E058FEF85BB87B58E5B87BD15BC809116
:100E70005F05A901482BCA01DF91CF910895389AE7
:100E800023CC10925C0530CC389A36CC389A4CCCB6
:100E9000389A7BCC10925C0588CC389A8ECC389AE4
:100EA000A4CC389AD2CC10925C05DFCC389AE5CC31
:100EB000389AFBCC389A29CD10925C0536CD389AF9
:100EC0003CCD389A52CD10925E0576CD10925E05DB
:100ED00097CD10925E05B2CD10925E05BBCD389ACB
:100EE000FCCD10925C0509CE389A0FCE389A25CEEB
:100EF000389A54CE10925C0561CE389A67CE389AF3
:100F00007DCE389AABCE10925C05B8CE389ABECE64
:100F1000389AD4CE389A02CF10925C050FCF389A07
:100F200015CF389A2BCF10925E054FCF10925E05E9
:100F30006FCF10925E0589CF10925E0592CF90918F
:100F40005B05809104069817D1F3E0915B05F0E012
:100F5000EE0FFF1FEC57FA4F80819181909353055C
:100F60008093520580915B058F5F80935B05809134
:100F70005B058F7380935B058FB780933E05F89474
:100F800016BC83B5816083BD81E085BD82E487BDE9
:100F90008091520580935D0510925A0510925C0570
:100FA000A99BFECF389A8FEF85BB87B58E5B87BD37
:100FB00030E020E0E1E0F0E06FEF80915D05AF010F
:100FC000022E01C0440F0A94EAF7842380935C0543
:100FD000882329F090915A059F5F90935A05A99B09
:100FE000FECF882309F48CC1389865BB87B58E5B2A
:100FF00087BD2F5F3F4F28303105F9F680915A05A4
:1010000080FF80C181E080935C05A99BFECF809129
:101010005C05882309F479C138988FEF85BB87B5C3
:101020008E5B87BD81E080935C05A99BFECF3898DD
:101030008FEF85BB87B58E5B87BDA99BFECF809167
:101040005C05882309F463C138988FEF85BB87B5A9
:101050008E5B87BD10925F0510925A053099FECFC6
:1010600015BC16BC83B5816083BD81E085BD81E27E
:1010700087BDA99BFECF87B58E5B87BD8FEF85BBF4
:1010800090E080E061E03FEFE1E0F0E0A99BFECF7F
:10109000309B3FC160935E0535BB27B52E5B27BDF6
:1010A00020915E05222381F020915F05AF01082E7B
:1010B00001C0440F0A94EAF7242B20935F05209186
:1010C0005A052F5F20935A05019688309105F1F655
:1010D000A99BFECF309B20C181E080935E058FEFFE
:1010E00085BB87B58E5B87BD80915E05882321F027
:1010F00080915A0580FD09C08091090690910A06E9
:10110000019690930A0680930906A99BFECF309B17
:1011100006C181E080935E058FEF85BB87B58E5B4E
:1011200087BDA99BFECF309BFDC081E080935E050B
:101130008FEF85BB87B58E5B87BD15BC16BC83B5AD
:10114000816083BD81E085BD82E487BD80915305C8
:1011500080935D0510925A0510925C05A99BFECF05
:10116000389A8FEF85BB87B58E5B87BD30E020E076
:10117000E1E0F0E06FEF80915D05AF01022E01C06C
:10118000440F0A94EAF7842380935C05882329F0AE
:1011900090915A059F5F90935A05A99BFECF882393
:1011A00009F4C3C0389865BB87B58E5B87BD2F5FD8
:1011B0003F4F28303105F9F680915A0580FFB7C0BE
:1011C00081E080935C05A99BFECF80915C0588231C
:1011D00009F4B0C038988FEF85BB87B58E5B87BDAB
:1011E00081E080935C05A99BFECF38988FEF85BB8B
:1011F00087B58E5B87BDA99BFECF80915C05882358
:1012000009F49AC038988FEF85BB87B58E5B87BD90
:1012100010925F0510925A053099FECF15BC16BC8E
:1012200083B5816083BD81E085BD81E287BDA99BD7
:10123000FECF87B58E5B87BD8FEF85BB90E080E0EA
:1012400061E03FEFE1E0F0E0A99BFECF309B76C08C
:1012500060935E0535BB27B52E5B27BD20915E05EB
:10126000222381F020915F05AF01082E01C0440FB9
:101270000A94EAF7242B20935F0520915A052F5FEB
:1012800020935A05019688309105F1F6A99BFECF6F
:10129000309B57C081E080935E058FEF85BB87B59B
:1012A0008E5B87BD80915E05882321F080915A0571
:1012B00080FD09C08091090690910A0601969093DD
:1012C0000A0680930906A99BFECF309B3DC081E0B2
:1012D00080935E058FEF85BB87B58E5B87BDA99B2D
:1012E000FECF309B34C081E080935E058FEF85BBDD
:1012F00087B58E5B87BD15BC80913E058FBF089575
:10130000389A73CE10925C0580CE389A86CE389A81
:101310009CCE10925E05C0CE10925E05E0CE10927B
:101320005E05FACE10925E0503CF389A3CCF10923C
:101330005C0549CF389A4FCF389A65CF10925E0539
:1013400089CF10925E05A9CF10925E05C3CF10928F
:101350005E05CCCF880F991F9C0130588FB78093C2
:101360003E05F89415BC16BC83B5816083BD81E051
:1013700085BD82E487BD85E580935D0510925A05A1
:1013800010925C05A99BFECF389A8FEF85BB87B57D
:101390008E5B87BD50E040E0A1E0B0E0EFEF9091C0
:1013A0005D05BD01042E01C0660F0A94EAF796237D
:1013B00090935C05992329F080915A058F5F809363
:1013C0005A05A99BFECF992309F4C8C33898E5BBF9
:1013D00087B58E5B87BD4F5F5F4F48305105F9F68B
:1013E00080915A0580FFBCC381E080935C05A99B76
:1013F000FECF80915C05882309F4B5C338988FEF40
:1014000085BB87B58E5B87BD81E080935C05A99B1A
:10141000FECF38988FEF85BB87B58E5B87BDA99BC4
:10142000FECF80915C05882309F49FC338988FEF25
:1014300085BB87B58E5B87BD89E680935D0510927D
:101440005A0510925C05A99BFECF389A8FEF85BB99
:1014500087B58E5B87BD50E040E0A1E0B0E0EFEFE4
:1014600090915D05BD01042E01C0660F0A94EAF754
:10147000962390935C05992329F080915A058F5FFC
:1014800080935A05A99BFECF992309F470C338981D
:10149000E5BB87B58E5B87BD4F5F5F4F4830510519
:1014A000F9F680915A0580FF64C381E080935C0562
:1014B000A99BFECF80915C05882309F45DC3389811
:1014C0008FEF85BB87B58E5B87BD81E080935C0520
:1014D000A99BFECF38988FEF85BB87B58E5B87BD04
:1014E000A99BFECF80915C05882309F447C33898F7
:1014F0008FEF85BB87B58E5B87BD20935D0510920E
:101500005A0510925C05A99BFECF389A8FEF85BBD8
:1015100087B58E5B87BD50E040E0A1E0B0E0EFEF23
:1015200090915D05BD01042E01C0660F0A94EAF793
:10153000962390935C05992329F080915A058F5F3B
:1015400080935A05A99BFECF992309F419C33898B3
:10155000E5BB87B58E5B87BD4F5F5F4F4830510558
:10156000F9F680915A0580FF0DC381E080935C05F8
:10157000A99BFECF80915C05882309F406C33898A7
:101580008FEF85BB87B58E5B87BD81E080935C055F
:10159000A99BFECF38988FEF85BB87B58E5B87BD43
:1015A000A99BFECF80915C05882309F4F0C238988E
:1015B0008FEF85BB87B58E5B87BD30935D0510923D
:1015C0005A0510925C05A99BFECF389A8FEF85BB18
:1015D00087B58E5B87BD30E020E0E1E0F0E06FEFA3
:1015E00080915D05AF01022E01C0440F0A94EAF715
:1015F000842380935C05882329F090915A059F5F8E
:1016000090935A05A99BFECF882309F4C2C238984B
:1016100065BB87B58E5B87BD2F5F3F4F2830310597
:10162000F9F680915A0580FFB6C281E080935C058F
:10163000A99BFECF80915C05882309F4AFC238983E
:101640008FEF85BB87B58E5B87BD81E080935C059E
:10165000A99BFECF38988FEF85BB87B58E5B87BD82
:10166000A99BFECF80915C05882309F499C2389824
:101670008FEF85BB87B58E5B87BD10925F0510929B
:101680005A053099FECF15BC16BC83B5816083BD69
:1016900081E085BD81E287BDA99BFECF87B58E5BCA
:1016A00087BD8FEF85BB90E080E061E03FEFE1E038
:1016B000F0E0A99BFECF309B75C260935E0535BB01
:1016C00027B52E5B27BD20915E05222381F0209156
:1016D0005F05AF01082E01C0440F0A94EAF7242BDE
:1016E00020935F0520915A052F5F20935A0501969C
:1016F00088309105F1F6A99BFECF309B56C281E060
:1017000080935E058FEF85BB87B58E5B87BD80912B
:101710005E05882321F080915A0580FD09C08091E3
:10172000090690910A06019690930A06809309068D
:10173000A99BFECF309B3CC281E080935E058FEF7A
:1017400085BB87B58E5B87BDA99BFECF309B33C21F
:1017500081E080935E058FEF85BB87B58E5B87BD8B
:1017600015BC15BC16BC83B5816083BD81E085BD09
:1017700082E487BD85E580935D0510925A0510923D
:101780005C05A99BFECF389A8FEF85BB87B58E5B32
:1017900087BD30E020E0E1E0F0E06FEF80915D0593
:1017A000AF01022E01C0440F0A94EAF7842380930C
:1017B0005C05882329F090915A059F5F90935A0504
:1017C000A99BFECF882309F4F9C1389865BB87B57A
:1017D0008E5B87BD2F5F3F4F28303105F9F6809132
:1017E0005A0580FFEDC181E080935C05A99BFECF87
:1017F00080915C05882309F4E6C138988FEF85BB9A
:1018000087B58E5B87BD81E080935C05A99BFECF89
:1018100038988FEF85BB87B58E5B87BDA99BFECFC0
:1018200080915C05882309F4D0C138988FEF85BB7F
:1018300087B58E5B87BD80EA80935D0510925A055F
:1018400010925C05A99BFECF389A8FEF85BB87B5B8
:101850008E5B87BD30E020E0E1E0F0E06FEF80914B
:101860005D05AF01022E01C0440F0A94EAF78423FC
:1018700080935C05882329F090915A059F5F90938F
:101880005A05A99BFECF882309F4A1C1389865BBEE
:1018900087B58E5B87BD2F5F3F4F28303105F9F646
:1018A00080915A0580FF95C181E080935C05A99BDA
:1018B000FECF80915C05882309F48EC138988FEFA4
:1018C00085BB87B58E5B87BD81E080935C05A99B56
:1018D000FECF38988FEF85BB87B58E5B87BDA99B00
:1018E000FECF80915C05882309F478C138988FEF8A
:1018F00085BB87B58E5B87BD8FE380935D051092B6
:101900005A0510925C05A99BFECF389A8FEF85BBD4
:1019100087B58E5B87BD30E020E0E1E0F0E06FEF5F
:1019200080915D05AF01022E01C0440F0A94EAF7D1
:10193000842380935C05882329F090915A059F5F4A
:1019400090935A05A99BFECF882309F449C1389882
:1019500065BB87B58E5B87BD2F5F3F4F2830310554
:10196000F9F680915A0580FF3DC181E080935C05C6
:10197000A99BFECF80915C05882309F436C1389875
:101980008FEF85BB87B58E5B87BD81E080935C055B
:10199000A99BFECF38988FEF85BB87B58E5B87BD3F
:1019A000A99BFECF80915C05882309F420C138985B
:1019B0008FEF85BB87B58E5B87BD15BC15BC16BC8C
:1019C00083B5816083BD81E085BD82E487BD85E507
:1019D00080935D0510925A0510925C05A99BFECF7D
:1019E000389A8FEF85BB87B58E5B87BD30E020E0EE
:1019F000E1E0F0E06FEF80915D05AF01022E01C0E4
:101A0000440F0A94EAF7842380935C05882329F025
:101A100090915A059F5F90935A05A99BFECF88230A
:101A200009F4E7C0389865BB87B58E5B87BD2F5F2B
:101A30003F4F28303105F9F680915A0580FFDBC011
:101A400081E080935C05A99BFECF80915C05882393
:101A500009F4D4C038988FEF85BB87B58E5B87BDFE
:101A600081E080935C05A99BFECF38988FEF85BB02
:101A700087B58E5B87BDA99BFECF80915C058823CF
:101A800009F4BEC038988FEF85BB87B58E5B87BDE4
:101A900084E680935D0510925A0510925C05A99B1F
:101AA000FECF389A8FEF85BB87B58E5B87BD30E060
:101AB00020E0E1E0F0E06FEF80915D05AF01022EE4
:101AC00001C0440F0A94EAF7842380935C058823BD
:101AD00029F090915A059F5F90935A05A99BFECFDC
:101AE000882309F48FC0389865BB87B58E5B87BDA6
:101AF0002F5F3F4F28303105F9F680915A0580FF5E
:101B000083C081E080935C05A99BFECF80915C053A
:101B1000882309F47CC038988FEF85BB87B58E5B2E
:101B200087BD81E080935C05A99BFECF38988FEF3D
:101B300085BB87B58E5B87BDA99BFECF80915C0579
:101B4000882309F466C038988FEF85BB87B58E5B14
:101B500087BD15BC80913E058FBF0895389A37CC5C
:101B600010925C0544CC389A4ACC389A60CC389AAA
:101B70008FCC10925C059CCC389AA2CC389AB8CC09
:101B8000389AE6CC10925C05F3CC389AF9CC389AA6
:101B90000FCD389A3DCD10925C054ACD389A50CD84
:101BA000389A66CD10925E058ACD10925E05AACD58
:101BB00010925E05C4CD10925E05CDCD389A06CE4A
:101BC00010925C0513CE389A19CE389A2FCE389AD7
:101BD0005ECE10925C056BCE389A71CE389A87CE65
:101BE000389AB6CE10925C05C3CE389AC9CE389AD0
:101BF000DFCE389A18CF10925C0525CF389A2BCFBC
:101C0000389A41CF389A70CF10925C057DCF389AC0
:101C100083CF389A99CF809145059091460590934E
:101C20004F0580934E059C01207E3F7130934B05FC
:101C300020934A05AC01421B530B50933C05409343
:101C40003B0520913B0530913C058770809347050B
:101C500080E2821B80934805089590915B058091F6
:101C600004069817D1F3E0915B05F0E0EE0FFF1F3B
:101C7000EC57FA4F80818093490590915B059F5FF7
:101C800090935B0590915B059F7390935B05282F64
:101C900087FF02C021E0280F259520933D059091F4
:101CA000510590311CF491E090934C0590915105B1
:101CB000909344058093510590915B0580910406B3
:101CC0009817D1F3E0915B05F0E0EE0FFF1FEC57A2
:101CD000FA4F8081918130915B053F5F30935B05C6
:101CE00030915B053F7330935B0596958795909394
:101CF000460580934505AC0141505109420F511DE5
:101D000027FD5A95509343054093420520913A058B
:101D1000209341059C0127703327232B69F021E094
:101D200020933A0520914E0530914F058217930775
:101D300011F410924D05089510923A05F3CFEF92E9
:101D4000FF920F931F93CF93DF9300D000D000D06A
:101D5000CDB7DEB7972FE0E0E82E880FFF088E01A1
:101D60000F5F1F4F862FB7010E9427279B01D801C5
:101D7000AE0FB11D8C938A303CF5805D8C93EF5F84
:101D8000622F932F232B71F7E43040F4D801AE0F6C
:101D9000B11D80E3EF5F8D93E430E1F7E00FF12FA9
:101DA000F11D1082F8017F01E01AF10A8191811181
:101DB000FACFE00EF11E0E151F0541F0F7018291DA
:101DC0007F010E945300F7CF895CD8CF85E091E076
:101DD00026960FB6F894DEBF0FBECDBFDF91CF9130
:101DE0001F910F91FF90EF900C945A0088E891E0BA
:101DF0000C945A0093B5926093BD6093B2008093A7
:101E0000B100B89BFECFB89A1092B1000895880F28
:101E1000991F9C0130588FB780933E05F89415BCEC
:101E200016BC83B5816083BD81E085BD82E487BD3A
:101E300085E580935D0510925A0510925C05A99B7B
:101E4000FECF389A8FEF85BB87B58E5B87BD50E09C
:101E500040E0A1E0B0E0EFEF90915D05BD01042E00
:101E600001C0660F0A94EAF7962390935C059923C4
:101E700029F080915A058F5F80935A05A99BFECF68
:101E8000992309F4EFC53898E5BB87B58E5B87BD0C
:101E90004F5F5F4F48305105F9F680915A0580FF3A
:101EA000E3C581E080935C05A99BFECF80915C0532
:101EB000882309F4DCC538988FEF85BB87B58E5B26
:101EC00087BD81E080935C05A99BFECF38988FEF9A
:101ED00085BB87B58E5B87BDA99BFECF80915C05D6
:101EE000882309F4C6C538988FEF85BB87B58E5B0C
:101EF00087BD85E480935D0510925A0510925C05BC
:101F0000A99BFECF389A8FEF85BB87B58E5B87BDC7
:101F100050E040E0A1E0B0E0EFEF90915D05BD0141
:101F2000042E01C0660F0A94EAF7962390935C058D
:101F3000992329F080915A058F5F80935A05A99BB8
:101F4000FECF992309F497C53898E5BB87B58E5B1A
:101F500087BD4F5F5F4F48305105F9F680915A05B4
:101F600080FF8BC581E080935C05A99BFECF8091AB
:101F70005C05882309F484C538988FEF85BB87B545
:101F80008E5B87BD81E080935C05A99BFECF38986E
:101F90008FEF85BB87B58E5B87BDA99BFECF8091F8
:101FA0005C05882309F46EC538988FEF85BB87B52B
:101FB0008E5B87BD88E080935D0510925A05109274
:101FC0005C05A99BFECF389A8FEF85BB87B58E5BEA
:101FD00087BD50E040E0A1E0B0E0EFEF90915D05FB
:101FE000BD01042E01C0660F0A94EAF79623909370
:101FF0005C05992329F080915A058F5F80935A05DB
:10200000A99BFECF992309F43FC53898E5BB87B556
:102010008E5B87BD4F5F5F4F48305105F9F6809169
:102020005A0580FF33C581E080935C05A99BFECFF4
:1020300080915C05882309F42CC538988FEF85BB07
:1020400087B58E5B87BD81E080935C05A99BFECF41
:1020500038988FEF85BB87B58E5B87BDA99BFECF78
:1020600080915C05882309F416C538988FEF85BBED
:1020700087B58E5B87BD80E180935D0510925A0520
:1020800010925C05A99BFECF389A8FEF85BB87B570
:102090008E5B87BD50E040E0A1E0B0E0EFEF9091B3
:1020A0005D05BD01042E01C0660F0A94EAF7962370
:1020B00090935C05992329F080915A058F5F809356
:1020C0005A05A99BFECF992309F4E7C43898E5BBCC
:1020D00087B58E5B87BD4F5F5F4F48305105F9F67E
:1020E00080915A0580FFDBC481E080935C05A99B49
:1020F000FECF80915C05882309F4D4C438988FEF13
:1021000085BB87B58E5B87BD81E080935C05A99B0D
:10211000FECF38988FEF85BB87B58E5B87BDA99BB7
:10212000FECF80915C05882309F4BEC438988FEFF8
:1021300085BB87B58E5B87BD10925F0510925A05EF
:102140003099FECF15BC16BC83B5816083BD81E09C
:1021500085BD81E287BDA99BFECF87B58E5B87BD1C
:102160008FEF85BB90E080E0E1E05FEFA1E0B0E0C1
:10217000A99BFECF309B9AC4E0935E0555BB47B543
:102180004E5B47BD40915E05442381F040915F0561
:10219000BD01082E01C0660F0A94EAF7462B409352
:1021A0005F0540915A054F5F40935A05019688306C
:1021B0009105F1F6A99BFECF309B7BC481E0809313
:1021C0005E058FEF85BB87B58E5B87BD80915E0511
:1021D000882321F080915A0580FD09C0809109066D
:1021E00090910A06019690930A0680930906A99B8E
:1021F000FECF309B61C481E080935E058FEF85BB8D
:1022000087B58E5B87BDA99BFECF309B58C481E00C
:1022100080935E058FEF85BB87B58E5B87BD15BC50
:1022200016BC83B5816083BD81E085BD82E487BD36
:1022300020935D0510925A0510925C05A99BFECF74
:10224000389A8FEF85BB87B58E5B87BD50E040E045
:10225000A1E0B0E0EFEF90915D05BD01042E01C05B
:10226000660F0A94EAF7962390935C05992329F068
:1022700080915A058F5F80935A05A99BFECF9923C1
:1022800009F420C43898E5BB87B58E5B87BD4F5FE6
:102290005F4F48305105F9F680915A0580FF14C40C
:1022A00081E080935C05A99BFECF80915C0588232B
:1022B00009F40DC438988FEF85BB87B58E5B87BD59
:1022C00081E080935C05A99BFECF38988FEF85BB9A
:1022D00087B58E5B87BDA99BFECF80915C05882367
:1022E00009F4F7C338988FEF85BB87B58E5B87BD40
:1022F00030935D0510925A0510925C05A99BFECFA4
:10230000389A8FEF85BB87B58E5B87BD30E020E0C4
:10231000E1E0F0E06FEF80915D05AF01022E01C0BA
:10232000440F0A94EAF7842380935C05882329F0FC
:1023300090915A059F5F90935A05A99BFECF8823E1
:1023400009F4C9C3389865BB87B58E5B87BD2F5F1D
:102350003F4F28303105F9F680915A0580FFBDC303
:1023600081E080935C05A99BFECF80915C0588236A
:1023700009F4B6C338988FEF85BB87B58E5B87BDF0
:1023800081E080935C05A99BFECF38988FEF85BBD9
:1023900087B58E5B87BDA99BFECF80915C058823A6
:1023A00009F4A0C338988FEF85BB87B58E5B87BDD6
:1023B00010925F0510925A053099FECF15BC16BCDD
:1023C00083B5816083BD81E085BD81E287BDA99B26
:1023D000FECF87B58E5B87BD8FEF85BB90E080E039
:1023E00061E03FEFE1E0F0E0A99BFECF309B7CC3D2
:1023F00060935E0535BB27B52E5B27BD20915E053A
:10240000222381F020915F05AF01082E01C0440F07
:102410000A94EAF7242B20935F0520915A052F5F39
:1024200020935A05019688309105F1F6A99BFECFBD
:10243000309B5DC381E080935E058FEF85BB87B5E0
:102440008E5B87BD80915E05882321F080915A05BF
:1024500080FD09C08091090690910A06019690932B
:102460000A0680930906A99BFECF309B43C381E0F7
:1024700080935E058FEF85BB87B58E5B87BDA99B7B
:10248000FECF309B3AC381E080935E058FEF85BB22
:1024900087B58E5B87BD15BC8AE20E94530015BCD0
:1024A00016BC83B5816083BD81E085BD82E487BDB4
:1024B00085E580935D0510925A0510925C05A99BF5
:1024C000FECF389A8FEF85BB87B58E5B87BD30E036
:1024D00020E0E1E0F0E06FEF80915D05AF01022EBA
:1024E00001C0440F0A94EAF7842380935C05882393
:1024F00029F090915A059F5F90935A05A99BFECFB2
:10250000882309F4FDC2389865BB87B58E5B87BD0B
:102510002F5F3F4F28303105F9F680915A0580FF33
:10252000F1C281E080935C05A99BFECF80915C05A0
:10253000882309F4EAC238988FEF85BB87B58E5B94
:1025400087BD81E080935C05A99BFECF38988FEF13
:1025500085BB87B58E5B87BDA99BFECF80915C054F
:10256000882309F4D4C238988FEF85BB87B58E5B7A
:1025700087BD84E480935D0510925A0510925C0536
:10258000A99BFECF389A8FEF85BB87B58E5B87BD41
:1025900030E020E0E1E0F0E06FEF80915D05AF0119
:1025A000022E01C0440F0A94EAF7842380935C054D
:1025B000882329F090915A059F5F90935A05A99B13
:1025C000FECF882309F4A5C2389865BB87B58E5B1A
:1025D00087BD2F5F3F4F28303105F9F680915A05AE
:1025E00080FF99C281E080935C05A99BFECF80911A
:1025F0005C05882309F492C238988FEF85BB87B5B4
:102600008E5B87BD81E080935C05A99BFECF3898E7
:102610008FEF85BB87B58E5B87BDA99BFECF809171
:102620005C05882309F47CC238988FEF85BB87B599
:102630008E5B87BD10925D0510925A0510925C0565
:10264000A99BFECF389A8FEF85BB87B58E5B87BD80
:1026500030E020E0E1E0F0E06FEF80915D05AF0158
:10266000022E01C0440F0A94EAF7842380935C058C
:10267000882329F090915A059F5F90935A05A99B52
:10268000FECF882309F44EC2389865BB87B58E5BB0
:1026900087BD2F5F3F4F28303105F9F680915A05ED
:1026A00080FF42C281E080935C05A99BFECF8091B0
:1026B0005C05882309F43BC238988FEF85BB87B54A
:1026C0008E5B87BD81E080935C05A99BFECF389827
:1026D0008FEF85BB87B58E5B87BDA99BFECF8091B1
:1026E0005C05882309F425C238988FEF85BB87B530
:1026F0008E5B87BD80E180935D0510925A05109234
:102700005C05A99BFECF389A8FEF85BB87B58E5BA2
:1027100087BD30E020E0E1E0F0E06FEF80915D0503
:10272000AF01022E01C0440F0A94EAF7842380937C
:102730005C05882329F090915A059F5F90935A0574
:10274000A99BFECF882309F4F6C1389865BB87B5ED
:102750008E5B87BD2F5F3F4F28303105F9F68091A2
:102760005A0580FFEAC181E080935C05A99BFECFFA
:1027700080915C05882309F4E3C138988FEF85BB0D
:1027800087B58E5B87BD81E080935C05A99BFECFFA
:1027900038988FEF85BB87B58E5B87BDA99BFECF31
:1027A00080915C05882309F4CDC138988FEF85BBF3
:1027B00087B58E5B87BD10925F0510925A053099E0
:1027C000FECF15BC16BC83B5816083BD81E085BD9D
:1027D00081E287BDA99BFECF87B58E5B87BD8FEF5A
:1027E00085BB90E080E061E03FEFE1E0F0E0A99B95
:1027F000FECF309BA9C160935E0535BB27B52E5B2C
:1028000027BD20915E05222381F020915F05AF0155
:10281000082E01C0440F0A94EAF7242B20935F0589
:1028200020915A052F5F20935A0501968830910513
:10283000F1F6A99BFECF309B8AC181E080935E05B3
:102840008FEF85BB87B58E5B87BD80915E05882342
:1028500021F080915A0580FD09C080910906909170
:102860000A06019690930A0680930906A99BFECF5B
:10287000309B70C181E080935E058FEF85BB87B58B
:102880008E5B87BDA99BFECF309B67C181E08093A3
:102890005E058FEF85BB87B58E5B87BD15BC16BC0B
:1028A00083B5816083BD81E085BD92E497BD80934F
:1028B0005D0510925A0510925C05A99BFECF389ACF
:1028C0008FEF85BB87B58E5B87BD30E020E0E1E010
:1028D000F0E06FEF80915D05AF01022E01C0440F63
:1028E0000A94EAF7842380935C05882329F0909169
:1028F0005A059F5F90935A05A99BFECF882309F440
:102900002FC1389865BB87B58E5B87BD2F5F3F4F62
:1029100028303105F9F680915A0580FF23C181E006
:1029200080935C05A99BFECF80915C05882309F408
:102930001CC138988FEF85BB87B58E5B87BD81E062
:1029400080935C05A99BFECF38988FEF85BB87B538
:102950008E5B87BDA99BFECF80915C05882309F41F
:1029600006C138988FEF85BB87B58E5B87BD109207
:102970005F0510925A053099FECF15BC16BC83B581
:10298000816083BD81E085BD81E287BDA99BFECFCB
:1029900087B58E5B87BD8FEF85BB90E080E061E0FF
:1029A0003FEFE1E0F0E0A99BFECF309BE2C06093F7
:1029B0005E0535BB27B52E5B27BD20915E05222322
:1029C00081F020915F05AF01082E01C0440F0A94E9
:1029D000EAF7242B20935F0520915A052F5F20935F
:1029E0005A05019688309105F1F6A99BFECF309BE0
:1029F000C3C081E080935E058FEF85BB87B58E5B9A
:102A000087BD80915E05882321F080915A0580FD65
:102A100009C08091090690910A06019690930A06D2
:102A200080930906A99BFECF309BA9C081E08093CB
:102A30005E058FEF85BB87B58E5B87BDA99BFECFFB
:102A4000309BA0C081E080935E058FEF85BB87B58A
:102A50008E5B87BD15BC80913E058FBF64E486E028
:102A60000C94FA0E389A10CA10925C051DCA389A56
:102A700023CA389A39CA389A68CA10925C0575CA4E
:102A8000389A7BCA389A91CA389AC0CA10925C05A3
:102A9000CDCA389AD3CA389AE9CA389A18CB109254
:102AA0005C0525CB389A2BCB389A41CB10925E052A
:102AB00065CB10925E0585CB10925E059FCB109280
:102AC0005E05A8CB389ADFCB10925C05ECCB389A28
:102AD000F2CB389A08CC389A36CC10925C0543CCAD
:102AE000389A49CC389A5FCC10925E0583CC10920C
:102AF0005E05A3CC10925E05BDCC10925E05C6CCDF
:102B0000389A02CD10925C050FCD389A15CD389ABF
:102B10002BCD389A5ACD10925C0567CD389A6DCD81
:102B2000389A83CD389AB1CD10925C05BECD389AD3
:102B3000C4CD389ADACD389A09CE10925C0516CEFB
:102B4000389A1CCE389A32CE10925E0556CE10922C
:102B50005E0576CE10925E0590CE10925E0599CEFF
:102B6000389AD0CE10925C05DDCE389AE3CE389AF2
:102B7000F9CE10925E051DCF10925E053DCF1092EA
:102B80005E0557CF10925E0560CF0F931F93CF93D2
:102B9000DF93C1E0D0E280913D05882309F44CC069
:102BA00080913D05815080933D05C09350050E9462
:102BB0009F0780913B0590913C05019690933C05C1
:102BC00080933B0580914E0590914F05019690931F
:102BD0004F0580934E0580914805815080934805AC
:102BE00080915605909157050196909357058093D3
:102BF000560580913B0590913C05809761F60091C8
:102C00004A0510914B05C8010E94070F109250050C
:102C100010923C0510923B05D093480580914705E2
:102C200080914705882309F4B6CFC0934D05C801AC
:102C300080960E94AA09AFCFDF91CF911F910F918B
:102C40000895CF92DF92EF92FF921F93CF93DF937D
:102C50007C01389A6CED82E00E949300D0E0C0E0E5
:102C600010E0CC24C394D12CC6010C2E02C0880FD6
:102C7000991F0A94E2F78E219F21892B09F1389838
:102C80001F5F6CED82E00E9493002196C830D10551
:102C900059F710FF17C038986CED82E00E9493003E
:102CA00038986CED82E00E9493006CED82E0DF9139
:102CB000CF911F91FF90EF90DF90CF900C949300F5
:102CC000389ADFCF389AE8CF0F931F93CF93DF93D3
:102CD0008C0185E590E00E94211680EE90E00E9434
:102CE0002116E80160962981888190ED980F9A302D
:102CF00014F099EC980F80ED820F8A3014F089EC73
:102D0000820F9295907F890F082E000C990B0E94DC
:102D1000211622970C171D0731F7DF91CF911F91D4
:102D20000F9108950F931F93CF938C01C62F85E5C4
:102D300090E00E94211684E490E00E94211688E031
:102D400090E10E94211680E190E00E9421160E94ED
:102D50009B006EEC83E00E949300C8010E94211644
:102D60000E949B006EEC83E00E94930085E590E05A
:102D70000E94211684E490E00E94211689E090E1EF
:102D80000E94211680E190E00E9421160E949B0083
:102D90006EEC83E00E94930082E190E00E94211695
:102DA0000E949B006EEC83E00E94930085E590E01A
:102DB0000E94211684E490E00E94211686E090E1B2
:102DC0000E94211680E190E00E9421160E949B0043
:102DD0006EEC83E00E9493008C2F90E00E942116FD
:102DE0000E949B006EEC83E00E94930085E590E0DA
:102DF0000E94211684E490E00E94211680E090E178
:102E00000E94211680E190E00E9421160E949B0002
:102E10006EEC83E00E94930087E090E00E94211610
:102E20000E949B0062EB85E0CF911F910F910C9463
:102E30009300A89584B7877F84BF809160008861E4
:102E4000809360001092600080917C008064809389
:102E50007C0085B78F7E85BF14B817B81AB88FEF7E
:102E600085B99EEF98B98BB962EB85E00E9493001B
:102E70001092C1001092C50084E48093C40082E0E7
:102E80008093C00088E18093C10086E08093C200F7
:102E900010920A061092090680E091E00E945A0002
:102EA0008AEF90E00E946F008823B1F38091C60002
:102EB0008F7D823589F788E891E00E945A0087E08B
:102EC00091E00E945A000E947E00813611F00C941D
:102ED000782680E491E00E945A008BE891E00E94FD
:102EE0005A000E947E0066E676EE84E00E9485002D
:102EF0007894309B61C0389A000000000000000008
:102F00003898309BFECF6CE983E00E94930085E502
:102F100090E00E94211689EC90E00E9421168DEF2E
:102F200090E00E9421166EEC83E00E94930085E5FC
:102F300090E00E94211682EC90E00E94211686E427
:102F400090E00E9421166EEC83E00E94930085E5DC
:102F500090E00E94211685EE90E00E942116309BA1
:102F600004C0809107068823D1F380910706811160
:102F70001AC00E949B0080936005C1E6D5E000E680
:102F800015E060E7E62E65E0F62E0E949B0089932F
:102F9000EC16FD06D1F7F80181918F010E945300D4
:102FA000C017D107C1F780910706882351F08CEB39
:102FB00091E00E945A00FFCF86EA91E00E945A00F9
:102FC000FFCFF8941092810080916F008E7F8093E4
:102FD0006F0083ED91E00E945A0082EF91E00E9421
:102FE0005A000E947E00893709F0D7C08BE092E03A
:102FF0000E945A008BE192E00E94641685E590E001
:103000000E94211687E890E00E9421160E949B00F2
:1030100083FD04C08EE292E00E945A006EEC83E0D1
:103020000E94930085E590E00E94211688EC90E0D4
:103030000E94211689E590E00E9421166EEC83E043
:103040000E94930085E590E00E94211688EC90E0B4
:103050000E94211690E080E00E9421166EEC83E031
:103060000E9493001092070670E060E084E00E94E6
:10307000850078946EEC83E00E94930085E590E0F3
:103080000E9421168BE890E00E9421160E949B006E
:1030900020913F05309140052F5F3F4F3093400511
:1030A00020933F0590910706911102C080FDE2CF69
:1030B000F89480910706882309F46CC082E492E0BA
:1030C0000E945A000E94F60E8AE892E00E9464165E
:1030D00085E590E00E94211687E890E00E94211685
:1030E0000E949B006EEC83E00E94930085E590E0D7
:1030F0000E94211688EC90E00E94211689E590E05C
:103100000E9421166EEC83E00E94930085E590E01A
:103110000E94211688EC90E00E94211690E080E049
:103120000E9421166EEC83E00E9493001092070625
:1031300070E060E084E00E94850078946EEC83E0AB
:103140000E94930085E590E00E9421168BE890E0B4
:103150000E9421160E949B0020913F05309140055E
:103160002F5F3F4F3093400520933F059091070616
:10317000911102C083FFE2CFF89480910706882363
:1031800079F08DE992E00E945A0080EB92E00E9473
:103190005A00FFCF82E692E093CF87E792E090CF8C
:1031A00082EC92E00E945A008DED92E00E945A005B
:1031B000C0E0D1E185E590E00E94211684E090E036
:1031C0000E942116CE010E94211681E190E00E940A
:1031D00021160E949B00682F70E080E10E949F0EE4
:1031E0006EEC83E00E9493002196C330F1E1DF078B
:1031F00009F70E94F60E88EF92E00E945A0060E004
:1032000080E892E10E94921660E081E892E10E94DB
:1032100092166EE782E892E10E94921667EF85E8C7
:1032200092E10E9492166DEF86E892E10E9492165A
:1032300068E387E892E10E94921660E088E892E1F4
:103240000E9492168CE093E00E945A000E947E0039
:10325000893709F0EBC788E48093830581E393E025
:103260000E945A0010925705109256051092790547
:103270001092780580E180935105109250051092CC
:103280004F0510924E0510924D05109204061092B3
:103290005B0510924C05109281051092800580917B
:1032A000C10080688093C10078940E942D0E0E9416
:1032B0000B0E80914A0590914B050E94AA090E942D
:1032C000C515C0E2D0E00E942D0E809149058823EB
:1032D00061F180914C05882329F0813009F10E9429
:1032E000C515F1CF8091470520914805AE01481BD7
:1032F000510987FD53952417150689F72091450537
:1033000030914605C901807E9F7190934B05809353
:103310004A052F713327232B11F70E94AA09DFCF0B
:103320000E940B0E10924C05DACFF8948091C100E8
:103330008F778093C1008AE090E00E946F00813017
:1033400019F48091C600F7CF8091440580FF27C013
:10335000E0910406F0E0EE0FFF1FEC57FA4F1182E8
:103360001082809104068F5F809304060E949F075D
:10337000809156059091570501969093570580933B
:10338000560521E020935005809142059091430518
:1033900001968F719927892B11F020934D0580910B
:1033A0004105882309F470C5809150058111C6C17B
:1033B00080914D05882309F4C1C115BC16BC83B5A5
:1033C000816083BD81E085BD82E487BD85E5809312
:1033D0005D0510925A0510925C05A99BFECF389AA4
:1033E0008FEF85BB87B58E5B87BD30E020E0E1E0E5
:1033F000F0E06FEF80915D05AF01022E01C0440F38
:103400000A94EAF7842380935C05882329F090913D
:103410005A059F5F90935A05A99BFECF882309F414
:1034200053C7389865BB87B58E5B87BD2F5F3F4F0D
:1034300028303105F9F680915A0580FF47C7109270
:103440005C05A99BFECF80915C05882309F442C7E7
:1034500038988FEF85BB87B58E5B87BD81E0809301
:103460005C05A99BFECF38988FEF85BB87B58E5B37
:1034700087BDA99BFECF80915C05882309F42CC7EA
:1034800038988FEF85BB87B58E5B87BD10925C0542
:103490008CE090E03FEFA99BFECF20915C052223BA
:1034A00009F41CC7389835BB27B52E5B27BD01979B
:1034B00091F781E080935C05A99BFECF38988FEF50
:1034C00085BB87B58E5B87BDA99BFECF80915C05D0
:1034D000882309F405C738988FEF85BB87B58E5BC5
:1034E00087BD15BC16BC83B5816083BD81E085BDF9
:1034F00082E487BD85E580935D0510925A051092A0
:103500005C05A99BFECF389A8FEF85BB87B58E5B94
:1035100087BD30E020E0E1E0F0E06FEF80915D05F5
:10352000AF01022E01C0440F0A94EAF7842380936E
:103530005C05882329F090915A059F5F90935A0566
:10354000A99BFECF882309F4CDC6389865BB87B503
:103550008E5B87BD2F5F3F4F28303105F9F6809194
:103560005A0580FFC1C681E080935C05A99BFECF10
:1035700080915C05882309F4BAC638988FEF85BB23
:1035800087B58E5B87BD81E080935C05A99BFECFEC
:1035900038988FEF85BB87B58E5B87BDA99BFECF23
:1035A00080915C05882309F4A4C638988FEF85BB09
:1035B00087B58E5B87BD89EC80935D0510925A05B7
:1035C00010925C05A99BFECF389A8FEF85BB87B51B
:1035D0008E5B87BD30E020E0E1E0F0E06FEF8091AE
:1035E0005D05AF01022E01C0440F0A94EAF784235F
:1035F00080935C05882329F090915A059F5F9093F2
:103600005A05A99BFECF882309F475C6389865BB77
:1036100087B58E5B87BD2F5F3F4F28303105F9F6A8
:1036200080915A0580FF69C681E080935C05A99B63
:10363000FECF80915C05882309F462C638988FEF2D
:1036400085BB87B58E5B87BD81E080935C05A99BB8
:10365000FECF38988FEF85BB87B58E5B87BDA99B62
:10366000FECF80915C05882309F44CC638988FEF13
:1036700085BB87B58E5B87BD81E080935D05109229
:103680005A0510925C05A99BFECF389A8FEF85BB37
:1036900087B58E5B87BD30E020E0E1E0F0E06FEFC2
:1036A00080915D05AF01022E01C0440F0A94EAF734
:1036B000842380935C05882329F090915A059F5FAD
:1036C00090935A05A99BFECF882309F41DC638980C
:1036D00065BB87B58E5B87BD2F5F3F4F28303105B7
:1036E000F9F680915A0580FF11C681E080935C0550
:1036F000A99BFECF80915C05882309F40AC63898FF
:103700008FEF85BB87B58E5B87BD81E080935C05BD
:10371000A99BFECF38988FEF85BB87B58E5B87BDA1
:10372000A99BFECF80915C05882309F4F4C53898E5
:103730008FEF85BB87B58E5B87BD15BC809150052B
:10374000882309F4CFC180914D05882309F4CAC1AB
:1037500015BC16BC83B5816083BD81E085BD82E464
:1037600087BD85E580935D0510925A0510925C0532
:10377000A99BFECF389A8FEF85BB87B58E5B87BD3F
:1037800030E020E0E1E0F0E06FEF80915D05AF0117
:10379000022E01C0440F0A94EAF7842380935C054B
:1037A000882329F090915A059F5F90935A05A99B11
:1037B000FECF882309F4B1C5389865BB87B58E5B09
:1037C00087BD2F5F3F4F28303105F9F680915A05AC
:1037D00080FFA5C510925C05A99BFECF80915C057A
:1037E000882309F4A0C538988FEF85BB87B58E5B19
:1037F00087BD81E080935C05A99BFECF38988FEF51
:1038000085BB87B58E5B87BDA99BFECF80915C058C
:10381000882309F48AC538988FEF85BB87B58E5BFE
:1038200087BD10925C058CE090E03FEFA99BFECF36
:1038300020915C05222309F47AC5389835BB27B559
:103840002E5B27BD019791F781E080935C05A99BD2
:10385000FECF38988FEF85BB87B58E5B87BDA99B60
:10386000FECF80915C05882309F463C538988FEFFB
:1038700085BB87B58E5B87BD15BC16BC83B58160E3
:1038800083BD81E085BD82E487BD85E580935D05CC
:1038900010925A0510925C05A99BFECF389A8FEFC3
:1038A00085BB87B58E5B87BD30E020E0E1E0F0E0CE
:1038B0006FEF80915D05AF01022E01C0440F0A94A5
:1038C000EAF7842380935C05882329F090915A05B8
:1038D0009F5F90935A05A99BFECF882309F42BC5BF
:1038E000389865BB87B58E5B87BD2F5F3F4F28300B
:1038F0003105F9F680915A0580FF1FC581E080935C
:103900005C05A99BFECF80915C05882309F418C54E
:1039100038988FEF85BB87B58E5B87BD81E080933C
:103920005C05A99BFECF38988FEF85BB87B58E5B72
:1039300087BDA99BFECF80915C05882309F402C551
:1039400038988FEF85BB87B58E5B87BD89EC8093F8
:103950005D0510925A0510925C05A99BFECF389A1E
:103960008FEF85BB87B58E5B87BD30E020E0E1E05F
:10397000F0E06FEF80915D05AF01022E01C0440FB2
:103980000A94EAF7842380935C05882329F09091B8
:103990005A059F5F90935A05A99BFECF882309F48F
:1039A000D3C4389865BB87B58E5B87BD2F5F3F4F0B
:1039B00028303105F9F680915A0580FFC7C481E0AF
:1039C00080935C05A99BFECF80915C05882309F458
:1039D000C0C438988FEF85BB87B58E5B87BD81E00B
:1039E00080935C05A99BFECF38988FEF85BB87B588
:1039F0008E5B87BDA99BFECF80915C05882309F46F
:103A0000AAC438988FEF85BB87B58E5B87BD81E0F0
:103A100080935D0510925A0510925C05A99BFECF1C
:103A2000389A8FEF85BB87B58E5B87BD30E020E08D
:103A3000E1E0F0E06FEF80915D05AF01022E01C083
:103A4000440F0A94EAF7842380935C05882329F0C5
:103A500090915A059F5F90935A05A99BFECF8823AA
:103A600009F47BC4389865BB87B58E5B87BD2F5F33
:103A70003F4F28303105F9F680915A0580FF6FC419
:103A800081E080935C05A99BFECF80915C05882333
:103A900009F468C438988FEF85BB87B58E5B87BD06
:103AA00081E080935C05A99BFECF38988FEF85BBA2
:103AB00087B58E5B87BDA99BFECF80915C0588236F
:103AC00009F452C438988FEF85BB87B58E5B87BDEC
:103AD00015BC80914A0590914B0580960E94070F76
:103AE0001092500580915005882309F4CDC1809132
:103AF0004D058111C9C115BC16BC83B5816083BD5C
:103B000081E085BD82E487BD85E580935D051092E7
:103B10005A0510925C05A99BFECF389A8FEF85BBA2
:103B200087B58E5B87BD30E020E0E1E0F0E06FEF2D
:103B300080915D05AF01022E01C0440F0A94EAF79F
:103B4000842380935C05882329F090915A059F5F18
:103B500090935A05A99BFECF882309F407C438988F
:103B600065BB87B58E5B87BD2F5F3F4F2830310522
:103B7000F9F680915A0580FFFBC310925C05A99B62
:103B8000FECF80915C05882309F4F6C338988FEF47
:103B900085BB87B58E5B87BD81E080935C05A99B63
:103BA000FECF38988FEF85BB87B58E5B87BDA99B0D
:103BB000FECF80915C05882309F4E0C338988FEF2D
:103BC00085BB87B58E5B87BD10925C058CE090E06D
:103BD0003FEFA99BFECF20915C05222309F4D0C3BF
:103BE000389835BB27B52E5B27BD019791F781E04B
:103BF00080935C05A99BFECF38988FEF85BB87B576
:103C00008E5B87BDA99BFECF80915C05882309F45C
:103C1000B9C338988FEF85BB87B58E5B87BD15BC60
:103C200016BC83B5816083BD81E085BD82E487BD1C
:103C300085E580935D0510925A0510925C05A99B5D
:103C4000FECF389A8FEF85BB87B58E5B87BD30E09E
:103C500020E0E1E0F0E06FEF80915D05AF01022E22
:103C600001C0440F0A94EAF7842380935C058823FB
:103C700029F090915A059F5F90935A05A99BFECF1A
:103C8000882309F481C3389865BB87B58E5B87BDEF
:103C90002F5F3F4F28303105F9F680915A0580FF9C
:103CA00075C381E080935C05A99BFECF80915C0584
:103CB000882309F46EC338988FEF85BB87B58E5B78
:103CC00087BD81E080935C05A99BFECF38988FEF7C
:103CD00085BB87B58E5B87BDA99BFECF80915C05B8
:103CE000882309F458C338988FEF85BB87B58E5B5E
:103CF00087BD89EC80935D0510925A0510925C0592
:103D0000A99BFECF389A8FEF85BB87B58E5B87BDA9
:103D100030E020E0E1E0F0E06FEF80915D05AF0181
:103D2000022E01C0440F0A94EAF7842380935C05B5
:103D3000882329F090915A059F5F90935A05A99B7B
:103D4000FECF882309F429C3389865BB87B58E5BFD
:103D500087BD2F5F3F4F28303105F9F680915A0516
:103D600080FF1DC381E080935C05A99BFECF8091FD
:103D70005C05882309F416C338988FEF85BB87B597
:103D80008E5B87BD81E080935C05A99BFECF389850
:103D90008FEF85BB87B58E5B87BDA99BFECF8091DA
:103DA0005C05882309F400C338988FEF85BB87B57D
:103DB0008E5B87BD81E080935D0510925A0510925D
:103DC0005C05A99BFECF389A8FEF85BB87B58E5BCC
:103DD00087BD30E020E0E1E0F0E06FEF80915D052D
:103DE000AF01022E01C0440F0A94EAF784238093A6
:103DF0005C05882329F090915A059F5F90935A059E
:103E0000A99BFECF882309F4D1C2389865BB87B53A
:103E10008E5B87BD2F5F3F4F28303105F9F68091CB
:103E20005A0580FFC5C281E080935C05A99BFECF47
:103E300080915C05882309F4BEC238988FEF85BB5A
:103E400087B58E5B87BD81E080935C05A99BFECF23
:103E500038988FEF85BB87B58E5B87BDA99BFECF5A
:103E600080915C05882309F4A8C238988FEF85BB40
:103E700087B58E5B87BD15BC80914A0590914B0537
:103E80000E94070F10925005809141058111CEC10B
:103E900080915005882309F4C9C115BC16BC83B5AF
:103EA000816083BD81E085BD82E487BD85E5809327
:103EB0005D0510925A0510925C05A99BFECF389AB9
:103EC0008FEF85BB87B58E5B87BD30E020E0E1E0FA
:103ED000F0E06FEF80915D05AF01022E01C0440F4D
:103EE0000A94EAF7842380935C05882329F0909153
:103EF0005A059F5F90935A05A99BFECF882309F42A
:103F00005EC2389865BB87B58E5B87BD2F5F3F4F1C
:103F100028303105F9F680915A0580FF52C210927F
:103F20005C05A99BFECF80915C05882309F44DC2F6
:103F300038988FEF85BB87B58E5B87BD81E0809316
:103F40005C05A99BFECF38988FEF85BB87B58E5B4C
:103F500087BDA99BFECF80915C05882309F437C2F9
:103F600038988FEF85BB87B58E5B87BD10925C0557
:103F70008CE090E03FEFA99BFECF20915C052223CF
:103F800009F427C2389835BB27B52E5B27BD0197AA
:103F900091F781E080935C05A99BFECF38988FEF65
:103FA00085BB87B58E5B87BDA99BFECF80915C05E5
:103FB000882309F410C238988FEF85BB87B58E5BD4
:103FC00087BD15BC16BC83B5816083BD81E085BD0E
:103FD00082E487BD85E580935D0510925A051092B5
:103FE0005C05A99BFECF389A8FEF85BB87B58E5BAA
:103FF00087BD30E020E0E1E0F0E06FEF80915D050B
:10400000AF01022E01C0440F0A94EAF78423809383
:104010005C05882329F090915A059F5F90935A057B
:10402000A99BFECF882309F4D8C1389865BB87B512
:104030008E5B87BD2F5F3F4F28303105F9F68091A9
:104040005A0580FFCCC181E080935C05A99BFECF1F
:1040500080915C05882309F4C5C138988FEF85BB32
:1040600087B58E5B87BD81E080935C05A99BFECF01
:1040700038988FEF85BB87B58E5B87BDA99BFECF38
:1040800080915C05882309F4AFC138988FEF85BB18
:1040900087B58E5B87BD89EC80935D0510925A05CC
:1040A00010925C05A99BFECF389A8FEF85BB87B530
:1040B0008E5B87BD30E020E0E1E0F0E06FEF8091C3
:1040C0005D05AF01022E01C0440F0A94EAF7842374
:1040D00080935C05882329F090915A059F5F909307
:1040E0005A05A99BFECF882309F480C1389865BB87
:1040F00087B58E5B87BD2F5F3F4F28303105F9F6BE
:1041000080915A0580FF74C181E080935C05A99B72
:10411000FECF80915C05882309F46DC138988FEF3C
:1041200085BB87B58E5B87BD81E080935C05A99BCD
:10413000FECF38988FEF85BB87B58E5B87BDA99B77
:10414000FECF80915C05882309F457C138988FEF22
:1041500085BB87B58E5B87BD81E080935D0510923E
:104160005A0510925C05A99BFECF389A8FEF85BB4C
:1041700087B58E5B87BD30E020E0E1E0F0E06FEFD7
:1041800080915D05AF01022E01C0440F0A94EAF749
:10419000842380935C05882329F090915A059F5FC2
:1041A00090935A05A99BFECF882309F428C138981B
:1041B00065BB87B58E5B87BD2F5F3F4F28303105CC
:1041C000F9F680915A0580FF1CC181E080935C055F
:1041D000A99BFECF80915C05882309F415C138980E
:1041E0008FEF85BB87B58E5B87BD81E080935C05D3
:1041F000A99BFECF38988FEF85BB87B58E5B87BDB7
:10420000A99BFECF80915C05882309F4FFC03898F4
:104210008FEF85BB87B58E5B87BD15BC80914A0546
:1042200090914B050E94070F109250058FE393E089
:104230000E945A000E947E00809156059091570579
:10424000892B31F480E090E49093570580935605D4
:1042500081E693E00E945A000E947E00D82F8033AE
:1042600009F030C11092550510925405E0905605A2
:10427000F09057058EE793E00E945A000E947E005E
:10428000182F80E880938500109284008FEF86BB02
:1042900084E080938100B09BFECFB09A10928100A1
:1042A00081E090E00E946F00882321F08091C60099
:1042B000D12F182F85E090E00E946F00813009F027
:1042C000A7C08091C600F6CF389AACC881E0809331
:1042D0005C05B7C8389ABDC8389AD3C8389AE3C8BD
:1042E000389AFAC8389A32C910925C053FC9389A90
:1042F00045C9389A5BC9389A8AC910925C0597C932
:10430000389A9DC9389AB3C9389AE2C910925C05A7
:10431000EFC9389AF5C9389A0BCA389A4ECA81E063
:1043200080935C0559CA389A5FCA389A75CA389A18
:1043300085CA389A9CCA389AD4CA10925C05E1CAD8
:10434000389AE7CA389AFDCA389A2CCB10925C0585
:1043500039CB389A3FCB389A55CB389A84CB1092C8
:104360005C0591CB389A97CB389AADCB389AF8CB7D
:1043700081E080935C0503CC389A09CC389A1FCC35
:10438000389A2FCC389A46CC389A7ECC10925C055D
:104390008BCC389A91CC389AA7CC389AD6CC10923C
:1043A0005C05E3CC389AE9CC389AFFCC389A2ECD0C
:1043B00010925C053BCD389A41CD389A57CD389A4A
:1043C000A1CD81E080935C05ACCD389AB2CD389A0E
:1043D000C8CD389AD8CD389AEFCD389A27CE1092DA
:1043E0005C0534CE389A3ACE389A50CE389A7FCE81
:1043F00010925C058CCE389A92CE389AA8CE389A14
:10440000D7CE10925C05E4CE389AEACE389A00CF27
:1044100086EC8D0F873008F407C1C0EDCD0FC73192
:1044200008F002C186EC810F873008F4FDC080EDF2
:10443000810F873108F0F8C0C13110F0C9ECCD0F01
:1044400050E1C502E0011124813110F089EC810FA7
:10445000C80FD11D87FDDA95BE0180E10E949F0E35
:1044600083E091E00E945A0088248394912C00E01C
:1044700010E8712C612C45E0442E512C540191E040
:10448000A91AB108E114F10409F0D1C00E94F60E96
:104490008FE893E00E945A0060915605709157058D
:1044A0008AE00E949F0E82EA93E00E945A00609187
:1044B0005405709155058AE00E949F0E89EA93E0A9
:1044C0000E945A0082EB93E00E945A00CFE7D2E1AB
:1044D0002196CE01835892410297D0F385E590E072
:1044E0000E94211684E090E00E942116CE010E94D5
:1044F000211682E190E00E9421160E949B00682F05
:1045000070E080E10E949F0EC53882E1D80719F45F
:1045100089E00E9453006EEC83E00E949300C8384B
:1045200092E1D907A9F687EE93E00E945A000E9413
:104530007E00893709F08DC384E58093830510924E
:10454000060683E08093050610928105109280058F
:1045500080E38093820510925B05109204068FE041
:1045600094E00E945A00EFE3FCE93197F1F700C0B4
:10457000000081E08093C50080EA8093C4000E941F
:104580007E008237E1F78CE394E00E945A0080912C
:10459000C10080688093C100789481E08093080610
:1045A00060EB7CE382E00E94850080E09CE10E9459
:1045B000AA09C0E0E12C2CE1F22E0E949F07E091B5
:1045C0005B05F0E0EE0FFF1FEC57FA4F11821082EF
:1045D00087010F5F1F4FCF5F80910506833029F061
:1045E00080910506815080930506C03241F4C701D1
:1045F0004F970E94070FC8010E94AA09C0E080914E
:10460000050678018111D9CFF8948091C1008F7788
:104610008093C1008AE090E00E946F00813009F031
:1046200086C08091C600F6CFD0E0C0E015CF68010B
:10463000E0E8CE0ED11CC8010E942D031C0190930E
:104640005305809352050E5F1F4F0115F0E21F07BF
:1046500009F41CCF019609F0D6C30C151D0559F7B6
:1046600015CFB2010E943B27892B19F48AE20E94E0
:1046700053008091540590915505019690935505EE
:1046800080935405670181E0C81AD10898E0E91ABF
:10469000F10862EB87E00E94FA0EC8010E942D0328
:1046A0009C0190935305809352050E5F1F4F019616
:1046B00019F1F1E0CF1AD108209751F0C501BE01E0
:1046C0000E943B27892B21F4B90180E10E949F0EB3
:1046D00080915405909155050196909355058093CE
:1046E0005405011540E2140709F4ADC3CE14DF04EC
:1046F00081F6209719F416C0209779F0C501BE0104
:104700000E943B27892B49F4C30187709927892B85
:1047100021F488E891E00E945A00011550E2150743
:1047200009F4B4CE8FEF881A980A7601A7CE15BC8B
:1047300016BC83B5816083BD81E085BD82E487BD01
:1047400085E580935D0510925A0510925C05A99B42
:10475000FECF389A8FEF85BB87B58E5B87BD30E083
:1047600020E0E1E0F0E06FEF80915D05AF01022E07
:1047700001C0440F0A94EAF7842380935C058823E0
:1047800029F090915A059F5F90935A05A99BFECFFF
:10479000882309F409C2389865BB87B58E5B87BD4D
:1047A0002F5F3F4F28303105F9F680915A0580FF81
:1047B000FDC110925C05A99BFECF80915C0588230A
:1047C00009F4F8C138988FEF85BB87B58E5B87BD3C
:1047D00081E080935C05A99BFECF38988FEF85BB65
:1047E00087B58E5B87BDA99BFECF80915C05882332
:1047F00009F4E2C138988FEF85BB87B58E5B87BD22
:1048000010925C058CE090E03FEFA99BFECF2091D9
:104810005C05222309F4D2C1389835BB27B52E5B3D
:1048200027BD019791F781E080935C05A99BFECF9E
:1048300038988FEF85BB87B58E5B87BDA99BFECF70
:1048400080915C05882309F4BBC138988FEF85BB44
:1048500087B58E5B87BD15BC16BC83B5816083BDF3
:1048600081E085BD82E487BD85E580935D0510927A
:104870005A0510925C05A99BFECF389A8FEF85BB35
:1048800087B58E5B87BD30E020E0E1E0F0E06FEFC0
:1048900080915D05AF01022E01C0440F0A94EAF732
:1048A000842380935C05882329F090915A059F5FAB
:1048B00090935A05A99BFECF882309F483C13898A9
:1048C00065BB87B58E5B87BD2F5F3F4F28303105B5
:1048D000F9F680915A0580FF77C181E080935C05ED
:1048E000A99BFECF80915C05882309F470C138989C
:1048F0008FEF85BB87B58E5B87BD81E080935C05BC
:10490000A99BFECF38988FEF85BB87B58E5B87BD9F
:10491000A99BFECF80915C05882309F45AC1389881
:104920008FEF85BB87B58E5B87BD89EC80935D0576
:1049300010925A0510925C05A99BFECF389A8FEF12
:1049400085BB87B58E5B87BD30E020E0E1E0F0E01D
:104950006FEF80915D05AF01022E01C0440F0A94F4
:10496000EAF7842380935C05882329F090915A0507
:104970009F5F90935A05A99BFECF882309F42BC112
:10498000389865BB87B58E5B87BD2F5F3F4F28305A
:104990003105F9F680915A0580FF1FC181E08093AF
:1049A0005C05A99BFECF80915C05882309F418C1A2
:1049B00038988FEF85BB87B58E5B87BD81E080938C
:1049C0005C05A99BFECF38988FEF85BB87B58E5BC2
:1049D00087BDA99BFECF80915C05882309F402C1A5
:1049E00038988FEF85BB87B58E5B87BD81E080935C
:1049F0005D0510925A0510925C05A99BFECF389A6E
:104A00008FEF85BB87B58E5B87BD30E020E0E1E0AE
:104A1000F0E06FEF80915D05AF01022E01C0440F01
:104A20000A94EAF7842380935C05882329F0909107
:104A30005A059F5F90935A05A99BFECF882309F4DE
:104A4000D3C0389865BB87B58E5B87BD2F5F3F4F5E
:104A500028303105F9F680915A0580FFC7C081E002
:104A600080935C05A99BFECF80915C05882309F4A7
:104A7000C0C038988FEF85BB87B58E5B87BD81E05E
:104A800080935C05A99BFECF38988FEF85BB87B5D7
:104A90008E5B87BDA99BFECF80915C05882309F4BE
:104AA000AAC038988FEF85BB87B58E5B87BD15BCD4
:104AB000CC2329F0C8018C1B91090E94070F80911B
:104AC0005805909159050197909359058093580581
:104AD00087E494E00E945A0060E070E2601B710B72
:104AE000660F771F8AE00E949F0E8DE594E00E947A
:104AF0005A0086E694E00E945A008FE39CE90197F1
:104B0000F1F700C0000084E48093C4001092C50057
:104B10000E947E008237E1F785E994E00E945A0006
:104B200060E078EB80E10E949F0E0E94F60E61E04B
:104B300070E080E10E949F0E89E00E945300C0E077
:104B4000D2E000E018EBC8010E942D03F82E9FEF81
:104B5000F91609F47EC064E687E00E94FA0EC801E7
:104B60000E942D03E92EFF2009F44BC0CF5FE0E245
:104B7000FE1243C0CB3508F440C083EE93E00E94A0
:104B80005A00C0E0EE2009F452C0CF5FF0E2EF120D
:104B90004AC0CB3508F447C083EE93E00E945A0028
:104BA000C0E00E5F1F4FCFCF389AF6CD81E08093E3
:104BB0005C0501CE389A07CE389A1DCE389A2DCE94
:104BC000389A44CE389A7CCE10925C0589CE389AB9
:104BD0008FCE389AA5CE389AD4CE10925C05E1CE0D
:104BE000389AE7CE389AFDCE389A2CCF10925C05D1
:104BF00039CF389A3FCF389A55CF8F2D0E94530026
:104C0000C1CF0E94F60E0E94F60EFF24F394FD0E13
:104C10006D2F70E08AE00E949F0E89E00E94530091
:104C2000C0E0DF2DAFCF8E2D0E945300BACF0E947F
:104C3000F60E0E94F60EFF24F394FD0E6D2F70E029
:104C40008AE00E949F0E89E00E945300C0E0DF2DA1
:104C5000A8CF87EA94E00E945A0065EC8AE892E1C6
:104C60000E9492168CEB94E00E945A000E947E00F3
:104C7000893709F0B5C060E08AE892E10E94921697
:104C800088ED94E00E945A006EEC83E00E9493004D
:104C900085E590E00E94211688EC90E00E942116A4
:104CA00089E590E00E9421166EEC83E00E9493005B
:104CB00085E590E00E94211688EC90E00E94211684
:104CC00090E080E00E9421166EEC83E00E94930049
:104CD0008EEF94E00E945A0085E590E00E94211634
:104CE00083EC90E00E94211687EE90E00E9421164E
:104CF00084E195E00E945A000E947E00893709F005
:104D000077C03C9A449AC1E0D0E011E0359B04C0E2
:104D10008091C00087FFFACF359931C010925F05AE
:104D20008FEC90E00197F1F700C0000090E080E088
:104D3000EFE9F1E03197F1F700C00000359B53C077
:104D400010935E0520915E05222359F020915F05A6
:104D5000AE01082E01C0440F0A94EAF7242B2093D9
:104D60005F0501968830910519F78FE991E0019769
:104D7000F1F700C0000080915F050E945300809110
:104D8000C00087FFC3CF8091C60080935D05449823
:104D9000EFE9F1E03197F1F700C0000090E080E02A
:104DA00020915D05AE01082E01C0440F0A94EAF778
:104DB000242320935C052223C9F0449AEFE9F1E013
:104DC0003197F1F700C0000001968830910541F756
:104DD000449A8FE991E00197F1F700C0000096CF67
:104DE0008AEE94E04FCF10925E05ACCF4498E6CFA8
:104DF00088E199E00FB6F894A895809360000FBE03
:104E000090936000FFCFC501209709F42ACCBE0122
:104E10000E943B27892B09F02CCC80EB93E00E9469
:104E20005A00B8016250704880E10E949F0E85E0F0
:104E300091E00E945A005FEF651A750AB10180E1A6
:104E40000E949F0E16CC209709F058CC1FCBAA1BAE
:104E5000BB1B51E107C0AA1FBB1FA617B70710F065
:104E6000A61BB70B881F991F5A95A9F78095909597
:104E7000BC01CD01089597FB072E16F4009407D0CE
:104E800077FD09D00E94272707FC05D03EF49095B6
:104E900081959F4F0895709561957F4F0895EE0F0E
:0E4EA000FF1F0590F491E02D0994F894FFCFC8
:104EAE00523F20202020000D0A5072657373202778
:104EBE00612720746F2070726F6772616D2074614C
:104ECE0072676574206F7220414F4B20746F207291
:104EDE00756E20746167657420636F64650D0A00DA
:104EEE000D0A554E4F5F555044495F50726F6772B1
:104EFE00616D65725F5631612028616C736F20772A
:104F0E006F726B73206F6E20616E2041746D6567DA
:104F1E00612033323820636C6F636B65642061747B
:104F2E0020384D487A290D0A0D0A005072657373A8
:104F3E0020616E79206B657920746F2073746172B5
:104F4E00740D0A0D0A00446576696365206E6F74F0
:104F5E002064657465637465640D0A00506F77652F
:104F6E0072204379636C6520526571756972656450
:104F7E000D0A000D0A496E697469616C6973696E78
:104F8E0067204E564D2070726F6772616D6D696E3F
:104F9E0067000D0A457261736520636869703F2072
:104FAE002D792D206F7220414F4B00094572617390
:104FBE00696E6720636869700D0A00307834453574
:104FCE0036344434353732363137333635000D0A00
:104FDE0043686970206572617365206661696C65EE
:104FEE0064000D0A4661696C7572653A20446576F7
:104FFE00696365207374696C6C206C6F636B656498
:10500E0009000D0A44657669636520756E6C6F63E1
:10501E006B6564090909000943686970206E6F7435
:10502E00206572617365640D0A003078344535363B
:10503E00344435303732364636373230004E564DE0
:10504E0050524F47206661696C7572653A200900AF
:10505E000D0A504F5220746F2070726F6365656435
:10506E002100526561647920666F72204E564D2084
:10507E0070726F6772616D6D696E6709000D0A530C
:10508E0069676E61747572652062797465207265E8
:10509E0061646F757409090050726F6772616D6D8E
:1050AE00696E672066757365730D0A000D0A50727E
:1050BE006F6772616D20666C6173682077697468C2
:1050CE00206865783F202D792D206F7220414F4B3F
:1050DE00000D0A53656E642066696C652020000D14
:1050EE000A566572696679696E6720666C617368C7
:1050FE003A20414B20746F20636F6E74696E756534
:10510E00000D0A50726573732030206F7220414F6C
:10511E004B20746F206573636170650D0A00496ED4
:10512E00746567657228302D4646293F2020000D94
:10513E000A4865785F66696C655F73697A653A20BF
:10514E00200020696E3A202000206F75740D0A0031
:10515E000D000D0A46757365733A095744542C2099
:10516E00424F442C204F53432C535953300953591B
:10517E0053312C20415050454E442C20424F4F5419
:10518E00454E440D0A09000D0A0D0A50726F6772E2
:10519E00616D20666C617368207769746820746530
:1051AE0078743F202D792D206F7220414F4B000DCA
:1051BE000A5265647563652062617564207261745C
:1051CE006520746F20342E386B4220616E6420701F
:1051DE0072657373202772272E0D0A0053656E6455
:1051EE002066696C652E000D0A556E757365642018
:1051FE006461746120617265613A202000206279D9
:10520E007465730D0A000D0A526573746F72652012
:10521E0062617564207261746520746F2032382E5D
:10522E00386B4220616E6420707265737320277232
:10523E00272E0D0A000D0A5374617274206F6620BA
:10524E00666C61736820000D0A0D0A556E6C6F63F3
:10525E006B696E6720646576696365000D0A2D794A
:10526E002D20746F204C6F636B20646576696365C7
:10527E00206F7220414F4B000D0A446576696365BD
:10528E00206C6F636B65640D0A000D0A44657669C8
:10529E00636520756E6C6F636B65640D0A005365F4
:1052AE0073696F6E207465726D696E617465640DDD
:1052BE000A0D0A000D0A52756E20747269616C2017
:1052CE006170706C69636174696F6E3F202D792D0A
:0A52DE00206F7220414F4B0D0A00B3
:00000001FF
