:100000000C9434000C9451000C9451000C94510049
:100010000C9451000C9451000C9451000C9451001C
:100020000C9451000C9451000C9451000C9451000C
:100030000C9451000C94E3000C9451000C9451006A
:100040000C9451000C9451000C9438010C94510004
:100050000C9451000C9451000C9451000C945100DC
:100060000C9451000C94510011241FBECFEFD8E026
:10007000DEBFCDBF15E0A0E0B1E0EEEAFEE402C0D5
:1000800005900D92A035B107D9F726E0A0E5B5E0BF
:1000900001C01D92A132B207E1F70E9419170C941A
:1000A00055270C9400009091C00095FFFCCF8093E1
:1000B000C60008950F931F93CF93DF93EC018C013B
:1000C00008531F4F8991882329F00E945300C017BD
:1000D000D107C1F7DF91CF911F910F91089521EAC8
:1000E0003FE04091C00047FD07C021503109C9F7EA
:1000F0000197A9F780E0089581E008958091C000FC
:1001000087FFFCCF8091C6000895EFE6F0E0908174
:100110009160908370938500609384009FEF96BBFD
:1001200080938100089593B566BD85BDA89BFECFE1
:10013000A89A15BC0895EF92FF920F931F93CF9347
:10014000DF9386B1182F117080FDFBCF6CED82E03C
:100150000E949300D0E0C0E000E0EE24E394F12C94
:100160006CED82E00E949300309B08C0C7010C2E0A
:1001700001C0880F0A94EAF7182B0F5F2196C83048
:10018000D10571F76CED82E00E949300309B02C0B4
:1001900000FD09C080911F06909120060196909362
:1001A000200680931F066CED82E00E9493006CEDA8
:1001B00082E00E949300812FDF91CF911F910F91D8
:1001C000FF90EF9008951F920F920FB60F92112497
:1001D0008F93EF93FF9380911E06811105C081E0FC
:1001E00080931D061092810080911E068130C1F51A
:1001F00080911C068330A1F510921E0680911B068B
:10020000815080931B061092810080916F008E7F39
:1002100080936F0080911A068F5F80931A068091F9
:100220001A068F7380931A06E0911A06F0E0EE0F1B
:10023000FF1FE656FA4F1182108280911A068F5FD7
:1002400080931A0680911A068F7380931A06E091A4
:100250001A06F0E0EE0FFF1FE656FA4F11821082E9
:10026000FF91EF918F910F900FBE0F901F901895F7
:100270001F920F920FB60F9211242F933F934F931B
:100280005F938F939F93AF93BF93EF93FF9380916F
:100290009905883409F063C1E091C600E153E63165
:1002A00008F0F7C0F0E0E95AFE4F0C944F274B02DC
:1002B0006D012B022D022F0231023302350237026B
:1002C00045024902490249024902490249023902EA
:1002D0003B023D023F024102430282E0209196052B
:1002E000309197052330310509F414C10CF0D5C0C5
:1002F0002130310509F40EC12230310509F4E2C084
:100300002091960530919705293031050CF486C06F
:100310004091960550919705209192053091930553
:10032000421753070CF07AC020919605309197053B
:10033000237033272130310541F490E1899F9001EA
:1003400011243093950520939405209196053091C2
:100350009705237033272230310551F420919405FD
:1003600030919505280F311D309395052093940504
:10037000209196053091970523703327233031055E
:1003800041F490E1899F90011124309391052093CD
:100390009005209196053091970523703327232BE4
:1003A000E9F52091900530919105820F932F911DD1
:1003B000909391058093900580919005909191057F
:1003C000982F8827909391058093900580919005B0
:1003D000909191052091940530919505820F931F7E
:1003E0009093950580939405E0911A0681E08E0F15
:1003F00080931A068091940590919505F0E0EE0F98
:10040000FF1FE656FA4F9183808380918E0590916D
:100410008F05019690938F0580938E0580919605A8
:1004200090919705019690939705809396058091FA
:100430001A068F7380931A06FF91EF91BF91AF91C7
:100440009F918F915F914F913F912F910F900FBE90
:100450000F901F90189583E041CF84E03FCF85E057
:100460003DCF86E03BCF87E039CF88E037CF89E0CA
:1004700035CF8AE033CF8BE031CF8CE02FCF8DE0CA
:100480002DCF8EE02BCF8FE029CF109297051092C1
:10049000960580E023CF81E021CF2530310509F496
:1004A00053C00CF440C02630310509F029CF20910B
:1004B000940530919505280F311D309395052093B3
:1004C000940516C02091940530919505280F311D93
:1004D00030939505209394052091940530919505CE
:1004E000220F331F275F3F4F3093930520939205D0
:1004F000E0911A0691E09E0F90931A0620919405C0
:1005000030919505F0E0EE0FFF1FE656FA4F31836C
:100510002083F6CE90E1899F9001112430939505B8
:1005200020939405EDCE2091940530919505280FE8
:10053000311D3093950520939405209194053091B9
:100540009505322F2227EACF4091940550919505C9
:1005500090E1899F90011124240F351FDFCF84354E
:1005600009F06ACF8091C600882309F465CF909185
:100570001C068A3209F454C0992309F45DCF909186
:100580001C06913019F492E090931C0690911C0681
:10059000923031F48D3009F44FCF8A3009F44CCFCA
:1005A00093E090931C068D3011F08A3031F48091E5
:1005B0009805882309F440CF80E0109285001092BE
:1005C00084002091960530919705482F50E0E091E6
:1005D0001A06F0E0EE0FFF1FE656FA4F20FD2CC082
:1005E00051834083A0911A06E0911A06F0E0EE0FC5
:1005F000FF1FE656FA4FB0E0AA0FBB1FA656BA4F30
:100600009C911082918320919605309197052F5FE0
:100610003F4F3093970520939605809398050CCF14
:10062000911104C081E080931C0606CF90911C06B6
:10063000913009F0A4CF00CF20813181240F351FE4
:100640003183208390911A069F5F90931A069091B0
:100650001A069F7390931A06D6CFCF93DF9315BCDB
:1006600016BC23B5216023BD21E025BD22E427BDB2
:1006700025E5209373051092700510927205A99BD1
:10068000FECF389A2FEF25BB27B52E5B27BD50E054
:1006900040E0A1E0B0E0EFEF20917305BD01042E32
:1006A00001C0660F0A94EAF72623209372052223DD
:1006B00029F0309170053F5F30937005A99BFECF04
:1006C000222309F4DCC33898E5BB27B52E5B27BD90
:1006D0004F5F5F4F48305105F9F62091700520FFBC
:1006E000D0C321E020937205A99BFECF2091720513
:1006F000222309F4C9C338982FEF25BB27B52E5BF9
:1007000027BD21E020937205A99BFECF38982FEFDB
:1007100025BB27B52E5B27BDA99BFECF2091720577
:10072000222309F4B3C338982FEF25BB27B52E5BDE
:1007300027BD24E020937305109270051092720576
:10074000A99BFECF389A2FEF25BB27B52E5B27BD7F
:1007500050E040E0A1E0B0E0EFEF20917305BD0173
:10076000042E01C0660F0A94EAF72623209372052F
:10077000222329F0309170053F5F30937005A99BCB
:10078000FECF222309F484C33898E5BB27B52E5B3E
:1007900027BD4F5F5F4F48305105F9F62091700536
:1007A00020FF78C321E020937205A99BFECF209102
:1007B0007205222309F471C338982FEF25BB27B5A2
:1007C0002E5B27BD21E020937205A99BFECF3898B0
:1007D0002FEF25BB27B52E5B27BDA99BFECF209110
:1007E0007205222309F45BC338982FEF25BB27B588
:1007F0002E5B27BD809373051092700510927205D1
:10080000A99BFECF389A2FEF25BB27B52E5B27BDBE
:1008100050E040E0A1E0B0E0EFEF20917305BD01B2
:10082000042E01C0660F0A94EAF72623209372056E
:10083000222329F0309170053F5F30937005A99B0A
:10084000FECF222309F42DC33898E5BB27B52E5BD4
:1008500027BD4F5F5F4F48305105F9F62091700575
:1008600020FF21C321E020937205A99BFECF209198
:100870007205222309F41AC338982FEF25BB27B538
:100880002E5B27BD21E020937205A99BFECF3898EF
:100890002FEF25BB27B52E5B27BDA99BFECF20914F
:1008A0007205222309F404C338982FEF25BB27B51E
:1008B0002E5B27BD90937305109270051092720500
:1008C000A99BFECF389A2FEF25BB27B52E5B27BDFE
:1008D00050E040E0A1E0B0E0EFEF20917305BD01F2
:1008E000042E01C0660F0A94EAF7262320937205AE
:1008F000222329F0309170053F5F30937005A99B4A
:10090000FECF222309F4D6C23898E5BB27B52E5B6B
:1009100027BD4F5F5F4F48305105F9F620917005B4
:1009200020FFCAC221E020937205A99BFECF20912F
:100930007205222309F4C3C238982FEF25BB27B5CF
:100940002E5B27BD21E020937205A99BFECF38982E
:100950002FEF25BB27B52E5B27BDA99BFECF20918E
:100960007205222309F4ADC238982FEF25BB27B5B5
:100970002E5B27BD10927505109270053099FECF41
:1009800015BC16BC23B5216023BD21E025BD21E2A5
:1009900027BDA99BFECF27B52E5B27BD2FEF25BB1B
:1009A00030E020E0E1E05FEFA1E0B0E0A99BFECF06
:1009B000309B89C2E093740555BB47B54E5B47BD7C
:1009C00040917405442381F040917505BD01022ECC
:1009D00001C0660F0A94EAF7462B409375054091D3
:1009E00070054F5F409370052F5F3F4F28303105F2
:1009F000E9F6A99BFECF309B69C221E020937405E4
:100A00002FEF25BB27B52E5B27BD20917405222330
:100A100021F02091700520FD0AC020911F06309121
:100A200020062F5F3F4F3093200620931F06A99B7F
:100A3000FECF309B4EC221E0209374052FEF25BBE3
:100A400027B52E5B27BDA99BFECF309B45C221E079
:100A5000209374052FEF25BB27B52E5B27BD15BC52
:100A60002091750530E0322F2227BC016F5F7F4F48
:100A700015BC16BC83B5816083BD81E085BD82E471
:100A800087BD85E5809373051092700510927205FD
:100A9000A99BFECF389A8FEF85BB87B58E5B87BD4C
:100AA00050E040E0C1E0D0E0AFEF90917305FE016F
:100AB000042E01C0EE0F0A94EAF79E23909372056C
:100AC000992329F0809170058F5F80937005A99B11
:100AD000FECF992309F403C23898A5BB87B58E5B76
:100AE00087BD4F5F5F4F48305105F9F68091700523
:100AF00080FFF7C181E080937205A99BFECF8091B2
:100B00007205882309F4F0C138988FEF85BB87B54B
:100B10008E5B87BD81E080937205A99BFECF3898DC
:100B20008FEF85BB87B58E5B87BDA99BFECF80917C
:100B30007205882309F4DAC138988FEF85BB87B531
:100B40008E5B87BD84E080937305109270051092D0
:100B50007205A99BFECF389A8FEF85BB87B58E5B58
:100B600087BD50E040E0C1E0D0E0AFEF9091730569
:100B7000FE01042E01C0EE0F0A94EAF79E23909323
:100B80007205992329F0809170058F5F809370051D
:100B9000A99BFECF992309F4ABC13898A5BB87B5B3
:100BA0008E5B87BD4F5F5F4F48305105F9F68091EE
:100BB000700580FF9FC181E080937205A99BFECFE5
:100BC00080917205882309F498C138988FEF85BB0E
:100BD00087B58E5B87BD81E080937205A99BFECFB0
:100BE00038988FEF85BB87B58E5B87BDA99BFECFFD
:100BF00080917205882309F482C138988FEF85BBF4
:100C000087B58E5B87BD6093730510927005109257
:100C10007205A99BFECF389A8FEF85BB87B58E5B97
:100C200087BD50E040E0C1E0D0E0AFEF90917305A8
:100C3000FE01042E01C0EE0F0A94EAF79E23909362
:100C40007205992329F0809170058F5F809370055C
:100C5000A99BFECF992309F454C13898A5BB87B549
:100C60008E5B87BD4F5F5F4F48305105F9F680912D
:100C7000700580FF48C181E080937205A99BFECF7B
:100C800080917205882309F441C138988FEF85BBA4
:100C900087B58E5B87BD81E080937205A99BFECFEF
:100CA00038988FEF85BB97B59E5B97BDA99BFECF0C
:100CB00080917205882309F42BC138988FEF85BB8A
:100CC00097B59E5B97BD7093730510927005109257
:100CD0007205A99BFECF389A8FEF85BB87B58E5BD7
:100CE00087BD50E040E0A1E0B0E0EFEF80917305F8
:100CF000BD01042E01C0660F0A94EAF78623809393
:100D00007205882329F0909170059F5F909370057C
:100D1000A99BFECF882309F4FDC03898E5BB87B5B1
:100D20008E5B87BD4F5F5F4F48305105F9F680916C
:100D3000700580FFF1C081E080937205A99BFECF12
:100D400080917205882309F4EAC038988FEF85BB3B
:100D500087B58E5B87BD81E080937205A99BFECF2E
:100D600038988FEF85BB87B58E5B87BDA99BFECF7B
:100D700080917205882309F4D4C038988FEF85BB21
:100D800087B58E5B87BD10927505109270053099FE
:100D9000FECF15BC16BC83B5816083BD81E085BDE7
:100DA00081E287BDA99BFECF87B58E5B87BD8FEFA4
:100DB00085BB90E080E0E1E05FEFA1E0B0E0A99BBF
:100DC000FECF309BB0C0E093740555BB47B54E5B7A
:100DD00047BD40917405442381F040917505BD01E4
:100DE000082E01C0660F0A94EAF7462B409375055A
:100DF000409170054F5F40937005019688309105D2
:100E0000F1F6A99BFECF309B91C081E080937405E1
:100E10008FEF85BB87B58E5B87BD80917405882376
:100E200021F08091700580FD09C080911F0690918E
:100E3000200601969093200680931F06A99BFECF63
:100E4000309B77C081E0809374058FEF85BB87B5B9
:100E50008E5B87BDA99BFECF309B6EC081E08093E7
:100E600074058FEF85BB87B58E5B87BD15BC809100
:100E70007505A901482BCA01DF91CF910895389AD1
:100E800023CC1092720530CC389A36CC389A4CCCA0
:100E9000389A7BCC1092720588CC389A8ECC389ACE
:100EA000A4CC389AD2CC10927205DFCC389AE5CC1B
:100EB000389AFBCC389A29CD1092720536CD389AE3
:100EC0003CCD389A52CD1092740576CD10927405AF
:100ED00097CD10927405B2CD10927405BBCD389A9F
:100EE000FCCD1092720509CE389A0FCE389A25CED5
:100EF000389A54CE1092720561CE389A67CE389ADD
:100F00007DCE389AABCE10927205B8CE389ABECE4E
:100F1000389AD4CE389A02CF109272050FCF389AF1
:100F200015CF389A2BCF109274054FCF10927405BD
:100F30006FCF1092740589CF1092740592CF909163
:100F4000710580911A069817D1F3E0917105F0E0D0
:100F5000EE0FFF1FE656FA4F80819181909369054D
:100F600080936805809171058F5F809371058091F2
:100F700071058F73809371058FB780935405F89432
:100F800016BC83B5816083BD81E085BD82E487BDE9
:100F90008091680580937305109270051092720518
:100FA000A99BFECF389A8FEF85BB87B58E5B87BD37
:100FB00030E020E0E1E0F0E06FEF80917305AF01F9
:100FC000022E01C0440F0A94EAF78423809372052D
:100FD000882329F0909170059F5F90937005A99BDD
:100FE000FECF882309F48CC1389865BB87B58E5B2A
:100FF00087BD2F5F3F4F28303105F9F6809170058E
:1010000080FF80C181E080937205A99BFECF809113
:101010007205882309F479C138988FEF85BB87B5AD
:101020008E5B87BD81E080937205A99BFECF3898C7
:101030008FEF85BB87B58E5B87BDA99BFECF809167
:101040007205882309F463C138988FEF85BB87B593
:101050008E5B87BD10927505109270053099FECF9A
:1010600015BC16BC83B5816083BD81E085BD81E27E
:1010700087BDA99BFECF87B58E5B87BD8FEF85BBF4
:1010800090E080E061E03FEFE1E0F0E0A99BFECF7F
:10109000309B3FC16093740535BB27B52E5B27BDE0
:1010A00020917405222381F020917505AF01082E4F
:1010B00001C0440F0A94EAF7242B20937505209170
:1010C00070052F5F20937005019688309105F1F629
:1010D000A99BFECF309B20C181E0809374058FEFE8
:1010E00085BB87B58E5B87BD80917405882321F011
:1010F0008091700580FD09C080911F0690912006A7
:1011000001969093200680931F06A99BFECF309BEB
:1011100006C181E0809374058FEF85BB87B58E5B38
:1011200087BDA99BFECF309BFDC081E080937405F5
:101130008FEF85BB87B58E5B87BD15BC16BC83B5AD
:10114000816083BD81E085BD82E487BD80916905B2
:10115000809373051092700510927205A99BFECFC3
:10116000389A8FEF85BB87B58E5B87BD30E020E076
:10117000E1E0F0E06FEF80917305AF01022E01C056
:10118000440F0A94EAF7842380937205882329F098
:10119000909170059F5F90937005A99BFECF882367
:1011A00009F4C3C0389865BB87B58E5B87BD2F5FD8
:1011B0003F4F28303105F9F68091700580FFB7C0A8
:1011C00081E080937205A99BFECF809172058823F0
:1011D00009F4B0C038988FEF85BB87B58E5B87BDAB
:1011E00081E080937205A99BFECF38988FEF85BB75
:1011F00087B58E5B87BDA99BFECF80917205882342
:1012000009F49AC038988FEF85BB87B58E5B87BD90
:1012100010927505109270053099FECF15BC16BC62
:1012200083B5816083BD81E085BD81E287BDA99BD7
:10123000FECF87B58E5B87BD8FEF85BB90E080E0EA
:1012400061E03FEFE1E0F0E0A99BFECF309B76C08C
:101250006093740535BB27B52E5B27BD20917405BF
:10126000222381F020917505AF01082E01C0440FA3
:101270000A94EAF7242B20937505209170052F5FBF
:1012800020937005019688309105F1F6A99BFECF59
:10129000309B57C081E0809374058FEF85BB87B585
:1012A0008E5B87BD80917405882321F08091700545
:1012B00080FD09C080911F069091200601969093B1
:1012C000200680931F06A99BFECF309B3DC081E086
:1012D000809374058FEF85BB87B58E5B87BDA99B17
:1012E000FECF309B34C081E0809374058FEF85BBC7
:1012F00087B58E5B87BD15BC809154058FBF08955F
:10130000389A73CE1092720580CE389A86CE389A6B
:101310009CCE10927405C0CE10927405E0CE10924F
:101320007405FACE1092740503CF389A3CCF109210
:10133000720549CF389A4FCF389A65CF109274050D
:1013400089CF10927405A9CF10927405C3CF109263
:101350007405CCCF880F991F9C0130588FB78093AC
:101360005405F89415BC16BC83B5816083BD81E03B
:1013700085BD82E487BD85E5809373051092700575
:1013800010927205A99BFECF389A8FEF85BB87B567
:101390008E5B87BD50E040E0A1E0B0E0EFEF9091C0
:1013A0007305BD01042E01C0660F0A94EAF7962367
:1013B00090937205992329F0809170058F5F809337
:1013C0007005A99BFECF992309F4C8C33898E5BBE3
:1013D00087B58E5B87BD4F5F5F4F48305105F9F68B
:1013E0008091700580FFBCC381E080937205A99B4A
:1013F000FECF80917205882309F4B5C338988FEF2A
:1014000085BB87B58E5B87BD81E080937205A99B04
:10141000FECF38988FEF85BB87B58E5B87BDA99BC4
:10142000FECF80917205882309F49FC338988FEF0F
:1014300085BB87B58E5B87BD89E680937305109267
:10144000700510927205A99BFECF389A8FEF85BB6D
:1014500087B58E5B87BD50E040E0A1E0B0E0EFEFE4
:1014600090917305BD01042E01C0660F0A94EAF73E
:10147000962390937205992329F0809170058F5FD0
:1014800080937005A99BFECF992309F470C3389807
:10149000E5BB87B58E5B87BD4F5F5F4F4830510519
:1014A000F9F68091700580FF64C381E08093720536
:1014B000A99BFECF80917205882309F45DC33898FB
:1014C0008FEF85BB87B58E5B87BD81E0809372050A
:1014D000A99BFECF38988FEF85BB87B58E5B87BD04
:1014E000A99BFECF80917205882309F447C33898E1
:1014F0008FEF85BB87B58E5B87BD209373051092F8
:10150000700510927205A99BFECF389A8FEF85BBAC
:1015100087B58E5B87BD50E040E0A1E0B0E0EFEF23
:1015200090917305BD01042E01C0660F0A94EAF77D
:10153000962390937205992329F0809170058F5F0F
:1015400080937005A99BFECF992309F419C338989D
:10155000E5BB87B58E5B87BD4F5F5F4F4830510558
:10156000F9F68091700580FF0DC381E080937205CC
:10157000A99BFECF80917205882309F406C3389891
:101580008FEF85BB87B58E5B87BD81E08093720549
:10159000A99BFECF38988FEF85BB87B58E5B87BD43
:1015A000A99BFECF80917205882309F4F0C2389878
:1015B0008FEF85BB87B58E5B87BD30937305109227
:1015C000700510927205A99BFECF389A8FEF85BBEC
:1015D00087B58E5B87BD30E020E0E1E0F0E06FEFA3
:1015E00080917305AF01022E01C0440F0A94EAF7FF
:1015F000842380937205882329F0909170059F5F62
:1016000090937005A99BFECF882309F4C2C2389835
:1016100065BB87B58E5B87BD2F5F3F4F2830310597
:10162000F9F68091700580FFB6C281E08093720563
:10163000A99BFECF80917205882309F4AFC2389828
:101640008FEF85BB87B58E5B87BD81E08093720588
:10165000A99BFECF38988FEF85BB87B58E5B87BD82
:10166000A99BFECF80917205882309F499C238980E
:101670008FEF85BB87B58E5B87BD10927505109285
:1016800070053099FECF15BC16BC83B5816083BD53
:1016900081E085BD81E287BDA99BFECF87B58E5BCA
:1016A00087BD8FEF85BB90E080E061E03FEFE1E038
:1016B000F0E0A99BFECF309B75C26093740535BBEB
:1016C00027B52E5B27BD20917405222381F0209140
:1016D0007505AF01082E01C0440F0A94EAF7242BC8
:1016E00020937505209170052F5F2093700501965A
:1016F00088309105F1F6A99BFECF309B56C281E060
:10170000809374058FEF85BB87B58E5B87BD809115
:101710007405882321F08091700580FD09C08091B7
:101720001F069091200601969093200680931F0635
:10173000A99BFECF309B3CC281E0809374058FEF64
:1017400085BB87B58E5B87BDA99BFECF309B33C21F
:1017500081E0809374058FEF85BB87B58E5B87BD75
:1017600015BC15BC16BC83B5816083BD81E085BD09
:1017700082E487BD85E58093730510927005109211
:101780007205A99BFECF389A8FEF85BB87B58E5B1C
:1017900087BD30E020E0E1E0F0E06FEF809173057D
:1017A000AF01022E01C0440F0A94EAF7842380930C
:1017B0007205882329F0909170059F5F90937005C2
:1017C000A99BFECF882309F4F9C1389865BB87B57A
:1017D0008E5B87BD2F5F3F4F28303105F9F6809132
:1017E000700580FFEDC181E080937205A99BFECF5B
:1017F00080917205882309F4E6C138988FEF85BB84
:1018000087B58E5B87BD81E080937205A99BFECF73
:1018100038988FEF85BB87B58E5B87BDA99BFECFC0
:1018200080917205882309F4D0C138988FEF85BB69
:1018300087B58E5B87BD80EA809373051092700533
:1018400010927205A99BFECF389A8FEF85BB87B5A2
:101850008E5B87BD30E020E0E1E0F0E06FEF80914B
:101860007305AF01022E01C0440F0A94EAF78423E6
:1018700080937205882329F0909170059F5F909363
:101880007005A99BFECF882309F4A1C1389865BBD8
:1018900087B58E5B87BD2F5F3F4F28303105F9F646
:1018A0008091700580FF95C181E080937205A99BAE
:1018B000FECF80917205882309F48EC138988FEF8E
:1018C00085BB87B58E5B87BD81E080937205A99B40
:1018D000FECF38988FEF85BB87B58E5B87BDA99B00
:1018E000FECF80917205882309F478C138988FEF74
:1018F00085BB87B58E5B87BD8FE3809373051092A0
:10190000700510927205A99BFECF389A8FEF85BBA8
:1019100087B58E5B87BD30E020E0E1E0F0E06FEF5F
:1019200080917305AF01022E01C0440F0A94EAF7BB
:10193000842380937205882329F0909170059F5F1E
:1019400090937005A99BFECF882309F449C138986C
:1019500065BB87B58E5B87BD2F5F3F4F2830310554
:10196000F9F68091700580FF3DC181E0809372059A
:10197000A99BFECF80917205882309F436C138985F
:101980008FEF85BB87B58E5B87BD81E08093720545
:10199000A99BFECF38988FEF85BB87B58E5B87BD3F
:1019A000A99BFECF80917205882309F420C1389845
:1019B0008FEF85BB87B58E5B87BD15BC15BC16BC8C
:1019C00083B5816083BD81E085BD82E487BD85E507
:1019D000809373051092700510927205A99BFECF3B
:1019E000389A8FEF85BB87B58E5B87BD30E020E0EE
:1019F000E1E0F0E06FEF80917305AF01022E01C0CE
:101A0000440F0A94EAF7842380937205882329F00F
:101A1000909170059F5F90937005A99BFECF8823DE
:101A200009F4E7C0389865BB87B58E5B87BD2F5F2B
:101A30003F4F28303105F9F68091700580FFDBC0FB
:101A400081E080937205A99BFECF80917205882367
:101A500009F4D4C038988FEF85BB87B58E5B87BDFE
:101A600081E080937205A99BFECF38988FEF85BBEC
:101A700087B58E5B87BDA99BFECF809172058823B9
:101A800009F4BEC038988FEF85BB87B58E5B87BDE4
:101A900084E6809373051092700510927205A99BDD
:101AA000FECF389A8FEF85BB87B58E5B87BD30E060
:101AB00020E0E1E0F0E06FEF80917305AF01022ECE
:101AC00001C0440F0A94EAF78423809372058823A7
:101AD00029F0909170059F5F90937005A99BFECFB0
:101AE000882309F48FC0389865BB87B58E5B87BDA6
:101AF0002F5F3F4F28303105F9F68091700580FF48
:101B000083C081E080937205A99BFECF809172050E
:101B1000882309F47CC038988FEF85BB87B58E5B2E
:101B200087BD81E080937205A99BFECF38988FEF27
:101B300085BB87B58E5B87BDA99BFECF8091720563
:101B4000882309F466C038988FEF85BB87B58E5B14
:101B500087BD15BC809154058FBF0895389A37CC46
:101B60001092720544CC389A4ACC389A60CC389A94
:101B70008FCC109272059CCC389AA2CC389AB8CCF3
:101B8000389AE6CC10927205F3CC389AF9CC389A90
:101B90000FCD389A3DCD109272054ACD389A50CD6E
:101BA000389A66CD109274058ACD10927405AACD2C
:101BB00010927405C4CD10927405CDCD389A06CE1E
:101BC0001092720513CE389A19CE389A2FCE389AC1
:101BD0005ECE109272056BCE389A71CE389A87CE4F
:101BE000389AB6CE10927205C3CE389AC9CE389ABA
:101BF000DFCE389A18CF1092720525CF389A2BCFA6
:101C0000389A41CF389A70CF109272057DCF389AAA
:101C100083CF389A99CF80915B0590915C05909322
:101C20006505809364059C01207E3F7130936105BA
:101C300020936005AC01421B530B50935205409317
:101C400051052091510530915205877080935D05B3
:101C500080E2821B80935E050895909171058091CA
:101C60001A069817D1F3E0917105F0E0EE0FFF1F0F
:101C7000E656FA4F808180935F05909171059F5FD2
:101C800090937105909171059F7390937105282F22
:101C900087FF02C021E0280F2595209353059091DE
:101CA000670590311CF491E090936205909167056F
:101CB00090935A05809367059091710580911A065B
:101CC0009817D1F3E0917105F0E0EE0FFF1FE65693
:101CD000FA4F80819181309171053F5F309371059A
:101CE000309171053F733093710596958795909368
:101CF0005C0580935B05AC0141505109420F511DB9
:101D000027FD5A9550935905409358052091500549
:101D1000209357059C0127703327232B69F021E07E
:101D20002093500520916405309165058217930733
:101D300011F410926305089510925005F3CFEF92BD
:101D4000FF920F931F93CF93DF9300D000D000D06A
:101D5000CDB7DEB7972FE0E0E82E880FFF088E01A1
:101D60000F5F1F4F862FB7010E9427279B01D801C5
:101D7000AE0FB11D8C938A303CF5805D8C93EF5F84
:101D8000622F932F232B71F7E43040F4D801AE0F6C
:101D9000B11D80E3EF5F8D93E430E1F7E00FF12FA9
:101DA000F11D1082F8017F01E01AF10A8191811181
:101DB000FACFE00EF11E0E151F0541F0F7018291DA
:101DC0007F010E945300F7CF895CD8CF85E091E076
:101DD00026960FB6F894DEBF0FBECDBFDF91CF9130
:101DE0001F910F91FF90EF900C945A0088E891E0BA
:101DF0000C945A0093B5926093BD6093B2008093A7
:101E0000B100B89BFECFB89A1092B1000895880F28
:101E1000991F9C0130588FB780935405F89415BCD6
:101E200016BC83B5816083BD81E085BD82E487BD3A
:101E300085E5809373051092700510927205A99B39
:101E4000FECF389A8FEF85BB87B58E5B87BD50E09C
:101E500040E0A1E0B0E0EFEF90917305BD01042EEA
:101E600001C0660F0A94EAF79623909372059923AE
:101E700029F0809170058F5F80937005A99BFECF3C
:101E8000992309F4EFC53898E5BB87B58E5B87BD0C
:101E90004F5F5F4F48305105F9F68091700580FF24
:101EA000E3C581E080937205A99BFECF8091720506
:101EB000882309F4DCC538988FEF85BB87B58E5B26
:101EC00087BD81E080937205A99BFECF38988FEF84
:101ED00085BB87B58E5B87BDA99BFECF80917205C0
:101EE000882309F4C6C538988FEF85BB87B58E5B0C
:101EF00087BD85E48093730510927005109272057A
:101F0000A99BFECF389A8FEF85BB87B58E5B87BDC7
:101F100050E040E0A1E0B0E0EFEF90917305BD012B
:101F2000042E01C0660F0A94EAF796239093720577
:101F3000992329F0809170058F5F80937005A99B8C
:101F4000FECF992309F497C53898E5BB87B58E5B1A
:101F500087BD4F5F5F4F48305105F9F6809170059E
:101F600080FF8BC581E080937205A99BFECF809195
:101F70007205882309F484C538988FEF85BB87B52F
:101F80008E5B87BD81E080937205A99BFECF389858
:101F90008FEF85BB87B58E5B87BDA99BFECF8091F8
:101FA0007205882309F46EC538988FEF85BB87B515
:101FB0008E5B87BD88E08093730510927005109248
:101FC0007205A99BFECF389A8FEF85BB87B58E5BD4
:101FD00087BD50E040E0A1E0B0E0EFEF90917305E5
:101FE000BD01042E01C0660F0A94EAF79623909370
:101FF0007205992329F0809170058F5F8093700599
:10200000A99BFECF992309F43FC53898E5BB87B556
:102010008E5B87BD4F5F5F4F48305105F9F6809169
:10202000700580FF33C581E080937205A99BFECFC8
:1020300080917205882309F42CC538988FEF85BBF1
:1020400087B58E5B87BD81E080937205A99BFECF2B
:1020500038988FEF85BB87B58E5B87BDA99BFECF78
:1020600080917205882309F416C538988FEF85BBD7
:1020700087B58E5B87BD80E18093730510927005F4
:1020800010927205A99BFECF389A8FEF85BB87B55A
:102090008E5B87BD50E040E0A1E0B0E0EFEF9091B3
:1020A0007305BD01042E01C0660F0A94EAF796235A
:1020B00090937205992329F0809170058F5F80932A
:1020C0007005A99BFECF992309F4E7C43898E5BBB6
:1020D00087B58E5B87BD4F5F5F4F48305105F9F67E
:1020E0008091700580FFDBC481E080937205A99B1D
:1020F000FECF80917205882309F4D4C438988FEFFD
:1021000085BB87B58E5B87BD81E080937205A99BF7
:10211000FECF38988FEF85BB87B58E5B87BDA99BB7
:10212000FECF80917205882309F4BEC438988FEFE2
:1021300085BB87B58E5B87BD1092750510927005C3
:102140003099FECF15BC16BC83B5816083BD81E09C
:1021500085BD81E287BDA99BFECF87B58E5B87BD1C
:102160008FEF85BB90E080E0E1E05FEFA1E0B0E0C1
:10217000A99BFECF309B9AC4E093740555BB47B52D
:102180004E5B47BD40917405442381F04091750535
:10219000BD01082E01C0660F0A94EAF7462B409352
:1021A0007505409170054F5F40937005019688302A
:1021B0009105F1F6A99BFECF309B7BC481E0809313
:1021C00074058FEF85BB87B58E5B87BD80917405E5
:1021D000882321F08091700580FD09C080911F0641
:1021E0009091200601969093200680931F06A99B4C
:1021F000FECF309B61C481E0809374058FEF85BB77
:1022000087B58E5B87BDA99BFECF309B58C481E00C
:10221000809374058FEF85BB87B58E5B87BD15BC3A
:1022200016BC83B5816083BD81E085BD82E487BD36
:10223000209373051092700510927205A99BFECF32
:10224000389A8FEF85BB87B58E5B87BD50E040E045
:10225000A1E0B0E0EFEF90917305BD01042E01C045
:10226000660F0A94EAF7962390937205992329F052
:10227000809170058F5F80937005A99BFECF992395
:1022800009F420C43898E5BB87B58E5B87BD4F5FE6
:102290005F4F48305105F9F68091700580FF14C4F6
:1022A00081E080937205A99BFECF809172058823FF
:1022B00009F40DC438988FEF85BB87B58E5B87BD59
:1022C00081E080937205A99BFECF38988FEF85BB84
:1022D00087B58E5B87BDA99BFECF80917205882351
:1022E00009F4F7C338988FEF85BB87B58E5B87BD40
:1022F000309373051092700510927205A99BFECF62
:10230000389A8FEF85BB87B58E5B87BD30E020E0C4
:10231000E1E0F0E06FEF80917305AF01022E01C0A4
:10232000440F0A94EAF7842380937205882329F0E6
:10233000909170059F5F90937005A99BFECF8823B5
:1023400009F4C9C3389865BB87B58E5B87BD2F5F1D
:102350003F4F28303105F9F68091700580FFBDC3ED
:1023600081E080937205A99BFECF8091720588233E
:1023700009F4B6C338988FEF85BB87B58E5B87BDF0
:1023800081E080937205A99BFECF38988FEF85BBC3
:1023900087B58E5B87BDA99BFECF80917205882390
:1023A00009F4A0C338988FEF85BB87B58E5B87BDD6
:1023B00010927505109270053099FECF15BC16BCB1
:1023C00083B5816083BD81E085BD81E287BDA99B26
:1023D000FECF87B58E5B87BD8FEF85BB90E080E039
:1023E00061E03FEFE1E0F0E0A99BFECF309B7CC3D2
:1023F0006093740535BB27B52E5B27BD209174050E
:10240000222381F020917505AF01082E01C0440FF1
:102410000A94EAF7242B20937505209170052F5F0D
:1024200020937005019688309105F1F6A99BFECFA7
:10243000309B5DC381E0809374058FEF85BB87B5CA
:102440008E5B87BD80917405882321F08091700593
:1024500080FD09C080911F069091200601969093FF
:10246000200680931F06A99BFECF309B43C381E0CB
:10247000809374058FEF85BB87B58E5B87BDA99B65
:10248000FECF309B3AC381E0809374058FEF85BB0C
:1024900087B58E5B87BD15BC8AE20E94530015BCD0
:1024A00016BC83B5816083BD81E085BD82E487BDB4
:1024B00085E5809373051092700510927205A99BB3
:1024C000FECF389A8FEF85BB87B58E5B87BD30E036
:1024D00020E0E1E0F0E06FEF80917305AF01022EA4
:1024E00001C0440F0A94EAF784238093720588237D
:1024F00029F0909170059F5F90937005A99BFECF86
:10250000882309F4FDC2389865BB87B58E5B87BD0B
:102510002F5F3F4F28303105F9F68091700580FF1D
:10252000F1C281E080937205A99BFECF8091720574
:10253000882309F4EAC238988FEF85BB87B58E5B94
:1025400087BD81E080937205A99BFECF38988FEFFD
:1025500085BB87B58E5B87BDA99BFECF8091720539
:10256000882309F4D4C238988FEF85BB87B58E5B7A
:1025700087BD84E4809373051092700510927205F4
:10258000A99BFECF389A8FEF85BB87B58E5B87BD41
:1025900030E020E0E1E0F0E06FEF80917305AF0103
:1025A000022E01C0440F0A94EAF784238093720537
:1025B000882329F0909170059F5F90937005A99BE7
:1025C000FECF882309F4A5C2389865BB87B58E5B1A
:1025D00087BD2F5F3F4F28303105F9F68091700598
:1025E00080FF99C281E080937205A99BFECF809104
:1025F0007205882309F492C238988FEF85BB87B59E
:102600008E5B87BD81E080937205A99BFECF3898D1
:102610008FEF85BB87B58E5B87BDA99BFECF809171
:102620007205882309F47CC238988FEF85BB87B583
:102630008E5B87BD10927305109270051092720523
:10264000A99BFECF389A8FEF85BB87B58E5B87BD80
:1026500030E020E0E1E0F0E06FEF80917305AF0142
:10266000022E01C0440F0A94EAF784238093720576
:10267000882329F0909170059F5F90937005A99B26
:10268000FECF882309F44EC2389865BB87B58E5BB0
:1026900087BD2F5F3F4F28303105F9F680917005D7
:1026A00080FF42C281E080937205A99BFECF80919A
:1026B0007205882309F43BC238988FEF85BB87B534
:1026C0008E5B87BD81E080937205A99BFECF389811
:1026D0008FEF85BB87B58E5B87BDA99BFECF8091B1
:1026E0007205882309F425C238988FEF85BB87B51A
:1026F0008E5B87BD80E18093730510927005109208
:102700007205A99BFECF389A8FEF85BB87B58E5B8C
:1027100087BD30E020E0E1E0F0E06FEF80917305ED
:10272000AF01022E01C0440F0A94EAF7842380937C
:102730007205882329F0909170059F5F9093700532
:10274000A99BFECF882309F4F6C1389865BB87B5ED
:102750008E5B87BD2F5F3F4F28303105F9F68091A2
:10276000700580FFEAC181E080937205A99BFECFCE
:1027700080917205882309F4E3C138988FEF85BBF7
:1027800087B58E5B87BD81E080937205A99BFECFE4
:1027900038988FEF85BB87B58E5B87BDA99BFECF31
:1027A00080917205882309F4CDC138988FEF85BBDD
:1027B00087B58E5B87BD10927505109270053099B4
:1027C000FECF15BC16BC83B5816083BD81E085BD9D
:1027D00081E287BDA99BFECF87B58E5B87BD8FEF5A
:1027E00085BB90E080E061E03FEFE1E0F0E0A99B95
:1027F000FECF309BA9C16093740535BB27B52E5B16
:1028000027BD20917405222381F020917505AF0129
:10281000082E01C0440F0A94EAF7242B2093750573
:10282000209170052F5F20937005019688309105E7
:10283000F1F6A99BFECF309B8AC181E0809374059D
:102840008FEF85BB87B58E5B87BD8091740588232C
:1028500021F08091700580FD09C080911F06909144
:10286000200601969093200680931F06A99BFECF19
:10287000309B70C181E0809374058FEF85BB87B575
:102880008E5B87BDA99BFECF309B67C181E08093A3
:1028900074058FEF85BB87B58E5B87BD15BC16BCF5
:1028A00083B5816083BD81E085BD92E497BD80934F
:1028B00073051092700510927205A99BFECF389A8D
:1028C0008FEF85BB87B58E5B87BD30E020E0E1E010
:1028D000F0E06FEF80917305AF01022E01C0440F4D
:1028E0000A94EAF7842380937205882329F0909153
:1028F00070059F5F90937005A99BFECF882309F414
:102900002FC1389865BB87B58E5B87BD2F5F3F4F62
:1029100028303105F9F68091700580FF23C181E0F0
:1029200080937205A99BFECF80917205882309F4DC
:102930001CC138988FEF85BB87B58E5B87BD81E062
:1029400080937205A99BFECF38988FEF85BB87B522
:102950008E5B87BDA99BFECF80917205882309F409
:1029600006C138988FEF85BB87B58E5B87BD109207
:102970007505109270053099FECF15BC16BC83B555
:10298000816083BD81E085BD81E287BDA99BFECFCB
:1029900087B58E5B87BD8FEF85BB90E080E061E0FF
:1029A0003FEFE1E0F0E0A99BFECF309BE2C06093F7
:1029B000740535BB27B52E5B27BD209174052223F6
:1029C00081F020917505AF01082E01C0440F0A94D3
:1029D000EAF7242B20937505209170052F5F209333
:1029E0007005019688309105F1F6A99BFECF309BCA
:1029F000C3C081E0809374058FEF85BB87B58E5B84
:102A000087BD80917405882321F08091700580FD39
:102A100009C080911F069091200601969093200690
:102A200080931F06A99BFECF309BA9C081E08093B5
:102A300074058FEF85BB87B58E5B87BDA99BFECFE5
:102A4000309BA0C081E0809374058FEF85BB87B574
:102A50008E5B87BD15BC809154058FBF64E486E012
:102A60000C94FA0E389A10CA109272051DCA389A40
:102A700023CA389A39CA389A68CA1092720575CA38
:102A8000389A7BCA389A91CA389AC0CA109272058D
:102A9000CDCA389AD3CA389AE9CA389A18CB109254
:102AA000720525CB389A2BCB389A41CB10927405FE
:102AB00065CB1092740585CB109274059FCB109254
:102AC0007405A8CB389ADFCB10927205ECCB389AFC
:102AD000F2CB389A08CC389A36CC1092720543CC97
:102AE000389A49CC389A5FCC1092740583CC1092F6
:102AF0007405A3CC10927405BDCC10927405C6CC9D
:102B0000389A02CD109272050FCD389A15CD389AA9
:102B10002BCD389A5ACD1092720567CD389A6DCD6B
:102B2000389A83CD389AB1CD10927205BECD389ABD
:102B3000C4CD389ADACD389A09CE1092720516CEE5
:102B4000389A1CCE389A32CE1092740556CE109216
:102B5000740576CE1092740590CE1092740599CEBD
:102B6000389AD0CE10927205DDCE389AE3CE389ADC
:102B7000F9CE109274051DCF109274053DCF1092BE
:102B8000740557CF1092740560CF0F931F93CF93A6
:102B9000DF93C1E0D0E280915305882309F44CC053
:102BA00080915305815080935305C09366050E9420
:102BB0009F0780915105909152050196909352057F
:102BC00080935105809164059091650501969093DD
:102BD00065058093640580915E05815080935E0554
:102BE00080916C0590916D05019690936D05809391
:102BF0006C058091510590915205809761F6009186
:102C0000600510916105C8010E94070F10926605CA
:102C10001092520510925105D0935E0580915D058A
:102C200080915D05882309F4B6CFC0936305C80180
:102C300080960E94AA09AFCFDF91CF911F910F918B
:102C40000895CF92DF92EF92FF921F93CF93DF937D
:102C50007C01389A6CED82E00E949300D0E0C0E0E5
:102C600010E0CC24C394D12CC6010C2E02C0880FD6
:102C7000991F0A94E2F78E219F21892B09F1389838
:102C80001F5F6CED82E00E9493002196C830D10551
:102C900059F710FF17C038986CED82E00E9493003E
:102CA00038986CED82E00E9493006CED82E0DF9139
:102CB000CF911F91FF90EF90DF90CF900C949300F5
:102CC000389ADFCF389AE8CF0F931F93CF93DF93D3
:102CD0008C0185E590E00E94211680EE90E00E9434
:102CE0002116E80160962981888190ED980F9A302D
:102CF00014F099EC980F80ED820F8A3014F089EC73
:102D0000820F9295907F890F082E000C990B0E94DC
:102D1000211622970C171D0731F7DF91CF911F91D4
:102D20000F9108950F931F93CF938C01C62F85E5C4
:102D300090E00E94211684E490E00E94211688E031
:102D400090E10E94211680E190E00E9421160E94ED
:102D50009B006EEC83E00E949300C8010E94211644
:102D60000E949B006EEC83E00E94930085E590E05A
:102D70000E94211684E490E00E94211689E090E1EF
:102D80000E94211680E190E00E9421160E949B0083
:102D90006EEC83E00E94930082E190E00E94211695
:102DA0000E949B006EEC83E00E94930085E590E01A
:102DB0000E94211684E490E00E94211686E090E1B2
:102DC0000E94211680E190E00E9421160E949B0043
:102DD0006EEC83E00E9493008C2F90E00E942116FD
:102DE0000E949B006EEC83E00E94930085E590E0DA
:102DF0000E94211684E490E00E94211680E090E178
:102E00000E94211680E190E00E9421160E949B0002
:102E10006EEC83E00E94930087E090E00E94211610
:102E20000E949B0062EB85E0CF911F910F910C9463
:102E30009300A89584B7877F84BF809160008861E4
:102E4000809360001092600080917C008064809389
:102E50007C0085B78F7E85BF14B817B81AB88FEF7E
:102E600085B99EEF98B98BB962EB85E00E9493001B
:102E70001092C1001092C50084E48093C40082E0E7
:102E80008093C00088E18093C10086E08093C200F7
:102E90001092200610921F0680E091E00E945A00D6
:102EA0008AEF90E00E946F008823B1F38091C60002
:102EB0008F7D823589F788E891E00E945A0087E08B
:102EC00091E00E945A000E947E00813611F00C941D
:102ED000782680E491E00E945A008BE891E00E94FD
:102EE0005A000E947E0066E676EE84E00E9485002D
:102EF0007894309B61C0389A000000000000000008
:102F00003898309BFECF6CE983E00E94930085E502
:102F100090E00E94211689EC90E00E9421168DEF2E
:102F200090E00E9421166EEC83E00E94930085E5FC
:102F300090E00E94211682EC90E00E94211686E427
:102F400090E00E9421166EEC83E00E94930085E5DC
:102F500090E00E94211685EE90E00E942116309BA1
:102F600004C080911D068823D1F380911D06811134
:102F70001AC00E949B0080937605C7E7D5E006E75C
:102F800015E066E8E62E65E0F62E0E949B00899328
:102F9000EC16FD06D1F7F80181918F010E945300D4
:102FA000C017D107C1F780911D06882351F08CEB23
:102FB00091E00E945A00FFCF86EA91E00E945A00F9
:102FC000FFCFF8941092810080916F008E7F8093E4
:102FD0006F0083ED91E00E945A0082EF91E00E9421
:102FE0005A000E947E00893709F0D7C08BE092E03A
:102FF0000E945A008BE192E00E94641685E590E001
:103000000E94211687E890E00E9421160E949B00F2
:1030100083FD04C08EE292E00E945A006EEC83E0D1
:103020000E94930085E590E00E94211688EC90E0D4
:103030000E94211689E590E00E9421166EEC83E043
:103040000E94930085E590E00E94211688EC90E0B4
:103050000E94211690E080E00E9421166EEC83E031
:103060000E94930010921D0670E060E084E00E94D0
:10307000850078946EEC83E00E94930085E590E0F3
:103080000E9421168BE890E00E9421160E949B006E
:1030900020915505309156052F5F3F4F30935605CF
:1030A0002093550590911D06911102C080FDE2CF3D
:1030B000F89480911D06882309F46CC082E492E0A4
:1030C0000E945A000E94F60E8AE892E00E9464165E
:1030D00085E590E00E94211687E890E00E94211685
:1030E0000E949B006EEC83E00E94930085E590E0D7
:1030F0000E94211688EC90E00E94211689E590E05C
:103100000E9421166EEC83E00E94930085E590E01A
:103110000E94211688EC90E00E94211690E080E049
:103120000E9421166EEC83E00E94930010921D060F
:1031300070E060E084E00E94850078946EEC83E0AB
:103140000E94930085E590E00E9421168BE890E0B4
:103150000E9421160E949B00209155053091560532
:103160002F5F3F4F309356052093550590911D06D4
:10317000911102C083FFE2CFF89480911D0688234D
:1031800079F08DE992E00E945A0080EB92E00E9473
:103190005A00FFCF82E692E093CF87E792E090CF8C
:1031A00082EC92E00E945A008DED92E00E945A005B
:1031B000C0E0D1E185E590E00E94211684E090E036
:1031C0000E942116CE010E94211681E190E00E940A
:1031D00021160E949B00682F70E080E10E949F0EE4
:1031E0006EEC83E00E9493002196C330F1E1DF078B
:1031F00009F70E94F60E88EF92E00E945A0060E004
:1032000080E892E10E94921660E081E892E10E94DB
:1032100092166EE782E892E10E94921667EF85E8C7
:1032200092E10E9492166DEF86E892E10E9492165A
:103230006CE187E892E10E94921660E088E892E1F2
:103240000E9492168CE093E00E945A000E947E0039
:10325000893709F0EBC788E48093990581E393E00F
:103260000E945A0010926D0510926C0510928F0505
:1032700010928E0580E1809367051092660510928A
:103280006505109264051092630510921A0610925B
:103290007105109262051092970510929605809123
:1032A000C10080688093C10078940E942D0E0E9416
:1032B0000B0E80916005909161050E94AA090E9401
:1032C000C515C0E2D0E00E942D0E80915F058823D5
:1032D00061F180916205882329F0813009F10E9413
:1032E000C515F1CF80915D0520915E05AE01481BAB
:1032F000510987FD53952417150689F720915B0521
:1033000030915C05C901807E9F7190936105809327
:1033100060052F713327232B11F70E94AA09DFCFF5
:103320000E940B0E10926205DACFF8948091C100D2
:103330008F778093C1008AE090E00E946F00813017
:1033400019F48091C600F7CF80915A0580FF27C0FD
:10335000E0911A06F0E0EE0FFF1FE656FA4F1182D9
:10336000108280911A068F5F80931A060E949F0731
:1033700080916C0590916D05019690936D058093F9
:103380006C0521E0209366058091580590915905C0
:1033900001968F719927892B11F0209363058091F5
:1033A0005705882309F470C5809166058111C6C14F
:1033B00080916305882309F4C1C115BC16BC83B58F
:1033C000816083BD81E085BD82E487BD85E5809312
:1033D00073051092700510927205A99BFECF389A62
:1033E0008FEF85BB87B58E5B87BD30E020E0E1E0E5
:1033F000F0E06FEF80917305AF01022E01C0440F22
:103400000A94EAF7842380937205882329F0909127
:1034100070059F5F90937005A99BFECF882309F4E8
:1034200053C7389865BB87B58E5B87BD2F5F3F4F0D
:1034300028303105F9F68091700580FF47C710925A
:103440007205A99BFECF80917205882309F442C7BB
:1034500038988FEF85BB87B58E5B87BD81E0809301
:103460007205A99BFECF38988FEF85BB87B58E5B21
:1034700087BDA99BFECF80917205882309F42CC7D4
:1034800038988FEF85BB87B58E5B87BD109272052C
:103490008CE090E03FEFA99BFECF209172052223A4
:1034A00009F41CC7389835BB27B52E5B27BD01979B
:1034B00091F781E080937205A99BFECF38988FEF3A
:1034C00085BB87B58E5B87BDA99BFECF80917205BA
:1034D000882309F405C738988FEF85BB87B58E5BC5
:1034E00087BD15BC16BC83B5816083BD81E085BDF9
:1034F00082E487BD85E58093730510927005109274
:103500007205A99BFECF389A8FEF85BB87B58E5B7E
:1035100087BD30E020E0E1E0F0E06FEF80917305DF
:10352000AF01022E01C0440F0A94EAF7842380936E
:103530007205882329F0909170059F5F9093700524
:10354000A99BFECF882309F4CDC6389865BB87B503
:103550008E5B87BD2F5F3F4F28303105F9F6809194
:10356000700580FFC1C681E080937205A99BFECFE4
:1035700080917205882309F4BAC638988FEF85BB0D
:1035800087B58E5B87BD81E080937205A99BFECFD6
:1035900038988FEF85BB87B58E5B87BDA99BFECF23
:1035A00080917205882309F4A4C638988FEF85BBF3
:1035B00087B58E5B87BD89EC80937305109270058B
:1035C00010927205A99BFECF389A8FEF85BB87B505
:1035D0008E5B87BD30E020E0E1E0F0E06FEF8091AE
:1035E0007305AF01022E01C0440F0A94EAF7842349
:1035F00080937205882329F0909170059F5F9093C6
:103600007005A99BFECF882309F475C6389865BB61
:1036100087B58E5B87BD2F5F3F4F28303105F9F6A8
:103620008091700580FF69C681E080937205A99B37
:10363000FECF80917205882309F462C638988FEF17
:1036400085BB87B58E5B87BD81E080937205A99BA2
:10365000FECF38988FEF85BB87B58E5B87BDA99B62
:10366000FECF80917205882309F44CC638988FEFFD
:1036700085BB87B58E5B87BD81E080937305109213
:10368000700510927205A99BFECF389A8FEF85BB0B
:1036900087B58E5B87BD30E020E0E1E0F0E06FEFC2
:1036A00080917305AF01022E01C0440F0A94EAF71E
:1036B000842380937205882329F0909170059F5F81
:1036C00090937005A99BFECF882309F41DC63898F6
:1036D00065BB87B58E5B87BD2F5F3F4F28303105B7
:1036E000F9F68091700580FF11C681E08093720524
:1036F000A99BFECF80917205882309F40AC63898E9
:103700008FEF85BB87B58E5B87BD81E080937205A7
:10371000A99BFECF38988FEF85BB87B58E5B87BDA1
:10372000A99BFECF80917205882309F4F4C53898CF
:103730008FEF85BB87B58E5B87BD15BC8091660515
:10374000882309F4CFC180916305882309F4CAC195
:1037500015BC16BC83B5816083BD81E085BD82E464
:1037600087BD85E5809373051092700510927205F0
:10377000A99BFECF389A8FEF85BB87B58E5B87BD3F
:1037800030E020E0E1E0F0E06FEF80917305AF0101
:10379000022E01C0440F0A94EAF784238093720535
:1037A000882329F0909170059F5F90937005A99BE5
:1037B000FECF882309F4B1C5389865BB87B58E5B09
:1037C00087BD2F5F3F4F28303105F9F68091700596
:1037D00080FFA5C510927205A99BFECF809172054E
:1037E000882309F4A0C538988FEF85BB87B58E5B19
:1037F00087BD81E080937205A99BFECF38988FEF3B
:1038000085BB87B58E5B87BDA99BFECF8091720576
:10381000882309F48AC538988FEF85BB87B58E5BFE
:1038200087BD109272058CE090E03FEFA99BFECF20
:1038300020917205222309F47AC5389835BB27B543
:103840002E5B27BD019791F781E080937205A99BBC
:10385000FECF38988FEF85BB87B58E5B87BDA99B60
:10386000FECF80917205882309F463C538988FEFE5
:1038700085BB87B58E5B87BD15BC16BC83B58160E3
:1038800083BD81E085BD82E487BD85E580937305B6
:103890001092700510927205A99BFECF389A8FEF97
:1038A00085BB87B58E5B87BD30E020E0E1E0F0E0CE
:1038B0006FEF80917305AF01022E01C0440F0A948F
:1038C000EAF7842380937205882329F0909170058C
:1038D0009F5F90937005A99BFECF882309F42BC5A9
:1038E000389865BB87B58E5B87BD2F5F3F4F28300B
:1038F0003105F9F68091700580FF1FC581E0809346
:103900007205A99BFECF80917205882309F418C522
:1039100038988FEF85BB87B58E5B87BD81E080933C
:103920007205A99BFECF38988FEF85BB87B58E5B5C
:1039300087BDA99BFECF80917205882309F402C53B
:1039400038988FEF85BB87B58E5B87BD89EC8093F8
:1039500073051092700510927205A99BFECF389ADC
:103960008FEF85BB87B58E5B87BD30E020E0E1E05F
:10397000F0E06FEF80917305AF01022E01C0440F9C
:103980000A94EAF7842380937205882329F09091A2
:1039900070059F5F90937005A99BFECF882309F463
:1039A000D3C4389865BB87B58E5B87BD2F5F3F4F0B
:1039B00028303105F9F68091700580FFC7C481E099
:1039C00080937205A99BFECF80917205882309F42C
:1039D000C0C438988FEF85BB87B58E5B87BD81E00B
:1039E00080937205A99BFECF38988FEF85BB87B572
:1039F0008E5B87BDA99BFECF80917205882309F459
:103A0000AAC438988FEF85BB87B58E5B87BD81E0F0
:103A1000809373051092700510927205A99BFECFDA
:103A2000389A8FEF85BB87B58E5B87BD30E020E08D
:103A3000E1E0F0E06FEF80917305AF01022E01C06D
:103A4000440F0A94EAF7842380937205882329F0AF
:103A5000909170059F5F90937005A99BFECF88237E
:103A600009F47BC4389865BB87B58E5B87BD2F5F33
:103A70003F4F28303105F9F68091700580FF6FC403
:103A800081E080937205A99BFECF80917205882307
:103A900009F468C438988FEF85BB87B58E5B87BD06
:103AA00081E080937205A99BFECF38988FEF85BB8C
:103AB00087B58E5B87BDA99BFECF80917205882359
:103AC00009F452C438988FEF85BB87B58E5B87BDEC
:103AD00015BC809160059091610580960E94070F4A
:103AE0001092660580916605882309F4CDC1809106
:103AF00063058111C9C115BC16BC83B5816083BD46
:103B000081E085BD82E487BD85E5809373051092D1
:103B1000700510927205A99BFECF389A8FEF85BB76
:103B200087B58E5B87BD30E020E0E1E0F0E06FEF2D
:103B300080917305AF01022E01C0440F0A94EAF789
:103B4000842380937205882329F0909170059F5FEC
:103B500090937005A99BFECF882309F407C4389879
:103B600065BB87B58E5B87BD2F5F3F4F2830310522
:103B7000F9F68091700580FFFBC310927205A99B36
:103B8000FECF80917205882309F4F6C338988FEF31
:103B900085BB87B58E5B87BD81E080937205A99B4D
:103BA000FECF38988FEF85BB87B58E5B87BDA99B0D
:103BB000FECF80917205882309F4E0C338988FEF17
:103BC00085BB87B58E5B87BD109272058CE090E057
:103BD0003FEFA99BFECF20917205222309F4D0C3A9
:103BE000389835BB27B52E5B27BD019791F781E04B
:103BF00080937205A99BFECF38988FEF85BB87B560
:103C00008E5B87BDA99BFECF80917205882309F446
:103C1000B9C338988FEF85BB87B58E5B87BD15BC60
:103C200016BC83B5816083BD81E085BD82E487BD1C
:103C300085E5809373051092700510927205A99B1B
:103C4000FECF389A8FEF85BB87B58E5B87BD30E09E
:103C500020E0E1E0F0E06FEF80917305AF01022E0C
:103C600001C0440F0A94EAF78423809372058823E5
:103C700029F0909170059F5F90937005A99BFECFEE
:103C8000882309F481C3389865BB87B58E5B87BDEF
:103C90002F5F3F4F28303105F9F68091700580FF86
:103CA00075C381E080937205A99BFECF8091720558
:103CB000882309F46EC338988FEF85BB87B58E5B78
:103CC00087BD81E080937205A99BFECF38988FEF66
:103CD00085BB87B58E5B87BDA99BFECF80917205A2
:103CE000882309F458C338988FEF85BB87B58E5B5E
:103CF00087BD89EC80937305109270051092720550
:103D0000A99BFECF389A8FEF85BB87B58E5B87BDA9
:103D100030E020E0E1E0F0E06FEF80917305AF016B
:103D2000022E01C0440F0A94EAF78423809372059F
:103D3000882329F0909170059F5F90937005A99B4F
:103D4000FECF882309F429C3389865BB87B58E5BFD
:103D500087BD2F5F3F4F28303105F9F68091700500
:103D600080FF1DC381E080937205A99BFECF8091E7
:103D70007205882309F416C338988FEF85BB87B581
:103D80008E5B87BD81E080937205A99BFECF38983A
:103D90008FEF85BB87B58E5B87BDA99BFECF8091DA
:103DA0007205882309F400C338988FEF85BB87B567
:103DB0008E5B87BD81E08093730510927005109231
:103DC0007205A99BFECF389A8FEF85BB87B58E5BB6
:103DD00087BD30E020E0E1E0F0E06FEF8091730517
:103DE000AF01022E01C0440F0A94EAF784238093A6
:103DF0007205882329F0909170059F5F909370055C
:103E0000A99BFECF882309F4D1C2389865BB87B53A
:103E10008E5B87BD2F5F3F4F28303105F9F68091CB
:103E2000700580FFC5C281E080937205A99BFECF1B
:103E300080917205882309F4BEC238988FEF85BB44
:103E400087B58E5B87BD81E080937205A99BFECF0D
:103E500038988FEF85BB87B58E5B87BDA99BFECF5A
:103E600080917205882309F4A8C238988FEF85BB2A
:103E700087B58E5B87BD15BC80916005909161050B
:103E80000E94070F10926605809157058111CEC1DF
:103E900080916605882309F4C9C115BC16BC83B599
:103EA000816083BD81E085BD82E487BD85E5809327
:103EB00073051092700510927205A99BFECF389A77
:103EC0008FEF85BB87B58E5B87BD30E020E0E1E0FA
:103ED000F0E06FEF80917305AF01022E01C0440F37
:103EE0000A94EAF7842380937205882329F090913D
:103EF00070059F5F90937005A99BFECF882309F4FE
:103F00005EC2389865BB87B58E5B87BD2F5F3F4F1C
:103F100028303105F9F68091700580FF52C2109269
:103F20007205A99BFECF80917205882309F44DC2CA
:103F300038988FEF85BB87B58E5B87BD81E0809316
:103F40007205A99BFECF38988FEF85BB87B58E5B36
:103F500087BDA99BFECF80917205882309F437C2E3
:103F600038988FEF85BB87B58E5B87BD1092720541
:103F70008CE090E03FEFA99BFECF209172052223B9
:103F800009F427C2389835BB27B52E5B27BD0197AA
:103F900091F781E080937205A99BFECF38988FEF4F
:103FA00085BB87B58E5B87BDA99BFECF80917205CF
:103FB000882309F410C238988FEF85BB87B58E5BD4
:103FC00087BD15BC16BC83B5816083BD81E085BD0E
:103FD00082E487BD85E58093730510927005109289
:103FE0007205A99BFECF389A8FEF85BB87B58E5B94
:103FF00087BD30E020E0E1E0F0E06FEF80917305F5
:10400000AF01022E01C0440F0A94EAF78423809383
:104010007205882329F0909170059F5F9093700539
:10402000A99BFECF882309F4D8C1389865BB87B512
:104030008E5B87BD2F5F3F4F28303105F9F68091A9
:10404000700580FFCCC181E080937205A99BFECFF3
:1040500080917205882309F4C5C138988FEF85BB1C
:1040600087B58E5B87BD81E080937205A99BFECFEB
:1040700038988FEF85BB87B58E5B87BDA99BFECF38
:1040800080917205882309F4AFC138988FEF85BB02
:1040900087B58E5B87BD89EC8093730510927005A0
:1040A00010927205A99BFECF389A8FEF85BB87B51A
:1040B0008E5B87BD30E020E0E1E0F0E06FEF8091C3
:1040C0007305AF01022E01C0440F0A94EAF784235E
:1040D00080937205882329F0909170059F5F9093DB
:1040E0007005A99BFECF882309F480C1389865BB71
:1040F00087B58E5B87BD2F5F3F4F28303105F9F6BE
:104100008091700580FF74C181E080937205A99B46
:10411000FECF80917205882309F46DC138988FEF26
:1041200085BB87B58E5B87BD81E080937205A99BB7
:10413000FECF38988FEF85BB87B58E5B87BDA99B77
:10414000FECF80917205882309F457C138988FEF0C
:1041500085BB87B58E5B87BD81E080937305109228
:10416000700510927205A99BFECF389A8FEF85BB20
:1041700087B58E5B87BD30E020E0E1E0F0E06FEFD7
:1041800080917305AF01022E01C0440F0A94EAF733
:10419000842380937205882329F0909170059F5F96
:1041A00090937005A99BFECF882309F428C1389805
:1041B00065BB87B58E5B87BD2F5F3F4F28303105CC
:1041C000F9F68091700580FF1CC181E08093720533
:1041D000A99BFECF80917205882309F415C13898F8
:1041E0008FEF85BB87B58E5B87BD81E080937205BD
:1041F000A99BFECF38988FEF85BB87B58E5B87BDB7
:10420000A99BFECF80917205882309F4FFC03898DE
:104210008FEF85BB87B58E5B87BD15BC8091600530
:10422000909161050E94070F109266058FE393E05D
:104230000E945A000E947E0080916C0590916D054D
:10424000892B31F480E090E490936D0580936C05A8
:1042500081E693E00E945A000E947E00D82F8033AE
:1042600009F030C110926B0510926A05E0906C0560
:10427000F0906D058EE793E00E945A000E947E0048
:10428000182F80E880938500109284008FEF86BB02
:1042900084E080938100B09BFECFB09A10928100A1
:1042A00081E090E00E946F00882321F08091C60099
:1042B000D12F182F85E090E00E946F00813009F027
:1042C000A7C08091C600F6CF389AACC881E0809331
:1042D0007205B7C8389ABDC8389AD3C8389AE3C8A7
:1042E000389AFAC8389A32C9109272053FC9389A7A
:1042F00045C9389A5BC9389A8AC91092720597C91C
:10430000389A9DC9389AB3C9389AE2C91092720591
:10431000EFC9389AF5C9389A0BCA389A4ECA81E063
:104320008093720559CA389A5FCA389A75CA389A02
:1043300085CA389A9CCA389AD4CA10927205E1CAC2
:10434000389AE7CA389AFDCA389A2CCB109272056F
:1043500039CB389A3FCB389A55CB389A84CB1092C8
:10436000720591CB389A97CB389AADCB389AF8CB67
:1043700081E08093720503CC389A09CC389A1FCC1F
:10438000389A2FCC389A46CC389A7ECC1092720547
:104390008BCC389A91CC389AA7CC389AD6CC10923C
:1043A0007205E3CC389AE9CC389AFFCC389A2ECDF6
:1043B000109272053BCD389A41CD389A57CD389A34
:1043C000A1CD81E080937205ACCD389AB2CD389AF8
:1043D000C8CD389AD8CD389AEFCD389A27CE1092DA
:1043E000720534CE389A3ACE389A50CE389A7FCE6B
:1043F000109272058CCE389A92CE389AA8CE389AFE
:10440000D7CE10927205E4CE389AEACE389A00CF11
:1044100086EC8D0F873008F407C1C0EDCD0FC73192
:1044200008F002C186EC810F873008F4FDC080EDF2
:10443000810F873108F0F8C0C13110F0C9ECCD0F01
:1044400050E1C502E0011124813110F089EC810FA7
:10445000C80FD11D87FDDA95BE0180E10E949F0E35
:1044600083E091E00E945A0088248394912C00E01C
:1044700010E8712C612C45E0442E512C540191E040
:10448000A91AB108E114F10409F0D1C00E94F60E96
:104490008FE893E00E945A0060916C0570916D0561
:1044A0008AE00E949F0E82EA93E00E945A00609187
:1044B0006A0570916B058AE00E949F0E89EA93E07D
:1044C0000E945A0082EB93E00E945A00CFE7D2E1AB
:1044D0002196CE01835892410297D0F385E590E072
:1044E0000E94211684E090E00E942116CE010E94D5
:1044F000211682E190E00E9421160E949B00682F05
:1045000070E080E10E949F0EC53882E1D80719F45F
:1045100089E00E9453006EEC83E00E949300C8384B
:1045200092E1D907A9F687EE93E00E945A000E9413
:104530007E00893709F08DC384E580939905109238
:104540001C0683E080931B06109297051092960537
:1045500080E3809398051092710510921A068FE0FF
:1045600094E00E945A00EFE3FCE93197F1F700C0B4
:10457000000081E08093C50080EA8093C4000E941F
:104580007E008237E1F78CE394E00E945A0080912C
:10459000C10080688093C100789481E080931E06FA
:1045A00060EB7CE382E00E94850080E09CE10E9459
:1045B000AA09C0E0E12C2CE1F22E0E949F07E091B5
:1045C0007105F0E0EE0FFF1FE656FA4F11821082E0
:1045D00087010F5F1F4FCF5F80911B06833029F04B
:1045E00080911B06815080931B06C03241F4C701A5
:1045F0004F970E94070FC8010E94AA09C0E080914E
:104600001B0678018111D9CFF8948091C1008F7772
:104610008093C1008AE090E00E946F00813009F031
:1046200086C08091C600F6CFD0E0C0E015CF68010B
:10463000E0E8CE0ED11CC8010E942D031C0190930E
:104640006905809368050E5F1F4F0115F0E21F0793
:1046500009F41CCF019609F0D6C30C151D0559F7B6
:1046600015CFB2010E943B27892B19F48AE20E94E0
:10467000530080916A0590916B05019690936B05AC
:1046800080936A05670181E0C81AD10898E0E91AA9
:10469000F10862EB87E00E94FA0EC8010E942D0328
:1046A0009C0190936905809368050E5F1F4F0196EA
:1046B00019F1F1E0CF1AD108209751F0C501BE01E0
:1046C0000E943B27892B21F4B90180E10E949F0EB3
:1046D00080916A0590916B05019690936B0580938C
:1046E0006A05011540E2140709F4ADC3CE14DF04D6
:1046F00081F6209719F416C0209779F0C501BE0104
:104700000E943B27892B49F4C30187709927892B85
:1047100021F488E891E00E945A00011550E2150743
:1047200009F4B4CE8FEF881A980A7601A7CE15BC8B
:1047300016BC83B5816083BD81E085BD82E487BD01
:1047400085E5809373051092700510927205A99B00
:10475000FECF389A8FEF85BB87B58E5B87BD30E083
:1047600020E0E1E0F0E06FEF80917305AF01022EF1
:1047700001C0440F0A94EAF78423809372058823CA
:1047800029F0909170059F5F90937005A99BFECFD3
:10479000882309F409C2389865BB87B58E5B87BD4D
:1047A0002F5F3F4F28303105F9F68091700580FF6B
:1047B000FDC110927205A99BFECF809172058823DE
:1047C00009F4F8C138988FEF85BB87B58E5B87BD3C
:1047D00081E080937205A99BFECF38988FEF85BB4F
:1047E00087B58E5B87BDA99BFECF8091720588231C
:1047F00009F4E2C138988FEF85BB87B58E5B87BD22
:10480000109272058CE090E03FEFA99BFECF2091C3
:104810007205222309F4D2C1389835BB27B52E5B27
:1048200027BD019791F781E080937205A99BFECF88
:1048300038988FEF85BB87B58E5B87BDA99BFECF70
:1048400080917205882309F4BBC138988FEF85BB2E
:1048500087B58E5B87BD15BC16BC83B5816083BDF3
:1048600081E085BD82E487BD85E580937305109264
:10487000700510927205A99BFECF389A8FEF85BB09
:1048800087B58E5B87BD30E020E0E1E0F0E06FEFC0
:1048900080917305AF01022E01C0440F0A94EAF71C
:1048A000842380937205882329F0909170059F5F7F
:1048B00090937005A99BFECF882309F483C1389893
:1048C00065BB87B58E5B87BD2F5F3F4F28303105B5
:1048D000F9F68091700580FF77C181E080937205C1
:1048E000A99BFECF80917205882309F470C1389886
:1048F0008FEF85BB87B58E5B87BD81E080937205A6
:10490000A99BFECF38988FEF85BB87B58E5B87BD9F
:10491000A99BFECF80917205882309F45AC138986B
:104920008FEF85BB87B58E5B87BD89EC8093730560
:104930001092700510927205A99BFECF389A8FEFE6
:1049400085BB87B58E5B87BD30E020E0E1E0F0E01D
:104950006FEF80917305AF01022E01C0440F0A94DE
:10496000EAF7842380937205882329F090917005DB
:104970009F5F90937005A99BFECF882309F42BC1FC
:10498000389865BB87B58E5B87BD2F5F3F4F28305A
:104990003105F9F68091700580FF1FC181E0809399
:1049A0007205A99BFECF80917205882309F418C176
:1049B00038988FEF85BB87B58E5B87BD81E080938C
:1049C0007205A99BFECF38988FEF85BB87B58E5BAC
:1049D00087BDA99BFECF80917205882309F402C18F
:1049E00038988FEF85BB87B58E5B87BD81E080935C
:1049F00073051092700510927205A99BFECF389A2C
:104A00008FEF85BB87B58E5B87BD30E020E0E1E0AE
:104A1000F0E06FEF80917305AF01022E01C0440FEB
:104A20000A94EAF7842380937205882329F09091F1
:104A300070059F5F90937005A99BFECF882309F4B2
:104A4000D3C0389865BB87B58E5B87BD2F5F3F4F5E
:104A500028303105F9F68091700580FFC7C081E0EC
:104A600080937205A99BFECF80917205882309F47B
:104A7000C0C038988FEF85BB87B58E5B87BD81E05E
:104A800080937205A99BFECF38988FEF85BB87B5C1
:104A90008E5B87BDA99BFECF80917205882309F4A8
:104AA000AAC038988FEF85BB87B58E5B87BD15BCD4
:104AB000CC2329F0C8018C1B91090E94070F80911B
:104AC0006E0590916F05019790936F0580936E0529
:104AD00087E494E00E945A0060E070E2601B710B72
:104AE000660F771F8AE00E949F0E8DE594E00E947A
:104AF0005A0086E694E00E945A008FE39CE90197F1
:104B0000F1F700C0000084E48093C4001092C50057
:104B10000E947E008237E1F785E994E00E945A0006
:104B200060E078EB80E10E949F0E0E94F60E61E04B
:104B300070E080E10E949F0E89E00E945300C0E077
:104B4000D2E000E018EBC8010E942D03F82E9FEF81
:104B5000F91609F47EC064E687E00E94FA0EC801E7
:104B60000E942D03E92EFF2009F44BC0CF5FE0E245
:104B7000FE1243C0CB3508F440C083EE93E00E94A0
:104B80005A00C0E0EE2009F452C0CF5FF0E2EF120D
:104B90004AC0CB3508F447C083EE93E00E945A0028
:104BA000C0E00E5F1F4FCFCF389AF6CD81E08093E3
:104BB000720501CE389A07CE389A1DCE389A2DCE7E
:104BC000389A44CE389A7CCE1092720589CE389AA3
:104BD0008FCE389AA5CE389AD4CE10927205E1CEF7
:104BE000389AE7CE389AFDCE389A2CCF10927205BB
:104BF00039CF389A3FCF389A55CF8F2D0E94530026
:104C0000C1CF0E94F60E0E94F60EFF24F394FD0E13
:104C10006D2F70E08AE00E949F0E89E00E94530091
:104C2000C0E0DF2DAFCF8E2D0E945300BACF0E947F
:104C3000F60E0E94F60EFF24F394FD0E6D2F70E029
:104C40008AE00E949F0E89E00E945300C0E0DF2DA1
:104C5000A8CF87EA94E00E945A0065EC8AE892E1C6
:104C60000E9492168CEB94E00E945A000E947E00F3
:104C7000893709F0B5C060E08AE892E10E94921697
:104C800088ED94E00E945A006EEC83E00E9493004D
:104C900085E590E00E94211688EC90E00E942116A4
:104CA00089E590E00E9421166EEC83E00E9493005B
:104CB00085E590E00E94211688EC90E00E94211684
:104CC00090E080E00E9421166EEC83E00E94930049
:104CD0008EEF94E00E945A0085E590E00E94211634
:104CE00083EC90E00E94211687EE90E00E9421164E
:104CF00084E195E00E945A000E947E00893709F005
:104D000077C03C9A449AC1E0D0E011E0359B04C0E2
:104D10008091C00087FFFACF359931C01092750598
:104D20008FEC90E00197F1F700C0000090E080E088
:104D3000EFE9F1E03197F1F700C00000359B53C077
:104D40001093740520917405222359F02091750564
:104D5000AE01082E01C0440F0A94EAF7242B2093D9
:104D6000750501968830910519F78FE991E0019753
:104D7000F1F700C00000809175050E9453008091FA
:104D8000C00087FFC3CF8091C6008093730544980D
:104D9000EFE9F1E03197F1F700C0000090E080E02A
:104DA00020917305AE01082E01C0440F0A94EAF762
:104DB0002423209372052223C9F0449AEFE9F1E0FD
:104DC0003197F1F700C0000001968830910541F756
:104DD000449A8FE991E00197F1F700C0000096CF67
:104DE0008AEE94E04FCF10927405ACCF4498E6CF92
:104DF00088E199E00FB6F894A895809360000FBE03
:104E000090936000FFCFC501209709F42ACCBE0122
:104E10000E943B27892B09F02CCC80EB93E00E9469
:104E20005A00B8016250704880E10E949F0E85E0F0
:104E300091E00E945A005FEF651A750AB10180E1A6
:104E40000E949F0E16CC209709F058CC1FCBAA1BAE
:104E5000BB1B51E107C0AA1FBB1FA617B70710F065
:104E6000A61BB70B881F991F5A95A9F78095909597
:104E7000BC01CD01089597FB072E16F4009407D0CE
:104E800077FD09D00E94272707FC05D03EF49095B6
:104E900081959F4F0895709561957F4F0895EE0F0E
:0E4EA000FF1F0590F491E02D0994F894FFCFC8
:104EAE00523F20202020000D0A5072657373202778
:104EBE00612720746F2070726F6772616D2074614C
:104ECE0072676574206F7220414F4B20746F207291
:104EDE00756E20746167657420636F64650D0A00DA
:104EEE000D0A554E4F5F555044495F50726F6772B1
:104EFE00616D65725F5631612028616C736F20772A
:104F0E006F726B73206F6E20616E2041746D6567DA
:104F1E00612033323820636C6F636B65642061747B
:104F2E0020384D487A290D0A0D0A005072657373A8
:104F3E0020616E79206B657920746F2073746172B5
:104F4E00740D0A0D0A00446576696365206E6F74F0
:104F5E002064657465637465640D0A00506F77652F
:104F6E0072204379636C6520526571756972656450
:104F7E000D0A000D0A496E697469616C6973696E78
:104F8E0067204E564D2070726F6772616D6D696E3F
:104F9E0067000D0A457261736520636869703F2072
:104FAE002D792D206F7220414F4B00094572617390
:104FBE00696E6720636869700D0A00307834453574
:104FCE0036344434353732363137333635000D0A00
:104FDE0043686970206572617365206661696C65EE
:104FEE0064000D0A4661696C7572653A20446576F7
:104FFE00696365207374696C6C206C6F636B656498
:10500E0009000D0A44657669636520756E6C6F63E1
:10501E006B6564090909000943686970206E6F7435
:10502E00206572617365640D0A003078344535363B
:10503E00344435303732364636373230004E564DE0
:10504E0050524F47206661696C7572653A200900AF
:10505E000D0A504F5220746F2070726F6365656435
:10506E002100526561647920666F72204E564D2084
:10507E0070726F6772616D6D696E6709000D0A530C
:10508E0069676E61747572652062797465207265E8
:10509E0061646F757409090050726F6772616D6D8E
:1050AE00696E672066757365730D0A000D0A50727E
:1050BE006F6772616D20666C6173682077697468C2
:1050CE00206865783F202D792D206F7220414F4B3F
:1050DE00000D0A53656E642066696C652020000D14
:1050EE000A566572696679696E6720666C617368C7
:1050FE003A20414B20746F20636F6E74696E756534
:10510E00000D0A50726573732030206F7220414F6C
:10511E004B20746F206573636170650D0A00496ED4
:10512E00746567657228302D4646293F2020000D94
:10513E000A4865785F66696C655F73697A653A20BF
:10514E00200020696E3A202000206F75740D0A0031
:10515E000D000D0A46757365733A095744542C2099
:10516E00424F442C204F53432C535953300953591B
:10517E0053312C20415050454E442C20424F4F5419
:10518E00454E440D0A09000D0A0D0A50726F6772E2
:10519E00616D20666C617368207769746820746530
:1051AE0078743F202D792D206F7220414F4B000DCA
:1051BE000A5265647563652062617564207261745C
:1051CE006520746F20342E386B4220616E6420701F
:1051DE0072657373202772272E0D0A0053656E6455
:1051EE002066696C652E000D0A556E757365642018
:1051FE006461746120617265613A202000206279D9
:10520E007465730D0A000D0A526573746F72652012
:10521E0062617564207261746520746F2032382E5D
:10522E00386B4220616E6420707265737320277232
:10523E00272E0D0A000D0A5374617274206F6620BA
:10524E00666C61736820000D0A0D0A556E6C6F63F3
:10525E006B696E6720646576696365000D0A2D794A
:10526E002D20746F204C6F636B20646576696365C7
:10527E00206F7220414F4B000D0A446576696365BD
:10528E00206C6F636B65640D0A000D0A44657669C8
:10529E00636520756E6C6F636B65640D0A005365F4
:1052AE0073696F6E207465726D696E617465640DDD
:1052BE000A0D0A000D0A52756E20747269616C2017
:1052CE006170706C69636174696F6E3F202D792D0A
:1052DE00206F7220414F4B2028504F52206D617924
:1052EE00206265207265717569726564290D0A0008
:00000001FF
