:100000000C943E000C9448000C9448000C9448005A
:100010000C9448000C9448000C9448000C94480040
:100020000C9448000C9448000C9448000C94480030
:100030000C9448000C9448000C9448000C94480020
:100040000C9448000C9448000C9448000C94480010
:100050000C9448000C9448000C9448000C94480000
:100060000C9448000C9448000C9448000C944800F0
:100070000C9448000C9448000C94480011241FBEB6
:10008000CFEFCDBFDFE3DEBF0E94BF000C943D0188
:100090000C940000E0E2F4E08081877F808380811F
:1000A00084608083E0E0F8E087EE90E080879187CD
:1000B0008681806486838681806886830895E0E0F7
:1000C000F8E0948195FFFDCF809302080895EF92A8
:1000D000FF920F931F93CF93DF938C017C01C0E0BD
:1000E000D0E006C0F70181917F010E945F00219658
:1000F000F80101900020E9F73197E01BF10BCE17D2
:10010000DF0780F3DF91CF911F910F91FF90EF9068
:100110000895AC0120E030E0E0E0F8E00DC02F5F92
:100120003F4F213A8FE0380724F04150510920E039
:1001300030E04115510529F09481992384F781E03D
:10014000089580E00895E0E0F8E084818823ECF7EA
:10015000809100080895E0E0FAE010A211A266A3E1
:1001600077A3880F8F5F8083EBE0FAE0808180FFC8
:10017000FDCFE0E0FAE081E08387108208950E94DD
:100180004A00C0E0D8E08EE792E80E94670080E570
:1001900090E00E9489008823B1F388818F7D8235A9
:1001A00091F785E892E80E946700E0E0F8E084813A
:1001B0008823ECF780818337D1F76AEB75E685E019
:1001C0000E94AB008DE992E80E9467000E94A300A4
:1001D0008233B1F028F48E32D9F1813339F042C044
:1001E000843311F1B8F0853349F13CC081EC92E8D9
:1001F0000E94670068E574E185E00E94AB0038C0AA
:100200008EEC92E80E9467006AEB75E685E00E943A
:10021000AB002EC08BED92E80E94670063E77BEC99
:1002200085E00E94AB0024C086EE92E80E94670041
:1002300060E57EEF86E00E94AB001AC081EF92E895
:100240000E94670068E27FE787E00E94AB0010C071
:100250008CEF92E80E94670088ED84BF83E0809372
:100260000001FFCF88ED84BF83E080930001FFCFC2
:0E02700080E093E80E946700A9CFF894FFCFCA
:10027E00523F20202020000D0A50726573732073A8
:10028E0020746F20636F6E74696E75650D0A005071
:10029E007265737320312C322C332C34206F722004
:1002AE0035206F7220414F4B20746F206578697432
:1002BE000D0A003130306D53207061757365090081
:1002CE003530306D532070617573650900315320E0
:1002DE00706175736509090035532070617573651A
:1002EE0009090031305320706175736509003F0DA7
:1002FE000A0041424344456162636465666768690A
:10030E006A6B6C464748494A4B4C4D4E4F505152C2
:10031E005354554142434445616263646566676860
:10032E00696A6B6C464748494A4B4C4D4E0D0A0064
:00000001FF
